{
	"PCD/contractS/Magasin.sol": {
		"Magasin": {
			"abi": [
				{
					"inputs": [
						{
							"internalType": "string",
							"name": "_name",
							"type": "string"
						},
						{
							"internalType": "address",
							"name": "sharedStateAddress",
							"type": "address"
						}
					],
					"stateMutability": "nonpayable",
					"type": "constructor"
				},
				{
					"inputs": [
						{
							"internalType": "uint256",
							"name": "id_client",
							"type": "uint256"
						},
						{
							"internalType": "uint256",
							"name": "initial_balance",
							"type": "uint256"
						}
					],
					"name": "createCard",
					"outputs": [
						{
							"internalType": "bool",
							"name": "",
							"type": "bool"
						}
					],
					"stateMutability": "nonpayable",
					"type": "function"
				},
				{
					"inputs": [
						{
							"internalType": "uint256",
							"name": "client_id",
							"type": "uint256"
						}
					],
					"name": "deleteCard",
					"outputs": [
						{
							"internalType": "bool",
							"name": "",
							"type": "bool"
						}
					],
					"stateMutability": "nonpayable",
					"type": "function"
				},
				{
					"inputs": [],
					"name": "name",
					"outputs": [
						{
							"internalType": "string",
							"name": "",
							"type": "string"
						}
					],
					"stateMutability": "view",
					"type": "function"
				}
			],
			"devdoc": {
				"kind": "dev",
				"methods": {},
				"version": 1
			},
			"evm": {
				"assembly": "    /* \"PCD/contractS/Magasin.sol\":142:1270  contract Magasin {... */\n  mstore(0x40, 0x80)\n    /* \"PCD/contractS/Magasin.sol\":224:372  constructor (string memory _name, address sharedStateAddress) {... */\n  callvalue\n  dup1\n  iszero\n  tag_1\n  jumpi\n  0x00\n  dup1\n  revert\ntag_1:\n  pop\n  mload(0x40)\n  sub(codesize, bytecodeSize)\n  dup1\n  bytecodeSize\n  dup4\n  codecopy\n  dup2\n  dup2\n  add\n  0x40\n  mstore\n  dup2\n  add\n  swap1\n  tag_2\n  swap2\n  swap1\n  tag_3\n  jump\t// in\ntag_2:\n    /* \"PCD/contractS/Magasin.sol\":303:308  _name */\n  dup2\n    /* \"PCD/contractS/Magasin.sol\":297:301  name */\n  0x00\n    /* \"PCD/contractS/Magasin.sol\":297:308  name= _name */\n  swap1\n  dup2\n  tag_6\n  swap2\n  swap1\n  tag_7\n  jump\t// in\ntag_6:\n  pop\n    /* \"PCD/contractS/Magasin.sol\":345:363  sharedStateAddress */\n  dup1\n    /* \"PCD/contractS/Magasin.sol\":319:330  sharedstate */\n  0x01\n  0x00\n    /* \"PCD/contractS/Magasin.sol\":319:364  sharedstate = SharedState(sharedStateAddress) */\n  0x0100\n  exp\n  dup2\n  sload\n  dup2\n  0xffffffffffffffffffffffffffffffffffffffff\n  mul\n  not\n  and\n  swap1\n  dup4\n  0xffffffffffffffffffffffffffffffffffffffff\n  and\n  mul\n  or\n  swap1\n  sstore\n  pop\n    /* \"PCD/contractS/Magasin.sol\":224:372  constructor (string memory _name, address sharedStateAddress) {... */\n  pop\n  pop\n    /* \"PCD/contractS/Magasin.sol\":142:1270  contract Magasin {... */\n  jump(tag_8)\n    /* \"#utility.yul\":7:82   */\ntag_9:\n    /* \"#utility.yul\":40:46   */\n  0x00\n    /* \"#utility.yul\":73:75   */\n  0x40\n    /* \"#utility.yul\":67:76   */\n  mload\n    /* \"#utility.yul\":57:76   */\n  swap1\n  pop\n    /* \"#utility.yul\":7:82   */\n  swap1\n  jump\t// out\n    /* \"#utility.yul\":88:205   */\ntag_10:\n    /* \"#utility.yul\":197:198   */\n  0x00\n    /* \"#utility.yul\":194:195   */\n  dup1\n    /* \"#utility.yul\":187:199   */\n  revert\n    /* \"#utility.yul\":211:328   */\ntag_11:\n    /* \"#utility.yul\":320:321   */\n  0x00\n    /* \"#utility.yul\":317:318   */\n  dup1\n    /* \"#utility.yul\":310:322   */\n  revert\n    /* \"#utility.yul\":334:451   */\ntag_12:\n    /* \"#utility.yul\":443:444   */\n  0x00\n    /* \"#utility.yul\":440:441   */\n  dup1\n    /* \"#utility.yul\":433:445   */\n  revert\n    /* \"#utility.yul\":457:574   */\ntag_13:\n    /* \"#utility.yul\":566:567   */\n  0x00\n    /* \"#utility.yul\":563:564   */\n  dup1\n    /* \"#utility.yul\":556:568   */\n  revert\n    /* \"#utility.yul\":580:682   */\ntag_14:\n    /* \"#utility.yul\":621:627   */\n  0x00\n    /* \"#utility.yul\":672:674   */\n  0x1f\n    /* \"#utility.yul\":668:675   */\n  not\n    /* \"#utility.yul\":663:665   */\n  0x1f\n    /* \"#utility.yul\":656:661   */\n  dup4\n    /* \"#utility.yul\":652:666   */\n  add\n    /* \"#utility.yul\":648:676   */\n  and\n    /* \"#utility.yul\":638:676   */\n  swap1\n  pop\n    /* \"#utility.yul\":580:682   */\n  swap2\n  swap1\n  pop\n  jump\t// out\n    /* \"#utility.yul\":688:868   */\ntag_15:\n    /* \"#utility.yul\":736:813   */\n  0x4e487b7100000000000000000000000000000000000000000000000000000000\n    /* \"#utility.yul\":733:734   */\n  0x00\n    /* \"#utility.yul\":726:814   */\n  mstore\n    /* \"#utility.yul\":833:837   */\n  0x41\n    /* \"#utility.yul\":830:831   */\n  0x04\n    /* \"#utility.yul\":823:838   */\n  mstore\n    /* \"#utility.yul\":857:861   */\n  0x24\n    /* \"#utility.yul\":854:855   */\n  0x00\n    /* \"#utility.yul\":847:862   */\n  revert\n    /* \"#utility.yul\":874:1155   */\ntag_16:\n    /* \"#utility.yul\":957:984   */\n  tag_54\n    /* \"#utility.yul\":979:983   */\n  dup3\n    /* \"#utility.yul\":957:984   */\n  tag_14\n  jump\t// in\ntag_54:\n    /* \"#utility.yul\":949:955   */\n  dup2\n    /* \"#utility.yul\":945:985   */\n  add\n    /* \"#utility.yul\":1087:1093   */\n  dup2\n    /* \"#utility.yul\":1075:1085   */\n  dup2\n    /* \"#utility.yul\":1072:1094   */\n  lt\n    /* \"#utility.yul\":1051:1069   */\n  0xffffffffffffffff\n    /* \"#utility.yul\":1039:1049   */\n  dup3\n    /* \"#utility.yul\":1036:1070   */\n  gt\n    /* \"#utility.yul\":1033:1095   */\n  or\n    /* \"#utility.yul\":1030:1118   */\n  iszero\n  tag_55\n  jumpi\n    /* \"#utility.yul\":1098:1116   */\n  tag_56\n  tag_15\n  jump\t// in\ntag_56:\n    /* \"#utility.yul\":1030:1118   */\ntag_55:\n    /* \"#utility.yul\":1138:1148   */\n  dup1\n    /* \"#utility.yul\":1134:1136   */\n  0x40\n    /* \"#utility.yul\":1127:1149   */\n  mstore\n    /* \"#utility.yul\":917:1155   */\n  pop\n    /* \"#utility.yul\":874:1155   */\n  pop\n  pop\n  jump\t// out\n    /* \"#utility.yul\":1161:1290   */\ntag_17:\n    /* \"#utility.yul\":1195:1201   */\n  0x00\n    /* \"#utility.yul\":1222:1242   */\n  tag_58\n  tag_9\n  jump\t// in\ntag_58:\n    /* \"#utility.yul\":1212:1242   */\n  swap1\n  pop\n    /* \"#utility.yul\":1251:1284   */\n  tag_59\n    /* \"#utility.yul\":1279:1283   */\n  dup3\n    /* \"#utility.yul\":1271:1277   */\n  dup3\n    /* \"#utility.yul\":1251:1284   */\n  tag_16\n  jump\t// in\ntag_59:\n    /* \"#utility.yul\":1161:1290   */\n  swap2\n  swap1\n  pop\n  jump\t// out\n    /* \"#utility.yul\":1296:1604   */\ntag_18:\n    /* \"#utility.yul\":1358:1362   */\n  0x00\n    /* \"#utility.yul\":1448:1466   */\n  0xffffffffffffffff\n    /* \"#utility.yul\":1440:1446   */\n  dup3\n    /* \"#utility.yul\":1437:1467   */\n  gt\n    /* \"#utility.yul\":1434:1490   */\n  iszero\n  tag_61\n  jumpi\n    /* \"#utility.yul\":1470:1488   */\n  tag_62\n  tag_15\n  jump\t// in\ntag_62:\n    /* \"#utility.yul\":1434:1490   */\ntag_61:\n    /* \"#utility.yul\":1508:1537   */\n  tag_63\n    /* \"#utility.yul\":1530:1536   */\n  dup3\n    /* \"#utility.yul\":1508:1537   */\n  tag_14\n  jump\t// in\ntag_63:\n    /* \"#utility.yul\":1500:1537   */\n  swap1\n  pop\n    /* \"#utility.yul\":1592:1596   */\n  0x20\n    /* \"#utility.yul\":1586:1590   */\n  dup2\n    /* \"#utility.yul\":1582:1597   */\n  add\n    /* \"#utility.yul\":1574:1597   */\n  swap1\n  pop\n    /* \"#utility.yul\":1296:1604   */\n  swap2\n  swap1\n  pop\n  jump\t// out\n    /* \"#utility.yul\":1610:1749   */\ntag_19:\n    /* \"#utility.yul\":1699:1705   */\n  dup3\n    /* \"#utility.yul\":1694:1697   */\n  dup2\n    /* \"#utility.yul\":1689:1692   */\n  dup4\n    /* \"#utility.yul\":1683:1706   */\n  mcopy\n    /* \"#utility.yul\":1740:1741   */\n  0x00\n    /* \"#utility.yul\":1731:1737   */\n  dup4\n    /* \"#utility.yul\":1726:1729   */\n  dup4\n    /* \"#utility.yul\":1722:1738   */\n  add\n    /* \"#utility.yul\":1715:1742   */\n  mstore\n    /* \"#utility.yul\":1610:1749   */\n  pop\n  pop\n  pop\n  jump\t// out\n    /* \"#utility.yul\":1755:2189   */\ntag_20:\n    /* \"#utility.yul\":1844:1849   */\n  0x00\n    /* \"#utility.yul\":1869:1935   */\n  tag_66\n    /* \"#utility.yul\":1885:1934   */\n  tag_67\n    /* \"#utility.yul\":1927:1933   */\n  dup5\n    /* \"#utility.yul\":1885:1934   */\n  tag_18\n  jump\t// in\ntag_67:\n    /* \"#utility.yul\":1869:1935   */\n  tag_17\n  jump\t// in\ntag_66:\n    /* \"#utility.yul\":1860:1935   */\n  swap1\n  pop\n    /* \"#utility.yul\":1958:1964   */\n  dup3\n    /* \"#utility.yul\":1951:1956   */\n  dup2\n    /* \"#utility.yul\":1944:1965   */\n  mstore\n    /* \"#utility.yul\":1996:2000   */\n  0x20\n    /* \"#utility.yul\":1989:1994   */\n  dup2\n    /* \"#utility.yul\":1985:2001   */\n  add\n    /* \"#utility.yul\":2034:2037   */\n  dup5\n    /* \"#utility.yul\":2025:2031   */\n  dup5\n    /* \"#utility.yul\":2020:2023   */\n  dup5\n    /* \"#utility.yul\":2016:2032   */\n  add\n    /* \"#utility.yul\":2013:2038   */\n  gt\n    /* \"#utility.yul\":2010:2122   */\n  iszero\n  tag_68\n  jumpi\n    /* \"#utility.yul\":2041:2120   */\n  tag_69\n  tag_13\n  jump\t// in\ntag_69:\n    /* \"#utility.yul\":2010:2122   */\ntag_68:\n    /* \"#utility.yul\":2131:2183   */\n  tag_70\n    /* \"#utility.yul\":2176:2182   */\n  dup5\n    /* \"#utility.yul\":2171:2174   */\n  dup3\n    /* \"#utility.yul\":2166:2169   */\n  dup6\n    /* \"#utility.yul\":2131:2183   */\n  tag_19\n  jump\t// in\ntag_70:\n    /* \"#utility.yul\":1850:2189   */\n  pop\n    /* \"#utility.yul\":1755:2189   */\n  swap4\n  swap3\n  pop\n  pop\n  pop\n  jump\t// out\n    /* \"#utility.yul\":2209:2564   */\ntag_21:\n    /* \"#utility.yul\":2276:2281   */\n  0x00\n    /* \"#utility.yul\":2325:2328   */\n  dup3\n    /* \"#utility.yul\":2318:2322   */\n  0x1f\n    /* \"#utility.yul\":2310:2316   */\n  dup4\n    /* \"#utility.yul\":2306:2323   */\n  add\n    /* \"#utility.yul\":2302:2329   */\n  slt\n    /* \"#utility.yul\":2292:2414   */\n  tag_72\n  jumpi\n    /* \"#utility.yul\":2333:2412   */\n  tag_73\n  tag_12\n  jump\t// in\ntag_73:\n    /* \"#utility.yul\":2292:2414   */\ntag_72:\n    /* \"#utility.yul\":2443:2449   */\n  dup2\n    /* \"#utility.yul\":2437:2450   */\n  mload\n    /* \"#utility.yul\":2468:2558   */\n  tag_74\n    /* \"#utility.yul\":2554:2557   */\n  dup5\n    /* \"#utility.yul\":2546:2552   */\n  dup3\n    /* \"#utility.yul\":2539:2543   */\n  0x20\n    /* \"#utility.yul\":2531:2537   */\n  dup7\n    /* \"#utility.yul\":2527:2544   */\n  add\n    /* \"#utility.yul\":2468:2558   */\n  tag_20\n  jump\t// in\ntag_74:\n    /* \"#utility.yul\":2459:2558   */\n  swap2\n  pop\n    /* \"#utility.yul\":2282:2564   */\n  pop\n    /* \"#utility.yul\":2209:2564   */\n  swap3\n  swap2\n  pop\n  pop\n  jump\t// out\n    /* \"#utility.yul\":2570:2696   */\ntag_22:\n    /* \"#utility.yul\":2607:2614   */\n  0x00\n    /* \"#utility.yul\":2647:2689   */\n  0xffffffffffffffffffffffffffffffffffffffff\n    /* \"#utility.yul\":2640:2645   */\n  dup3\n    /* \"#utility.yul\":2636:2690   */\n  and\n    /* \"#utility.yul\":2625:2690   */\n  swap1\n  pop\n    /* \"#utility.yul\":2570:2696   */\n  swap2\n  swap1\n  pop\n  jump\t// out\n    /* \"#utility.yul\":2702:2798   */\ntag_23:\n    /* \"#utility.yul\":2739:2746   */\n  0x00\n    /* \"#utility.yul\":2768:2792   */\n  tag_77\n    /* \"#utility.yul\":2786:2791   */\n  dup3\n    /* \"#utility.yul\":2768:2792   */\n  tag_22\n  jump\t// in\ntag_77:\n    /* \"#utility.yul\":2757:2792   */\n  swap1\n  pop\n    /* \"#utility.yul\":2702:2798   */\n  swap2\n  swap1\n  pop\n  jump\t// out\n    /* \"#utility.yul\":2804:2926   */\ntag_24:\n    /* \"#utility.yul\":2877:2901   */\n  tag_79\n    /* \"#utility.yul\":2895:2900   */\n  dup2\n    /* \"#utility.yul\":2877:2901   */\n  tag_23\n  jump\t// in\ntag_79:\n    /* \"#utility.yul\":2870:2875   */\n  dup2\n    /* \"#utility.yul\":2867:2902   */\n  eq\n    /* \"#utility.yul\":2857:2920   */\n  tag_80\n  jumpi\n    /* \"#utility.yul\":2916:2917   */\n  0x00\n    /* \"#utility.yul\":2913:2914   */\n  dup1\n    /* \"#utility.yul\":2906:2918   */\n  revert\n    /* \"#utility.yul\":2857:2920   */\ntag_80:\n    /* \"#utility.yul\":2804:2926   */\n  pop\n  jump\t// out\n    /* \"#utility.yul\":2932:3075   */\ntag_25:\n    /* \"#utility.yul\":2989:2994   */\n  0x00\n    /* \"#utility.yul\":3020:3026   */\n  dup2\n    /* \"#utility.yul\":3014:3027   */\n  mload\n    /* \"#utility.yul\":3005:3027   */\n  swap1\n  pop\n    /* \"#utility.yul\":3036:3069   */\n  tag_82\n    /* \"#utility.yul\":3063:3068   */\n  dup2\n    /* \"#utility.yul\":3036:3069   */\n  tag_24\n  jump\t// in\ntag_82:\n    /* \"#utility.yul\":2932:3075   */\n  swap3\n  swap2\n  pop\n  pop\n  jump\t// out\n    /* \"#utility.yul\":3081:3761   */\ntag_3:\n    /* \"#utility.yul\":3170:3176   */\n  0x00\n    /* \"#utility.yul\":3178:3184   */\n  dup1\n    /* \"#utility.yul\":3227:3229   */\n  0x40\n    /* \"#utility.yul\":3215:3224   */\n  dup4\n    /* \"#utility.yul\":3206:3213   */\n  dup6\n    /* \"#utility.yul\":3202:3225   */\n  sub\n    /* \"#utility.yul\":3198:3230   */\n  slt\n    /* \"#utility.yul\":3195:3314   */\n  iszero\n  tag_84\n  jumpi\n    /* \"#utility.yul\":3233:3312   */\n  tag_85\n  tag_10\n  jump\t// in\ntag_85:\n    /* \"#utility.yul\":3195:3314   */\ntag_84:\n    /* \"#utility.yul\":3374:3375   */\n  0x00\n    /* \"#utility.yul\":3363:3372   */\n  dup4\n    /* \"#utility.yul\":3359:3376   */\n  add\n    /* \"#utility.yul\":3353:3377   */\n  mload\n    /* \"#utility.yul\":3404:3422   */\n  0xffffffffffffffff\n    /* \"#utility.yul\":3396:3402   */\n  dup2\n    /* \"#utility.yul\":3393:3423   */\n  gt\n    /* \"#utility.yul\":3390:3507   */\n  iszero\n  tag_86\n  jumpi\n    /* \"#utility.yul\":3426:3505   */\n  tag_87\n  tag_11\n  jump\t// in\ntag_87:\n    /* \"#utility.yul\":3390:3507   */\ntag_86:\n    /* \"#utility.yul\":3531:3605   */\n  tag_88\n    /* \"#utility.yul\":3597:3604   */\n  dup6\n    /* \"#utility.yul\":3588:3594   */\n  dup3\n    /* \"#utility.yul\":3577:3586   */\n  dup7\n    /* \"#utility.yul\":3573:3595   */\n  add\n    /* \"#utility.yul\":3531:3605   */\n  tag_21\n  jump\t// in\ntag_88:\n    /* \"#utility.yul\":3521:3605   */\n  swap3\n  pop\n    /* \"#utility.yul\":3324:3615   */\n  pop\n    /* \"#utility.yul\":3654:3656   */\n  0x20\n    /* \"#utility.yul\":3680:3744   */\n  tag_89\n    /* \"#utility.yul\":3736:3743   */\n  dup6\n    /* \"#utility.yul\":3727:3733   */\n  dup3\n    /* \"#utility.yul\":3716:3725   */\n  dup7\n    /* \"#utility.yul\":3712:3734   */\n  add\n    /* \"#utility.yul\":3680:3744   */\n  tag_25\n  jump\t// in\ntag_89:\n    /* \"#utility.yul\":3670:3744   */\n  swap2\n  pop\n    /* \"#utility.yul\":3625:3754   */\n  pop\n    /* \"#utility.yul\":3081:3761   */\n  swap3\n  pop\n  swap3\n  swap1\n  pop\n  jump\t// out\n    /* \"#utility.yul\":3767:3866   */\ntag_26:\n    /* \"#utility.yul\":3819:3825   */\n  0x00\n    /* \"#utility.yul\":3853:3858   */\n  dup2\n    /* \"#utility.yul\":3847:3859   */\n  mload\n    /* \"#utility.yul\":3837:3859   */\n  swap1\n  pop\n    /* \"#utility.yul\":3767:3866   */\n  swap2\n  swap1\n  pop\n  jump\t// out\n    /* \"#utility.yul\":3872:4052   */\ntag_27:\n    /* \"#utility.yul\":3920:3997   */\n  0x4e487b7100000000000000000000000000000000000000000000000000000000\n    /* \"#utility.yul\":3917:3918   */\n  0x00\n    /* \"#utility.yul\":3910:3998   */\n  mstore\n    /* \"#utility.yul\":4017:4021   */\n  0x22\n    /* \"#utility.yul\":4014:4015   */\n  0x04\n    /* \"#utility.yul\":4007:4022   */\n  mstore\n    /* \"#utility.yul\":4041:4045   */\n  0x24\n    /* \"#utility.yul\":4038:4039   */\n  0x00\n    /* \"#utility.yul\":4031:4046   */\n  revert\n    /* \"#utility.yul\":4058:4378   */\ntag_28:\n    /* \"#utility.yul\":4102:4108   */\n  0x00\n    /* \"#utility.yul\":4139:4140   */\n  0x02\n    /* \"#utility.yul\":4133:4137   */\n  dup3\n    /* \"#utility.yul\":4129:4141   */\n  div\n    /* \"#utility.yul\":4119:4141   */\n  swap1\n  pop\n    /* \"#utility.yul\":4186:4187   */\n  0x01\n    /* \"#utility.yul\":4180:4184   */\n  dup3\n    /* \"#utility.yul\":4176:4188   */\n  and\n    /* \"#utility.yul\":4207:4225   */\n  dup1\n    /* \"#utility.yul\":4197:4278   */\n  tag_93\n  jumpi\n    /* \"#utility.yul\":4263:4267   */\n  0x7f\n    /* \"#utility.yul\":4255:4261   */\n  dup3\n    /* \"#utility.yul\":4251:4268   */\n  and\n    /* \"#utility.yul\":4241:4268   */\n  swap2\n  pop\n    /* \"#utility.yul\":4197:4278   */\ntag_93:\n    /* \"#utility.yul\":4325:4327   */\n  0x20\n    /* \"#utility.yul\":4317:4323   */\n  dup3\n    /* \"#utility.yul\":4314:4328   */\n  lt\n    /* \"#utility.yul\":4294:4312   */\n  dup2\n    /* \"#utility.yul\":4291:4329   */\n  sub\n    /* \"#utility.yul\":4288:4372   */\n  tag_94\n  jumpi\n    /* \"#utility.yul\":4344:4362   */\n  tag_95\n  tag_27\n  jump\t// in\ntag_95:\n    /* \"#utility.yul\":4288:4372   */\ntag_94:\n    /* \"#utility.yul\":4109:4378   */\n  pop\n    /* \"#utility.yul\":4058:4378   */\n  swap2\n  swap1\n  pop\n  jump\t// out\n    /* \"#utility.yul\":4384:4525   */\ntag_29:\n    /* \"#utility.yul\":4433:4437   */\n  0x00\n    /* \"#utility.yul\":4456:4459   */\n  dup2\n    /* \"#utility.yul\":4448:4459   */\n  swap1\n  pop\n    /* \"#utility.yul\":4479:4482   */\n  dup2\n    /* \"#utility.yul\":4476:4477   */\n  0x00\n    /* \"#utility.yul\":4469:4483   */\n  mstore\n    /* \"#utility.yul\":4513:4517   */\n  0x20\n    /* \"#utility.yul\":4510:4511   */\n  0x00\n    /* \"#utility.yul\":4500:4518   */\n  keccak256\n    /* \"#utility.yul\":4492:4518   */\n  swap1\n  pop\n    /* \"#utility.yul\":4384:4525   */\n  swap2\n  swap1\n  pop\n  jump\t// out\n    /* \"#utility.yul\":4531:4624   */\ntag_30:\n    /* \"#utility.yul\":4568:4574   */\n  0x00\n    /* \"#utility.yul\":4615:4617   */\n  0x20\n    /* \"#utility.yul\":4610:4612   */\n  0x1f\n    /* \"#utility.yul\":4603:4608   */\n  dup4\n    /* \"#utility.yul\":4599:4613   */\n  add\n    /* \"#utility.yul\":4595:4618   */\n  div\n    /* \"#utility.yul\":4585:4618   */\n  swap1\n  pop\n    /* \"#utility.yul\":4531:4624   */\n  swap2\n  swap1\n  pop\n  jump\t// out\n    /* \"#utility.yul\":4630:4737   */\ntag_31:\n    /* \"#utility.yul\":4674:4682   */\n  0x00\n    /* \"#utility.yul\":4724:4729   */\n  dup3\n    /* \"#utility.yul\":4718:4722   */\n  dup3\n    /* \"#utility.yul\":4714:4730   */\n  shl\n    /* \"#utility.yul\":4693:4730   */\n  swap1\n  pop\n    /* \"#utility.yul\":4630:4737   */\n  swap3\n  swap2\n  pop\n  pop\n  jump\t// out\n    /* \"#utility.yul\":4743:5136   */\ntag_32:\n    /* \"#utility.yul\":4812:4818   */\n  0x00\n    /* \"#utility.yul\":4862:4863   */\n  0x08\n    /* \"#utility.yul\":4850:4860   */\n  dup4\n    /* \"#utility.yul\":4846:4864   */\n  mul\n    /* \"#utility.yul\":4885:4982   */\n  tag_100\n    /* \"#utility.yul\":4915:4981   */\n  0xffffffffffffffffffffffffffffffffffffffffffffffffffffffffffffffff\n    /* \"#utility.yul\":4904:4913   */\n  dup3\n    /* \"#utility.yul\":4885:4982   */\n  tag_31\n  jump\t// in\ntag_100:\n    /* \"#utility.yul\":5003:5042   */\n  tag_101\n    /* \"#utility.yul\":5033:5041   */\n  dup7\n    /* \"#utility.yul\":5022:5031   */\n  dup4\n    /* \"#utility.yul\":5003:5042   */\n  tag_31\n  jump\t// in\ntag_101:\n    /* \"#utility.yul\":4991:5042   */\n  swap6\n  pop\n    /* \"#utility.yul\":5075:5079   */\n  dup1\n    /* \"#utility.yul\":5071:5080   */\n  not\n    /* \"#utility.yul\":5064:5069   */\n  dup5\n    /* \"#utility.yul\":5060:5081   */\n  and\n    /* \"#utility.yul\":5051:5081   */\n  swap4\n  pop\n    /* \"#utility.yul\":5124:5128   */\n  dup1\n    /* \"#utility.yul\":5114:5122   */\n  dup7\n    /* \"#utility.yul\":5110:5129   */\n  and\n    /* \"#utility.yul\":5103:5108   */\n  dup5\n    /* \"#utility.yul\":5100:5130   */\n  or\n    /* \"#utility.yul\":5090:5130   */\n  swap3\n  pop\n    /* \"#utility.yul\":4819:5136   */\n  pop\n  pop\n    /* \"#utility.yul\":4743:5136   */\n  swap4\n  swap3\n  pop\n  pop\n  pop\n  jump\t// out\n    /* \"#utility.yul\":5142:5219   */\ntag_33:\n    /* \"#utility.yul\":5179:5186   */\n  0x00\n    /* \"#utility.yul\":5208:5213   */\n  dup2\n    /* \"#utility.yul\":5197:5213   */\n  swap1\n  pop\n    /* \"#utility.yul\":5142:5219   */\n  swap2\n  swap1\n  pop\n  jump\t// out\n    /* \"#utility.yul\":5225:5285   */\ntag_34:\n    /* \"#utility.yul\":5253:5256   */\n  0x00\n    /* \"#utility.yul\":5274:5279   */\n  dup2\n    /* \"#utility.yul\":5267:5279   */\n  swap1\n  pop\n    /* \"#utility.yul\":5225:5285   */\n  swap2\n  swap1\n  pop\n  jump\t// out\n    /* \"#utility.yul\":5291:5433   */\ntag_35:\n    /* \"#utility.yul\":5341:5350   */\n  0x00\n    /* \"#utility.yul\":5374:5427   */\n  tag_105\n    /* \"#utility.yul\":5392:5426   */\n  tag_106\n    /* \"#utility.yul\":5401:5425   */\n  tag_107\n    /* \"#utility.yul\":5419:5424   */\n  dup5\n    /* \"#utility.yul\":5401:5425   */\n  tag_33\n  jump\t// in\ntag_107:\n    /* \"#utility.yul\":5392:5426   */\n  tag_34\n  jump\t// in\ntag_106:\n    /* \"#utility.yul\":5374:5427   */\n  tag_33\n  jump\t// in\ntag_105:\n    /* \"#utility.yul\":5361:5427   */\n  swap1\n  pop\n    /* \"#utility.yul\":5291:5433   */\n  swap2\n  swap1\n  pop\n  jump\t// out\n    /* \"#utility.yul\":5439:5514   */\ntag_36:\n    /* \"#utility.yul\":5482:5485   */\n  0x00\n    /* \"#utility.yul\":5503:5508   */\n  dup2\n    /* \"#utility.yul\":5496:5508   */\n  swap1\n  pop\n    /* \"#utility.yul\":5439:5514   */\n  swap2\n  swap1\n  pop\n  jump\t// out\n    /* \"#utility.yul\":5520:5789   */\ntag_37:\n    /* \"#utility.yul\":5630:5669   */\n  tag_110\n    /* \"#utility.yul\":5661:5668   */\n  dup4\n    /* \"#utility.yul\":5630:5669   */\n  tag_35\n  jump\t// in\ntag_110:\n    /* \"#utility.yul\":5691:5782   */\n  tag_111\n    /* \"#utility.yul\":5740:5781   */\n  tag_112\n    /* \"#utility.yul\":5764:5780   */\n  dup3\n    /* \"#utility.yul\":5740:5781   */\n  tag_36\n  jump\t// in\ntag_112:\n    /* \"#utility.yul\":5732:5738   */\n  dup5\n    /* \"#utility.yul\":5725:5729   */\n  dup5\n    /* \"#utility.yul\":5719:5730   */\n  sload\n    /* \"#utility.yul\":5691:5782   */\n  tag_32\n  jump\t// in\ntag_111:\n    /* \"#utility.yul\":5685:5689   */\n  dup3\n    /* \"#utility.yul\":5678:5783   */\n  sstore\n    /* \"#utility.yul\":5596:5789   */\n  pop\n    /* \"#utility.yul\":5520:5789   */\n  pop\n  pop\n  pop\n  jump\t// out\n    /* \"#utility.yul\":5795:5868   */\ntag_38:\n    /* \"#utility.yul\":5840:5843   */\n  0x00\n    /* \"#utility.yul\":5795:5868   */\n  swap1\n  jump\t// out\n    /* \"#utility.yul\":5874:6063   */\ntag_39:\n    /* \"#utility.yul\":5951:5983   */\n  tag_115\n  tag_38\n  jump\t// in\ntag_115:\n    /* \"#utility.yul\":5992:6057   */\n  tag_116\n    /* \"#utility.yul\":6050:6056   */\n  dup2\n    /* \"#utility.yul\":6042:6048   */\n  dup5\n    /* \"#utility.yul\":6036:6040   */\n  dup5\n    /* \"#utility.yul\":5992:6057   */\n  tag_37\n  jump\t// in\ntag_116:\n    /* \"#utility.yul\":5927:6063   */\n  pop\n    /* \"#utility.yul\":5874:6063   */\n  pop\n  pop\n  jump\t// out\n    /* \"#utility.yul\":6069:6255   */\ntag_40:\n    /* \"#utility.yul\":6129:6249   */\ntag_118:\n    /* \"#utility.yul\":6146:6149   */\n  dup2\n    /* \"#utility.yul\":6139:6144   */\n  dup2\n    /* \"#utility.yul\":6136:6150   */\n  lt\n    /* \"#utility.yul\":6129:6249   */\n  iszero\n  tag_120\n  jumpi\n    /* \"#utility.yul\":6200:6239   */\n  tag_121\n    /* \"#utility.yul\":6237:6238   */\n  0x00\n    /* \"#utility.yul\":6230:6235   */\n  dup3\n    /* \"#utility.yul\":6200:6239   */\n  tag_39\n  jump\t// in\ntag_121:\n    /* \"#utility.yul\":6173:6174   */\n  0x01\n    /* \"#utility.yul\":6166:6171   */\n  dup2\n    /* \"#utility.yul\":6162:6175   */\n  add\n    /* \"#utility.yul\":6153:6175   */\n  swap1\n  pop\n    /* \"#utility.yul\":6129:6249   */\n  jump(tag_118)\ntag_120:\n    /* \"#utility.yul\":6069:6255   */\n  pop\n  pop\n  jump\t// out\n    /* \"#utility.yul\":6261:6804   */\ntag_41:\n    /* \"#utility.yul\":6362:6364   */\n  0x1f\n    /* \"#utility.yul\":6357:6360   */\n  dup3\n    /* \"#utility.yul\":6354:6365   */\n  gt\n    /* \"#utility.yul\":6351:6797   */\n  iszero\n  tag_123\n  jumpi\n    /* \"#utility.yul\":6396:6434   */\n  tag_124\n    /* \"#utility.yul\":6428:6433   */\n  dup2\n    /* \"#utility.yul\":6396:6434   */\n  tag_29\n  jump\t// in\ntag_124:\n    /* \"#utility.yul\":6480:6509   */\n  tag_125\n    /* \"#utility.yul\":6498:6508   */\n  dup5\n    /* \"#utility.yul\":6480:6509   */\n  tag_30\n  jump\t// in\ntag_125:\n    /* \"#utility.yul\":6470:6478   */\n  dup2\n    /* \"#utility.yul\":6466:6510   */\n  add\n    /* \"#utility.yul\":6663:6665   */\n  0x20\n    /* \"#utility.yul\":6651:6661   */\n  dup6\n    /* \"#utility.yul\":6648:6666   */\n  lt\n    /* \"#utility.yul\":6645:6694   */\n  iszero\n  tag_126\n  jumpi\n    /* \"#utility.yul\":6684:6692   */\n  dup2\n    /* \"#utility.yul\":6669:6692   */\n  swap1\n  pop\n    /* \"#utility.yul\":6645:6694   */\ntag_126:\n    /* \"#utility.yul\":6707:6787   */\n  tag_127\n    /* \"#utility.yul\":6763:6785   */\n  tag_128\n    /* \"#utility.yul\":6781:6784   */\n  dup6\n    /* \"#utility.yul\":6763:6785   */\n  tag_30\n  jump\t// in\ntag_128:\n    /* \"#utility.yul\":6753:6761   */\n  dup4\n    /* \"#utility.yul\":6749:6786   */\n  add\n    /* \"#utility.yul\":6736:6747   */\n  dup3\n    /* \"#utility.yul\":6707:6787   */\n  tag_40\n  jump\t// in\ntag_127:\n    /* \"#utility.yul\":6366:6797   */\n  pop\n  pop\n    /* \"#utility.yul\":6351:6797   */\ntag_123:\n    /* \"#utility.yul\":6261:6804   */\n  pop\n  pop\n  pop\n  jump\t// out\n    /* \"#utility.yul\":6810:6927   */\ntag_42:\n    /* \"#utility.yul\":6864:6872   */\n  0x00\n    /* \"#utility.yul\":6914:6919   */\n  dup3\n    /* \"#utility.yul\":6908:6912   */\n  dup3\n    /* \"#utility.yul\":6904:6920   */\n  shr\n    /* \"#utility.yul\":6883:6920   */\n  swap1\n  pop\n    /* \"#utility.yul\":6810:6927   */\n  swap3\n  swap2\n  pop\n  pop\n  jump\t// out\n    /* \"#utility.yul\":6933:7102   */\ntag_43:\n    /* \"#utility.yul\":6977:6983   */\n  0x00\n    /* \"#utility.yul\":7010:7061   */\n  tag_131\n    /* \"#utility.yul\":7058:7059   */\n  0x00\n    /* \"#utility.yul\":7054:7060   */\n  not\n    /* \"#utility.yul\":7046:7051   */\n  dup5\n    /* \"#utility.yul\":7043:7044   */\n  0x08\n    /* \"#utility.yul\":7039:7052   */\n  mul\n    /* \"#utility.yul\":7010:7061   */\n  tag_42\n  jump\t// in\ntag_131:\n    /* \"#utility.yul\":7006:7062   */\n  not\n    /* \"#utility.yul\":7091:7095   */\n  dup1\n    /* \"#utility.yul\":7085:7089   */\n  dup4\n    /* \"#utility.yul\":7081:7096   */\n  and\n    /* \"#utility.yul\":7071:7096   */\n  swap2\n  pop\n    /* \"#utility.yul\":6984:7102   */\n  pop\n    /* \"#utility.yul\":6933:7102   */\n  swap3\n  swap2\n  pop\n  pop\n  jump\t// out\n    /* \"#utility.yul\":7107:7402   */\ntag_44:\n    /* \"#utility.yul\":7183:7187   */\n  0x00\n    /* \"#utility.yul\":7329:7358   */\n  tag_133\n    /* \"#utility.yul\":7354:7357   */\n  dup4\n    /* \"#utility.yul\":7348:7352   */\n  dup4\n    /* \"#utility.yul\":7329:7358   */\n  tag_43\n  jump\t// in\ntag_133:\n    /* \"#utility.yul\":7321:7358   */\n  swap2\n  pop\n    /* \"#utility.yul\":7391:7394   */\n  dup3\n    /* \"#utility.yul\":7388:7389   */\n  0x02\n    /* \"#utility.yul\":7384:7395   */\n  mul\n    /* \"#utility.yul\":7378:7382   */\n  dup3\n    /* \"#utility.yul\":7375:7396   */\n  or\n    /* \"#utility.yul\":7367:7396   */\n  swap1\n  pop\n    /* \"#utility.yul\":7107:7402   */\n  swap3\n  swap2\n  pop\n  pop\n  jump\t// out\n    /* \"#utility.yul\":7407:8802   */\ntag_7:\n    /* \"#utility.yul\":7524:7561   */\n  tag_135\n    /* \"#utility.yul\":7557:7560   */\n  dup3\n    /* \"#utility.yul\":7524:7561   */\n  tag_26\n  jump\t// in\ntag_135:\n    /* \"#utility.yul\":7626:7644   */\n  0xffffffffffffffff\n    /* \"#utility.yul\":7618:7624   */\n  dup2\n    /* \"#utility.yul\":7615:7645   */\n  gt\n    /* \"#utility.yul\":7612:7668   */\n  iszero\n  tag_136\n  jumpi\n    /* \"#utility.yul\":7648:7666   */\n  tag_137\n  tag_15\n  jump\t// in\ntag_137:\n    /* \"#utility.yul\":7612:7668   */\ntag_136:\n    /* \"#utility.yul\":7692:7730   */\n  tag_138\n    /* \"#utility.yul\":7724:7728   */\n  dup3\n    /* \"#utility.yul\":7718:7729   */\n  sload\n    /* \"#utility.yul\":7692:7730   */\n  tag_28\n  jump\t// in\ntag_138:\n    /* \"#utility.yul\":7777:7844   */\n  tag_139\n    /* \"#utility.yul\":7837:7843   */\n  dup3\n    /* \"#utility.yul\":7829:7835   */\n  dup3\n    /* \"#utility.yul\":7823:7827   */\n  dup6\n    /* \"#utility.yul\":7777:7844   */\n  tag_41\n  jump\t// in\ntag_139:\n    /* \"#utility.yul\":7871:7872   */\n  0x00\n    /* \"#utility.yul\":7895:7899   */\n  0x20\n    /* \"#utility.yul\":7882:7899   */\n  swap1\n  pop\n    /* \"#utility.yul\":7927:7929   */\n  0x1f\n    /* \"#utility.yul\":7919:7925   */\n  dup4\n    /* \"#utility.yul\":7916:7930   */\n  gt\n    /* \"#utility.yul\":7944:7945   */\n  0x01\n    /* \"#utility.yul\":7939:8557   */\n  dup2\n  eq\n  tag_141\n  jumpi\n    /* \"#utility.yul\":8601:8602   */\n  0x00\n    /* \"#utility.yul\":8618:8624   */\n  dup5\n    /* \"#utility.yul\":8615:8692   */\n  iszero\n  tag_142\n  jumpi\n    /* \"#utility.yul\":8667:8676   */\n  dup3\n    /* \"#utility.yul\":8662:8665   */\n  dup8\n    /* \"#utility.yul\":8658:8677   */\n  add\n    /* \"#utility.yul\":8652:8678   */\n  mload\n    /* \"#utility.yul\":8643:8678   */\n  swap1\n  pop\n    /* \"#utility.yul\":8615:8692   */\ntag_142:\n    /* \"#utility.yul\":8718:8785   */\n  tag_143\n    /* \"#utility.yul\":8778:8784   */\n  dup6\n    /* \"#utility.yul\":8771:8776   */\n  dup3\n    /* \"#utility.yul\":8718:8785   */\n  tag_44\n  jump\t// in\ntag_143:\n    /* \"#utility.yul\":8712:8716   */\n  dup7\n    /* \"#utility.yul\":8705:8786   */\n  sstore\n    /* \"#utility.yul\":8574:8796   */\n  pop\n    /* \"#utility.yul\":7909:8796   */\n  jump(tag_140)\n    /* \"#utility.yul\":7939:8557   */\ntag_141:\n    /* \"#utility.yul\":7991:7995   */\n  0x1f\n    /* \"#utility.yul\":7987:7996   */\n  not\n    /* \"#utility.yul\":7979:7985   */\n  dup5\n    /* \"#utility.yul\":7975:7997   */\n  and\n    /* \"#utility.yul\":8025:8062   */\n  tag_144\n    /* \"#utility.yul\":8057:8061   */\n  dup7\n    /* \"#utility.yul\":8025:8062   */\n  tag_29\n  jump\t// in\ntag_144:\n    /* \"#utility.yul\":8084:8085   */\n  0x00\n    /* \"#utility.yul\":8098:8306   */\ntag_145:\n    /* \"#utility.yul\":8112:8119   */\n  dup3\n    /* \"#utility.yul\":8109:8110   */\n  dup2\n    /* \"#utility.yul\":8106:8120   */\n  lt\n    /* \"#utility.yul\":8098:8306   */\n  iszero\n  tag_147\n  jumpi\n    /* \"#utility.yul\":8191:8200   */\n  dup5\n    /* \"#utility.yul\":8186:8189   */\n  dup10\n    /* \"#utility.yul\":8182:8201   */\n  add\n    /* \"#utility.yul\":8176:8202   */\n  mload\n    /* \"#utility.yul\":8168:8174   */\n  dup3\n    /* \"#utility.yul\":8161:8203   */\n  sstore\n    /* \"#utility.yul\":8242:8243   */\n  0x01\n    /* \"#utility.yul\":8234:8240   */\n  dup3\n    /* \"#utility.yul\":8230:8244   */\n  add\n    /* \"#utility.yul\":8220:8244   */\n  swap2\n  pop\n    /* \"#utility.yul\":8289:8291   */\n  0x20\n    /* \"#utility.yul\":8278:8287   */\n  dup6\n    /* \"#utility.yul\":8274:8292   */\n  add\n    /* \"#utility.yul\":8261:8292   */\n  swap5\n  pop\n    /* \"#utility.yul\":8135:8139   */\n  0x20\n    /* \"#utility.yul\":8132:8133   */\n  dup2\n    /* \"#utility.yul\":8128:8140   */\n  add\n    /* \"#utility.yul\":8123:8140   */\n  swap1\n  pop\n    /* \"#utility.yul\":8098:8306   */\n  jump(tag_145)\ntag_147:\n    /* \"#utility.yul\":8334:8340   */\n  dup7\n    /* \"#utility.yul\":8325:8332   */\n  dup4\n    /* \"#utility.yul\":8322:8341   */\n  lt\n    /* \"#utility.yul\":8319:8498   */\n  iszero\n  tag_148\n  jumpi\n    /* \"#utility.yul\":8392:8401   */\n  dup5\n    /* \"#utility.yul\":8387:8390   */\n  dup10\n    /* \"#utility.yul\":8383:8402   */\n  add\n    /* \"#utility.yul\":8377:8403   */\n  mload\n    /* \"#utility.yul\":8435:8483   */\n  tag_149\n    /* \"#utility.yul\":8477:8481   */\n  0x1f\n    /* \"#utility.yul\":8469:8475   */\n  dup10\n    /* \"#utility.yul\":8465:8482   */\n  and\n    /* \"#utility.yul\":8454:8463   */\n  dup3\n    /* \"#utility.yul\":8435:8483   */\n  tag_43\n  jump\t// in\ntag_149:\n    /* \"#utility.yul\":8427:8433   */\n  dup4\n    /* \"#utility.yul\":8420:8484   */\n  sstore\n    /* \"#utility.yul\":8342:8498   */\n  pop\n    /* \"#utility.yul\":8319:8498   */\ntag_148:\n    /* \"#utility.yul\":8544:8545   */\n  0x01\n    /* \"#utility.yul\":8540:8541   */\n  0x02\n    /* \"#utility.yul\":8532:8538   */\n  dup9\n    /* \"#utility.yul\":8528:8542   */\n  mul\n    /* \"#utility.yul\":8524:8546   */\n  add\n    /* \"#utility.yul\":8518:8522   */\n  dup9\n    /* \"#utility.yul\":8511:8547   */\n  sstore\n    /* \"#utility.yul\":7946:8557   */\n  pop\n  pop\n  pop\n    /* \"#utility.yul\":7909:8796   */\ntag_140:\n  pop\n    /* \"#utility.yul\":7499:8802   */\n  pop\n  pop\n  pop\n    /* \"#utility.yul\":7407:8802   */\n  pop\n  pop\n  jump\t// out\n    /* \"PCD/contractS/Magasin.sol\":142:1270  contract Magasin {... */\ntag_8:\n  dataSize(sub_0)\n  dup1\n  dataOffset(sub_0)\n  0x00\n  codecopy\n  0x00\n  return\nstop\n\nsub_0: assembly {\n        /* \"PCD/contractS/Magasin.sol\":142:1270  contract Magasin {... */\n      mstore(0x40, 0x80)\n      callvalue\n      dup1\n      iszero\n      tag_1\n      jumpi\n      0x00\n      dup1\n      revert\n    tag_1:\n      pop\n      jumpi(tag_2, lt(calldatasize, 0x04))\n      shr(0xe0, calldataload(0x00))\n      dup1\n      0x06fdde03\n      eq\n      tag_3\n      jumpi\n      dup1\n      0x110506f0\n      eq\n      tag_4\n      jumpi\n      dup1\n      0x5e1acf65\n      eq\n      tag_5\n      jumpi\n    tag_2:\n      0x00\n      dup1\n      revert\n        /* \"PCD/contractS/Magasin.sol\":166:184  string public name */\n    tag_3:\n      tag_6\n      tag_7\n      jump\t// in\n    tag_6:\n      mload(0x40)\n      tag_8\n      swap2\n      swap1\n      tag_9\n      jump\t// in\n    tag_8:\n      mload(0x40)\n      dup1\n      swap2\n      sub\n      swap1\n      return\n        /* \"PCD/contractS/Magasin.sol\":440:1033  function createCard(uint256 id_client, uint256 initial_balance) public returns(bool) {... */\n    tag_4:\n      tag_10\n      0x04\n      dup1\n      calldatasize\n      sub\n      dup2\n      add\n      swap1\n      tag_11\n      swap2\n      swap1\n      tag_12\n      jump\t// in\n    tag_11:\n      tag_13\n      jump\t// in\n    tag_10:\n      mload(0x40)\n      tag_14\n      swap2\n      swap1\n      tag_15\n      jump\t// in\n    tag_14:\n      mload(0x40)\n      dup1\n      swap2\n      sub\n      swap1\n      return\n        /* \"PCD/contractS/Magasin.sol\":1039:1261  function deleteCard(uint256 client_id) public returns (bool){... */\n    tag_5:\n      tag_16\n      0x04\n      dup1\n      calldatasize\n      sub\n      dup2\n      add\n      swap1\n      tag_17\n      swap2\n      swap1\n      tag_18\n      jump\t// in\n    tag_17:\n      tag_19\n      jump\t// in\n    tag_16:\n      mload(0x40)\n      tag_20\n      swap2\n      swap1\n      tag_15\n      jump\t// in\n    tag_20:\n      mload(0x40)\n      dup1\n      swap2\n      sub\n      swap1\n      return\n        /* \"PCD/contractS/Magasin.sol\":166:184  string public name */\n    tag_7:\n      0x00\n      dup1\n      sload\n      tag_21\n      swap1\n      tag_22\n      jump\t// in\n    tag_21:\n      dup1\n      0x1f\n      add\n      0x20\n      dup1\n      swap2\n      div\n      mul\n      0x20\n      add\n      mload(0x40)\n      swap1\n      dup2\n      add\n      0x40\n      mstore\n      dup1\n      swap3\n      swap2\n      swap1\n      dup2\n      dup2\n      mstore\n      0x20\n      add\n      dup3\n      dup1\n      sload\n      tag_23\n      swap1\n      tag_22\n      jump\t// in\n    tag_23:\n      dup1\n      iszero\n      tag_24\n      jumpi\n      dup1\n      0x1f\n      lt\n      tag_25\n      jumpi\n      0x0100\n      dup1\n      dup4\n      sload\n      div\n      mul\n      dup4\n      mstore\n      swap2\n      0x20\n      add\n      swap2\n      jump(tag_24)\n    tag_25:\n      dup3\n      add\n      swap2\n      swap1\n      0x00\n      mstore\n      keccak256(0x00, 0x20)\n      swap1\n    tag_26:\n      dup2\n      sload\n      dup2\n      mstore\n      swap1\n      0x01\n      add\n      swap1\n      0x20\n      add\n      dup1\n      dup4\n      gt\n      tag_26\n      jumpi\n      dup3\n      swap1\n      sub\n      0x1f\n      and\n      dup3\n      add\n      swap2\n    tag_24:\n      pop\n      pop\n      pop\n      pop\n      pop\n      dup2\n      jump\t// out\n        /* \"PCD/contractS/Magasin.sol\":440:1033  function createCard(uint256 id_client, uint256 initial_balance) public returns(bool) {... */\n    tag_13:\n        /* \"PCD/contractS/Magasin.sol\":519:523  bool */\n      0x00\n        /* \"PCD/contractS/Magasin.sol\":545:556  sharedstate */\n      0x01\n      0x00\n      swap1\n      sload\n      swap1\n      0x0100\n      exp\n      swap1\n      div\n      0xffffffffffffffffffffffffffffffffffffffff\n      and\n        /* \"PCD/contractS/Magasin.sol\":545:571  sharedstate.customerExists */\n      0xffffffffffffffffffffffffffffffffffffffff\n      and\n      0x163388ae\n        /* \"PCD/contractS/Magasin.sol\":572:581  id_client */\n      dup5\n        /* \"PCD/contractS/Magasin.sol\":545:582  sharedstate.customerExists(id_client) */\n      mload(0x40)\n      dup3\n      0xffffffff\n      and\n      0xe0\n      shl\n      dup2\n      mstore\n      0x04\n      add\n      tag_28\n      swap2\n      swap1\n      tag_29\n      jump\t// in\n    tag_28:\n      0x20\n      mload(0x40)\n      dup1\n      dup4\n      sub\n      dup2\n      dup7\n      gas\n      staticcall\n      iszero\n      dup1\n      iszero\n      tag_31\n      jumpi\n      returndatasize\n      0x00\n      dup1\n      returndatacopy\n      revert(0x00, returndatasize)\n    tag_31:\n      pop\n      pop\n      pop\n      pop\n      mload(0x40)\n      returndatasize\n      not(0x1f)\n      0x1f\n      dup3\n      add\n      and\n      dup3\n      add\n      dup1\n      0x40\n      mstore\n      pop\n      dup2\n      add\n      swap1\n      tag_32\n      swap2\n      swap1\n      tag_33\n      jump\t// in\n    tag_32:\n        /* \"PCD/contractS/Magasin.sol\":544:582  !sharedstate.customerExists(id_client) */\n      iszero\n        /* \"PCD/contractS/Magasin.sol\":536:610  require(!sharedstate.customerExists(id_client), \"Customer already exists\") */\n      tag_34\n      jumpi\n      mload(0x40)\n      0x08c379a000000000000000000000000000000000000000000000000000000000\n      dup2\n      mstore\n      0x04\n      add\n      tag_35\n      swap1\n      tag_36\n      jump\t// in\n    tag_35:\n      mload(0x40)\n      dup1\n      swap2\n      sub\n      swap1\n      revert\n    tag_34:\n        /* \"PCD/contractS/Magasin.sol\":621:641  Customer newCustomer */\n      0x00\n        /* \"PCD/contractS/Magasin.sol\":657:666  id_client */\n      dup4\n        /* \"PCD/contractS/Magasin.sol\":675:686  sharedstate */\n      0x01\n      0x00\n      swap1\n      sload\n      swap1\n      0x0100\n      exp\n      swap1\n      div\n      0xffffffffffffffffffffffffffffffffffffffff\n      and\n        /* \"PCD/contractS/Magasin.sol\":644:688  new Customer(id_client,address(sharedstate)) */\n      mload(0x40)\n      tag_37\n      swap1\n      tag_38\n      jump\t// in\n    tag_37:\n      tag_39\n      swap3\n      swap2\n      swap1\n      tag_40\n      jump\t// in\n    tag_39:\n      mload(0x40)\n      dup1\n      swap2\n      sub\n      swap1\n      0x00\n      create\n      dup1\n      iszero\n      dup1\n      iszero\n      tag_41\n      jumpi\n      returndatasize\n      0x00\n      dup1\n      returndatacopy\n      revert(0x00, returndatasize)\n    tag_41:\n      pop\n        /* \"PCD/contractS/Magasin.sol\":621:688  Customer newCustomer = new Customer(id_client,address(sharedstate)) */\n      swap1\n      pop\n        /* \"PCD/contractS/Magasin.sol\":699:710  sharedstate */\n      0x01\n      0x00\n      swap1\n      sload\n      swap1\n      0x0100\n      exp\n      swap1\n      div\n      0xffffffffffffffffffffffffffffffffffffffff\n      and\n        /* \"PCD/contractS/Magasin.sol\":699:721  sharedstate.setBalance */\n      0xffffffffffffffffffffffffffffffffffffffff\n      and\n      0x4a4b9feb\n        /* \"PCD/contractS/Magasin.sol\":722:731  id_client */\n      dup6\n        /* \"PCD/contractS/Magasin.sol\":733:748  initial_balance */\n      dup6\n        /* \"PCD/contractS/Magasin.sol\":699:749  sharedstate.setBalance(id_client, initial_balance) */\n      mload(0x40)\n      dup4\n      0xffffffff\n      and\n      0xe0\n      shl\n      dup2\n      mstore\n      0x04\n      add\n      tag_42\n      swap3\n      swap2\n      swap1\n      tag_43\n      jump\t// in\n    tag_42:\n      0x00\n      mload(0x40)\n      dup1\n      dup4\n      sub\n      dup2\n      0x00\n      dup8\n      dup1\n      extcodesize\n      iszero\n      dup1\n      iszero\n      tag_44\n      jumpi\n      0x00\n      dup1\n      revert\n    tag_44:\n      pop\n      gas\n      call\n      iszero\n      dup1\n      iszero\n      tag_46\n      jumpi\n      returndatasize\n      0x00\n      dup1\n      returndatacopy\n      revert(0x00, returndatasize)\n    tag_46:\n      pop\n      pop\n      pop\n      pop\n        /* \"PCD/contractS/Magasin.sol\":761:772  sharedstate */\n      0x01\n      0x00\n      swap1\n      sload\n      swap1\n      0x0100\n      exp\n      swap1\n      div\n      0xffffffffffffffffffffffffffffffffffffffff\n      and\n        /* \"PCD/contractS/Magasin.sol\":761:784  sharedstate.addCustomer */\n      0xffffffffffffffffffffffffffffffffffffffff\n      and\n      0xdedf34f3\n        /* \"PCD/contractS/Magasin.sol\":793:804  newCustomer */\n      dup3\n        /* \"PCD/contractS/Magasin.sol\":807:816  id_client */\n      dup7\n        /* \"PCD/contractS/Magasin.sol\":761:817  sharedstate.addCustomer(address(newCustomer), id_client) */\n      mload(0x40)\n      dup4\n      0xffffffff\n      and\n      0xe0\n      shl\n      dup2\n      mstore\n      0x04\n      add\n      tag_47\n      swap3\n      swap2\n      swap1\n      tag_48\n      jump\t// in\n    tag_47:\n      0x00\n      mload(0x40)\n      dup1\n      dup4\n      sub\n      dup2\n      0x00\n      dup8\n      dup1\n      extcodesize\n      iszero\n      dup1\n      iszero\n      tag_49\n      jumpi\n      0x00\n      dup1\n      revert\n    tag_49:\n      pop\n      gas\n      call\n      iszero\n      dup1\n      iszero\n      tag_51\n      jumpi\n      returndatasize\n      0x00\n      dup1\n      returndatacopy\n      revert(0x00, returndatasize)\n    tag_51:\n      pop\n      pop\n      pop\n      pop\n        /* \"PCD/contractS/Magasin.sol\":835:839  true */\n      0x01\n        /* \"PCD/contractS/Magasin.sol\":828:839  return true */\n      swap2\n      pop\n      pop\n        /* \"PCD/contractS/Magasin.sol\":440:1033  function createCard(uint256 id_client, uint256 initial_balance) public returns(bool) {... */\n      swap3\n      swap2\n      pop\n      pop\n      jump\t// out\n        /* \"PCD/contractS/Magasin.sol\":1039:1261  function deleteCard(uint256 client_id) public returns (bool){... */\n    tag_19:\n        /* \"PCD/contractS/Magasin.sol\":1094:1098  bool */\n      0x00\n        /* \"PCD/contractS/Magasin.sol\":1118:1129  sharedstate */\n      0x01\n      0x00\n      swap1\n      sload\n      swap1\n      0x0100\n      exp\n      swap1\n      div\n      0xffffffffffffffffffffffffffffffffffffffff\n      and\n        /* \"PCD/contractS/Magasin.sol\":1118:1144  sharedstate.customerExists */\n      0xffffffffffffffffffffffffffffffffffffffff\n      and\n      0x163388ae\n        /* \"PCD/contractS/Magasin.sol\":1145:1154  client_id */\n      dup4\n        /* \"PCD/contractS/Magasin.sol\":1118:1155  sharedstate.customerExists(client_id) */\n      mload(0x40)\n      dup3\n      0xffffffff\n      and\n      0xe0\n      shl\n      dup2\n      mstore\n      0x04\n      add\n      tag_53\n      swap2\n      swap1\n      tag_29\n      jump\t// in\n    tag_53:\n      0x20\n      mload(0x40)\n      dup1\n      dup4\n      sub\n      dup2\n      dup7\n      gas\n      staticcall\n      iszero\n      dup1\n      iszero\n      tag_55\n      jumpi\n      returndatasize\n      0x00\n      dup1\n      returndatacopy\n      revert(0x00, returndatasize)\n    tag_55:\n      pop\n      pop\n      pop\n      pop\n      mload(0x40)\n      returndatasize\n      not(0x1f)\n      0x1f\n      dup3\n      add\n      and\n      dup3\n      add\n      dup1\n      0x40\n      mstore\n      pop\n      dup2\n      add\n      swap1\n      tag_56\n      swap2\n      swap1\n      tag_33\n      jump\t// in\n    tag_56:\n        /* \"PCD/contractS/Magasin.sol\":1110:1183  require(sharedstate.customerExists(client_id), \"Customer does not exist\") */\n      tag_57\n      jumpi\n      mload(0x40)\n      0x08c379a000000000000000000000000000000000000000000000000000000000\n      dup2\n      mstore\n      0x04\n      add\n      tag_58\n      swap1\n      tag_59\n      jump\t// in\n    tag_58:\n      mload(0x40)\n      dup1\n      swap2\n      sub\n      swap1\n      revert\n    tag_57:\n        /* \"PCD/contractS/Magasin.sol\":1194:1205  sharedstate */\n      0x01\n      0x00\n      swap1\n      sload\n      swap1\n      0x0100\n      exp\n      swap1\n      div\n      0xffffffffffffffffffffffffffffffffffffffff\n      and\n        /* \"PCD/contractS/Magasin.sol\":1194:1220  sharedstate.deleteCustomer */\n      0xffffffffffffffffffffffffffffffffffffffff\n      and\n      0x56d7548f\n        /* \"PCD/contractS/Magasin.sol\":1221:1230  client_id */\n      dup4\n        /* \"PCD/contractS/Magasin.sol\":1194:1231  sharedstate.deleteCustomer(client_id) */\n      mload(0x40)\n      dup3\n      0xffffffff\n      and\n      0xe0\n      shl\n      dup2\n      mstore\n      0x04\n      add\n      tag_60\n      swap2\n      swap1\n      tag_29\n      jump\t// in\n    tag_60:\n      0x00\n      mload(0x40)\n      dup1\n      dup4\n      sub\n      dup2\n      0x00\n      dup8\n      dup1\n      extcodesize\n      iszero\n      dup1\n      iszero\n      tag_61\n      jumpi\n      0x00\n      dup1\n      revert\n    tag_61:\n      pop\n      gas\n      call\n      iszero\n      dup1\n      iszero\n      tag_63\n      jumpi\n      returndatasize\n      0x00\n      dup1\n      returndatacopy\n      revert(0x00, returndatasize)\n    tag_63:\n      pop\n      pop\n      pop\n      pop\n        /* \"PCD/contractS/Magasin.sol\":1249:1253  true */\n      0x01\n        /* \"PCD/contractS/Magasin.sol\":1242:1253  return true */\n      swap1\n      pop\n        /* \"PCD/contractS/Magasin.sol\":1039:1261  function deleteCard(uint256 client_id) public returns (bool){... */\n      swap2\n      swap1\n      pop\n      jump\t// out\n    tag_38:\n      dataSize(sub_0)\n      dup1\n      dataOffset(sub_0)\n      dup4\n      codecopy\n      add\n      swap1\n      jump\t// out\n        /* \"#utility.yul\":7:106   */\n    tag_64:\n        /* \"#utility.yul\":59:65   */\n      0x00\n        /* \"#utility.yul\":93:98   */\n      dup2\n        /* \"#utility.yul\":87:99   */\n      mload\n        /* \"#utility.yul\":77:99   */\n      swap1\n      pop\n        /* \"#utility.yul\":7:106   */\n      swap2\n      swap1\n      pop\n      jump\t// out\n        /* \"#utility.yul\":112:281   */\n    tag_65:\n        /* \"#utility.yul\":196:207   */\n      0x00\n        /* \"#utility.yul\":230:236   */\n      dup3\n        /* \"#utility.yul\":225:228   */\n      dup3\n        /* \"#utility.yul\":218:237   */\n      mstore\n        /* \"#utility.yul\":270:274   */\n      0x20\n        /* \"#utility.yul\":265:268   */\n      dup3\n        /* \"#utility.yul\":261:275   */\n      add\n        /* \"#utility.yul\":246:275   */\n      swap1\n      pop\n        /* \"#utility.yul\":112:281   */\n      swap3\n      swap2\n      pop\n      pop\n      jump\t// out\n        /* \"#utility.yul\":287:426   */\n    tag_66:\n        /* \"#utility.yul\":376:382   */\n      dup3\n        /* \"#utility.yul\":371:374   */\n      dup2\n        /* \"#utility.yul\":366:369   */\n      dup4\n        /* \"#utility.yul\":360:383   */\n      mcopy\n        /* \"#utility.yul\":417:418   */\n      0x00\n        /* \"#utility.yul\":408:414   */\n      dup4\n        /* \"#utility.yul\":403:406   */\n      dup4\n        /* \"#utility.yul\":399:415   */\n      add\n        /* \"#utility.yul\":392:419   */\n      mstore\n        /* \"#utility.yul\":287:426   */\n      pop\n      pop\n      pop\n      jump\t// out\n        /* \"#utility.yul\":432:534   */\n    tag_67:\n        /* \"#utility.yul\":473:479   */\n      0x00\n        /* \"#utility.yul\":524:526   */\n      0x1f\n        /* \"#utility.yul\":520:527   */\n      not\n        /* \"#utility.yul\":515:517   */\n      0x1f\n        /* \"#utility.yul\":508:513   */\n      dup4\n        /* \"#utility.yul\":504:518   */\n      add\n        /* \"#utility.yul\":500:528   */\n      and\n        /* \"#utility.yul\":490:528   */\n      swap1\n      pop\n        /* \"#utility.yul\":432:534   */\n      swap2\n      swap1\n      pop\n      jump\t// out\n        /* \"#utility.yul\":540:917   */\n    tag_68:\n        /* \"#utility.yul\":628:631   */\n      0x00\n        /* \"#utility.yul\":656:695   */\n      tag_94\n        /* \"#utility.yul\":689:694   */\n      dup3\n        /* \"#utility.yul\":656:695   */\n      tag_64\n      jump\t// in\n    tag_94:\n        /* \"#utility.yul\":711:782   */\n      tag_95\n        /* \"#utility.yul\":775:781   */\n      dup2\n        /* \"#utility.yul\":770:773   */\n      dup6\n        /* \"#utility.yul\":711:782   */\n      tag_65\n      jump\t// in\n    tag_95:\n        /* \"#utility.yul\":704:782   */\n      swap4\n      pop\n        /* \"#utility.yul\":791:856   */\n      tag_96\n        /* \"#utility.yul\":849:855   */\n      dup2\n        /* \"#utility.yul\":844:847   */\n      dup6\n        /* \"#utility.yul\":837:841   */\n      0x20\n        /* \"#utility.yul\":830:835   */\n      dup7\n        /* \"#utility.yul\":826:842   */\n      add\n        /* \"#utility.yul\":791:856   */\n      tag_66\n      jump\t// in\n    tag_96:\n        /* \"#utility.yul\":881:910   */\n      tag_97\n        /* \"#utility.yul\":903:909   */\n      dup2\n        /* \"#utility.yul\":881:910   */\n      tag_67\n      jump\t// in\n    tag_97:\n        /* \"#utility.yul\":876:879   */\n      dup5\n        /* \"#utility.yul\":872:911   */\n      add\n        /* \"#utility.yul\":865:911   */\n      swap2\n      pop\n        /* \"#utility.yul\":632:917   */\n      pop\n        /* \"#utility.yul\":540:917   */\n      swap3\n      swap2\n      pop\n      pop\n      jump\t// out\n        /* \"#utility.yul\":923:1236   */\n    tag_9:\n        /* \"#utility.yul\":1036:1040   */\n      0x00\n        /* \"#utility.yul\":1074:1076   */\n      0x20\n        /* \"#utility.yul\":1063:1072   */\n      dup3\n        /* \"#utility.yul\":1059:1077   */\n      add\n        /* \"#utility.yul\":1051:1077   */\n      swap1\n      pop\n        /* \"#utility.yul\":1123:1132   */\n      dup2\n        /* \"#utility.yul\":1117:1121   */\n      dup2\n        /* \"#utility.yul\":1113:1133   */\n      sub\n        /* \"#utility.yul\":1109:1110   */\n      0x00\n        /* \"#utility.yul\":1098:1107   */\n      dup4\n        /* \"#utility.yul\":1094:1111   */\n      add\n        /* \"#utility.yul\":1087:1134   */\n      mstore\n        /* \"#utility.yul\":1151:1229   */\n      tag_99\n        /* \"#utility.yul\":1224:1228   */\n      dup2\n        /* \"#utility.yul\":1215:1221   */\n      dup5\n        /* \"#utility.yul\":1151:1229   */\n      tag_68\n      jump\t// in\n    tag_99:\n        /* \"#utility.yul\":1143:1229   */\n      swap1\n      pop\n        /* \"#utility.yul\":923:1236   */\n      swap3\n      swap2\n      pop\n      pop\n      jump\t// out\n        /* \"#utility.yul\":1323:1440   */\n    tag_70:\n        /* \"#utility.yul\":1432:1433   */\n      0x00\n        /* \"#utility.yul\":1429:1430   */\n      dup1\n        /* \"#utility.yul\":1422:1434   */\n      revert\n        /* \"#utility.yul\":1569:1646   */\n    tag_72:\n        /* \"#utility.yul\":1606:1613   */\n      0x00\n        /* \"#utility.yul\":1635:1640   */\n      dup2\n        /* \"#utility.yul\":1624:1640   */\n      swap1\n      pop\n        /* \"#utility.yul\":1569:1646   */\n      swap2\n      swap1\n      pop\n      jump\t// out\n        /* \"#utility.yul\":1652:1774   */\n    tag_73:\n        /* \"#utility.yul\":1725:1749   */\n      tag_105\n        /* \"#utility.yul\":1743:1748   */\n      dup2\n        /* \"#utility.yul\":1725:1749   */\n      tag_72\n      jump\t// in\n    tag_105:\n        /* \"#utility.yul\":1718:1723   */\n      dup2\n        /* \"#utility.yul\":1715:1750   */\n      eq\n        /* \"#utility.yul\":1705:1768   */\n      tag_106\n      jumpi\n        /* \"#utility.yul\":1764:1765   */\n      0x00\n        /* \"#utility.yul\":1761:1762   */\n      dup1\n        /* \"#utility.yul\":1754:1766   */\n      revert\n        /* \"#utility.yul\":1705:1768   */\n    tag_106:\n        /* \"#utility.yul\":1652:1774   */\n      pop\n      jump\t// out\n        /* \"#utility.yul\":1780:1919   */\n    tag_74:\n        /* \"#utility.yul\":1826:1831   */\n      0x00\n        /* \"#utility.yul\":1864:1870   */\n      dup2\n        /* \"#utility.yul\":1851:1871   */\n      calldataload\n        /* \"#utility.yul\":1842:1871   */\n      swap1\n      pop\n        /* \"#utility.yul\":1880:1913   */\n      tag_108\n        /* \"#utility.yul\":1907:1912   */\n      dup2\n        /* \"#utility.yul\":1880:1913   */\n      tag_73\n      jump\t// in\n    tag_108:\n        /* \"#utility.yul\":1780:1919   */\n      swap3\n      swap2\n      pop\n      pop\n      jump\t// out\n        /* \"#utility.yul\":1925:2399   */\n    tag_12:\n        /* \"#utility.yul\":1993:1999   */\n      0x00\n        /* \"#utility.yul\":2001:2007   */\n      dup1\n        /* \"#utility.yul\":2050:2052   */\n      0x40\n        /* \"#utility.yul\":2038:2047   */\n      dup4\n        /* \"#utility.yul\":2029:2036   */\n      dup6\n        /* \"#utility.yul\":2025:2048   */\n      sub\n        /* \"#utility.yul\":2021:2053   */\n      slt\n        /* \"#utility.yul\":2018:2137   */\n      iszero\n      tag_110\n      jumpi\n        /* \"#utility.yul\":2056:2135   */\n      tag_111\n      tag_70\n      jump\t// in\n    tag_111:\n        /* \"#utility.yul\":2018:2137   */\n    tag_110:\n        /* \"#utility.yul\":2176:2177   */\n      0x00\n        /* \"#utility.yul\":2201:2254   */\n      tag_112\n        /* \"#utility.yul\":2246:2253   */\n      dup6\n        /* \"#utility.yul\":2237:2243   */\n      dup3\n        /* \"#utility.yul\":2226:2235   */\n      dup7\n        /* \"#utility.yul\":2222:2244   */\n      add\n        /* \"#utility.yul\":2201:2254   */\n      tag_74\n      jump\t// in\n    tag_112:\n        /* \"#utility.yul\":2191:2254   */\n      swap3\n      pop\n        /* \"#utility.yul\":2147:2264   */\n      pop\n        /* \"#utility.yul\":2303:2305   */\n      0x20\n        /* \"#utility.yul\":2329:2382   */\n      tag_113\n        /* \"#utility.yul\":2374:2381   */\n      dup6\n        /* \"#utility.yul\":2365:2371   */\n      dup3\n        /* \"#utility.yul\":2354:2363   */\n      dup7\n        /* \"#utility.yul\":2350:2372   */\n      add\n        /* \"#utility.yul\":2329:2382   */\n      tag_74\n      jump\t// in\n    tag_113:\n        /* \"#utility.yul\":2319:2382   */\n      swap2\n      pop\n        /* \"#utility.yul\":2274:2392   */\n      pop\n        /* \"#utility.yul\":1925:2399   */\n      swap3\n      pop\n      swap3\n      swap1\n      pop\n      jump\t// out\n        /* \"#utility.yul\":2405:2495   */\n    tag_75:\n        /* \"#utility.yul\":2439:2446   */\n      0x00\n        /* \"#utility.yul\":2482:2487   */\n      dup2\n        /* \"#utility.yul\":2475:2488   */\n      iszero\n        /* \"#utility.yul\":2468:2489   */\n      iszero\n        /* \"#utility.yul\":2457:2489   */\n      swap1\n      pop\n        /* \"#utility.yul\":2405:2495   */\n      swap2\n      swap1\n      pop\n      jump\t// out\n        /* \"#utility.yul\":2501:2610   */\n    tag_76:\n        /* \"#utility.yul\":2582:2603   */\n      tag_116\n        /* \"#utility.yul\":2597:2602   */\n      dup2\n        /* \"#utility.yul\":2582:2603   */\n      tag_75\n      jump\t// in\n    tag_116:\n        /* \"#utility.yul\":2577:2580   */\n      dup3\n        /* \"#utility.yul\":2570:2604   */\n      mstore\n        /* \"#utility.yul\":2501:2610   */\n      pop\n      pop\n      jump\t// out\n        /* \"#utility.yul\":2616:2826   */\n    tag_15:\n        /* \"#utility.yul\":2703:2707   */\n      0x00\n        /* \"#utility.yul\":2741:2743   */\n      0x20\n        /* \"#utility.yul\":2730:2739   */\n      dup3\n        /* \"#utility.yul\":2726:2744   */\n      add\n        /* \"#utility.yul\":2718:2744   */\n      swap1\n      pop\n        /* \"#utility.yul\":2754:2819   */\n      tag_118\n        /* \"#utility.yul\":2816:2817   */\n      0x00\n        /* \"#utility.yul\":2805:2814   */\n      dup4\n        /* \"#utility.yul\":2801:2818   */\n      add\n        /* \"#utility.yul\":2792:2798   */\n      dup5\n        /* \"#utility.yul\":2754:2819   */\n      tag_76\n      jump\t// in\n    tag_118:\n        /* \"#utility.yul\":2616:2826   */\n      swap3\n      swap2\n      pop\n      pop\n      jump\t// out\n        /* \"#utility.yul\":2832:3161   */\n    tag_18:\n        /* \"#utility.yul\":2891:2897   */\n      0x00\n        /* \"#utility.yul\":2940:2942   */\n      0x20\n        /* \"#utility.yul\":2928:2937   */\n      dup3\n        /* \"#utility.yul\":2919:2926   */\n      dup5\n        /* \"#utility.yul\":2915:2938   */\n      sub\n        /* \"#utility.yul\":2911:2943   */\n      slt\n        /* \"#utility.yul\":2908:3027   */\n      iszero\n      tag_120\n      jumpi\n        /* \"#utility.yul\":2946:3025   */\n      tag_121\n      tag_70\n      jump\t// in\n    tag_121:\n        /* \"#utility.yul\":2908:3027   */\n    tag_120:\n        /* \"#utility.yul\":3066:3067   */\n      0x00\n        /* \"#utility.yul\":3091:3144   */\n      tag_122\n        /* \"#utility.yul\":3136:3143   */\n      dup5\n        /* \"#utility.yul\":3127:3133   */\n      dup3\n        /* \"#utility.yul\":3116:3125   */\n      dup6\n        /* \"#utility.yul\":3112:3134   */\n      add\n        /* \"#utility.yul\":3091:3144   */\n      tag_74\n      jump\t// in\n    tag_122:\n        /* \"#utility.yul\":3081:3144   */\n      swap2\n      pop\n        /* \"#utility.yul\":3037:3154   */\n      pop\n        /* \"#utility.yul\":2832:3161   */\n      swap3\n      swap2\n      pop\n      pop\n      jump\t// out\n        /* \"#utility.yul\":3167:3347   */\n    tag_77:\n        /* \"#utility.yul\":3215:3292   */\n      0x4e487b7100000000000000000000000000000000000000000000000000000000\n        /* \"#utility.yul\":3212:3213   */\n      0x00\n        /* \"#utility.yul\":3205:3293   */\n      mstore\n        /* \"#utility.yul\":3312:3316   */\n      0x22\n        /* \"#utility.yul\":3309:3310   */\n      0x04\n        /* \"#utility.yul\":3302:3317   */\n      mstore\n        /* \"#utility.yul\":3336:3340   */\n      0x24\n        /* \"#utility.yul\":3333:3334   */\n      0x00\n        /* \"#utility.yul\":3326:3341   */\n      revert\n        /* \"#utility.yul\":3353:3673   */\n    tag_22:\n        /* \"#utility.yul\":3397:3403   */\n      0x00\n        /* \"#utility.yul\":3434:3435   */\n      0x02\n        /* \"#utility.yul\":3428:3432   */\n      dup3\n        /* \"#utility.yul\":3424:3436   */\n      div\n        /* \"#utility.yul\":3414:3436   */\n      swap1\n      pop\n        /* \"#utility.yul\":3481:3482   */\n      0x01\n        /* \"#utility.yul\":3475:3479   */\n      dup3\n        /* \"#utility.yul\":3471:3483   */\n      and\n        /* \"#utility.yul\":3502:3520   */\n      dup1\n        /* \"#utility.yul\":3492:3573   */\n      tag_125\n      jumpi\n        /* \"#utility.yul\":3558:3562   */\n      0x7f\n        /* \"#utility.yul\":3550:3556   */\n      dup3\n        /* \"#utility.yul\":3546:3563   */\n      and\n        /* \"#utility.yul\":3536:3563   */\n      swap2\n      pop\n        /* \"#utility.yul\":3492:3573   */\n    tag_125:\n        /* \"#utility.yul\":3620:3622   */\n      0x20\n        /* \"#utility.yul\":3612:3618   */\n      dup3\n        /* \"#utility.yul\":3609:3623   */\n      lt\n        /* \"#utility.yul\":3589:3607   */\n      dup2\n        /* \"#utility.yul\":3586:3624   */\n      sub\n        /* \"#utility.yul\":3583:3667   */\n      tag_126\n      jumpi\n        /* \"#utility.yul\":3639:3657   */\n      tag_127\n      tag_77\n      jump\t// in\n    tag_127:\n        /* \"#utility.yul\":3583:3667   */\n    tag_126:\n        /* \"#utility.yul\":3404:3673   */\n      pop\n        /* \"#utility.yul\":3353:3673   */\n      swap2\n      swap1\n      pop\n      jump\t// out\n        /* \"#utility.yul\":3679:3797   */\n    tag_78:\n        /* \"#utility.yul\":3766:3790   */\n      tag_129\n        /* \"#utility.yul\":3784:3789   */\n      dup2\n        /* \"#utility.yul\":3766:3790   */\n      tag_72\n      jump\t// in\n    tag_129:\n        /* \"#utility.yul\":3761:3764   */\n      dup3\n        /* \"#utility.yul\":3754:3791   */\n      mstore\n        /* \"#utility.yul\":3679:3797   */\n      pop\n      pop\n      jump\t// out\n        /* \"#utility.yul\":3803:4025   */\n    tag_29:\n        /* \"#utility.yul\":3896:3900   */\n      0x00\n        /* \"#utility.yul\":3934:3936   */\n      0x20\n        /* \"#utility.yul\":3923:3932   */\n      dup3\n        /* \"#utility.yul\":3919:3937   */\n      add\n        /* \"#utility.yul\":3911:3937   */\n      swap1\n      pop\n        /* \"#utility.yul\":3947:4018   */\n      tag_131\n        /* \"#utility.yul\":4015:4016   */\n      0x00\n        /* \"#utility.yul\":4004:4013   */\n      dup4\n        /* \"#utility.yul\":4000:4017   */\n      add\n        /* \"#utility.yul\":3991:3997   */\n      dup5\n        /* \"#utility.yul\":3947:4018   */\n      tag_78\n      jump\t// in\n    tag_131:\n        /* \"#utility.yul\":3803:4025   */\n      swap3\n      swap2\n      pop\n      pop\n      jump\t// out\n        /* \"#utility.yul\":4031:4147   */\n    tag_79:\n        /* \"#utility.yul\":4101:4122   */\n      tag_133\n        /* \"#utility.yul\":4116:4121   */\n      dup2\n        /* \"#utility.yul\":4101:4122   */\n      tag_75\n      jump\t// in\n    tag_133:\n        /* \"#utility.yul\":4094:4099   */\n      dup2\n        /* \"#utility.yul\":4091:4123   */\n      eq\n        /* \"#utility.yul\":4081:4141   */\n      tag_134\n      jumpi\n        /* \"#utility.yul\":4137:4138   */\n      0x00\n        /* \"#utility.yul\":4134:4135   */\n      dup1\n        /* \"#utility.yul\":4127:4139   */\n      revert\n        /* \"#utility.yul\":4081:4141   */\n    tag_134:\n        /* \"#utility.yul\":4031:4147   */\n      pop\n      jump\t// out\n        /* \"#utility.yul\":4153:4290   */\n    tag_80:\n        /* \"#utility.yul\":4207:4212   */\n      0x00\n        /* \"#utility.yul\":4238:4244   */\n      dup2\n        /* \"#utility.yul\":4232:4245   */\n      mload\n        /* \"#utility.yul\":4223:4245   */\n      swap1\n      pop\n        /* \"#utility.yul\":4254:4284   */\n      tag_136\n        /* \"#utility.yul\":4278:4283   */\n      dup2\n        /* \"#utility.yul\":4254:4284   */\n      tag_79\n      jump\t// in\n    tag_136:\n        /* \"#utility.yul\":4153:4290   */\n      swap3\n      swap2\n      pop\n      pop\n      jump\t// out\n        /* \"#utility.yul\":4296:4641   */\n    tag_33:\n        /* \"#utility.yul\":4363:4369   */\n      0x00\n        /* \"#utility.yul\":4412:4414   */\n      0x20\n        /* \"#utility.yul\":4400:4409   */\n      dup3\n        /* \"#utility.yul\":4391:4398   */\n      dup5\n        /* \"#utility.yul\":4387:4410   */\n      sub\n        /* \"#utility.yul\":4383:4415   */\n      slt\n        /* \"#utility.yul\":4380:4499   */\n      iszero\n      tag_138\n      jumpi\n        /* \"#utility.yul\":4418:4497   */\n      tag_139\n      tag_70\n      jump\t// in\n    tag_139:\n        /* \"#utility.yul\":4380:4499   */\n    tag_138:\n        /* \"#utility.yul\":4538:4539   */\n      0x00\n        /* \"#utility.yul\":4563:4624   */\n      tag_140\n        /* \"#utility.yul\":4616:4623   */\n      dup5\n        /* \"#utility.yul\":4607:4613   */\n      dup3\n        /* \"#utility.yul\":4596:4605   */\n      dup6\n        /* \"#utility.yul\":4592:4614   */\n      add\n        /* \"#utility.yul\":4563:4624   */\n      tag_80\n      jump\t// in\n    tag_140:\n        /* \"#utility.yul\":4553:4624   */\n      swap2\n      pop\n        /* \"#utility.yul\":4509:4634   */\n      pop\n        /* \"#utility.yul\":4296:4641   */\n      swap3\n      swap2\n      pop\n      pop\n      jump\t// out\n        /* \"#utility.yul\":4647:4820   */\n    tag_81:\n        /* \"#utility.yul\":4787:4812   */\n      0x437573746f6d657220616c726561647920657869737473000000000000000000\n        /* \"#utility.yul\":4783:4784   */\n      0x00\n        /* \"#utility.yul\":4775:4781   */\n      dup3\n        /* \"#utility.yul\":4771:4785   */\n      add\n        /* \"#utility.yul\":4764:4813   */\n      mstore\n        /* \"#utility.yul\":4647:4820   */\n      pop\n      jump\t// out\n        /* \"#utility.yul\":4826:5192   */\n    tag_82:\n        /* \"#utility.yul\":4968:4971   */\n      0x00\n        /* \"#utility.yul\":4989:5056   */\n      tag_143\n        /* \"#utility.yul\":5053:5055   */\n      0x17\n        /* \"#utility.yul\":5048:5051   */\n      dup4\n        /* \"#utility.yul\":4989:5056   */\n      tag_65\n      jump\t// in\n    tag_143:\n        /* \"#utility.yul\":4982:5056   */\n      swap2\n      pop\n        /* \"#utility.yul\":5065:5158   */\n      tag_144\n        /* \"#utility.yul\":5154:5157   */\n      dup3\n        /* \"#utility.yul\":5065:5158   */\n      tag_81\n      jump\t// in\n    tag_144:\n        /* \"#utility.yul\":5183:5185   */\n      0x20\n        /* \"#utility.yul\":5178:5181   */\n      dup3\n        /* \"#utility.yul\":5174:5186   */\n      add\n        /* \"#utility.yul\":5167:5186   */\n      swap1\n      pop\n        /* \"#utility.yul\":4826:5192   */\n      swap2\n      swap1\n      pop\n      jump\t// out\n        /* \"#utility.yul\":5198:5617   */\n    tag_36:\n        /* \"#utility.yul\":5364:5368   */\n      0x00\n        /* \"#utility.yul\":5402:5404   */\n      0x20\n        /* \"#utility.yul\":5391:5400   */\n      dup3\n        /* \"#utility.yul\":5387:5405   */\n      add\n        /* \"#utility.yul\":5379:5405   */\n      swap1\n      pop\n        /* \"#utility.yul\":5451:5460   */\n      dup2\n        /* \"#utility.yul\":5445:5449   */\n      dup2\n        /* \"#utility.yul\":5441:5461   */\n      sub\n        /* \"#utility.yul\":5437:5438   */\n      0x00\n        /* \"#utility.yul\":5426:5435   */\n      dup4\n        /* \"#utility.yul\":5422:5439   */\n      add\n        /* \"#utility.yul\":5415:5462   */\n      mstore\n        /* \"#utility.yul\":5479:5610   */\n      tag_146\n        /* \"#utility.yul\":5605:5609   */\n      dup2\n        /* \"#utility.yul\":5479:5610   */\n      tag_82\n      jump\t// in\n    tag_146:\n        /* \"#utility.yul\":5471:5610   */\n      swap1\n      pop\n        /* \"#utility.yul\":5198:5617   */\n      swap2\n      swap1\n      pop\n      jump\t// out\n        /* \"#utility.yul\":5623:5749   */\n    tag_83:\n        /* \"#utility.yul\":5660:5667   */\n      0x00\n        /* \"#utility.yul\":5700:5742   */\n      0xffffffffffffffffffffffffffffffffffffffff\n        /* \"#utility.yul\":5693:5698   */\n      dup3\n        /* \"#utility.yul\":5689:5743   */\n      and\n        /* \"#utility.yul\":5678:5743   */\n      swap1\n      pop\n        /* \"#utility.yul\":5623:5749   */\n      swap2\n      swap1\n      pop\n      jump\t// out\n        /* \"#utility.yul\":5755:5851   */\n    tag_84:\n        /* \"#utility.yul\":5792:5799   */\n      0x00\n        /* \"#utility.yul\":5821:5845   */\n      tag_149\n        /* \"#utility.yul\":5839:5844   */\n      dup3\n        /* \"#utility.yul\":5821:5845   */\n      tag_83\n      jump\t// in\n    tag_149:\n        /* \"#utility.yul\":5810:5845   */\n      swap1\n      pop\n        /* \"#utility.yul\":5755:5851   */\n      swap2\n      swap1\n      pop\n      jump\t// out\n        /* \"#utility.yul\":5857:5975   */\n    tag_85:\n        /* \"#utility.yul\":5944:5968   */\n      tag_151\n        /* \"#utility.yul\":5962:5967   */\n      dup2\n        /* \"#utility.yul\":5944:5968   */\n      tag_84\n      jump\t// in\n    tag_151:\n        /* \"#utility.yul\":5939:5942   */\n      dup3\n        /* \"#utility.yul\":5932:5969   */\n      mstore\n        /* \"#utility.yul\":5857:5975   */\n      pop\n      pop\n      jump\t// out\n        /* \"#utility.yul\":5981:6313   */\n    tag_40:\n        /* \"#utility.yul\":6102:6106   */\n      0x00\n        /* \"#utility.yul\":6140:6142   */\n      0x40\n        /* \"#utility.yul\":6129:6138   */\n      dup3\n        /* \"#utility.yul\":6125:6143   */\n      add\n        /* \"#utility.yul\":6117:6143   */\n      swap1\n      pop\n        /* \"#utility.yul\":6153:6224   */\n      tag_153\n        /* \"#utility.yul\":6221:6222   */\n      0x00\n        /* \"#utility.yul\":6210:6219   */\n      dup4\n        /* \"#utility.yul\":6206:6223   */\n      add\n        /* \"#utility.yul\":6197:6203   */\n      dup6\n        /* \"#utility.yul\":6153:6224   */\n      tag_78\n      jump\t// in\n    tag_153:\n        /* \"#utility.yul\":6234:6306   */\n      tag_154\n        /* \"#utility.yul\":6302:6304   */\n      0x20\n        /* \"#utility.yul\":6291:6300   */\n      dup4\n        /* \"#utility.yul\":6287:6305   */\n      add\n        /* \"#utility.yul\":6278:6284   */\n      dup5\n        /* \"#utility.yul\":6234:6306   */\n      tag_85\n      jump\t// in\n    tag_154:\n        /* \"#utility.yul\":5981:6313   */\n      swap4\n      swap3\n      pop\n      pop\n      pop\n      jump\t// out\n        /* \"#utility.yul\":6319:6651   */\n    tag_43:\n        /* \"#utility.yul\":6440:6444   */\n      0x00\n        /* \"#utility.yul\":6478:6480   */\n      0x40\n        /* \"#utility.yul\":6467:6476   */\n      dup3\n        /* \"#utility.yul\":6463:6481   */\n      add\n        /* \"#utility.yul\":6455:6481   */\n      swap1\n      pop\n        /* \"#utility.yul\":6491:6562   */\n      tag_156\n        /* \"#utility.yul\":6559:6560   */\n      0x00\n        /* \"#utility.yul\":6548:6557   */\n      dup4\n        /* \"#utility.yul\":6544:6561   */\n      add\n        /* \"#utility.yul\":6535:6541   */\n      dup6\n        /* \"#utility.yul\":6491:6562   */\n      tag_78\n      jump\t// in\n    tag_156:\n        /* \"#utility.yul\":6572:6644   */\n      tag_157\n        /* \"#utility.yul\":6640:6642   */\n      0x20\n        /* \"#utility.yul\":6629:6638   */\n      dup4\n        /* \"#utility.yul\":6625:6643   */\n      add\n        /* \"#utility.yul\":6616:6622   */\n      dup5\n        /* \"#utility.yul\":6572:6644   */\n      tag_78\n      jump\t// in\n    tag_157:\n        /* \"#utility.yul\":6319:6651   */\n      swap4\n      swap3\n      pop\n      pop\n      pop\n      jump\t// out\n        /* \"#utility.yul\":6657:6989   */\n    tag_48:\n        /* \"#utility.yul\":6778:6782   */\n      0x00\n        /* \"#utility.yul\":6816:6818   */\n      0x40\n        /* \"#utility.yul\":6805:6814   */\n      dup3\n        /* \"#utility.yul\":6801:6819   */\n      add\n        /* \"#utility.yul\":6793:6819   */\n      swap1\n      pop\n        /* \"#utility.yul\":6829:6900   */\n      tag_159\n        /* \"#utility.yul\":6897:6898   */\n      0x00\n        /* \"#utility.yul\":6886:6895   */\n      dup4\n        /* \"#utility.yul\":6882:6899   */\n      add\n        /* \"#utility.yul\":6873:6879   */\n      dup6\n        /* \"#utility.yul\":6829:6900   */\n      tag_85\n      jump\t// in\n    tag_159:\n        /* \"#utility.yul\":6910:6982   */\n      tag_160\n        /* \"#utility.yul\":6978:6980   */\n      0x20\n        /* \"#utility.yul\":6967:6976   */\n      dup4\n        /* \"#utility.yul\":6963:6981   */\n      add\n        /* \"#utility.yul\":6954:6960   */\n      dup5\n        /* \"#utility.yul\":6910:6982   */\n      tag_78\n      jump\t// in\n    tag_160:\n        /* \"#utility.yul\":6657:6989   */\n      swap4\n      swap3\n      pop\n      pop\n      pop\n      jump\t// out\n        /* \"#utility.yul\":6995:7168   */\n    tag_86:\n        /* \"#utility.yul\":7135:7160   */\n      0x437573746f6d657220646f6573206e6f74206578697374000000000000000000\n        /* \"#utility.yul\":7131:7132   */\n      0x00\n        /* \"#utility.yul\":7123:7129   */\n      dup3\n        /* \"#utility.yul\":7119:7133   */\n      add\n        /* \"#utility.yul\":7112:7161   */\n      mstore\n        /* \"#utility.yul\":6995:7168   */\n      pop\n      jump\t// out\n        /* \"#utility.yul\":7174:7540   */\n    tag_87:\n        /* \"#utility.yul\":7316:7319   */\n      0x00\n        /* \"#utility.yul\":7337:7404   */\n      tag_163\n        /* \"#utility.yul\":7401:7403   */\n      0x17\n        /* \"#utility.yul\":7396:7399   */\n      dup4\n        /* \"#utility.yul\":7337:7404   */\n      tag_65\n      jump\t// in\n    tag_163:\n        /* \"#utility.yul\":7330:7404   */\n      swap2\n      pop\n        /* \"#utility.yul\":7413:7506   */\n      tag_164\n        /* \"#utility.yul\":7502:7505   */\n      dup3\n        /* \"#utility.yul\":7413:7506   */\n      tag_86\n      jump\t// in\n    tag_164:\n        /* \"#utility.yul\":7531:7533   */\n      0x20\n        /* \"#utility.yul\":7526:7529   */\n      dup3\n        /* \"#utility.yul\":7522:7534   */\n      add\n        /* \"#utility.yul\":7515:7534   */\n      swap1\n      pop\n        /* \"#utility.yul\":7174:7540   */\n      swap2\n      swap1\n      pop\n      jump\t// out\n        /* \"#utility.yul\":7546:7965   */\n    tag_59:\n        /* \"#utility.yul\":7712:7716   */\n      0x00\n        /* \"#utility.yul\":7750:7752   */\n      0x20\n        /* \"#utility.yul\":7739:7748   */\n      dup3\n        /* \"#utility.yul\":7735:7753   */\n      add\n        /* \"#utility.yul\":7727:7753   */\n      swap1\n      pop\n        /* \"#utility.yul\":7799:7808   */\n      dup2\n        /* \"#utility.yul\":7793:7797   */\n      dup2\n        /* \"#utility.yul\":7789:7809   */\n      sub\n        /* \"#utility.yul\":7785:7786   */\n      0x00\n        /* \"#utility.yul\":7774:7783   */\n      dup4\n        /* \"#utility.yul\":7770:7787   */\n      add\n        /* \"#utility.yul\":7763:7810   */\n      mstore\n        /* \"#utility.yul\":7827:7958   */\n      tag_166\n        /* \"#utility.yul\":7953:7957   */\n      dup2\n        /* \"#utility.yul\":7827:7958   */\n      tag_87\n      jump\t// in\n    tag_166:\n        /* \"#utility.yul\":7819:7958   */\n      swap1\n      pop\n        /* \"#utility.yul\":7546:7965   */\n      swap2\n      swap1\n      pop\n      jump\t// out\n    stop\n\n    sub_0: assembly {\n            /* \"PCD/contractS/Customer.sol\":101:2237  contract Customer {... */\n          mstore(0x40, 0x80)\n            /* \"PCD/contractS/Customer.sol\":625:775  constructor (uint256 client_id, address sharedStateAddress){... */\n          callvalue\n          dup1\n          iszero\n          tag_1\n          jumpi\n          0x00\n          dup1\n          revert\n        tag_1:\n          pop\n          mload(0x40)\n          sub(codesize, bytecodeSize)\n          dup1\n          bytecodeSize\n          dup4\n          codecopy\n          dup2\n          dup2\n          add\n          0x40\n          mstore\n          dup2\n          add\n          swap1\n          tag_2\n          swap2\n          swap1\n          tag_3\n          jump\t// in\n        tag_2:\n            /* \"PCD/contractS/Customer.sol\":700:709  client_id */\n          dup2\n            /* \"PCD/contractS/Customer.sol\":695:697  id */\n          0x00\n            /* \"PCD/contractS/Customer.sol\":695:709  id = client_id */\n          dup2\n          swap1\n          sstore\n          pop\n            /* \"PCD/contractS/Customer.sol\":746:764  sharedStateAddress */\n          dup1\n            /* \"PCD/contractS/Customer.sol\":720:731  sharedstate */\n          0x01\n          0x00\n            /* \"PCD/contractS/Customer.sol\":720:765  sharedstate = SharedState(sharedStateAddress) */\n          0x0100\n          exp\n          dup2\n          sload\n          dup2\n          0xffffffffffffffffffffffffffffffffffffffff\n          mul\n          not\n          and\n          swap1\n          dup4\n          0xffffffffffffffffffffffffffffffffffffffff\n          and\n          mul\n          or\n          swap1\n          sstore\n          pop\n            /* \"PCD/contractS/Customer.sol\":625:775  constructor (uint256 client_id, address sharedStateAddress){... */\n          pop\n          pop\n            /* \"PCD/contractS/Customer.sol\":101:2237  contract Customer {... */\n          jump(tag_6)\n            /* \"#utility.yul\":88:205   */\n        tag_8:\n            /* \"#utility.yul\":197:198   */\n          0x00\n            /* \"#utility.yul\":194:195   */\n          dup1\n            /* \"#utility.yul\":187:199   */\n          revert\n            /* \"#utility.yul\":334:411   */\n        tag_10:\n            /* \"#utility.yul\":371:378   */\n          0x00\n            /* \"#utility.yul\":400:405   */\n          dup2\n            /* \"#utility.yul\":389:405   */\n          swap1\n          pop\n            /* \"#utility.yul\":334:411   */\n          swap2\n          swap1\n          pop\n          jump\t// out\n            /* \"#utility.yul\":417:539   */\n        tag_11:\n            /* \"#utility.yul\":490:514   */\n          tag_23\n            /* \"#utility.yul\":508:513   */\n          dup2\n            /* \"#utility.yul\":490:514   */\n          tag_10\n          jump\t// in\n        tag_23:\n            /* \"#utility.yul\":483:488   */\n          dup2\n            /* \"#utility.yul\":480:515   */\n          eq\n            /* \"#utility.yul\":470:533   */\n          tag_24\n          jumpi\n            /* \"#utility.yul\":529:530   */\n          0x00\n            /* \"#utility.yul\":526:527   */\n          dup1\n            /* \"#utility.yul\":519:531   */\n          revert\n            /* \"#utility.yul\":470:533   */\n        tag_24:\n            /* \"#utility.yul\":417:539   */\n          pop\n          jump\t// out\n            /* \"#utility.yul\":545:688   */\n        tag_12:\n            /* \"#utility.yul\":602:607   */\n          0x00\n            /* \"#utility.yul\":633:639   */\n          dup2\n            /* \"#utility.yul\":627:640   */\n          mload\n            /* \"#utility.yul\":618:640   */\n          swap1\n          pop\n            /* \"#utility.yul\":649:682   */\n          tag_26\n            /* \"#utility.yul\":676:681   */\n          dup2\n            /* \"#utility.yul\":649:682   */\n          tag_11\n          jump\t// in\n        tag_26:\n            /* \"#utility.yul\":545:688   */\n          swap3\n          swap2\n          pop\n          pop\n          jump\t// out\n            /* \"#utility.yul\":694:820   */\n        tag_13:\n            /* \"#utility.yul\":731:738   */\n          0x00\n            /* \"#utility.yul\":771:813   */\n          0xffffffffffffffffffffffffffffffffffffffff\n            /* \"#utility.yul\":764:769   */\n          dup3\n            /* \"#utility.yul\":760:814   */\n          and\n            /* \"#utility.yul\":749:814   */\n          swap1\n          pop\n            /* \"#utility.yul\":694:820   */\n          swap2\n          swap1\n          pop\n          jump\t// out\n            /* \"#utility.yul\":826:922   */\n        tag_14:\n            /* \"#utility.yul\":863:870   */\n          0x00\n            /* \"#utility.yul\":892:916   */\n          tag_29\n            /* \"#utility.yul\":910:915   */\n          dup3\n            /* \"#utility.yul\":892:916   */\n          tag_13\n          jump\t// in\n        tag_29:\n            /* \"#utility.yul\":881:916   */\n          swap1\n          pop\n            /* \"#utility.yul\":826:922   */\n          swap2\n          swap1\n          pop\n          jump\t// out\n            /* \"#utility.yul\":928:1050   */\n        tag_15:\n            /* \"#utility.yul\":1001:1025   */\n          tag_31\n            /* \"#utility.yul\":1019:1024   */\n          dup2\n            /* \"#utility.yul\":1001:1025   */\n          tag_14\n          jump\t// in\n        tag_31:\n            /* \"#utility.yul\":994:999   */\n          dup2\n            /* \"#utility.yul\":991:1026   */\n          eq\n            /* \"#utility.yul\":981:1044   */\n          tag_32\n          jumpi\n            /* \"#utility.yul\":1040:1041   */\n          0x00\n            /* \"#utility.yul\":1037:1038   */\n          dup1\n            /* \"#utility.yul\":1030:1042   */\n          revert\n            /* \"#utility.yul\":981:1044   */\n        tag_32:\n            /* \"#utility.yul\":928:1050   */\n          pop\n          jump\t// out\n            /* \"#utility.yul\":1056:1199   */\n        tag_16:\n            /* \"#utility.yul\":1113:1118   */\n          0x00\n            /* \"#utility.yul\":1144:1150   */\n          dup2\n            /* \"#utility.yul\":1138:1151   */\n          mload\n            /* \"#utility.yul\":1129:1151   */\n          swap1\n          pop\n            /* \"#utility.yul\":1160:1193   */\n          tag_34\n            /* \"#utility.yul\":1187:1192   */\n          dup2\n            /* \"#utility.yul\":1160:1193   */\n          tag_15\n          jump\t// in\n        tag_34:\n            /* \"#utility.yul\":1056:1199   */\n          swap3\n          swap2\n          pop\n          pop\n          jump\t// out\n            /* \"#utility.yul\":1205:1712   */\n        tag_3:\n            /* \"#utility.yul\":1284:1290   */\n          0x00\n            /* \"#utility.yul\":1292:1298   */\n          dup1\n            /* \"#utility.yul\":1341:1343   */\n          0x40\n            /* \"#utility.yul\":1329:1338   */\n          dup4\n            /* \"#utility.yul\":1320:1327   */\n          dup6\n            /* \"#utility.yul\":1316:1339   */\n          sub\n            /* \"#utility.yul\":1312:1344   */\n          slt\n            /* \"#utility.yul\":1309:1428   */\n          iszero\n          tag_36\n          jumpi\n            /* \"#utility.yul\":1347:1426   */\n          tag_37\n          tag_8\n          jump\t// in\n        tag_37:\n            /* \"#utility.yul\":1309:1428   */\n        tag_36:\n            /* \"#utility.yul\":1467:1468   */\n          0x00\n            /* \"#utility.yul\":1492:1556   */\n          tag_38\n            /* \"#utility.yul\":1548:1555   */\n          dup6\n            /* \"#utility.yul\":1539:1545   */\n          dup3\n            /* \"#utility.yul\":1528:1537   */\n          dup7\n            /* \"#utility.yul\":1524:1546   */\n          add\n            /* \"#utility.yul\":1492:1556   */\n          tag_12\n          jump\t// in\n        tag_38:\n            /* \"#utility.yul\":1482:1556   */\n          swap3\n          pop\n            /* \"#utility.yul\":1438:1566   */\n          pop\n            /* \"#utility.yul\":1605:1607   */\n          0x20\n            /* \"#utility.yul\":1631:1695   */\n          tag_39\n            /* \"#utility.yul\":1687:1694   */\n          dup6\n            /* \"#utility.yul\":1678:1684   */\n          dup3\n            /* \"#utility.yul\":1667:1676   */\n          dup7\n            /* \"#utility.yul\":1663:1685   */\n          add\n            /* \"#utility.yul\":1631:1695   */\n          tag_16\n          jump\t// in\n        tag_39:\n            /* \"#utility.yul\":1621:1695   */\n          swap2\n          pop\n            /* \"#utility.yul\":1576:1705   */\n          pop\n            /* \"#utility.yul\":1205:1712   */\n          swap3\n          pop\n          swap3\n          swap1\n          pop\n          jump\t// out\n            /* \"PCD/contractS/Customer.sol\":101:2237  contract Customer {... */\n        tag_6:\n          dataSize(sub_0)\n          dup1\n          dataOffset(sub_0)\n          0x00\n          codecopy\n          0x00\n          return\n        stop\n\n        sub_0: assembly {\n                /* \"PCD/contractS/Customer.sol\":101:2237  contract Customer {... */\n              mstore(0x40, 0x80)\n              callvalue\n              dup1\n              iszero\n              tag_1\n              jumpi\n              0x00\n              dup1\n              revert\n            tag_1:\n              pop\n              jumpi(tag_2, lt(calldatasize, 0x04))\n              shr(0xe0, calldataload(0x00))\n              dup1\n              0x4d802abb\n              eq\n              tag_3\n              jumpi\n              dup1\n              0x7f286286\n              eq\n              tag_4\n              jumpi\n              dup1\n              0xe2627ccf\n              eq\n              tag_5\n              jumpi\n            tag_2:\n              0x00\n              dup1\n              revert\n                /* \"PCD/contractS/Customer.sol\":811:1222  function itemBought(uint256 item_price) public returns(bool){... */\n            tag_3:\n              tag_6\n              0x04\n              dup1\n              calldatasize\n              sub\n              dup2\n              add\n              swap1\n              tag_7\n              swap2\n              swap1\n              tag_8\n              jump\t// in\n            tag_7:\n              tag_9\n              jump\t// in\n            tag_6:\n              mload(0x40)\n              tag_10\n              swap2\n              swap1\n              tag_11\n              jump\t// in\n            tag_10:\n              mload(0x40)\n              dup1\n              swap2\n              sub\n              swap1\n              return\n                /* \"PCD/contractS/Customer.sol\":1986:2143  function checkBalance(uint256 _id) public view returns (uint256 _balance) {... */\n            tag_4:\n              tag_12\n              0x04\n              dup1\n              calldatasize\n              sub\n              dup2\n              add\n              swap1\n              tag_13\n              swap2\n              swap1\n              tag_8\n              jump\t// in\n            tag_13:\n              tag_14\n              jump\t// in\n            tag_12:\n              mload(0x40)\n              tag_15\n              swap2\n              swap1\n              tag_16\n              jump\t// in\n            tag_15:\n              mload(0x40)\n              dup1\n              swap2\n              sub\n              swap1\n              return\n                /* \"PCD/contractS/Customer.sol\":1275:1940  function transferPoints(uint256 _to, uint256 _amount) public returns (bool) {... */\n            tag_5:\n              tag_17\n              0x04\n              dup1\n              calldatasize\n              sub\n              dup2\n              add\n              swap1\n              tag_18\n              swap2\n              swap1\n              tag_19\n              jump\t// in\n            tag_18:\n              tag_20\n              jump\t// in\n            tag_17:\n              mload(0x40)\n              tag_21\n              swap2\n              swap1\n              tag_11\n              jump\t// in\n            tag_21:\n              mload(0x40)\n              dup1\n              swap2\n              sub\n              swap1\n              return\n                /* \"PCD/contractS/Customer.sol\":811:1222  function itemBought(uint256 item_price) public returns(bool){... */\n            tag_9:\n                /* \"PCD/contractS/Customer.sol\":866:870  bool */\n              0x00\n                /* \"PCD/contractS/Customer.sol\":882:904  uint256 currentBalance */\n              dup1\n                /* \"PCD/contractS/Customer.sol\":907:918  sharedstate */\n              0x01\n              0x00\n              swap1\n              sload\n              swap1\n              0x0100\n              exp\n              swap1\n              div\n              0xffffffffffffffffffffffffffffffffffffffff\n              and\n                /* \"PCD/contractS/Customer.sol\":907:929  sharedstate.getBalance */\n              0xffffffffffffffffffffffffffffffffffffffff\n              and\n              0x1e010439\n                /* \"PCD/contractS/Customer.sol\":930:932  id */\n              sload(0x00)\n                /* \"PCD/contractS/Customer.sol\":907:933  sharedstate.getBalance(id) */\n              mload(0x40)\n              dup3\n              0xffffffff\n              and\n              0xe0\n              shl\n              dup2\n              mstore\n              0x04\n              add\n              tag_23\n              swap2\n              swap1\n              tag_16\n              jump\t// in\n            tag_23:\n              0x20\n              mload(0x40)\n              dup1\n              dup4\n              sub\n              dup2\n              dup7\n              gas\n              staticcall\n              iszero\n              dup1\n              iszero\n              tag_25\n              jumpi\n              returndatasize\n              0x00\n              dup1\n              returndatacopy\n              revert(0x00, returndatasize)\n            tag_25:\n              pop\n              pop\n              pop\n              pop\n              mload(0x40)\n              returndatasize\n              not(0x1f)\n              0x1f\n              dup3\n              add\n              and\n              dup3\n              add\n              dup1\n              0x40\n              mstore\n              pop\n              dup2\n              add\n              swap1\n              tag_26\n              swap2\n              swap1\n              tag_27\n              jump\t// in\n            tag_26:\n                /* \"PCD/contractS/Customer.sol\":882:933  uint256 currentBalance = sharedstate.getBalance(id) */\n              swap1\n              pop\n                /* \"PCD/contractS/Customer.sol\":970:980  item_price */\n              dup3\n                /* \"PCD/contractS/Customer.sol\":952:966  currentBalance */\n              dup2\n                /* \"PCD/contractS/Customer.sol\":952:980  currentBalance >= item_price */\n              lt\n              iszero\n                /* \"PCD/contractS/Customer.sol\":944:1022  require(currentBalance >= item_price, \"Insufficient balance to purchase item\") */\n              tag_28\n              jumpi\n              mload(0x40)\n              0x08c379a000000000000000000000000000000000000000000000000000000000\n              dup2\n              mstore\n              0x04\n              add\n              tag_29\n              swap1\n              tag_30\n              jump\t// in\n            tag_29:\n              mload(0x40)\n              dup1\n              swap2\n              sub\n              swap1\n              revert\n            tag_28:\n                /* \"PCD/contractS/Customer.sol\":1033:1051  uint256 newBalance */\n              0x00\n                /* \"PCD/contractS/Customer.sol\":1071:1081  item_price */\n              dup4\n                /* \"PCD/contractS/Customer.sol\":1054:1068  currentBalance */\n              dup3\n                /* \"PCD/contractS/Customer.sol\":1054:1081  currentBalance - item_price */\n              tag_31\n              swap2\n              swap1\n              tag_32\n              jump\t// in\n            tag_31:\n                /* \"PCD/contractS/Customer.sol\":1033:1081  uint256 newBalance = currentBalance - item_price */\n              swap1\n              pop\n                /* \"PCD/contractS/Customer.sol\":1092:1103  sharedstate */\n              0x01\n              0x00\n              swap1\n              sload\n              swap1\n              0x0100\n              exp\n              swap1\n              div\n              0xffffffffffffffffffffffffffffffffffffffff\n              and\n                /* \"PCD/contractS/Customer.sol\":1092:1114  sharedstate.setBalance */\n              0xffffffffffffffffffffffffffffffffffffffff\n              and\n              0x4a4b9feb\n                /* \"PCD/contractS/Customer.sol\":1115:1117  id */\n              sload(0x00)\n                /* \"PCD/contractS/Customer.sol\":1119:1129  newBalance */\n              dup4\n                /* \"PCD/contractS/Customer.sol\":1092:1130  sharedstate.setBalance(id, newBalance) */\n              mload(0x40)\n              dup4\n              0xffffffff\n              and\n              0xe0\n              shl\n              dup2\n              mstore\n              0x04\n              add\n              tag_33\n              swap3\n              swap2\n              swap1\n              tag_34\n              jump\t// in\n            tag_33:\n              0x00\n              mload(0x40)\n              dup1\n              dup4\n              sub\n              dup2\n              0x00\n              dup8\n              dup1\n              extcodesize\n              iszero\n              dup1\n              iszero\n              tag_35\n              jumpi\n              0x00\n              dup1\n              revert\n            tag_35:\n              pop\n              gas\n              call\n              iszero\n              dup1\n              iszero\n              tag_37\n              jumpi\n              returndatasize\n              0x00\n              dup1\n              returndatacopy\n              revert(0x00, returndatasize)\n            tag_37:\n              pop\n              pop\n              pop\n              pop\n                /* \"PCD/contractS/Customer.sol\":1160:1162  id */\n              sload(0x00)\n                /* \"PCD/contractS/Customer.sol\":1146:1192  ItemPurchased(id, item_price, block.timestamp) */\n              0x913d222564a08ee6d9c6a374a75d452883fff7d55c9c4f3d982ee2820f240375\n                /* \"PCD/contractS/Customer.sol\":1164:1174  item_price */\n              dup6\n                /* \"PCD/contractS/Customer.sol\":1176:1191  block.timestamp */\n              timestamp\n                /* \"PCD/contractS/Customer.sol\":1146:1192  ItemPurchased(id, item_price, block.timestamp) */\n              mload(0x40)\n              tag_38\n              swap3\n              swap2\n              swap1\n              tag_34\n              jump\t// in\n            tag_38:\n              mload(0x40)\n              dup1\n              swap2\n              sub\n              swap1\n              log2\n                /* \"PCD/contractS/Customer.sol\":1210:1214  true */\n              0x01\n                /* \"PCD/contractS/Customer.sol\":1203:1214  return true */\n              swap3\n              pop\n              pop\n              pop\n                /* \"PCD/contractS/Customer.sol\":811:1222  function itemBought(uint256 item_price) public returns(bool){... */\n              swap2\n              swap1\n              pop\n              jump\t// out\n                /* \"PCD/contractS/Customer.sol\":1986:2143  function checkBalance(uint256 _id) public view returns (uint256 _balance) {... */\n            tag_14:\n                /* \"PCD/contractS/Customer.sol\":2042:2058  uint256 _balance */\n              0x00\n                /* \"PCD/contractS/Customer.sol\":2082:2093  sharedstate */\n              0x01\n              0x00\n              swap1\n              sload\n              swap1\n              0x0100\n              exp\n              swap1\n              div\n              0xffffffffffffffffffffffffffffffffffffffff\n              and\n                /* \"PCD/contractS/Customer.sol\":2082:2104  sharedstate.getBalance */\n              0xffffffffffffffffffffffffffffffffffffffff\n              and\n              0x1e010439\n                /* \"PCD/contractS/Customer.sol\":2105:2108  _id */\n              dup4\n                /* \"PCD/contractS/Customer.sol\":2082:2109  sharedstate.getBalance(_id) */\n              mload(0x40)\n              dup3\n              0xffffffff\n              and\n              0xe0\n              shl\n              dup2\n              mstore\n              0x04\n              add\n              tag_40\n              swap2\n              swap1\n              tag_16\n              jump\t// in\n            tag_40:\n              0x20\n              mload(0x40)\n              dup1\n              dup4\n              sub\n              dup2\n              dup7\n              gas\n              staticcall\n              iszero\n              dup1\n              iszero\n              tag_42\n              jumpi\n              returndatasize\n              0x00\n              dup1\n              returndatacopy\n              revert(0x00, returndatasize)\n            tag_42:\n              pop\n              pop\n              pop\n              pop\n              mload(0x40)\n              returndatasize\n              not(0x1f)\n              0x1f\n              dup3\n              add\n              and\n              dup3\n              add\n              dup1\n              0x40\n              mstore\n              pop\n              dup2\n              add\n              swap1\n              tag_43\n              swap2\n              swap1\n              tag_27\n              jump\t// in\n            tag_43:\n                /* \"PCD/contractS/Customer.sol\":2071:2109  _balance = sharedstate.getBalance(_id) */\n              swap1\n              pop\n                /* \"PCD/contractS/Customer.sol\":1986:2143  function checkBalance(uint256 _id) public view returns (uint256 _balance) {... */\n              swap2\n              swap1\n              pop\n              jump\t// out\n                /* \"PCD/contractS/Customer.sol\":1275:1940  function transferPoints(uint256 _to, uint256 _amount) public returns (bool) {... */\n            tag_20:\n                /* \"PCD/contractS/Customer.sol\":1345:1349  bool */\n              0x00\n                /* \"PCD/contractS/Customer.sol\":1362:1382  uint256 current_from */\n              dup1\n                /* \"PCD/contractS/Customer.sol\":1385:1396  sharedstate */\n              0x01\n              0x00\n              swap1\n              sload\n              swap1\n              0x0100\n              exp\n              swap1\n              div\n              0xffffffffffffffffffffffffffffffffffffffff\n              and\n                /* \"PCD/contractS/Customer.sol\":1385:1407  sharedstate.getBalance */\n              0xffffffffffffffffffffffffffffffffffffffff\n              and\n              0x1e010439\n                /* \"PCD/contractS/Customer.sol\":1408:1410  id */\n              sload(0x00)\n                /* \"PCD/contractS/Customer.sol\":1385:1411  sharedstate.getBalance(id) */\n              mload(0x40)\n              dup3\n              0xffffffff\n              and\n              0xe0\n              shl\n              dup2\n              mstore\n              0x04\n              add\n              tag_45\n              swap2\n              swap1\n              tag_16\n              jump\t// in\n            tag_45:\n              0x20\n              mload(0x40)\n              dup1\n              dup4\n              sub\n              dup2\n              dup7\n              gas\n              staticcall\n              iszero\n              dup1\n              iszero\n              tag_47\n              jumpi\n              returndatasize\n              0x00\n              dup1\n              returndatacopy\n              revert(0x00, returndatasize)\n            tag_47:\n              pop\n              pop\n              pop\n              pop\n              mload(0x40)\n              returndatasize\n              not(0x1f)\n              0x1f\n              dup3\n              add\n              and\n              dup3\n              add\n              dup1\n              0x40\n              mstore\n              pop\n              dup2\n              add\n              swap1\n              tag_48\n              swap2\n              swap1\n              tag_27\n              jump\t// in\n            tag_48:\n                /* \"PCD/contractS/Customer.sol\":1362:1411  uint256 current_from = sharedstate.getBalance(id) */\n              swap1\n              pop\n                /* \"PCD/contractS/Customer.sol\":1446:1453  _amount */\n              dup3\n                /* \"PCD/contractS/Customer.sol\":1430:1442  current_from */\n              dup2\n                /* \"PCD/contractS/Customer.sol\":1430:1453  current_from >= _amount */\n              lt\n              iszero\n                /* \"PCD/contractS/Customer.sol\":1422:1497  require(current_from >= _amount, \"Insufficient balance to transfer points\") */\n              tag_49\n              jumpi\n              mload(0x40)\n              0x08c379a000000000000000000000000000000000000000000000000000000000\n              dup2\n              mstore\n              0x04\n              add\n              tag_50\n              swap1\n              tag_51\n              jump\t// in\n            tag_50:\n              mload(0x40)\n              dup1\n              swap2\n              sub\n              swap1\n              revert\n            tag_49:\n                /* \"PCD/contractS/Customer.sol\":1508:1526  uint256 current_to */\n              0x00\n                /* \"PCD/contractS/Customer.sol\":1529:1540  sharedstate */\n              0x01\n              0x00\n              swap1\n              sload\n              swap1\n              0x0100\n              exp\n              swap1\n              div\n              0xffffffffffffffffffffffffffffffffffffffff\n              and\n                /* \"PCD/contractS/Customer.sol\":1529:1551  sharedstate.getBalance */\n              0xffffffffffffffffffffffffffffffffffffffff\n              and\n              0x1e010439\n                /* \"PCD/contractS/Customer.sol\":1552:1555  _to */\n              dup7\n                /* \"PCD/contractS/Customer.sol\":1529:1556  sharedstate.getBalance(_to) */\n              mload(0x40)\n              dup3\n              0xffffffff\n              and\n              0xe0\n              shl\n              dup2\n              mstore\n              0x04\n              add\n              tag_52\n              swap2\n              swap1\n              tag_16\n              jump\t// in\n            tag_52:\n              0x20\n              mload(0x40)\n              dup1\n              dup4\n              sub\n              dup2\n              dup7\n              gas\n              staticcall\n              iszero\n              dup1\n              iszero\n              tag_54\n              jumpi\n              returndatasize\n              0x00\n              dup1\n              returndatacopy\n              revert(0x00, returndatasize)\n            tag_54:\n              pop\n              pop\n              pop\n              pop\n              mload(0x40)\n              returndatasize\n              not(0x1f)\n              0x1f\n              dup3\n              add\n              and\n              dup3\n              add\n              dup1\n              0x40\n              mstore\n              pop\n              dup2\n              add\n              swap1\n              tag_55\n              swap2\n              swap1\n              tag_27\n              jump\t// in\n            tag_55:\n                /* \"PCD/contractS/Customer.sol\":1508:1556  uint256 current_to = sharedstate.getBalance(_to) */\n              swap1\n              pop\n                /* \"PCD/contractS/Customer.sol\":1567:1590  uint256 newBalance_from */\n              0x00\n                /* \"PCD/contractS/Customer.sol\":1608:1615  _amount */\n              dup5\n                /* \"PCD/contractS/Customer.sol\":1593:1605  current_from */\n              dup4\n                /* \"PCD/contractS/Customer.sol\":1593:1615  current_from - _amount */\n              tag_56\n              swap2\n              swap1\n              tag_32\n              jump\t// in\n            tag_56:\n                /* \"PCD/contractS/Customer.sol\":1567:1615  uint256 newBalance_from = current_from - _amount */\n              swap1\n              pop\n                /* \"PCD/contractS/Customer.sol\":1626:1647  uint256 newBlanace_to */\n              0x00\n                /* \"PCD/contractS/Customer.sol\":1663:1670  _amount */\n              dup6\n                /* \"PCD/contractS/Customer.sol\":1650:1660  current_to */\n              dup4\n                /* \"PCD/contractS/Customer.sol\":1650:1670  current_to + _amount */\n              tag_57\n              swap2\n              swap1\n              tag_58\n              jump\t// in\n            tag_57:\n                /* \"PCD/contractS/Customer.sol\":1626:1670  uint256 newBlanace_to = current_to + _amount */\n              swap1\n              pop\n                /* \"PCD/contractS/Customer.sol\":1681:1692  sharedstate */\n              0x01\n              0x00\n              swap1\n              sload\n              swap1\n              0x0100\n              exp\n              swap1\n              div\n              0xffffffffffffffffffffffffffffffffffffffff\n              and\n                /* \"PCD/contractS/Customer.sol\":1681:1703  sharedstate.setBalance */\n              0xffffffffffffffffffffffffffffffffffffffff\n              and\n              0x4a4b9feb\n                /* \"PCD/contractS/Customer.sol\":1704:1706  id */\n              sload(0x00)\n                /* \"PCD/contractS/Customer.sol\":1708:1723  newBalance_from */\n              dup5\n                /* \"PCD/contractS/Customer.sol\":1681:1724  sharedstate.setBalance(id, newBalance_from) */\n              mload(0x40)\n              dup4\n              0xffffffff\n              and\n              0xe0\n              shl\n              dup2\n              mstore\n              0x04\n              add\n              tag_59\n              swap3\n              swap2\n              swap1\n              tag_34\n              jump\t// in\n            tag_59:\n              0x00\n              mload(0x40)\n              dup1\n              dup4\n              sub\n              dup2\n              0x00\n              dup8\n              dup1\n              extcodesize\n              iszero\n              dup1\n              iszero\n              tag_60\n              jumpi\n              0x00\n              dup1\n              revert\n            tag_60:\n              pop\n              gas\n              call\n              iszero\n              dup1\n              iszero\n              tag_62\n              jumpi\n              returndatasize\n              0x00\n              dup1\n              returndatacopy\n              revert(0x00, returndatasize)\n            tag_62:\n              pop\n              pop\n              pop\n              pop\n                /* \"PCD/contractS/Customer.sol\":1735:1746  sharedstate */\n              0x01\n              0x00\n              swap1\n              sload\n              swap1\n              0x0100\n              exp\n              swap1\n              div\n              0xffffffffffffffffffffffffffffffffffffffff\n              and\n                /* \"PCD/contractS/Customer.sol\":1735:1757  sharedstate.setBalance */\n              0xffffffffffffffffffffffffffffffffffffffff\n              and\n              0x4a4b9feb\n                /* \"PCD/contractS/Customer.sol\":1758:1761  _to */\n              dup9\n                /* \"PCD/contractS/Customer.sol\":1763:1776  newBlanace_to */\n              dup4\n                /* \"PCD/contractS/Customer.sol\":1735:1777  sharedstate.setBalance(_to, newBlanace_to) */\n              mload(0x40)\n              dup4\n              0xffffffff\n              and\n              0xe0\n              shl\n              dup2\n              mstore\n              0x04\n              add\n              tag_63\n              swap3\n              swap2\n              swap1\n              tag_34\n              jump\t// in\n            tag_63:\n              0x00\n              mload(0x40)\n              dup1\n              dup4\n              sub\n              dup2\n              0x00\n              dup8\n              dup1\n              extcodesize\n              iszero\n              dup1\n              iszero\n              tag_64\n              jumpi\n              0x00\n              dup1\n              revert\n            tag_64:\n              pop\n              gas\n              call\n              iszero\n              dup1\n              iszero\n              tag_66\n              jumpi\n              returndatasize\n              0x00\n              dup1\n              returndatacopy\n              revert(0x00, returndatasize)\n            tag_66:\n              pop\n              pop\n              pop\n              pop\n                /* \"PCD/contractS/Customer.sol\":1815:1818  _to */\n              dup7\n                /* \"PCD/contractS/Customer.sol\":1811:1813  id */\n              sload(0x00)\n                /* \"PCD/contractS/Customer.sol\":1793:1845  PointsTransferred(id, _to, _amount, block.timestamp) */\n              0x270d555906e5d6b40bc118b63a231daa86493c7d7b32af1a91fb621c9380e26a\n                /* \"PCD/contractS/Customer.sol\":1820:1827  _amount */\n              dup9\n                /* \"PCD/contractS/Customer.sol\":1829:1844  block.timestamp */\n              timestamp\n                /* \"PCD/contractS/Customer.sol\":1793:1845  PointsTransferred(id, _to, _amount, block.timestamp) */\n              mload(0x40)\n              tag_67\n              swap3\n              swap2\n              swap1\n              tag_34\n              jump\t// in\n            tag_67:\n              mload(0x40)\n              dup1\n              swap2\n              sub\n              swap1\n              log3\n                /* \"PCD/contractS/Customer.sol\":1881:1883  id */\n              sload(0x00)\n                /* \"PCD/contractS/Customer.sol\":1876:1879  _to */\n              dup8\n                /* \"PCD/contractS/Customer.sol\":1861:1910  PointsReceived(_to, id, _amount, block.timestamp) */\n              0x04c3e90d4447521168eb1fc57db7e97ac06c0874538cf486849946416f5326f7\n                /* \"PCD/contractS/Customer.sol\":1885:1892  _amount */\n              dup9\n                /* \"PCD/contractS/Customer.sol\":1894:1909  block.timestamp */\n              timestamp\n                /* \"PCD/contractS/Customer.sol\":1861:1910  PointsReceived(_to, id, _amount, block.timestamp) */\n              mload(0x40)\n              tag_68\n              swap3\n              swap2\n              swap1\n              tag_34\n              jump\t// in\n            tag_68:\n              mload(0x40)\n              dup1\n              swap2\n              sub\n              swap1\n              log3\n                /* \"PCD/contractS/Customer.sol\":1928:1932  true */\n              0x01\n                /* \"PCD/contractS/Customer.sol\":1921:1932  return true */\n              swap5\n              pop\n              pop\n              pop\n              pop\n              pop\n                /* \"PCD/contractS/Customer.sol\":1275:1940  function transferPoints(uint256 _to, uint256 _amount) public returns (bool) {... */\n              swap3\n              swap2\n              pop\n              pop\n              jump\t// out\n                /* \"#utility.yul\":88:205   */\n            tag_70:\n                /* \"#utility.yul\":197:198   */\n              0x00\n                /* \"#utility.yul\":194:195   */\n              dup1\n                /* \"#utility.yul\":187:199   */\n              revert\n                /* \"#utility.yul\":334:411   */\n            tag_72:\n                /* \"#utility.yul\":371:378   */\n              0x00\n                /* \"#utility.yul\":400:405   */\n              dup2\n                /* \"#utility.yul\":389:405   */\n              swap1\n              pop\n                /* \"#utility.yul\":334:411   */\n              swap2\n              swap1\n              pop\n              jump\t// out\n                /* \"#utility.yul\":417:539   */\n            tag_73:\n                /* \"#utility.yul\":490:514   */\n              tag_91\n                /* \"#utility.yul\":508:513   */\n              dup2\n                /* \"#utility.yul\":490:514   */\n              tag_72\n              jump\t// in\n            tag_91:\n                /* \"#utility.yul\":483:488   */\n              dup2\n                /* \"#utility.yul\":480:515   */\n              eq\n                /* \"#utility.yul\":470:533   */\n              tag_92\n              jumpi\n                /* \"#utility.yul\":529:530   */\n              0x00\n                /* \"#utility.yul\":526:527   */\n              dup1\n                /* \"#utility.yul\":519:531   */\n              revert\n                /* \"#utility.yul\":470:533   */\n            tag_92:\n                /* \"#utility.yul\":417:539   */\n              pop\n              jump\t// out\n                /* \"#utility.yul\":545:684   */\n            tag_74:\n                /* \"#utility.yul\":591:596   */\n              0x00\n                /* \"#utility.yul\":629:635   */\n              dup2\n                /* \"#utility.yul\":616:636   */\n              calldataload\n                /* \"#utility.yul\":607:636   */\n              swap1\n              pop\n                /* \"#utility.yul\":645:678   */\n              tag_94\n                /* \"#utility.yul\":672:677   */\n              dup2\n                /* \"#utility.yul\":645:678   */\n              tag_73\n              jump\t// in\n            tag_94:\n                /* \"#utility.yul\":545:684   */\n              swap3\n              swap2\n              pop\n              pop\n              jump\t// out\n                /* \"#utility.yul\":690:1019   */\n            tag_8:\n                /* \"#utility.yul\":749:755   */\n              0x00\n                /* \"#utility.yul\":798:800   */\n              0x20\n                /* \"#utility.yul\":786:795   */\n              dup3\n                /* \"#utility.yul\":777:784   */\n              dup5\n                /* \"#utility.yul\":773:796   */\n              sub\n                /* \"#utility.yul\":769:801   */\n              slt\n                /* \"#utility.yul\":766:885   */\n              iszero\n              tag_96\n              jumpi\n                /* \"#utility.yul\":804:883   */\n              tag_97\n              tag_70\n              jump\t// in\n            tag_97:\n                /* \"#utility.yul\":766:885   */\n            tag_96:\n                /* \"#utility.yul\":924:925   */\n              0x00\n                /* \"#utility.yul\":949:1002   */\n              tag_98\n                /* \"#utility.yul\":994:1001   */\n              dup5\n                /* \"#utility.yul\":985:991   */\n              dup3\n                /* \"#utility.yul\":974:983   */\n              dup6\n                /* \"#utility.yul\":970:992   */\n              add\n                /* \"#utility.yul\":949:1002   */\n              tag_74\n              jump\t// in\n            tag_98:\n                /* \"#utility.yul\":939:1002   */\n              swap2\n              pop\n                /* \"#utility.yul\":895:1012   */\n              pop\n                /* \"#utility.yul\":690:1019   */\n              swap3\n              swap2\n              pop\n              pop\n              jump\t// out\n                /* \"#utility.yul\":1025:1115   */\n            tag_75:\n                /* \"#utility.yul\":1059:1066   */\n              0x00\n                /* \"#utility.yul\":1102:1107   */\n              dup2\n                /* \"#utility.yul\":1095:1108   */\n              iszero\n                /* \"#utility.yul\":1088:1109   */\n              iszero\n                /* \"#utility.yul\":1077:1109   */\n              swap1\n              pop\n                /* \"#utility.yul\":1025:1115   */\n              swap2\n              swap1\n              pop\n              jump\t// out\n                /* \"#utility.yul\":1121:1230   */\n            tag_76:\n                /* \"#utility.yul\":1202:1223   */\n              tag_101\n                /* \"#utility.yul\":1217:1222   */\n              dup2\n                /* \"#utility.yul\":1202:1223   */\n              tag_75\n              jump\t// in\n            tag_101:\n                /* \"#utility.yul\":1197:1200   */\n              dup3\n                /* \"#utility.yul\":1190:1224   */\n              mstore\n                /* \"#utility.yul\":1121:1230   */\n              pop\n              pop\n              jump\t// out\n                /* \"#utility.yul\":1236:1446   */\n            tag_11:\n                /* \"#utility.yul\":1323:1327   */\n              0x00\n                /* \"#utility.yul\":1361:1363   */\n              0x20\n                /* \"#utility.yul\":1350:1359   */\n              dup3\n                /* \"#utility.yul\":1346:1364   */\n              add\n                /* \"#utility.yul\":1338:1364   */\n              swap1\n              pop\n                /* \"#utility.yul\":1374:1439   */\n              tag_103\n                /* \"#utility.yul\":1436:1437   */\n              0x00\n                /* \"#utility.yul\":1425:1434   */\n              dup4\n                /* \"#utility.yul\":1421:1438   */\n              add\n                /* \"#utility.yul\":1412:1418   */\n              dup5\n                /* \"#utility.yul\":1374:1439   */\n              tag_76\n              jump\t// in\n            tag_103:\n                /* \"#utility.yul\":1236:1446   */\n              swap3\n              swap2\n              pop\n              pop\n              jump\t// out\n                /* \"#utility.yul\":1452:1570   */\n            tag_77:\n                /* \"#utility.yul\":1539:1563   */\n              tag_105\n                /* \"#utility.yul\":1557:1562   */\n              dup2\n                /* \"#utility.yul\":1539:1563   */\n              tag_72\n              jump\t// in\n            tag_105:\n                /* \"#utility.yul\":1534:1537   */\n              dup3\n                /* \"#utility.yul\":1527:1564   */\n              mstore\n                /* \"#utility.yul\":1452:1570   */\n              pop\n              pop\n              jump\t// out\n                /* \"#utility.yul\":1576:1798   */\n            tag_16:\n                /* \"#utility.yul\":1669:1673   */\n              0x00\n                /* \"#utility.yul\":1707:1709   */\n              0x20\n                /* \"#utility.yul\":1696:1705   */\n              dup3\n                /* \"#utility.yul\":1692:1710   */\n              add\n                /* \"#utility.yul\":1684:1710   */\n              swap1\n              pop\n                /* \"#utility.yul\":1720:1791   */\n              tag_107\n                /* \"#utility.yul\":1788:1789   */\n              0x00\n                /* \"#utility.yul\":1777:1786   */\n              dup4\n                /* \"#utility.yul\":1773:1790   */\n              add\n                /* \"#utility.yul\":1764:1770   */\n              dup5\n                /* \"#utility.yul\":1720:1791   */\n              tag_77\n              jump\t// in\n            tag_107:\n                /* \"#utility.yul\":1576:1798   */\n              swap3\n              swap2\n              pop\n              pop\n              jump\t// out\n                /* \"#utility.yul\":1804:2278   */\n            tag_19:\n                /* \"#utility.yul\":1872:1878   */\n              0x00\n                /* \"#utility.yul\":1880:1886   */\n              dup1\n                /* \"#utility.yul\":1929:1931   */\n              0x40\n                /* \"#utility.yul\":1917:1926   */\n              dup4\n                /* \"#utility.yul\":1908:1915   */\n              dup6\n                /* \"#utility.yul\":1904:1927   */\n              sub\n                /* \"#utility.yul\":1900:1932   */\n              slt\n                /* \"#utility.yul\":1897:2016   */\n              iszero\n              tag_109\n              jumpi\n                /* \"#utility.yul\":1935:2014   */\n              tag_110\n              tag_70\n              jump\t// in\n            tag_110:\n                /* \"#utility.yul\":1897:2016   */\n            tag_109:\n                /* \"#utility.yul\":2055:2056   */\n              0x00\n                /* \"#utility.yul\":2080:2133   */\n              tag_111\n                /* \"#utility.yul\":2125:2132   */\n              dup6\n                /* \"#utility.yul\":2116:2122   */\n              dup3\n                /* \"#utility.yul\":2105:2114   */\n              dup7\n                /* \"#utility.yul\":2101:2123   */\n              add\n                /* \"#utility.yul\":2080:2133   */\n              tag_74\n              jump\t// in\n            tag_111:\n                /* \"#utility.yul\":2070:2133   */\n              swap3\n              pop\n                /* \"#utility.yul\":2026:2143   */\n              pop\n                /* \"#utility.yul\":2182:2184   */\n              0x20\n                /* \"#utility.yul\":2208:2261   */\n              tag_112\n                /* \"#utility.yul\":2253:2260   */\n              dup6\n                /* \"#utility.yul\":2244:2250   */\n              dup3\n                /* \"#utility.yul\":2233:2242   */\n              dup7\n                /* \"#utility.yul\":2229:2251   */\n              add\n                /* \"#utility.yul\":2208:2261   */\n              tag_74\n              jump\t// in\n            tag_112:\n                /* \"#utility.yul\":2198:2261   */\n              swap2\n              pop\n                /* \"#utility.yul\":2153:2271   */\n              pop\n                /* \"#utility.yul\":1804:2278   */\n              swap3\n              pop\n              swap3\n              swap1\n              pop\n              jump\t// out\n                /* \"#utility.yul\":2284:2427   */\n            tag_78:\n                /* \"#utility.yul\":2341:2346   */\n              0x00\n                /* \"#utility.yul\":2372:2378   */\n              dup2\n                /* \"#utility.yul\":2366:2379   */\n              mload\n                /* \"#utility.yul\":2357:2379   */\n              swap1\n              pop\n                /* \"#utility.yul\":2388:2421   */\n              tag_114\n                /* \"#utility.yul\":2415:2420   */\n              dup2\n                /* \"#utility.yul\":2388:2421   */\n              tag_73\n              jump\t// in\n            tag_114:\n                /* \"#utility.yul\":2284:2427   */\n              swap3\n              swap2\n              pop\n              pop\n              jump\t// out\n                /* \"#utility.yul\":2433:2784   */\n            tag_27:\n                /* \"#utility.yul\":2503:2509   */\n              0x00\n                /* \"#utility.yul\":2552:2554   */\n              0x20\n                /* \"#utility.yul\":2540:2549   */\n              dup3\n                /* \"#utility.yul\":2531:2538   */\n              dup5\n                /* \"#utility.yul\":2527:2550   */\n              sub\n                /* \"#utility.yul\":2523:2555   */\n              slt\n                /* \"#utility.yul\":2520:2639   */\n              iszero\n              tag_116\n              jumpi\n                /* \"#utility.yul\":2558:2637   */\n              tag_117\n              tag_70\n              jump\t// in\n            tag_117:\n                /* \"#utility.yul\":2520:2639   */\n            tag_116:\n                /* \"#utility.yul\":2678:2679   */\n              0x00\n                /* \"#utility.yul\":2703:2767   */\n              tag_118\n                /* \"#utility.yul\":2759:2766   */\n              dup5\n                /* \"#utility.yul\":2750:2756   */\n              dup3\n                /* \"#utility.yul\":2739:2748   */\n              dup6\n                /* \"#utility.yul\":2735:2757   */\n              add\n                /* \"#utility.yul\":2703:2767   */\n              tag_78\n              jump\t// in\n            tag_118:\n                /* \"#utility.yul\":2693:2767   */\n              swap2\n              pop\n                /* \"#utility.yul\":2649:2777   */\n              pop\n                /* \"#utility.yul\":2433:2784   */\n              swap3\n              swap2\n              pop\n              pop\n              jump\t// out\n                /* \"#utility.yul\":2790:2959   */\n            tag_79:\n                /* \"#utility.yul\":2874:2885   */\n              0x00\n                /* \"#utility.yul\":2908:2914   */\n              dup3\n                /* \"#utility.yul\":2903:2906   */\n              dup3\n                /* \"#utility.yul\":2896:2915   */\n              mstore\n                /* \"#utility.yul\":2948:2952   */\n              0x20\n                /* \"#utility.yul\":2943:2946   */\n              dup3\n                /* \"#utility.yul\":2939:2953   */\n              add\n                /* \"#utility.yul\":2924:2953   */\n              swap1\n              pop\n                /* \"#utility.yul\":2790:2959   */\n              swap3\n              swap2\n              pop\n              pop\n              jump\t// out\n                /* \"#utility.yul\":2965:3189   */\n            tag_80:\n                /* \"#utility.yul\":3105:3139   */\n              0x496e73756666696369656e742062616c616e636520746f207075726368617365\n                /* \"#utility.yul\":3101:3102   */\n              0x00\n                /* \"#utility.yul\":3093:3099   */\n              dup3\n                /* \"#utility.yul\":3089:3103   */\n              add\n                /* \"#utility.yul\":3082:3140   */\n              mstore\n                /* \"#utility.yul\":3174:3181   */\n              0x206974656d000000000000000000000000000000000000000000000000000000\n                /* \"#utility.yul\":3169:3171   */\n              0x20\n                /* \"#utility.yul\":3161:3167   */\n              dup3\n                /* \"#utility.yul\":3157:3172   */\n              add\n                /* \"#utility.yul\":3150:3182   */\n              mstore\n                /* \"#utility.yul\":2965:3189   */\n              pop\n              jump\t// out\n                /* \"#utility.yul\":3195:3561   */\n            tag_81:\n                /* \"#utility.yul\":3337:3340   */\n              0x00\n                /* \"#utility.yul\":3358:3425   */\n              tag_122\n                /* \"#utility.yul\":3422:3424   */\n              0x25\n                /* \"#utility.yul\":3417:3420   */\n              dup4\n                /* \"#utility.yul\":3358:3425   */\n              tag_79\n              jump\t// in\n            tag_122:\n                /* \"#utility.yul\":3351:3425   */\n              swap2\n              pop\n                /* \"#utility.yul\":3434:3527   */\n              tag_123\n                /* \"#utility.yul\":3523:3526   */\n              dup3\n                /* \"#utility.yul\":3434:3527   */\n              tag_80\n              jump\t// in\n            tag_123:\n                /* \"#utility.yul\":3552:3554   */\n              0x40\n                /* \"#utility.yul\":3547:3550   */\n              dup3\n                /* \"#utility.yul\":3543:3555   */\n              add\n                /* \"#utility.yul\":3536:3555   */\n              swap1\n              pop\n                /* \"#utility.yul\":3195:3561   */\n              swap2\n              swap1\n              pop\n              jump\t// out\n                /* \"#utility.yul\":3567:3986   */\n            tag_30:\n                /* \"#utility.yul\":3733:3737   */\n              0x00\n                /* \"#utility.yul\":3771:3773   */\n              0x20\n                /* \"#utility.yul\":3760:3769   */\n              dup3\n                /* \"#utility.yul\":3756:3774   */\n              add\n                /* \"#utility.yul\":3748:3774   */\n              swap1\n              pop\n                /* \"#utility.yul\":3820:3829   */\n              dup2\n                /* \"#utility.yul\":3814:3818   */\n              dup2\n                /* \"#utility.yul\":3810:3830   */\n              sub\n                /* \"#utility.yul\":3806:3807   */\n              0x00\n                /* \"#utility.yul\":3795:3804   */\n              dup4\n                /* \"#utility.yul\":3791:3808   */\n              add\n                /* \"#utility.yul\":3784:3831   */\n              mstore\n                /* \"#utility.yul\":3848:3979   */\n              tag_125\n                /* \"#utility.yul\":3974:3978   */\n              dup2\n                /* \"#utility.yul\":3848:3979   */\n              tag_81\n              jump\t// in\n            tag_125:\n                /* \"#utility.yul\":3840:3979   */\n              swap1\n              pop\n                /* \"#utility.yul\":3567:3986   */\n              swap2\n              swap1\n              pop\n              jump\t// out\n                /* \"#utility.yul\":3992:4172   */\n            tag_82:\n                /* \"#utility.yul\":4040:4117   */\n              0x4e487b7100000000000000000000000000000000000000000000000000000000\n                /* \"#utility.yul\":4037:4038   */\n              0x00\n                /* \"#utility.yul\":4030:4118   */\n              mstore\n                /* \"#utility.yul\":4137:4141   */\n              0x11\n                /* \"#utility.yul\":4134:4135   */\n              0x04\n                /* \"#utility.yul\":4127:4142   */\n              mstore\n                /* \"#utility.yul\":4161:4165   */\n              0x24\n                /* \"#utility.yul\":4158:4159   */\n              0x00\n                /* \"#utility.yul\":4151:4166   */\n              revert\n                /* \"#utility.yul\":4178:4372   */\n            tag_32:\n                /* \"#utility.yul\":4218:4222   */\n              0x00\n                /* \"#utility.yul\":4238:4258   */\n              tag_128\n                /* \"#utility.yul\":4256:4257   */\n              dup3\n                /* \"#utility.yul\":4238:4258   */\n              tag_72\n              jump\t// in\n            tag_128:\n                /* \"#utility.yul\":4233:4258   */\n              swap2\n              pop\n                /* \"#utility.yul\":4272:4292   */\n              tag_129\n                /* \"#utility.yul\":4290:4291   */\n              dup4\n                /* \"#utility.yul\":4272:4292   */\n              tag_72\n              jump\t// in\n            tag_129:\n                /* \"#utility.yul\":4267:4292   */\n              swap3\n              pop\n                /* \"#utility.yul\":4316:4317   */\n              dup3\n                /* \"#utility.yul\":4313:4314   */\n              dup3\n                /* \"#utility.yul\":4309:4318   */\n              sub\n                /* \"#utility.yul\":4301:4318   */\n              swap1\n              pop\n                /* \"#utility.yul\":4340:4341   */\n              dup2\n                /* \"#utility.yul\":4334:4338   */\n              dup2\n                /* \"#utility.yul\":4331:4342   */\n              gt\n                /* \"#utility.yul\":4328:4365   */\n              iszero\n              tag_130\n              jumpi\n                /* \"#utility.yul\":4345:4363   */\n              tag_131\n              tag_82\n              jump\t// in\n            tag_131:\n                /* \"#utility.yul\":4328:4365   */\n            tag_130:\n                /* \"#utility.yul\":4178:4372   */\n              swap3\n              swap2\n              pop\n              pop\n              jump\t// out\n                /* \"#utility.yul\":4378:4710   */\n            tag_34:\n                /* \"#utility.yul\":4499:4503   */\n              0x00\n                /* \"#utility.yul\":4537:4539   */\n              0x40\n                /* \"#utility.yul\":4526:4535   */\n              dup3\n                /* \"#utility.yul\":4522:4540   */\n              add\n                /* \"#utility.yul\":4514:4540   */\n              swap1\n              pop\n                /* \"#utility.yul\":4550:4621   */\n              tag_133\n                /* \"#utility.yul\":4618:4619   */\n              0x00\n                /* \"#utility.yul\":4607:4616   */\n              dup4\n                /* \"#utility.yul\":4603:4620   */\n              add\n                /* \"#utility.yul\":4594:4600   */\n              dup6\n                /* \"#utility.yul\":4550:4621   */\n              tag_77\n              jump\t// in\n            tag_133:\n                /* \"#utility.yul\":4631:4703   */\n              tag_134\n                /* \"#utility.yul\":4699:4701   */\n              0x20\n                /* \"#utility.yul\":4688:4697   */\n              dup4\n                /* \"#utility.yul\":4684:4702   */\n              add\n                /* \"#utility.yul\":4675:4681   */\n              dup5\n                /* \"#utility.yul\":4631:4703   */\n              tag_77\n              jump\t// in\n            tag_134:\n                /* \"#utility.yul\":4378:4710   */\n              swap4\n              swap3\n              pop\n              pop\n              pop\n              jump\t// out\n                /* \"#utility.yul\":4716:4942   */\n            tag_83:\n                /* \"#utility.yul\":4856:4890   */\n              0x496e73756666696369656e742062616c616e636520746f207472616e73666572\n                /* \"#utility.yul\":4852:4853   */\n              0x00\n                /* \"#utility.yul\":4844:4850   */\n              dup3\n                /* \"#utility.yul\":4840:4854   */\n              add\n                /* \"#utility.yul\":4833:4891   */\n              mstore\n                /* \"#utility.yul\":4925:4934   */\n              0x20706f696e747300000000000000000000000000000000000000000000000000\n                /* \"#utility.yul\":4920:4922   */\n              0x20\n                /* \"#utility.yul\":4912:4918   */\n              dup3\n                /* \"#utility.yul\":4908:4923   */\n              add\n                /* \"#utility.yul\":4901:4935   */\n              mstore\n                /* \"#utility.yul\":4716:4942   */\n              pop\n              jump\t// out\n                /* \"#utility.yul\":4948:5314   */\n            tag_84:\n                /* \"#utility.yul\":5090:5093   */\n              0x00\n                /* \"#utility.yul\":5111:5178   */\n              tag_137\n                /* \"#utility.yul\":5175:5177   */\n              0x27\n                /* \"#utility.yul\":5170:5173   */\n              dup4\n                /* \"#utility.yul\":5111:5178   */\n              tag_79\n              jump\t// in\n            tag_137:\n                /* \"#utility.yul\":5104:5178   */\n              swap2\n              pop\n                /* \"#utility.yul\":5187:5280   */\n              tag_138\n                /* \"#utility.yul\":5276:5279   */\n              dup3\n                /* \"#utility.yul\":5187:5280   */\n              tag_83\n              jump\t// in\n            tag_138:\n                /* \"#utility.yul\":5305:5307   */\n              0x40\n                /* \"#utility.yul\":5300:5303   */\n              dup3\n                /* \"#utility.yul\":5296:5308   */\n              add\n                /* \"#utility.yul\":5289:5308   */\n              swap1\n              pop\n                /* \"#utility.yul\":4948:5314   */\n              swap2\n              swap1\n              pop\n              jump\t// out\n                /* \"#utility.yul\":5320:5739   */\n            tag_51:\n                /* \"#utility.yul\":5486:5490   */\n              0x00\n                /* \"#utility.yul\":5524:5526   */\n              0x20\n                /* \"#utility.yul\":5513:5522   */\n              dup3\n                /* \"#utility.yul\":5509:5527   */\n              add\n                /* \"#utility.yul\":5501:5527   */\n              swap1\n              pop\n                /* \"#utility.yul\":5573:5582   */\n              dup2\n                /* \"#utility.yul\":5567:5571   */\n              dup2\n                /* \"#utility.yul\":5563:5583   */\n              sub\n                /* \"#utility.yul\":5559:5560   */\n              0x00\n                /* \"#utility.yul\":5548:5557   */\n              dup4\n                /* \"#utility.yul\":5544:5561   */\n              add\n                /* \"#utility.yul\":5537:5584   */\n              mstore\n                /* \"#utility.yul\":5601:5732   */\n              tag_140\n                /* \"#utility.yul\":5727:5731   */\n              dup2\n                /* \"#utility.yul\":5601:5732   */\n              tag_84\n              jump\t// in\n            tag_140:\n                /* \"#utility.yul\":5593:5732   */\n              swap1\n              pop\n                /* \"#utility.yul\":5320:5739   */\n              swap2\n              swap1\n              pop\n              jump\t// out\n                /* \"#utility.yul\":5745:5936   */\n            tag_58:\n                /* \"#utility.yul\":5785:5788   */\n              0x00\n                /* \"#utility.yul\":5804:5824   */\n              tag_142\n                /* \"#utility.yul\":5822:5823   */\n              dup3\n                /* \"#utility.yul\":5804:5824   */\n              tag_72\n              jump\t// in\n            tag_142:\n                /* \"#utility.yul\":5799:5824   */\n              swap2\n              pop\n                /* \"#utility.yul\":5838:5858   */\n              tag_143\n                /* \"#utility.yul\":5856:5857   */\n              dup4\n                /* \"#utility.yul\":5838:5858   */\n              tag_72\n              jump\t// in\n            tag_143:\n                /* \"#utility.yul\":5833:5858   */\n              swap3\n              pop\n                /* \"#utility.yul\":5881:5882   */\n              dup3\n                /* \"#utility.yul\":5878:5879   */\n              dup3\n                /* \"#utility.yul\":5874:5883   */\n              add\n                /* \"#utility.yul\":5867:5883   */\n              swap1\n              pop\n                /* \"#utility.yul\":5902:5905   */\n              dup1\n                /* \"#utility.yul\":5899:5900   */\n              dup3\n                /* \"#utility.yul\":5896:5906   */\n              gt\n                /* \"#utility.yul\":5893:5929   */\n              iszero\n              tag_144\n              jumpi\n                /* \"#utility.yul\":5909:5927   */\n              tag_145\n              tag_82\n              jump\t// in\n            tag_145:\n                /* \"#utility.yul\":5893:5929   */\n            tag_144:\n                /* \"#utility.yul\":5745:5936   */\n              swap3\n              swap2\n              pop\n              pop\n              jump\t// out\n\n            auxdata: 0xa2646970667358221220550c4430a4a73bb60a272261bf720819b951ab78ffd9dcd39da7663ba67abeaf64736f6c63430008190033\n        }\n    }\n\n    auxdata: 0xa2646970667358221220b6146ee59a9ed340ebf91d435b29f4df3b324ca7f775ce7ce3044d0fdda0cfab64736f6c63430008190033\n}\n",
				"bytecode": {
					"linkReferences": {},
					"object": "608060405234801561000f575f80fd5b506040516119903803806119908339818101604052810190610031919061022e565b815f908161003f9190610495565b508060015f6101000a81548173ffffffffffffffffffffffffffffffffffffffff021916908373ffffffffffffffffffffffffffffffffffffffff1602179055505050610564565b5f604051905090565b5f80fd5b5f80fd5b5f80fd5b5f80fd5b5f601f19601f8301169050919050565b7f4e487b71000000000000000000000000000000000000000000000000000000005f52604160045260245ffd5b6100e6826100a0565b810181811067ffffffffffffffff82111715610105576101046100b0565b5b80604052505050565b5f610117610087565b905061012382826100dd565b919050565b5f67ffffffffffffffff821115610142576101416100b0565b5b61014b826100a0565b9050602081019050919050565b8281835e5f83830152505050565b5f61017861017384610128565b61010e565b9050828152602081018484840111156101945761019361009c565b5b61019f848285610158565b509392505050565b5f82601f8301126101bb576101ba610098565b5b81516101cb848260208601610166565b91505092915050565b5f73ffffffffffffffffffffffffffffffffffffffff82169050919050565b5f6101fd826101d4565b9050919050565b61020d816101f3565b8114610217575f80fd5b50565b5f8151905061022881610204565b92915050565b5f806040838503121561024457610243610090565b5b5f83015167ffffffffffffffff81111561026157610260610094565b5b61026d858286016101a7565b925050602061027e8582860161021a565b9150509250929050565b5f81519050919050565b7f4e487b71000000000000000000000000000000000000000000000000000000005f52602260045260245ffd5b5f60028204905060018216806102d657607f821691505b6020821081036102e9576102e8610292565b5b50919050565b5f819050815f5260205f209050919050565b5f6020601f8301049050919050565b5f82821b905092915050565b5f6008830261034b7fffffffffffffffffffffffffffffffffffffffffffffffffffffffffffffffff82610310565b6103558683610310565b95508019841693508086168417925050509392505050565b5f819050919050565b5f819050919050565b5f61039961039461038f8461036d565b610376565b61036d565b9050919050565b5f819050919050565b6103b28361037f565b6103c66103be826103a0565b84845461031c565b825550505050565b5f90565b6103da6103ce565b6103e58184846103a9565b505050565b5b81811015610408576103fd5f826103d2565b6001810190506103eb565b5050565b601f82111561044d5761041e816102ef565b61042784610301565b81016020851015610436578190505b61044a61044285610301565b8301826103ea565b50505b505050565b5f82821c905092915050565b5f61046d5f1984600802610452565b1980831691505092915050565b5f610485838361045e565b9150826002028217905092915050565b61049e82610288565b67ffffffffffffffff8111156104b7576104b66100b0565b5b6104c182546102bf565b6104cc82828561040c565b5f60209050601f8311600181146104fd575f84156104eb578287015190505b6104f5858261047a565b86555061055c565b601f19841661050b866102ef565b5f5b828110156105325784890151825560018201915060208501945060208101905061050d565b8683101561054f578489015161054b601f89168261045e565b8355505b6001600288020188555050505b505050505050565b61141f806105715f395ff3fe608060405234801561000f575f80fd5b506004361061003f575f3560e01c806306fdde0314610043578063110506f0146100615780635e1acf6514610091575b5f80fd5b61004b6100c1565b6040516100589190610580565b60405180910390f35b61007b600480360381019061007691906105d7565b61014c565b604051610088919061062f565b60405180910390f35b6100ab60048036038101906100a69190610648565b61039a565b6040516100b8919061062f565b60405180910390f35b5f80546100cd906106a0565b80601f01602080910402602001604051908101604052809291908181526020018280546100f9906106a0565b80156101445780601f1061011b57610100808354040283529160200191610144565b820191905f5260205f20905b81548152906001019060200180831161012757829003601f168201915b505050505081565b5f60015f9054906101000a900473ffffffffffffffffffffffffffffffffffffffff1673ffffffffffffffffffffffffffffffffffffffff1663163388ae846040518263ffffffff1660e01b81526004016101a791906106df565b602060405180830381865afa1580156101c2573d5f803e3d5ffd5b505050506040513d601f19601f820116820180604052508101906101e69190610722565b15610226576040517f08c379a000000000000000000000000000000000000000000000000000000000815260040161021d90610797565b60405180910390fd5b5f8360015f9054906101000a900473ffffffffffffffffffffffffffffffffffffffff1660405161025690610503565b6102619291906107f4565b604051809103905ff08015801561027a573d5f803e3d5ffd5b50905060015f9054906101000a900473ffffffffffffffffffffffffffffffffffffffff1673ffffffffffffffffffffffffffffffffffffffff16634a4b9feb85856040518363ffffffff1660e01b81526004016102d992919061081b565b5f604051808303815f87803b1580156102f0575f80fd5b505af1158015610302573d5f803e3d5ffd5b5050505060015f9054906101000a900473ffffffffffffffffffffffffffffffffffffffff1673ffffffffffffffffffffffffffffffffffffffff1663dedf34f382866040518363ffffffff1660e01b8152600401610362929190610842565b5f604051808303815f87803b158015610379575f80fd5b505af115801561038b573d5f803e3d5ffd5b50505050600191505092915050565b5f60015f9054906101000a900473ffffffffffffffffffffffffffffffffffffffff1673ffffffffffffffffffffffffffffffffffffffff1663163388ae836040518263ffffffff1660e01b81526004016103f591906106df565b602060405180830381865afa158015610410573d5f803e3d5ffd5b505050506040513d601f19601f820116820180604052508101906104349190610722565b610473576040517f08c379a000000000000000000000000000000000000000000000000000000000815260040161046a906108b3565b60405180910390fd5b60015f9054906101000a900473ffffffffffffffffffffffffffffffffffffffff1673ffffffffffffffffffffffffffffffffffffffff166356d7548f836040518263ffffffff1660e01b81526004016104cd91906106df565b5f604051808303815f87803b1580156104e4575f80fd5b505af11580156104f6573d5f803e3d5ffd5b5050505060019050919050565b610b18806108d283390190565b5f81519050919050565b5f82825260208201905092915050565b8281835e5f83830152505050565b5f601f19601f8301169050919050565b5f61055282610510565b61055c818561051a565b935061056c81856020860161052a565b61057581610538565b840191505092915050565b5f6020820190508181035f8301526105988184610548565b905092915050565b5f80fd5b5f819050919050565b6105b6816105a4565b81146105c0575f80fd5b50565b5f813590506105d1816105ad565b92915050565b5f80604083850312156105ed576105ec6105a0565b5b5f6105fa858286016105c3565b925050602061060b858286016105c3565b9150509250929050565b5f8115159050919050565b61062981610615565b82525050565b5f6020820190506106425f830184610620565b92915050565b5f6020828403121561065d5761065c6105a0565b5b5f61066a848285016105c3565b91505092915050565b7f4e487b71000000000000000000000000000000000000000000000000000000005f52602260045260245ffd5b5f60028204905060018216806106b757607f821691505b6020821081036106ca576106c9610673565b5b50919050565b6106d9816105a4565b82525050565b5f6020820190506106f25f8301846106d0565b92915050565b61070181610615565b811461070b575f80fd5b50565b5f8151905061071c816106f8565b92915050565b5f60208284031215610737576107366105a0565b5b5f6107448482850161070e565b91505092915050565b7f437573746f6d657220616c7265616479206578697374730000000000000000005f82015250565b5f61078160178361051a565b915061078c8261074d565b602082019050919050565b5f6020820190508181035f8301526107ae81610775565b9050919050565b5f73ffffffffffffffffffffffffffffffffffffffff82169050919050565b5f6107de826107b5565b9050919050565b6107ee816107d4565b82525050565b5f6040820190506108075f8301856106d0565b61081460208301846107e5565b9392505050565b5f60408201905061082e5f8301856106d0565b61083b60208301846106d0565b9392505050565b5f6040820190506108555f8301856107e5565b61086260208301846106d0565b9392505050565b7f437573746f6d657220646f6573206e6f742065786973740000000000000000005f82015250565b5f61089d60178361051a565b91506108a882610869565b602082019050919050565b5f6020820190508181035f8301526108ca81610891565b905091905056fe608060405234801561000f575f80fd5b50604051610b18380380610b188339818101604052810190610031919061010f565b815f819055508060015f6101000a81548173ffffffffffffffffffffffffffffffffffffffff021916908373ffffffffffffffffffffffffffffffffffffffff160217905550505061014d565b5f80fd5b5f819050919050565b61009481610082565b811461009e575f80fd5b50565b5f815190506100af8161008b565b92915050565b5f73ffffffffffffffffffffffffffffffffffffffff82169050919050565b5f6100de826100b5565b9050919050565b6100ee816100d4565b81146100f8575f80fd5b50565b5f81519050610109816100e5565b92915050565b5f80604083850312156101255761012461007e565b5b5f610132858286016100a1565b9250506020610143858286016100fb565b9150509250929050565b6109be8061015a5f395ff3fe608060405234801561000f575f80fd5b506004361061003f575f3560e01c80634d802abb146100435780637f28628614610073578063e2627ccf146100a3575b5f80fd5b61005d6004803603810190610058919061069f565b6100d3565b60405161006a91906106e4565b60405180910390f35b61008d6004803603810190610088919061069f565b610293565b60405161009a919061070c565b60405180910390f35b6100bd60048036038101906100b89190610725565b610334565b6040516100ca91906106e4565b60405180910390f35b5f8060015f9054906101000a900473ffffffffffffffffffffffffffffffffffffffff1673ffffffffffffffffffffffffffffffffffffffff16631e0104395f546040518263ffffffff1660e01b8152600401610130919061070c565b602060405180830381865afa15801561014b573d5f803e3d5ffd5b505050506040513d601f19601f8201168201806040525081019061016f9190610777565b9050828110156101b4576040517f08c379a00000000000000000000000000000000000000000000000000000000081526004016101ab90610822565b60405180910390fd5b5f83826101c1919061086d565b905060015f9054906101000a900473ffffffffffffffffffffffffffffffffffffffff1673ffffffffffffffffffffffffffffffffffffffff16634a4b9feb5f54836040518363ffffffff1660e01b81526004016102209291906108a0565b5f604051808303815f87803b158015610237575f80fd5b505af1158015610249573d5f803e3d5ffd5b505050505f547f913d222564a08ee6d9c6a374a75d452883fff7d55c9c4f3d982ee2820f24037585426040516102809291906108a0565b60405180910390a2600192505050919050565b5f60015f9054906101000a900473ffffffffffffffffffffffffffffffffffffffff1673ffffffffffffffffffffffffffffffffffffffff16631e010439836040518263ffffffff1660e01b81526004016102ee919061070c565b602060405180830381865afa158015610309573d5f803e3d5ffd5b505050506040513d601f19601f8201168201806040525081019061032d9190610777565b9050919050565b5f8060015f9054906101000a900473ffffffffffffffffffffffffffffffffffffffff1673ffffffffffffffffffffffffffffffffffffffff16631e0104395f546040518263ffffffff1660e01b8152600401610391919061070c565b602060405180830381865afa1580156103ac573d5f803e3d5ffd5b505050506040513d601f19601f820116820180604052508101906103d09190610777565b905082811015610415576040517f08c379a000000000000000000000000000000000000000000000000000000000815260040161040c90610937565b60405180910390fd5b5f60015f9054906101000a900473ffffffffffffffffffffffffffffffffffffffff1673ffffffffffffffffffffffffffffffffffffffff16631e010439866040518263ffffffff1660e01b8152600401610470919061070c565b602060405180830381865afa15801561048b573d5f803e3d5ffd5b505050506040513d601f19601f820116820180604052508101906104af9190610777565b90505f84836104be919061086d565b90505f85836104cd9190610955565b905060015f9054906101000a900473ffffffffffffffffffffffffffffffffffffffff1673ffffffffffffffffffffffffffffffffffffffff16634a4b9feb5f54846040518363ffffffff1660e01b815260040161052c9291906108a0565b5f604051808303815f87803b158015610543575f80fd5b505af1158015610555573d5f803e3d5ffd5b5050505060015f9054906101000a900473ffffffffffffffffffffffffffffffffffffffff1673ffffffffffffffffffffffffffffffffffffffff16634a4b9feb88836040518363ffffffff1660e01b81526004016105b59291906108a0565b5f604051808303815f87803b1580156105cc575f80fd5b505af11580156105de573d5f803e3d5ffd5b50505050865f547f270d555906e5d6b40bc118b63a231daa86493c7d7b32af1a91fb621c9380e26a88426040516106169291906108a0565b60405180910390a35f54877f04c3e90d4447521168eb1fc57db7e97ac06c0874538cf486849946416f5326f788426040516106529291906108a0565b60405180910390a3600194505050505092915050565b5f80fd5b5f819050919050565b61067e8161066c565b8114610688575f80fd5b50565b5f8135905061069981610675565b92915050565b5f602082840312156106b4576106b3610668565b5b5f6106c18482850161068b565b91505092915050565b5f8115159050919050565b6106de816106ca565b82525050565b5f6020820190506106f75f8301846106d5565b92915050565b6107068161066c565b82525050565b5f60208201905061071f5f8301846106fd565b92915050565b5f806040838503121561073b5761073a610668565b5b5f6107488582860161068b565b92505060206107598582860161068b565b9150509250929050565b5f8151905061077181610675565b92915050565b5f6020828403121561078c5761078b610668565b5b5f61079984828501610763565b91505092915050565b5f82825260208201905092915050565b7f496e73756666696369656e742062616c616e636520746f2070757263686173655f8201527f206974656d000000000000000000000000000000000000000000000000000000602082015250565b5f61080c6025836107a2565b9150610817826107b2565b604082019050919050565b5f6020820190508181035f83015261083981610800565b9050919050565b7f4e487b71000000000000000000000000000000000000000000000000000000005f52601160045260245ffd5b5f6108778261066c565b91506108828361066c565b925082820390508181111561089a57610899610840565b5b92915050565b5f6040820190506108b35f8301856106fd565b6108c060208301846106fd565b9392505050565b7f496e73756666696369656e742062616c616e636520746f207472616e736665725f8201527f20706f696e747300000000000000000000000000000000000000000000000000602082015250565b5f6109216027836107a2565b915061092c826108c7565b604082019050919050565b5f6020820190508181035f83015261094e81610915565b9050919050565b5f61095f8261066c565b915061096a8361066c565b925082820190508082111561098257610981610840565b5b9291505056fea2646970667358221220550c4430a4a73bb60a272261bf720819b951ab78ffd9dcd39da7663ba67abeaf64736f6c63430008190033a2646970667358221220b6146ee59a9ed340ebf91d435b29f4df3b324ca7f775ce7ce3044d0fdda0cfab64736f6c63430008190033",
					"opcodes": "PUSH1 0x80 PUSH1 0x40 MSTORE CALLVALUE DUP1 ISZERO PUSH2 0xF JUMPI PUSH0 DUP1 REVERT JUMPDEST POP PUSH1 0x40 MLOAD PUSH2 0x1990 CODESIZE SUB DUP1 PUSH2 0x1990 DUP4 CODECOPY DUP2 DUP2 ADD PUSH1 0x40 MSTORE DUP2 ADD SWAP1 PUSH2 0x31 SWAP2 SWAP1 PUSH2 0x22E JUMP JUMPDEST DUP2 PUSH0 SWAP1 DUP2 PUSH2 0x3F SWAP2 SWAP1 PUSH2 0x495 JUMP JUMPDEST POP DUP1 PUSH1 0x1 PUSH0 PUSH2 0x100 EXP DUP2 SLOAD DUP2 PUSH20 0xFFFFFFFFFFFFFFFFFFFFFFFFFFFFFFFFFFFFFFFF MUL NOT AND SWAP1 DUP4 PUSH20 0xFFFFFFFFFFFFFFFFFFFFFFFFFFFFFFFFFFFFFFFF AND MUL OR SWAP1 SSTORE POP POP POP PUSH2 0x564 JUMP JUMPDEST PUSH0 PUSH1 0x40 MLOAD SWAP1 POP SWAP1 JUMP JUMPDEST PUSH0 DUP1 REVERT JUMPDEST PUSH0 DUP1 REVERT JUMPDEST PUSH0 DUP1 REVERT JUMPDEST PUSH0 DUP1 REVERT JUMPDEST PUSH0 PUSH1 0x1F NOT PUSH1 0x1F DUP4 ADD AND SWAP1 POP SWAP2 SWAP1 POP JUMP JUMPDEST PUSH32 0x4E487B7100000000000000000000000000000000000000000000000000000000 PUSH0 MSTORE PUSH1 0x41 PUSH1 0x4 MSTORE PUSH1 0x24 PUSH0 REVERT JUMPDEST PUSH2 0xE6 DUP3 PUSH2 0xA0 JUMP JUMPDEST DUP2 ADD DUP2 DUP2 LT PUSH8 0xFFFFFFFFFFFFFFFF DUP3 GT OR ISZERO PUSH2 0x105 JUMPI PUSH2 0x104 PUSH2 0xB0 JUMP JUMPDEST JUMPDEST DUP1 PUSH1 0x40 MSTORE POP POP POP JUMP JUMPDEST PUSH0 PUSH2 0x117 PUSH2 0x87 JUMP JUMPDEST SWAP1 POP PUSH2 0x123 DUP3 DUP3 PUSH2 0xDD JUMP JUMPDEST SWAP2 SWAP1 POP JUMP JUMPDEST PUSH0 PUSH8 0xFFFFFFFFFFFFFFFF DUP3 GT ISZERO PUSH2 0x142 JUMPI PUSH2 0x141 PUSH2 0xB0 JUMP JUMPDEST JUMPDEST PUSH2 0x14B DUP3 PUSH2 0xA0 JUMP JUMPDEST SWAP1 POP PUSH1 0x20 DUP2 ADD SWAP1 POP SWAP2 SWAP1 POP JUMP JUMPDEST DUP3 DUP2 DUP4 MCOPY PUSH0 DUP4 DUP4 ADD MSTORE POP POP POP JUMP JUMPDEST PUSH0 PUSH2 0x178 PUSH2 0x173 DUP5 PUSH2 0x128 JUMP JUMPDEST PUSH2 0x10E JUMP JUMPDEST SWAP1 POP DUP3 DUP2 MSTORE PUSH1 0x20 DUP2 ADD DUP5 DUP5 DUP5 ADD GT ISZERO PUSH2 0x194 JUMPI PUSH2 0x193 PUSH2 0x9C JUMP JUMPDEST JUMPDEST PUSH2 0x19F DUP5 DUP3 DUP6 PUSH2 0x158 JUMP JUMPDEST POP SWAP4 SWAP3 POP POP POP JUMP JUMPDEST PUSH0 DUP3 PUSH1 0x1F DUP4 ADD SLT PUSH2 0x1BB JUMPI PUSH2 0x1BA PUSH2 0x98 JUMP JUMPDEST JUMPDEST DUP2 MLOAD PUSH2 0x1CB DUP5 DUP3 PUSH1 0x20 DUP7 ADD PUSH2 0x166 JUMP JUMPDEST SWAP2 POP POP SWAP3 SWAP2 POP POP JUMP JUMPDEST PUSH0 PUSH20 0xFFFFFFFFFFFFFFFFFFFFFFFFFFFFFFFFFFFFFFFF DUP3 AND SWAP1 POP SWAP2 SWAP1 POP JUMP JUMPDEST PUSH0 PUSH2 0x1FD DUP3 PUSH2 0x1D4 JUMP JUMPDEST SWAP1 POP SWAP2 SWAP1 POP JUMP JUMPDEST PUSH2 0x20D DUP2 PUSH2 0x1F3 JUMP JUMPDEST DUP2 EQ PUSH2 0x217 JUMPI PUSH0 DUP1 REVERT JUMPDEST POP JUMP JUMPDEST PUSH0 DUP2 MLOAD SWAP1 POP PUSH2 0x228 DUP2 PUSH2 0x204 JUMP JUMPDEST SWAP3 SWAP2 POP POP JUMP JUMPDEST PUSH0 DUP1 PUSH1 0x40 DUP4 DUP6 SUB SLT ISZERO PUSH2 0x244 JUMPI PUSH2 0x243 PUSH2 0x90 JUMP JUMPDEST JUMPDEST PUSH0 DUP4 ADD MLOAD PUSH8 0xFFFFFFFFFFFFFFFF DUP2 GT ISZERO PUSH2 0x261 JUMPI PUSH2 0x260 PUSH2 0x94 JUMP JUMPDEST JUMPDEST PUSH2 0x26D DUP6 DUP3 DUP7 ADD PUSH2 0x1A7 JUMP JUMPDEST SWAP3 POP POP PUSH1 0x20 PUSH2 0x27E DUP6 DUP3 DUP7 ADD PUSH2 0x21A JUMP JUMPDEST SWAP2 POP POP SWAP3 POP SWAP3 SWAP1 POP JUMP JUMPDEST PUSH0 DUP2 MLOAD SWAP1 POP SWAP2 SWAP1 POP JUMP JUMPDEST PUSH32 0x4E487B7100000000000000000000000000000000000000000000000000000000 PUSH0 MSTORE PUSH1 0x22 PUSH1 0x4 MSTORE PUSH1 0x24 PUSH0 REVERT JUMPDEST PUSH0 PUSH1 0x2 DUP3 DIV SWAP1 POP PUSH1 0x1 DUP3 AND DUP1 PUSH2 0x2D6 JUMPI PUSH1 0x7F DUP3 AND SWAP2 POP JUMPDEST PUSH1 0x20 DUP3 LT DUP2 SUB PUSH2 0x2E9 JUMPI PUSH2 0x2E8 PUSH2 0x292 JUMP JUMPDEST JUMPDEST POP SWAP2 SWAP1 POP JUMP JUMPDEST PUSH0 DUP2 SWAP1 POP DUP2 PUSH0 MSTORE PUSH1 0x20 PUSH0 KECCAK256 SWAP1 POP SWAP2 SWAP1 POP JUMP JUMPDEST PUSH0 PUSH1 0x20 PUSH1 0x1F DUP4 ADD DIV SWAP1 POP SWAP2 SWAP1 POP JUMP JUMPDEST PUSH0 DUP3 DUP3 SHL SWAP1 POP SWAP3 SWAP2 POP POP JUMP JUMPDEST PUSH0 PUSH1 0x8 DUP4 MUL PUSH2 0x34B PUSH32 0xFFFFFFFFFFFFFFFFFFFFFFFFFFFFFFFFFFFFFFFFFFFFFFFFFFFFFFFFFFFFFFFF DUP3 PUSH2 0x310 JUMP JUMPDEST PUSH2 0x355 DUP7 DUP4 PUSH2 0x310 JUMP JUMPDEST SWAP6 POP DUP1 NOT DUP5 AND SWAP4 POP DUP1 DUP7 AND DUP5 OR SWAP3 POP POP POP SWAP4 SWAP3 POP POP POP JUMP JUMPDEST PUSH0 DUP2 SWAP1 POP SWAP2 SWAP1 POP JUMP JUMPDEST PUSH0 DUP2 SWAP1 POP SWAP2 SWAP1 POP JUMP JUMPDEST PUSH0 PUSH2 0x399 PUSH2 0x394 PUSH2 0x38F DUP5 PUSH2 0x36D JUMP JUMPDEST PUSH2 0x376 JUMP JUMPDEST PUSH2 0x36D JUMP JUMPDEST SWAP1 POP SWAP2 SWAP1 POP JUMP JUMPDEST PUSH0 DUP2 SWAP1 POP SWAP2 SWAP1 POP JUMP JUMPDEST PUSH2 0x3B2 DUP4 PUSH2 0x37F JUMP JUMPDEST PUSH2 0x3C6 PUSH2 0x3BE DUP3 PUSH2 0x3A0 JUMP JUMPDEST DUP5 DUP5 SLOAD PUSH2 0x31C JUMP JUMPDEST DUP3 SSTORE POP POP POP POP JUMP JUMPDEST PUSH0 SWAP1 JUMP JUMPDEST PUSH2 0x3DA PUSH2 0x3CE JUMP JUMPDEST PUSH2 0x3E5 DUP2 DUP5 DUP5 PUSH2 0x3A9 JUMP JUMPDEST POP POP POP JUMP JUMPDEST JUMPDEST DUP2 DUP2 LT ISZERO PUSH2 0x408 JUMPI PUSH2 0x3FD PUSH0 DUP3 PUSH2 0x3D2 JUMP JUMPDEST PUSH1 0x1 DUP2 ADD SWAP1 POP PUSH2 0x3EB JUMP JUMPDEST POP POP JUMP JUMPDEST PUSH1 0x1F DUP3 GT ISZERO PUSH2 0x44D JUMPI PUSH2 0x41E DUP2 PUSH2 0x2EF JUMP JUMPDEST PUSH2 0x427 DUP5 PUSH2 0x301 JUMP JUMPDEST DUP2 ADD PUSH1 0x20 DUP6 LT ISZERO PUSH2 0x436 JUMPI DUP2 SWAP1 POP JUMPDEST PUSH2 0x44A PUSH2 0x442 DUP6 PUSH2 0x301 JUMP JUMPDEST DUP4 ADD DUP3 PUSH2 0x3EA JUMP JUMPDEST POP POP JUMPDEST POP POP POP JUMP JUMPDEST PUSH0 DUP3 DUP3 SHR SWAP1 POP SWAP3 SWAP2 POP POP JUMP JUMPDEST PUSH0 PUSH2 0x46D PUSH0 NOT DUP5 PUSH1 0x8 MUL PUSH2 0x452 JUMP JUMPDEST NOT DUP1 DUP4 AND SWAP2 POP POP SWAP3 SWAP2 POP POP JUMP JUMPDEST PUSH0 PUSH2 0x485 DUP4 DUP4 PUSH2 0x45E JUMP JUMPDEST SWAP2 POP DUP3 PUSH1 0x2 MUL DUP3 OR SWAP1 POP SWAP3 SWAP2 POP POP JUMP JUMPDEST PUSH2 0x49E DUP3 PUSH2 0x288 JUMP JUMPDEST PUSH8 0xFFFFFFFFFFFFFFFF DUP2 GT ISZERO PUSH2 0x4B7 JUMPI PUSH2 0x4B6 PUSH2 0xB0 JUMP JUMPDEST JUMPDEST PUSH2 0x4C1 DUP3 SLOAD PUSH2 0x2BF JUMP JUMPDEST PUSH2 0x4CC DUP3 DUP3 DUP6 PUSH2 0x40C JUMP JUMPDEST PUSH0 PUSH1 0x20 SWAP1 POP PUSH1 0x1F DUP4 GT PUSH1 0x1 DUP2 EQ PUSH2 0x4FD JUMPI PUSH0 DUP5 ISZERO PUSH2 0x4EB JUMPI DUP3 DUP8 ADD MLOAD SWAP1 POP JUMPDEST PUSH2 0x4F5 DUP6 DUP3 PUSH2 0x47A JUMP JUMPDEST DUP7 SSTORE POP PUSH2 0x55C JUMP JUMPDEST PUSH1 0x1F NOT DUP5 AND PUSH2 0x50B DUP7 PUSH2 0x2EF JUMP JUMPDEST PUSH0 JUMPDEST DUP3 DUP2 LT ISZERO PUSH2 0x532 JUMPI DUP5 DUP10 ADD MLOAD DUP3 SSTORE PUSH1 0x1 DUP3 ADD SWAP2 POP PUSH1 0x20 DUP6 ADD SWAP5 POP PUSH1 0x20 DUP2 ADD SWAP1 POP PUSH2 0x50D JUMP JUMPDEST DUP7 DUP4 LT ISZERO PUSH2 0x54F JUMPI DUP5 DUP10 ADD MLOAD PUSH2 0x54B PUSH1 0x1F DUP10 AND DUP3 PUSH2 0x45E JUMP JUMPDEST DUP4 SSTORE POP JUMPDEST PUSH1 0x1 PUSH1 0x2 DUP9 MUL ADD DUP9 SSTORE POP POP POP JUMPDEST POP POP POP POP POP POP JUMP JUMPDEST PUSH2 0x141F DUP1 PUSH2 0x571 PUSH0 CODECOPY PUSH0 RETURN INVALID PUSH1 0x80 PUSH1 0x40 MSTORE CALLVALUE DUP1 ISZERO PUSH2 0xF JUMPI PUSH0 DUP1 REVERT JUMPDEST POP PUSH1 0x4 CALLDATASIZE LT PUSH2 0x3F JUMPI PUSH0 CALLDATALOAD PUSH1 0xE0 SHR DUP1 PUSH4 0x6FDDE03 EQ PUSH2 0x43 JUMPI DUP1 PUSH4 0x110506F0 EQ PUSH2 0x61 JUMPI DUP1 PUSH4 0x5E1ACF65 EQ PUSH2 0x91 JUMPI JUMPDEST PUSH0 DUP1 REVERT JUMPDEST PUSH2 0x4B PUSH2 0xC1 JUMP JUMPDEST PUSH1 0x40 MLOAD PUSH2 0x58 SWAP2 SWAP1 PUSH2 0x580 JUMP JUMPDEST PUSH1 0x40 MLOAD DUP1 SWAP2 SUB SWAP1 RETURN JUMPDEST PUSH2 0x7B PUSH1 0x4 DUP1 CALLDATASIZE SUB DUP2 ADD SWAP1 PUSH2 0x76 SWAP2 SWAP1 PUSH2 0x5D7 JUMP JUMPDEST PUSH2 0x14C JUMP JUMPDEST PUSH1 0x40 MLOAD PUSH2 0x88 SWAP2 SWAP1 PUSH2 0x62F JUMP JUMPDEST PUSH1 0x40 MLOAD DUP1 SWAP2 SUB SWAP1 RETURN JUMPDEST PUSH2 0xAB PUSH1 0x4 DUP1 CALLDATASIZE SUB DUP2 ADD SWAP1 PUSH2 0xA6 SWAP2 SWAP1 PUSH2 0x648 JUMP JUMPDEST PUSH2 0x39A JUMP JUMPDEST PUSH1 0x40 MLOAD PUSH2 0xB8 SWAP2 SWAP1 PUSH2 0x62F JUMP JUMPDEST PUSH1 0x40 MLOAD DUP1 SWAP2 SUB SWAP1 RETURN JUMPDEST PUSH0 DUP1 SLOAD PUSH2 0xCD SWAP1 PUSH2 0x6A0 JUMP JUMPDEST DUP1 PUSH1 0x1F ADD PUSH1 0x20 DUP1 SWAP2 DIV MUL PUSH1 0x20 ADD PUSH1 0x40 MLOAD SWAP1 DUP2 ADD PUSH1 0x40 MSTORE DUP1 SWAP3 SWAP2 SWAP1 DUP2 DUP2 MSTORE PUSH1 0x20 ADD DUP3 DUP1 SLOAD PUSH2 0xF9 SWAP1 PUSH2 0x6A0 JUMP JUMPDEST DUP1 ISZERO PUSH2 0x144 JUMPI DUP1 PUSH1 0x1F LT PUSH2 0x11B JUMPI PUSH2 0x100 DUP1 DUP4 SLOAD DIV MUL DUP4 MSTORE SWAP2 PUSH1 0x20 ADD SWAP2 PUSH2 0x144 JUMP JUMPDEST DUP3 ADD SWAP2 SWAP1 PUSH0 MSTORE PUSH1 0x20 PUSH0 KECCAK256 SWAP1 JUMPDEST DUP2 SLOAD DUP2 MSTORE SWAP1 PUSH1 0x1 ADD SWAP1 PUSH1 0x20 ADD DUP1 DUP4 GT PUSH2 0x127 JUMPI DUP3 SWAP1 SUB PUSH1 0x1F AND DUP3 ADD SWAP2 JUMPDEST POP POP POP POP POP DUP2 JUMP JUMPDEST PUSH0 PUSH1 0x1 PUSH0 SWAP1 SLOAD SWAP1 PUSH2 0x100 EXP SWAP1 DIV PUSH20 0xFFFFFFFFFFFFFFFFFFFFFFFFFFFFFFFFFFFFFFFF AND PUSH20 0xFFFFFFFFFFFFFFFFFFFFFFFFFFFFFFFFFFFFFFFF AND PUSH4 0x163388AE DUP5 PUSH1 0x40 MLOAD DUP3 PUSH4 0xFFFFFFFF AND PUSH1 0xE0 SHL DUP2 MSTORE PUSH1 0x4 ADD PUSH2 0x1A7 SWAP2 SWAP1 PUSH2 0x6DF JUMP JUMPDEST PUSH1 0x20 PUSH1 0x40 MLOAD DUP1 DUP4 SUB DUP2 DUP7 GAS STATICCALL ISZERO DUP1 ISZERO PUSH2 0x1C2 JUMPI RETURNDATASIZE PUSH0 DUP1 RETURNDATACOPY RETURNDATASIZE PUSH0 REVERT JUMPDEST POP POP POP POP PUSH1 0x40 MLOAD RETURNDATASIZE PUSH1 0x1F NOT PUSH1 0x1F DUP3 ADD AND DUP3 ADD DUP1 PUSH1 0x40 MSTORE POP DUP2 ADD SWAP1 PUSH2 0x1E6 SWAP2 SWAP1 PUSH2 0x722 JUMP JUMPDEST ISZERO PUSH2 0x226 JUMPI PUSH1 0x40 MLOAD PUSH32 0x8C379A000000000000000000000000000000000000000000000000000000000 DUP2 MSTORE PUSH1 0x4 ADD PUSH2 0x21D SWAP1 PUSH2 0x797 JUMP JUMPDEST PUSH1 0x40 MLOAD DUP1 SWAP2 SUB SWAP1 REVERT JUMPDEST PUSH0 DUP4 PUSH1 0x1 PUSH0 SWAP1 SLOAD SWAP1 PUSH2 0x100 EXP SWAP1 DIV PUSH20 0xFFFFFFFFFFFFFFFFFFFFFFFFFFFFFFFFFFFFFFFF AND PUSH1 0x40 MLOAD PUSH2 0x256 SWAP1 PUSH2 0x503 JUMP JUMPDEST PUSH2 0x261 SWAP3 SWAP2 SWAP1 PUSH2 0x7F4 JUMP JUMPDEST PUSH1 0x40 MLOAD DUP1 SWAP2 SUB SWAP1 PUSH0 CREATE DUP1 ISZERO DUP1 ISZERO PUSH2 0x27A JUMPI RETURNDATASIZE PUSH0 DUP1 RETURNDATACOPY RETURNDATASIZE PUSH0 REVERT JUMPDEST POP SWAP1 POP PUSH1 0x1 PUSH0 SWAP1 SLOAD SWAP1 PUSH2 0x100 EXP SWAP1 DIV PUSH20 0xFFFFFFFFFFFFFFFFFFFFFFFFFFFFFFFFFFFFFFFF AND PUSH20 0xFFFFFFFFFFFFFFFFFFFFFFFFFFFFFFFFFFFFFFFF AND PUSH4 0x4A4B9FEB DUP6 DUP6 PUSH1 0x40 MLOAD DUP4 PUSH4 0xFFFFFFFF AND PUSH1 0xE0 SHL DUP2 MSTORE PUSH1 0x4 ADD PUSH2 0x2D9 SWAP3 SWAP2 SWAP1 PUSH2 0x81B JUMP JUMPDEST PUSH0 PUSH1 0x40 MLOAD DUP1 DUP4 SUB DUP2 PUSH0 DUP8 DUP1 EXTCODESIZE ISZERO DUP1 ISZERO PUSH2 0x2F0 JUMPI PUSH0 DUP1 REVERT JUMPDEST POP GAS CALL ISZERO DUP1 ISZERO PUSH2 0x302 JUMPI RETURNDATASIZE PUSH0 DUP1 RETURNDATACOPY RETURNDATASIZE PUSH0 REVERT JUMPDEST POP POP POP POP PUSH1 0x1 PUSH0 SWAP1 SLOAD SWAP1 PUSH2 0x100 EXP SWAP1 DIV PUSH20 0xFFFFFFFFFFFFFFFFFFFFFFFFFFFFFFFFFFFFFFFF AND PUSH20 0xFFFFFFFFFFFFFFFFFFFFFFFFFFFFFFFFFFFFFFFF AND PUSH4 0xDEDF34F3 DUP3 DUP7 PUSH1 0x40 MLOAD DUP4 PUSH4 0xFFFFFFFF AND PUSH1 0xE0 SHL DUP2 MSTORE PUSH1 0x4 ADD PUSH2 0x362 SWAP3 SWAP2 SWAP1 PUSH2 0x842 JUMP JUMPDEST PUSH0 PUSH1 0x40 MLOAD DUP1 DUP4 SUB DUP2 PUSH0 DUP8 DUP1 EXTCODESIZE ISZERO DUP1 ISZERO PUSH2 0x379 JUMPI PUSH0 DUP1 REVERT JUMPDEST POP GAS CALL ISZERO DUP1 ISZERO PUSH2 0x38B JUMPI RETURNDATASIZE PUSH0 DUP1 RETURNDATACOPY RETURNDATASIZE PUSH0 REVERT JUMPDEST POP POP POP POP PUSH1 0x1 SWAP2 POP POP SWAP3 SWAP2 POP POP JUMP JUMPDEST PUSH0 PUSH1 0x1 PUSH0 SWAP1 SLOAD SWAP1 PUSH2 0x100 EXP SWAP1 DIV PUSH20 0xFFFFFFFFFFFFFFFFFFFFFFFFFFFFFFFFFFFFFFFF AND PUSH20 0xFFFFFFFFFFFFFFFFFFFFFFFFFFFFFFFFFFFFFFFF AND PUSH4 0x163388AE DUP4 PUSH1 0x40 MLOAD DUP3 PUSH4 0xFFFFFFFF AND PUSH1 0xE0 SHL DUP2 MSTORE PUSH1 0x4 ADD PUSH2 0x3F5 SWAP2 SWAP1 PUSH2 0x6DF JUMP JUMPDEST PUSH1 0x20 PUSH1 0x40 MLOAD DUP1 DUP4 SUB DUP2 DUP7 GAS STATICCALL ISZERO DUP1 ISZERO PUSH2 0x410 JUMPI RETURNDATASIZE PUSH0 DUP1 RETURNDATACOPY RETURNDATASIZE PUSH0 REVERT JUMPDEST POP POP POP POP PUSH1 0x40 MLOAD RETURNDATASIZE PUSH1 0x1F NOT PUSH1 0x1F DUP3 ADD AND DUP3 ADD DUP1 PUSH1 0x40 MSTORE POP DUP2 ADD SWAP1 PUSH2 0x434 SWAP2 SWAP1 PUSH2 0x722 JUMP JUMPDEST PUSH2 0x473 JUMPI PUSH1 0x40 MLOAD PUSH32 0x8C379A000000000000000000000000000000000000000000000000000000000 DUP2 MSTORE PUSH1 0x4 ADD PUSH2 0x46A SWAP1 PUSH2 0x8B3 JUMP JUMPDEST PUSH1 0x40 MLOAD DUP1 SWAP2 SUB SWAP1 REVERT JUMPDEST PUSH1 0x1 PUSH0 SWAP1 SLOAD SWAP1 PUSH2 0x100 EXP SWAP1 DIV PUSH20 0xFFFFFFFFFFFFFFFFFFFFFFFFFFFFFFFFFFFFFFFF AND PUSH20 0xFFFFFFFFFFFFFFFFFFFFFFFFFFFFFFFFFFFFFFFF AND PUSH4 0x56D7548F DUP4 PUSH1 0x40 MLOAD DUP3 PUSH4 0xFFFFFFFF AND PUSH1 0xE0 SHL DUP2 MSTORE PUSH1 0x4 ADD PUSH2 0x4CD SWAP2 SWAP1 PUSH2 0x6DF JUMP JUMPDEST PUSH0 PUSH1 0x40 MLOAD DUP1 DUP4 SUB DUP2 PUSH0 DUP8 DUP1 EXTCODESIZE ISZERO DUP1 ISZERO PUSH2 0x4E4 JUMPI PUSH0 DUP1 REVERT JUMPDEST POP GAS CALL ISZERO DUP1 ISZERO PUSH2 0x4F6 JUMPI RETURNDATASIZE PUSH0 DUP1 RETURNDATACOPY RETURNDATASIZE PUSH0 REVERT JUMPDEST POP POP POP POP PUSH1 0x1 SWAP1 POP SWAP2 SWAP1 POP JUMP JUMPDEST PUSH2 0xB18 DUP1 PUSH2 0x8D2 DUP4 CODECOPY ADD SWAP1 JUMP JUMPDEST PUSH0 DUP2 MLOAD SWAP1 POP SWAP2 SWAP1 POP JUMP JUMPDEST PUSH0 DUP3 DUP3 MSTORE PUSH1 0x20 DUP3 ADD SWAP1 POP SWAP3 SWAP2 POP POP JUMP JUMPDEST DUP3 DUP2 DUP4 MCOPY PUSH0 DUP4 DUP4 ADD MSTORE POP POP POP JUMP JUMPDEST PUSH0 PUSH1 0x1F NOT PUSH1 0x1F DUP4 ADD AND SWAP1 POP SWAP2 SWAP1 POP JUMP JUMPDEST PUSH0 PUSH2 0x552 DUP3 PUSH2 0x510 JUMP JUMPDEST PUSH2 0x55C DUP2 DUP6 PUSH2 0x51A JUMP JUMPDEST SWAP4 POP PUSH2 0x56C DUP2 DUP6 PUSH1 0x20 DUP7 ADD PUSH2 0x52A JUMP JUMPDEST PUSH2 0x575 DUP2 PUSH2 0x538 JUMP JUMPDEST DUP5 ADD SWAP2 POP POP SWAP3 SWAP2 POP POP JUMP JUMPDEST PUSH0 PUSH1 0x20 DUP3 ADD SWAP1 POP DUP2 DUP2 SUB PUSH0 DUP4 ADD MSTORE PUSH2 0x598 DUP2 DUP5 PUSH2 0x548 JUMP JUMPDEST SWAP1 POP SWAP3 SWAP2 POP POP JUMP JUMPDEST PUSH0 DUP1 REVERT JUMPDEST PUSH0 DUP2 SWAP1 POP SWAP2 SWAP1 POP JUMP JUMPDEST PUSH2 0x5B6 DUP2 PUSH2 0x5A4 JUMP JUMPDEST DUP2 EQ PUSH2 0x5C0 JUMPI PUSH0 DUP1 REVERT JUMPDEST POP JUMP JUMPDEST PUSH0 DUP2 CALLDATALOAD SWAP1 POP PUSH2 0x5D1 DUP2 PUSH2 0x5AD JUMP JUMPDEST SWAP3 SWAP2 POP POP JUMP JUMPDEST PUSH0 DUP1 PUSH1 0x40 DUP4 DUP6 SUB SLT ISZERO PUSH2 0x5ED JUMPI PUSH2 0x5EC PUSH2 0x5A0 JUMP JUMPDEST JUMPDEST PUSH0 PUSH2 0x5FA DUP6 DUP3 DUP7 ADD PUSH2 0x5C3 JUMP JUMPDEST SWAP3 POP POP PUSH1 0x20 PUSH2 0x60B DUP6 DUP3 DUP7 ADD PUSH2 0x5C3 JUMP JUMPDEST SWAP2 POP POP SWAP3 POP SWAP3 SWAP1 POP JUMP JUMPDEST PUSH0 DUP2 ISZERO ISZERO SWAP1 POP SWAP2 SWAP1 POP JUMP JUMPDEST PUSH2 0x629 DUP2 PUSH2 0x615 JUMP JUMPDEST DUP3 MSTORE POP POP JUMP JUMPDEST PUSH0 PUSH1 0x20 DUP3 ADD SWAP1 POP PUSH2 0x642 PUSH0 DUP4 ADD DUP5 PUSH2 0x620 JUMP JUMPDEST SWAP3 SWAP2 POP POP JUMP JUMPDEST PUSH0 PUSH1 0x20 DUP3 DUP5 SUB SLT ISZERO PUSH2 0x65D JUMPI PUSH2 0x65C PUSH2 0x5A0 JUMP JUMPDEST JUMPDEST PUSH0 PUSH2 0x66A DUP5 DUP3 DUP6 ADD PUSH2 0x5C3 JUMP JUMPDEST SWAP2 POP POP SWAP3 SWAP2 POP POP JUMP JUMPDEST PUSH32 0x4E487B7100000000000000000000000000000000000000000000000000000000 PUSH0 MSTORE PUSH1 0x22 PUSH1 0x4 MSTORE PUSH1 0x24 PUSH0 REVERT JUMPDEST PUSH0 PUSH1 0x2 DUP3 DIV SWAP1 POP PUSH1 0x1 DUP3 AND DUP1 PUSH2 0x6B7 JUMPI PUSH1 0x7F DUP3 AND SWAP2 POP JUMPDEST PUSH1 0x20 DUP3 LT DUP2 SUB PUSH2 0x6CA JUMPI PUSH2 0x6C9 PUSH2 0x673 JUMP JUMPDEST JUMPDEST POP SWAP2 SWAP1 POP JUMP JUMPDEST PUSH2 0x6D9 DUP2 PUSH2 0x5A4 JUMP JUMPDEST DUP3 MSTORE POP POP JUMP JUMPDEST PUSH0 PUSH1 0x20 DUP3 ADD SWAP1 POP PUSH2 0x6F2 PUSH0 DUP4 ADD DUP5 PUSH2 0x6D0 JUMP JUMPDEST SWAP3 SWAP2 POP POP JUMP JUMPDEST PUSH2 0x701 DUP2 PUSH2 0x615 JUMP JUMPDEST DUP2 EQ PUSH2 0x70B JUMPI PUSH0 DUP1 REVERT JUMPDEST POP JUMP JUMPDEST PUSH0 DUP2 MLOAD SWAP1 POP PUSH2 0x71C DUP2 PUSH2 0x6F8 JUMP JUMPDEST SWAP3 SWAP2 POP POP JUMP JUMPDEST PUSH0 PUSH1 0x20 DUP3 DUP5 SUB SLT ISZERO PUSH2 0x737 JUMPI PUSH2 0x736 PUSH2 0x5A0 JUMP JUMPDEST JUMPDEST PUSH0 PUSH2 0x744 DUP5 DUP3 DUP6 ADD PUSH2 0x70E JUMP JUMPDEST SWAP2 POP POP SWAP3 SWAP2 POP POP JUMP JUMPDEST PUSH32 0x437573746F6D657220616C726561647920657869737473000000000000000000 PUSH0 DUP3 ADD MSTORE POP JUMP JUMPDEST PUSH0 PUSH2 0x781 PUSH1 0x17 DUP4 PUSH2 0x51A JUMP JUMPDEST SWAP2 POP PUSH2 0x78C DUP3 PUSH2 0x74D JUMP JUMPDEST PUSH1 0x20 DUP3 ADD SWAP1 POP SWAP2 SWAP1 POP JUMP JUMPDEST PUSH0 PUSH1 0x20 DUP3 ADD SWAP1 POP DUP2 DUP2 SUB PUSH0 DUP4 ADD MSTORE PUSH2 0x7AE DUP2 PUSH2 0x775 JUMP JUMPDEST SWAP1 POP SWAP2 SWAP1 POP JUMP JUMPDEST PUSH0 PUSH20 0xFFFFFFFFFFFFFFFFFFFFFFFFFFFFFFFFFFFFFFFF DUP3 AND SWAP1 POP SWAP2 SWAP1 POP JUMP JUMPDEST PUSH0 PUSH2 0x7DE DUP3 PUSH2 0x7B5 JUMP JUMPDEST SWAP1 POP SWAP2 SWAP1 POP JUMP JUMPDEST PUSH2 0x7EE DUP2 PUSH2 0x7D4 JUMP JUMPDEST DUP3 MSTORE POP POP JUMP JUMPDEST PUSH0 PUSH1 0x40 DUP3 ADD SWAP1 POP PUSH2 0x807 PUSH0 DUP4 ADD DUP6 PUSH2 0x6D0 JUMP JUMPDEST PUSH2 0x814 PUSH1 0x20 DUP4 ADD DUP5 PUSH2 0x7E5 JUMP JUMPDEST SWAP4 SWAP3 POP POP POP JUMP JUMPDEST PUSH0 PUSH1 0x40 DUP3 ADD SWAP1 POP PUSH2 0x82E PUSH0 DUP4 ADD DUP6 PUSH2 0x6D0 JUMP JUMPDEST PUSH2 0x83B PUSH1 0x20 DUP4 ADD DUP5 PUSH2 0x6D0 JUMP JUMPDEST SWAP4 SWAP3 POP POP POP JUMP JUMPDEST PUSH0 PUSH1 0x40 DUP3 ADD SWAP1 POP PUSH2 0x855 PUSH0 DUP4 ADD DUP6 PUSH2 0x7E5 JUMP JUMPDEST PUSH2 0x862 PUSH1 0x20 DUP4 ADD DUP5 PUSH2 0x6D0 JUMP JUMPDEST SWAP4 SWAP3 POP POP POP JUMP JUMPDEST PUSH32 0x437573746F6D657220646F6573206E6F74206578697374000000000000000000 PUSH0 DUP3 ADD MSTORE POP JUMP JUMPDEST PUSH0 PUSH2 0x89D PUSH1 0x17 DUP4 PUSH2 0x51A JUMP JUMPDEST SWAP2 POP PUSH2 0x8A8 DUP3 PUSH2 0x869 JUMP JUMPDEST PUSH1 0x20 DUP3 ADD SWAP1 POP SWAP2 SWAP1 POP JUMP JUMPDEST PUSH0 PUSH1 0x20 DUP3 ADD SWAP1 POP DUP2 DUP2 SUB PUSH0 DUP4 ADD MSTORE PUSH2 0x8CA DUP2 PUSH2 0x891 JUMP JUMPDEST SWAP1 POP SWAP2 SWAP1 POP JUMP INVALID PUSH1 0x80 PUSH1 0x40 MSTORE CALLVALUE DUP1 ISZERO PUSH2 0xF JUMPI PUSH0 DUP1 REVERT JUMPDEST POP PUSH1 0x40 MLOAD PUSH2 0xB18 CODESIZE SUB DUP1 PUSH2 0xB18 DUP4 CODECOPY DUP2 DUP2 ADD PUSH1 0x40 MSTORE DUP2 ADD SWAP1 PUSH2 0x31 SWAP2 SWAP1 PUSH2 0x10F JUMP JUMPDEST DUP2 PUSH0 DUP2 SWAP1 SSTORE POP DUP1 PUSH1 0x1 PUSH0 PUSH2 0x100 EXP DUP2 SLOAD DUP2 PUSH20 0xFFFFFFFFFFFFFFFFFFFFFFFFFFFFFFFFFFFFFFFF MUL NOT AND SWAP1 DUP4 PUSH20 0xFFFFFFFFFFFFFFFFFFFFFFFFFFFFFFFFFFFFFFFF AND MUL OR SWAP1 SSTORE POP POP POP PUSH2 0x14D JUMP JUMPDEST PUSH0 DUP1 REVERT JUMPDEST PUSH0 DUP2 SWAP1 POP SWAP2 SWAP1 POP JUMP JUMPDEST PUSH2 0x94 DUP2 PUSH2 0x82 JUMP JUMPDEST DUP2 EQ PUSH2 0x9E JUMPI PUSH0 DUP1 REVERT JUMPDEST POP JUMP JUMPDEST PUSH0 DUP2 MLOAD SWAP1 POP PUSH2 0xAF DUP2 PUSH2 0x8B JUMP JUMPDEST SWAP3 SWAP2 POP POP JUMP JUMPDEST PUSH0 PUSH20 0xFFFFFFFFFFFFFFFFFFFFFFFFFFFFFFFFFFFFFFFF DUP3 AND SWAP1 POP SWAP2 SWAP1 POP JUMP JUMPDEST PUSH0 PUSH2 0xDE DUP3 PUSH2 0xB5 JUMP JUMPDEST SWAP1 POP SWAP2 SWAP1 POP JUMP JUMPDEST PUSH2 0xEE DUP2 PUSH2 0xD4 JUMP JUMPDEST DUP2 EQ PUSH2 0xF8 JUMPI PUSH0 DUP1 REVERT JUMPDEST POP JUMP JUMPDEST PUSH0 DUP2 MLOAD SWAP1 POP PUSH2 0x109 DUP2 PUSH2 0xE5 JUMP JUMPDEST SWAP3 SWAP2 POP POP JUMP JUMPDEST PUSH0 DUP1 PUSH1 0x40 DUP4 DUP6 SUB SLT ISZERO PUSH2 0x125 JUMPI PUSH2 0x124 PUSH2 0x7E JUMP JUMPDEST JUMPDEST PUSH0 PUSH2 0x132 DUP6 DUP3 DUP7 ADD PUSH2 0xA1 JUMP JUMPDEST SWAP3 POP POP PUSH1 0x20 PUSH2 0x143 DUP6 DUP3 DUP7 ADD PUSH2 0xFB JUMP JUMPDEST SWAP2 POP POP SWAP3 POP SWAP3 SWAP1 POP JUMP JUMPDEST PUSH2 0x9BE DUP1 PUSH2 0x15A PUSH0 CODECOPY PUSH0 RETURN INVALID PUSH1 0x80 PUSH1 0x40 MSTORE CALLVALUE DUP1 ISZERO PUSH2 0xF JUMPI PUSH0 DUP1 REVERT JUMPDEST POP PUSH1 0x4 CALLDATASIZE LT PUSH2 0x3F JUMPI PUSH0 CALLDATALOAD PUSH1 0xE0 SHR DUP1 PUSH4 0x4D802ABB EQ PUSH2 0x43 JUMPI DUP1 PUSH4 0x7F286286 EQ PUSH2 0x73 JUMPI DUP1 PUSH4 0xE2627CCF EQ PUSH2 0xA3 JUMPI JUMPDEST PUSH0 DUP1 REVERT JUMPDEST PUSH2 0x5D PUSH1 0x4 DUP1 CALLDATASIZE SUB DUP2 ADD SWAP1 PUSH2 0x58 SWAP2 SWAP1 PUSH2 0x69F JUMP JUMPDEST PUSH2 0xD3 JUMP JUMPDEST PUSH1 0x40 MLOAD PUSH2 0x6A SWAP2 SWAP1 PUSH2 0x6E4 JUMP JUMPDEST PUSH1 0x40 MLOAD DUP1 SWAP2 SUB SWAP1 RETURN JUMPDEST PUSH2 0x8D PUSH1 0x4 DUP1 CALLDATASIZE SUB DUP2 ADD SWAP1 PUSH2 0x88 SWAP2 SWAP1 PUSH2 0x69F JUMP JUMPDEST PUSH2 0x293 JUMP JUMPDEST PUSH1 0x40 MLOAD PUSH2 0x9A SWAP2 SWAP1 PUSH2 0x70C JUMP JUMPDEST PUSH1 0x40 MLOAD DUP1 SWAP2 SUB SWAP1 RETURN JUMPDEST PUSH2 0xBD PUSH1 0x4 DUP1 CALLDATASIZE SUB DUP2 ADD SWAP1 PUSH2 0xB8 SWAP2 SWAP1 PUSH2 0x725 JUMP JUMPDEST PUSH2 0x334 JUMP JUMPDEST PUSH1 0x40 MLOAD PUSH2 0xCA SWAP2 SWAP1 PUSH2 0x6E4 JUMP JUMPDEST PUSH1 0x40 MLOAD DUP1 SWAP2 SUB SWAP1 RETURN JUMPDEST PUSH0 DUP1 PUSH1 0x1 PUSH0 SWAP1 SLOAD SWAP1 PUSH2 0x100 EXP SWAP1 DIV PUSH20 0xFFFFFFFFFFFFFFFFFFFFFFFFFFFFFFFFFFFFFFFF AND PUSH20 0xFFFFFFFFFFFFFFFFFFFFFFFFFFFFFFFFFFFFFFFF AND PUSH4 0x1E010439 PUSH0 SLOAD PUSH1 0x40 MLOAD DUP3 PUSH4 0xFFFFFFFF AND PUSH1 0xE0 SHL DUP2 MSTORE PUSH1 0x4 ADD PUSH2 0x130 SWAP2 SWAP1 PUSH2 0x70C JUMP JUMPDEST PUSH1 0x20 PUSH1 0x40 MLOAD DUP1 DUP4 SUB DUP2 DUP7 GAS STATICCALL ISZERO DUP1 ISZERO PUSH2 0x14B JUMPI RETURNDATASIZE PUSH0 DUP1 RETURNDATACOPY RETURNDATASIZE PUSH0 REVERT JUMPDEST POP POP POP POP PUSH1 0x40 MLOAD RETURNDATASIZE PUSH1 0x1F NOT PUSH1 0x1F DUP3 ADD AND DUP3 ADD DUP1 PUSH1 0x40 MSTORE POP DUP2 ADD SWAP1 PUSH2 0x16F SWAP2 SWAP1 PUSH2 0x777 JUMP JUMPDEST SWAP1 POP DUP3 DUP2 LT ISZERO PUSH2 0x1B4 JUMPI PUSH1 0x40 MLOAD PUSH32 0x8C379A000000000000000000000000000000000000000000000000000000000 DUP2 MSTORE PUSH1 0x4 ADD PUSH2 0x1AB SWAP1 PUSH2 0x822 JUMP JUMPDEST PUSH1 0x40 MLOAD DUP1 SWAP2 SUB SWAP1 REVERT JUMPDEST PUSH0 DUP4 DUP3 PUSH2 0x1C1 SWAP2 SWAP1 PUSH2 0x86D JUMP JUMPDEST SWAP1 POP PUSH1 0x1 PUSH0 SWAP1 SLOAD SWAP1 PUSH2 0x100 EXP SWAP1 DIV PUSH20 0xFFFFFFFFFFFFFFFFFFFFFFFFFFFFFFFFFFFFFFFF AND PUSH20 0xFFFFFFFFFFFFFFFFFFFFFFFFFFFFFFFFFFFFFFFF AND PUSH4 0x4A4B9FEB PUSH0 SLOAD DUP4 PUSH1 0x40 MLOAD DUP4 PUSH4 0xFFFFFFFF AND PUSH1 0xE0 SHL DUP2 MSTORE PUSH1 0x4 ADD PUSH2 0x220 SWAP3 SWAP2 SWAP1 PUSH2 0x8A0 JUMP JUMPDEST PUSH0 PUSH1 0x40 MLOAD DUP1 DUP4 SUB DUP2 PUSH0 DUP8 DUP1 EXTCODESIZE ISZERO DUP1 ISZERO PUSH2 0x237 JUMPI PUSH0 DUP1 REVERT JUMPDEST POP GAS CALL ISZERO DUP1 ISZERO PUSH2 0x249 JUMPI RETURNDATASIZE PUSH0 DUP1 RETURNDATACOPY RETURNDATASIZE PUSH0 REVERT JUMPDEST POP POP POP POP PUSH0 SLOAD PUSH32 0x913D222564A08EE6D9C6A374A75D452883FFF7D55C9C4F3D982EE2820F240375 DUP6 TIMESTAMP PUSH1 0x40 MLOAD PUSH2 0x280 SWAP3 SWAP2 SWAP1 PUSH2 0x8A0 JUMP JUMPDEST PUSH1 0x40 MLOAD DUP1 SWAP2 SUB SWAP1 LOG2 PUSH1 0x1 SWAP3 POP POP POP SWAP2 SWAP1 POP JUMP JUMPDEST PUSH0 PUSH1 0x1 PUSH0 SWAP1 SLOAD SWAP1 PUSH2 0x100 EXP SWAP1 DIV PUSH20 0xFFFFFFFFFFFFFFFFFFFFFFFFFFFFFFFFFFFFFFFF AND PUSH20 0xFFFFFFFFFFFFFFFFFFFFFFFFFFFFFFFFFFFFFFFF AND PUSH4 0x1E010439 DUP4 PUSH1 0x40 MLOAD DUP3 PUSH4 0xFFFFFFFF AND PUSH1 0xE0 SHL DUP2 MSTORE PUSH1 0x4 ADD PUSH2 0x2EE SWAP2 SWAP1 PUSH2 0x70C JUMP JUMPDEST PUSH1 0x20 PUSH1 0x40 MLOAD DUP1 DUP4 SUB DUP2 DUP7 GAS STATICCALL ISZERO DUP1 ISZERO PUSH2 0x309 JUMPI RETURNDATASIZE PUSH0 DUP1 RETURNDATACOPY RETURNDATASIZE PUSH0 REVERT JUMPDEST POP POP POP POP PUSH1 0x40 MLOAD RETURNDATASIZE PUSH1 0x1F NOT PUSH1 0x1F DUP3 ADD AND DUP3 ADD DUP1 PUSH1 0x40 MSTORE POP DUP2 ADD SWAP1 PUSH2 0x32D SWAP2 SWAP1 PUSH2 0x777 JUMP JUMPDEST SWAP1 POP SWAP2 SWAP1 POP JUMP JUMPDEST PUSH0 DUP1 PUSH1 0x1 PUSH0 SWAP1 SLOAD SWAP1 PUSH2 0x100 EXP SWAP1 DIV PUSH20 0xFFFFFFFFFFFFFFFFFFFFFFFFFFFFFFFFFFFFFFFF AND PUSH20 0xFFFFFFFFFFFFFFFFFFFFFFFFFFFFFFFFFFFFFFFF AND PUSH4 0x1E010439 PUSH0 SLOAD PUSH1 0x40 MLOAD DUP3 PUSH4 0xFFFFFFFF AND PUSH1 0xE0 SHL DUP2 MSTORE PUSH1 0x4 ADD PUSH2 0x391 SWAP2 SWAP1 PUSH2 0x70C JUMP JUMPDEST PUSH1 0x20 PUSH1 0x40 MLOAD DUP1 DUP4 SUB DUP2 DUP7 GAS STATICCALL ISZERO DUP1 ISZERO PUSH2 0x3AC JUMPI RETURNDATASIZE PUSH0 DUP1 RETURNDATACOPY RETURNDATASIZE PUSH0 REVERT JUMPDEST POP POP POP POP PUSH1 0x40 MLOAD RETURNDATASIZE PUSH1 0x1F NOT PUSH1 0x1F DUP3 ADD AND DUP3 ADD DUP1 PUSH1 0x40 MSTORE POP DUP2 ADD SWAP1 PUSH2 0x3D0 SWAP2 SWAP1 PUSH2 0x777 JUMP JUMPDEST SWAP1 POP DUP3 DUP2 LT ISZERO PUSH2 0x415 JUMPI PUSH1 0x40 MLOAD PUSH32 0x8C379A000000000000000000000000000000000000000000000000000000000 DUP2 MSTORE PUSH1 0x4 ADD PUSH2 0x40C SWAP1 PUSH2 0x937 JUMP JUMPDEST PUSH1 0x40 MLOAD DUP1 SWAP2 SUB SWAP1 REVERT JUMPDEST PUSH0 PUSH1 0x1 PUSH0 SWAP1 SLOAD SWAP1 PUSH2 0x100 EXP SWAP1 DIV PUSH20 0xFFFFFFFFFFFFFFFFFFFFFFFFFFFFFFFFFFFFFFFF AND PUSH20 0xFFFFFFFFFFFFFFFFFFFFFFFFFFFFFFFFFFFFFFFF AND PUSH4 0x1E010439 DUP7 PUSH1 0x40 MLOAD DUP3 PUSH4 0xFFFFFFFF AND PUSH1 0xE0 SHL DUP2 MSTORE PUSH1 0x4 ADD PUSH2 0x470 SWAP2 SWAP1 PUSH2 0x70C JUMP JUMPDEST PUSH1 0x20 PUSH1 0x40 MLOAD DUP1 DUP4 SUB DUP2 DUP7 GAS STATICCALL ISZERO DUP1 ISZERO PUSH2 0x48B JUMPI RETURNDATASIZE PUSH0 DUP1 RETURNDATACOPY RETURNDATASIZE PUSH0 REVERT JUMPDEST POP POP POP POP PUSH1 0x40 MLOAD RETURNDATASIZE PUSH1 0x1F NOT PUSH1 0x1F DUP3 ADD AND DUP3 ADD DUP1 PUSH1 0x40 MSTORE POP DUP2 ADD SWAP1 PUSH2 0x4AF SWAP2 SWAP1 PUSH2 0x777 JUMP JUMPDEST SWAP1 POP PUSH0 DUP5 DUP4 PUSH2 0x4BE SWAP2 SWAP1 PUSH2 0x86D JUMP JUMPDEST SWAP1 POP PUSH0 DUP6 DUP4 PUSH2 0x4CD SWAP2 SWAP1 PUSH2 0x955 JUMP JUMPDEST SWAP1 POP PUSH1 0x1 PUSH0 SWAP1 SLOAD SWAP1 PUSH2 0x100 EXP SWAP1 DIV PUSH20 0xFFFFFFFFFFFFFFFFFFFFFFFFFFFFFFFFFFFFFFFF AND PUSH20 0xFFFFFFFFFFFFFFFFFFFFFFFFFFFFFFFFFFFFFFFF AND PUSH4 0x4A4B9FEB PUSH0 SLOAD DUP5 PUSH1 0x40 MLOAD DUP4 PUSH4 0xFFFFFFFF AND PUSH1 0xE0 SHL DUP2 MSTORE PUSH1 0x4 ADD PUSH2 0x52C SWAP3 SWAP2 SWAP1 PUSH2 0x8A0 JUMP JUMPDEST PUSH0 PUSH1 0x40 MLOAD DUP1 DUP4 SUB DUP2 PUSH0 DUP8 DUP1 EXTCODESIZE ISZERO DUP1 ISZERO PUSH2 0x543 JUMPI PUSH0 DUP1 REVERT JUMPDEST POP GAS CALL ISZERO DUP1 ISZERO PUSH2 0x555 JUMPI RETURNDATASIZE PUSH0 DUP1 RETURNDATACOPY RETURNDATASIZE PUSH0 REVERT JUMPDEST POP POP POP POP PUSH1 0x1 PUSH0 SWAP1 SLOAD SWAP1 PUSH2 0x100 EXP SWAP1 DIV PUSH20 0xFFFFFFFFFFFFFFFFFFFFFFFFFFFFFFFFFFFFFFFF AND PUSH20 0xFFFFFFFFFFFFFFFFFFFFFFFFFFFFFFFFFFFFFFFF AND PUSH4 0x4A4B9FEB DUP9 DUP4 PUSH1 0x40 MLOAD DUP4 PUSH4 0xFFFFFFFF AND PUSH1 0xE0 SHL DUP2 MSTORE PUSH1 0x4 ADD PUSH2 0x5B5 SWAP3 SWAP2 SWAP1 PUSH2 0x8A0 JUMP JUMPDEST PUSH0 PUSH1 0x40 MLOAD DUP1 DUP4 SUB DUP2 PUSH0 DUP8 DUP1 EXTCODESIZE ISZERO DUP1 ISZERO PUSH2 0x5CC JUMPI PUSH0 DUP1 REVERT JUMPDEST POP GAS CALL ISZERO DUP1 ISZERO PUSH2 0x5DE JUMPI RETURNDATASIZE PUSH0 DUP1 RETURNDATACOPY RETURNDATASIZE PUSH0 REVERT JUMPDEST POP POP POP POP DUP7 PUSH0 SLOAD PUSH32 0x270D555906E5D6B40BC118B63A231DAA86493C7D7B32AF1A91FB621C9380E26A DUP9 TIMESTAMP PUSH1 0x40 MLOAD PUSH2 0x616 SWAP3 SWAP2 SWAP1 PUSH2 0x8A0 JUMP JUMPDEST PUSH1 0x40 MLOAD DUP1 SWAP2 SUB SWAP1 LOG3 PUSH0 SLOAD DUP8 PUSH32 0x4C3E90D4447521168EB1FC57DB7E97AC06C0874538CF486849946416F5326F7 DUP9 TIMESTAMP PUSH1 0x40 MLOAD PUSH2 0x652 SWAP3 SWAP2 SWAP1 PUSH2 0x8A0 JUMP JUMPDEST PUSH1 0x40 MLOAD DUP1 SWAP2 SUB SWAP1 LOG3 PUSH1 0x1 SWAP5 POP POP POP POP POP SWAP3 SWAP2 POP POP JUMP JUMPDEST PUSH0 DUP1 REVERT JUMPDEST PUSH0 DUP2 SWAP1 POP SWAP2 SWAP1 POP JUMP JUMPDEST PUSH2 0x67E DUP2 PUSH2 0x66C JUMP JUMPDEST DUP2 EQ PUSH2 0x688 JUMPI PUSH0 DUP1 REVERT JUMPDEST POP JUMP JUMPDEST PUSH0 DUP2 CALLDATALOAD SWAP1 POP PUSH2 0x699 DUP2 PUSH2 0x675 JUMP JUMPDEST SWAP3 SWAP2 POP POP JUMP JUMPDEST PUSH0 PUSH1 0x20 DUP3 DUP5 SUB SLT ISZERO PUSH2 0x6B4 JUMPI PUSH2 0x6B3 PUSH2 0x668 JUMP JUMPDEST JUMPDEST PUSH0 PUSH2 0x6C1 DUP5 DUP3 DUP6 ADD PUSH2 0x68B JUMP JUMPDEST SWAP2 POP POP SWAP3 SWAP2 POP POP JUMP JUMPDEST PUSH0 DUP2 ISZERO ISZERO SWAP1 POP SWAP2 SWAP1 POP JUMP JUMPDEST PUSH2 0x6DE DUP2 PUSH2 0x6CA JUMP JUMPDEST DUP3 MSTORE POP POP JUMP JUMPDEST PUSH0 PUSH1 0x20 DUP3 ADD SWAP1 POP PUSH2 0x6F7 PUSH0 DUP4 ADD DUP5 PUSH2 0x6D5 JUMP JUMPDEST SWAP3 SWAP2 POP POP JUMP JUMPDEST PUSH2 0x706 DUP2 PUSH2 0x66C JUMP JUMPDEST DUP3 MSTORE POP POP JUMP JUMPDEST PUSH0 PUSH1 0x20 DUP3 ADD SWAP1 POP PUSH2 0x71F PUSH0 DUP4 ADD DUP5 PUSH2 0x6FD JUMP JUMPDEST SWAP3 SWAP2 POP POP JUMP JUMPDEST PUSH0 DUP1 PUSH1 0x40 DUP4 DUP6 SUB SLT ISZERO PUSH2 0x73B JUMPI PUSH2 0x73A PUSH2 0x668 JUMP JUMPDEST JUMPDEST PUSH0 PUSH2 0x748 DUP6 DUP3 DUP7 ADD PUSH2 0x68B JUMP JUMPDEST SWAP3 POP POP PUSH1 0x20 PUSH2 0x759 DUP6 DUP3 DUP7 ADD PUSH2 0x68B JUMP JUMPDEST SWAP2 POP POP SWAP3 POP SWAP3 SWAP1 POP JUMP JUMPDEST PUSH0 DUP2 MLOAD SWAP1 POP PUSH2 0x771 DUP2 PUSH2 0x675 JUMP JUMPDEST SWAP3 SWAP2 POP POP JUMP JUMPDEST PUSH0 PUSH1 0x20 DUP3 DUP5 SUB SLT ISZERO PUSH2 0x78C JUMPI PUSH2 0x78B PUSH2 0x668 JUMP JUMPDEST JUMPDEST PUSH0 PUSH2 0x799 DUP5 DUP3 DUP6 ADD PUSH2 0x763 JUMP JUMPDEST SWAP2 POP POP SWAP3 SWAP2 POP POP JUMP JUMPDEST PUSH0 DUP3 DUP3 MSTORE PUSH1 0x20 DUP3 ADD SWAP1 POP SWAP3 SWAP2 POP POP JUMP JUMPDEST PUSH32 0x496E73756666696369656E742062616C616E636520746F207075726368617365 PUSH0 DUP3 ADD MSTORE PUSH32 0x206974656D000000000000000000000000000000000000000000000000000000 PUSH1 0x20 DUP3 ADD MSTORE POP JUMP JUMPDEST PUSH0 PUSH2 0x80C PUSH1 0x25 DUP4 PUSH2 0x7A2 JUMP JUMPDEST SWAP2 POP PUSH2 0x817 DUP3 PUSH2 0x7B2 JUMP JUMPDEST PUSH1 0x40 DUP3 ADD SWAP1 POP SWAP2 SWAP1 POP JUMP JUMPDEST PUSH0 PUSH1 0x20 DUP3 ADD SWAP1 POP DUP2 DUP2 SUB PUSH0 DUP4 ADD MSTORE PUSH2 0x839 DUP2 PUSH2 0x800 JUMP JUMPDEST SWAP1 POP SWAP2 SWAP1 POP JUMP JUMPDEST PUSH32 0x4E487B7100000000000000000000000000000000000000000000000000000000 PUSH0 MSTORE PUSH1 0x11 PUSH1 0x4 MSTORE PUSH1 0x24 PUSH0 REVERT JUMPDEST PUSH0 PUSH2 0x877 DUP3 PUSH2 0x66C JUMP JUMPDEST SWAP2 POP PUSH2 0x882 DUP4 PUSH2 0x66C JUMP JUMPDEST SWAP3 POP DUP3 DUP3 SUB SWAP1 POP DUP2 DUP2 GT ISZERO PUSH2 0x89A JUMPI PUSH2 0x899 PUSH2 0x840 JUMP JUMPDEST JUMPDEST SWAP3 SWAP2 POP POP JUMP JUMPDEST PUSH0 PUSH1 0x40 DUP3 ADD SWAP1 POP PUSH2 0x8B3 PUSH0 DUP4 ADD DUP6 PUSH2 0x6FD JUMP JUMPDEST PUSH2 0x8C0 PUSH1 0x20 DUP4 ADD DUP5 PUSH2 0x6FD JUMP JUMPDEST SWAP4 SWAP3 POP POP POP JUMP JUMPDEST PUSH32 0x496E73756666696369656E742062616C616E636520746F207472616E73666572 PUSH0 DUP3 ADD MSTORE PUSH32 0x20706F696E747300000000000000000000000000000000000000000000000000 PUSH1 0x20 DUP3 ADD MSTORE POP JUMP JUMPDEST PUSH0 PUSH2 0x921 PUSH1 0x27 DUP4 PUSH2 0x7A2 JUMP JUMPDEST SWAP2 POP PUSH2 0x92C DUP3 PUSH2 0x8C7 JUMP JUMPDEST PUSH1 0x40 DUP3 ADD SWAP1 POP SWAP2 SWAP1 POP JUMP JUMPDEST PUSH0 PUSH1 0x20 DUP3 ADD SWAP1 POP DUP2 DUP2 SUB PUSH0 DUP4 ADD MSTORE PUSH2 0x94E DUP2 PUSH2 0x915 JUMP JUMPDEST SWAP1 POP SWAP2 SWAP1 POP JUMP JUMPDEST PUSH0 PUSH2 0x95F DUP3 PUSH2 0x66C JUMP JUMPDEST SWAP2 POP PUSH2 0x96A DUP4 PUSH2 0x66C JUMP JUMPDEST SWAP3 POP DUP3 DUP3 ADD SWAP1 POP DUP1 DUP3 GT ISZERO PUSH2 0x982 JUMPI PUSH2 0x981 PUSH2 0x840 JUMP JUMPDEST JUMPDEST SWAP3 SWAP2 POP POP JUMP INVALID LOG2 PUSH5 0x6970667358 0x22 SLT KECCAK256 SSTORE 0xC PREVRANDAO ADDRESS LOG4 0xA7 EXTCODESIZE 0xB6 EXP 0x27 0x22 PUSH2 0xBF72 ADDMOD NOT 0xB9 MLOAD 0xAB PUSH25 0xFFD9DCD39DA7663BA67ABEAF64736F6C63430008190033A264 PUSH10 0x70667358221220B6146E 0xE5 SWAP11 SWAP15 0xD3 BLOCKHASH 0xEB 0xF9 SAR NUMBER JUMPDEST 0x29 DELEGATECALL 0xDF EXTCODESIZE ORIGIN 0x4C 0xA7 0xF7 PUSH22 0xCE7CE3044D0FDDA0CFAB64736F6C6343000819003300 "
				},
				"gasEstimates": {
					"creation": {
						"codeDepositCost": "1030200",
						"executionCost": "infinite",
						"totalCost": "infinite"
					},
					"external": {
						"createCard(uint256,uint256)": "infinite",
						"deleteCard(uint256)": "infinite",
						"name()": "infinite"
					}
				},
				"methodIdentifiers": {
					"createCard(uint256,uint256)": "110506f0",
					"deleteCard(uint256)": "5e1acf65",
					"name()": "06fdde03"
				}
			},
			"storageLayout": {
				"storage": [
					{
						"astId": 196,
						"contract": "PCD/contractS/Magasin.sol:Magasin",
						"label": "name",
						"offset": 0,
						"slot": "0",
						"type": "t_string_storage"
					},
					{
						"astId": 199,
						"contract": "PCD/contractS/Magasin.sol:Magasin",
						"label": "sharedstate",
						"offset": 0,
						"slot": "1",
						"type": "t_contract(SharedState)431"
					}
				],
				"types": {
					"t_contract(SharedState)431": {
						"encoding": "inplace",
						"label": "contract SharedState",
						"numberOfBytes": "20"
					},
					"t_string_storage": {
						"encoding": "bytes",
						"label": "string",
						"numberOfBytes": "32"
					}
				}
			},
			"userdoc": {
				"kind": "user",
				"methods": {},
				"version": 1
			}
		}
	}
}