{
	"PCD/contractS/Customer.sol": {
		"Customer": {
			"abi": [
				{
					"inputs": [
						{
							"internalType": "uint256",
							"name": "client_id",
							"type": "uint256"
						},
						{
							"internalType": "address",
							"name": "sharedStateAddress",
							"type": "address"
						}
					],
					"stateMutability": "nonpayable",
					"type": "constructor"
				},
				{
					"anonymous": false,
					"inputs": [
						{
							"indexed": true,
							"internalType": "uint256",
							"name": "customerId",
							"type": "uint256"
						},
						{
							"indexed": false,
							"internalType": "uint256",
							"name": "itemPrice",
							"type": "uint256"
						},
						{
							"indexed": false,
							"internalType": "uint256",
							"name": "timestamp",
							"type": "uint256"
						}
					],
					"name": "ItemPurchased",
					"type": "event"
				},
				{
					"anonymous": false,
					"inputs": [
						{
							"indexed": true,
							"internalType": "uint256",
							"name": "fromId",
							"type": "uint256"
						},
						{
							"indexed": true,
							"internalType": "uint256",
							"name": "toId",
							"type": "uint256"
						},
						{
							"indexed": false,
							"internalType": "uint256",
							"name": "amount",
							"type": "uint256"
						},
						{
							"indexed": false,
							"internalType": "uint256",
							"name": "timestamp",
							"type": "uint256"
						}
					],
					"name": "PointsReceived",
					"type": "event"
				},
				{
					"anonymous": false,
					"inputs": [
						{
							"indexed": true,
							"internalType": "uint256",
							"name": "fromId",
							"type": "uint256"
						},
						{
							"indexed": true,
							"internalType": "uint256",
							"name": "toId",
							"type": "uint256"
						},
						{
							"indexed": false,
							"internalType": "uint256",
							"name": "amount",
							"type": "uint256"
						},
						{
							"indexed": false,
							"internalType": "uint256",
							"name": "timestamp",
							"type": "uint256"
						}
					],
					"name": "PointsTransferred",
					"type": "event"
				},
				{
					"inputs": [
						{
							"internalType": "uint256",
							"name": "_id",
							"type": "uint256"
						}
					],
					"name": "checkBalance",
					"outputs": [
						{
							"internalType": "uint256",
							"name": "_balance",
							"type": "uint256"
						}
					],
					"stateMutability": "view",
					"type": "function"
				},
				{
					"inputs": [
						{
							"internalType": "uint256",
							"name": "item_price",
							"type": "uint256"
						}
					],
					"name": "itemBought",
					"outputs": [
						{
							"internalType": "bool",
							"name": "",
							"type": "bool"
						}
					],
					"stateMutability": "nonpayable",
					"type": "function"
				},
				{
					"inputs": [
						{
							"internalType": "uint256",
							"name": "_to",
							"type": "uint256"
						},
						{
							"internalType": "uint256",
							"name": "_amount",
							"type": "uint256"
						}
					],
					"name": "transferPoints",
					"outputs": [
						{
							"internalType": "bool",
							"name": "",
							"type": "bool"
						}
					],
					"stateMutability": "nonpayable",
					"type": "function"
				}
			],
			"devdoc": {
				"kind": "dev",
				"methods": {},
				"version": 1
			},
			"evm": {
				"assembly": "    /* \"PCD/contractS/Customer.sol\":101:2237  contract Customer {... */\n  mstore(0x40, 0x80)\n    /* \"PCD/contractS/Customer.sol\":625:775  constructor (uint256 client_id, address sharedStateAddress){... */\n  callvalue\n  dup1\n  iszero\n  tag_1\n  jumpi\n  0x00\n  dup1\n  revert\ntag_1:\n  pop\n  mload(0x40)\n  sub(codesize, bytecodeSize)\n  dup1\n  bytecodeSize\n  dup4\n  codecopy\n  dup2\n  dup2\n  add\n  0x40\n  mstore\n  dup2\n  add\n  swap1\n  tag_2\n  swap2\n  swap1\n  tag_3\n  jump\t// in\ntag_2:\n    /* \"PCD/contractS/Customer.sol\":700:709  client_id */\n  dup2\n    /* \"PCD/contractS/Customer.sol\":695:697  id */\n  0x00\n    /* \"PCD/contractS/Customer.sol\":695:709  id = client_id */\n  dup2\n  swap1\n  sstore\n  pop\n    /* \"PCD/contractS/Customer.sol\":746:764  sharedStateAddress */\n  dup1\n    /* \"PCD/contractS/Customer.sol\":720:731  sharedstate */\n  0x01\n  0x00\n    /* \"PCD/contractS/Customer.sol\":720:765  sharedstate = SharedState(sharedStateAddress) */\n  0x0100\n  exp\n  dup2\n  sload\n  dup2\n  0xffffffffffffffffffffffffffffffffffffffff\n  mul\n  not\n  and\n  swap1\n  dup4\n  0xffffffffffffffffffffffffffffffffffffffff\n  and\n  mul\n  or\n  swap1\n  sstore\n  pop\n    /* \"PCD/contractS/Customer.sol\":625:775  constructor (uint256 client_id, address sharedStateAddress){... */\n  pop\n  pop\n    /* \"PCD/contractS/Customer.sol\":101:2237  contract Customer {... */\n  jump(tag_6)\n    /* \"#utility.yul\":88:205   */\ntag_8:\n    /* \"#utility.yul\":197:198   */\n  0x00\n    /* \"#utility.yul\":194:195   */\n  dup1\n    /* \"#utility.yul\":187:199   */\n  revert\n    /* \"#utility.yul\":334:411   */\ntag_10:\n    /* \"#utility.yul\":371:378   */\n  0x00\n    /* \"#utility.yul\":400:405   */\n  dup2\n    /* \"#utility.yul\":389:405   */\n  swap1\n  pop\n    /* \"#utility.yul\":334:411   */\n  swap2\n  swap1\n  pop\n  jump\t// out\n    /* \"#utility.yul\":417:539   */\ntag_11:\n    /* \"#utility.yul\":490:514   */\n  tag_23\n    /* \"#utility.yul\":508:513   */\n  dup2\n    /* \"#utility.yul\":490:514   */\n  tag_10\n  jump\t// in\ntag_23:\n    /* \"#utility.yul\":483:488   */\n  dup2\n    /* \"#utility.yul\":480:515   */\n  eq\n    /* \"#utility.yul\":470:533   */\n  tag_24\n  jumpi\n    /* \"#utility.yul\":529:530   */\n  0x00\n    /* \"#utility.yul\":526:527   */\n  dup1\n    /* \"#utility.yul\":519:531   */\n  revert\n    /* \"#utility.yul\":470:533   */\ntag_24:\n    /* \"#utility.yul\":417:539   */\n  pop\n  jump\t// out\n    /* \"#utility.yul\":545:688   */\ntag_12:\n    /* \"#utility.yul\":602:607   */\n  0x00\n    /* \"#utility.yul\":633:639   */\n  dup2\n    /* \"#utility.yul\":627:640   */\n  mload\n    /* \"#utility.yul\":618:640   */\n  swap1\n  pop\n    /* \"#utility.yul\":649:682   */\n  tag_26\n    /* \"#utility.yul\":676:681   */\n  dup2\n    /* \"#utility.yul\":649:682   */\n  tag_11\n  jump\t// in\ntag_26:\n    /* \"#utility.yul\":545:688   */\n  swap3\n  swap2\n  pop\n  pop\n  jump\t// out\n    /* \"#utility.yul\":694:820   */\ntag_13:\n    /* \"#utility.yul\":731:738   */\n  0x00\n    /* \"#utility.yul\":771:813   */\n  0xffffffffffffffffffffffffffffffffffffffff\n    /* \"#utility.yul\":764:769   */\n  dup3\n    /* \"#utility.yul\":760:814   */\n  and\n    /* \"#utility.yul\":749:814   */\n  swap1\n  pop\n    /* \"#utility.yul\":694:820   */\n  swap2\n  swap1\n  pop\n  jump\t// out\n    /* \"#utility.yul\":826:922   */\ntag_14:\n    /* \"#utility.yul\":863:870   */\n  0x00\n    /* \"#utility.yul\":892:916   */\n  tag_29\n    /* \"#utility.yul\":910:915   */\n  dup3\n    /* \"#utility.yul\":892:916   */\n  tag_13\n  jump\t// in\ntag_29:\n    /* \"#utility.yul\":881:916   */\n  swap1\n  pop\n    /* \"#utility.yul\":826:922   */\n  swap2\n  swap1\n  pop\n  jump\t// out\n    /* \"#utility.yul\":928:1050   */\ntag_15:\n    /* \"#utility.yul\":1001:1025   */\n  tag_31\n    /* \"#utility.yul\":1019:1024   */\n  dup2\n    /* \"#utility.yul\":1001:1025   */\n  tag_14\n  jump\t// in\ntag_31:\n    /* \"#utility.yul\":994:999   */\n  dup2\n    /* \"#utility.yul\":991:1026   */\n  eq\n    /* \"#utility.yul\":981:1044   */\n  tag_32\n  jumpi\n    /* \"#utility.yul\":1040:1041   */\n  0x00\n    /* \"#utility.yul\":1037:1038   */\n  dup1\n    /* \"#utility.yul\":1030:1042   */\n  revert\n    /* \"#utility.yul\":981:1044   */\ntag_32:\n    /* \"#utility.yul\":928:1050   */\n  pop\n  jump\t// out\n    /* \"#utility.yul\":1056:1199   */\ntag_16:\n    /* \"#utility.yul\":1113:1118   */\n  0x00\n    /* \"#utility.yul\":1144:1150   */\n  dup2\n    /* \"#utility.yul\":1138:1151   */\n  mload\n    /* \"#utility.yul\":1129:1151   */\n  swap1\n  pop\n    /* \"#utility.yul\":1160:1193   */\n  tag_34\n    /* \"#utility.yul\":1187:1192   */\n  dup2\n    /* \"#utility.yul\":1160:1193   */\n  tag_15\n  jump\t// in\ntag_34:\n    /* \"#utility.yul\":1056:1199   */\n  swap3\n  swap2\n  pop\n  pop\n  jump\t// out\n    /* \"#utility.yul\":1205:1712   */\ntag_3:\n    /* \"#utility.yul\":1284:1290   */\n  0x00\n    /* \"#utility.yul\":1292:1298   */\n  dup1\n    /* \"#utility.yul\":1341:1343   */\n  0x40\n    /* \"#utility.yul\":1329:1338   */\n  dup4\n    /* \"#utility.yul\":1320:1327   */\n  dup6\n    /* \"#utility.yul\":1316:1339   */\n  sub\n    /* \"#utility.yul\":1312:1344   */\n  slt\n    /* \"#utility.yul\":1309:1428   */\n  iszero\n  tag_36\n  jumpi\n    /* \"#utility.yul\":1347:1426   */\n  tag_37\n  tag_8\n  jump\t// in\ntag_37:\n    /* \"#utility.yul\":1309:1428   */\ntag_36:\n    /* \"#utility.yul\":1467:1468   */\n  0x00\n    /* \"#utility.yul\":1492:1556   */\n  tag_38\n    /* \"#utility.yul\":1548:1555   */\n  dup6\n    /* \"#utility.yul\":1539:1545   */\n  dup3\n    /* \"#utility.yul\":1528:1537   */\n  dup7\n    /* \"#utility.yul\":1524:1546   */\n  add\n    /* \"#utility.yul\":1492:1556   */\n  tag_12\n  jump\t// in\ntag_38:\n    /* \"#utility.yul\":1482:1556   */\n  swap3\n  pop\n    /* \"#utility.yul\":1438:1566   */\n  pop\n    /* \"#utility.yul\":1605:1607   */\n  0x20\n    /* \"#utility.yul\":1631:1695   */\n  tag_39\n    /* \"#utility.yul\":1687:1694   */\n  dup6\n    /* \"#utility.yul\":1678:1684   */\n  dup3\n    /* \"#utility.yul\":1667:1676   */\n  dup7\n    /* \"#utility.yul\":1663:1685   */\n  add\n    /* \"#utility.yul\":1631:1695   */\n  tag_16\n  jump\t// in\ntag_39:\n    /* \"#utility.yul\":1621:1695   */\n  swap2\n  pop\n    /* \"#utility.yul\":1576:1705   */\n  pop\n    /* \"#utility.yul\":1205:1712   */\n  swap3\n  pop\n  swap3\n  swap1\n  pop\n  jump\t// out\n    /* \"PCD/contractS/Customer.sol\":101:2237  contract Customer {... */\ntag_6:\n  dataSize(sub_0)\n  dup1\n  dataOffset(sub_0)\n  0x00\n  codecopy\n  0x00\n  return\nstop\n\nsub_0: assembly {\n        /* \"PCD/contractS/Customer.sol\":101:2237  contract Customer {... */\n      mstore(0x40, 0x80)\n      callvalue\n      dup1\n      iszero\n      tag_1\n      jumpi\n      0x00\n      dup1\n      revert\n    tag_1:\n      pop\n      jumpi(tag_2, lt(calldatasize, 0x04))\n      shr(0xe0, calldataload(0x00))\n      dup1\n      0x4d802abb\n      eq\n      tag_3\n      jumpi\n      dup1\n      0x7f286286\n      eq\n      tag_4\n      jumpi\n      dup1\n      0xe2627ccf\n      eq\n      tag_5\n      jumpi\n    tag_2:\n      0x00\n      dup1\n      revert\n        /* \"PCD/contractS/Customer.sol\":811:1222  function itemBought(uint256 item_price) public returns(bool){... */\n    tag_3:\n      tag_6\n      0x04\n      dup1\n      calldatasize\n      sub\n      dup2\n      add\n      swap1\n      tag_7\n      swap2\n      swap1\n      tag_8\n      jump\t// in\n    tag_7:\n      tag_9\n      jump\t// in\n    tag_6:\n      mload(0x40)\n      tag_10\n      swap2\n      swap1\n      tag_11\n      jump\t// in\n    tag_10:\n      mload(0x40)\n      dup1\n      swap2\n      sub\n      swap1\n      return\n        /* \"PCD/contractS/Customer.sol\":1986:2143  function checkBalance(uint256 _id) public view returns (uint256 _balance) {... */\n    tag_4:\n      tag_12\n      0x04\n      dup1\n      calldatasize\n      sub\n      dup2\n      add\n      swap1\n      tag_13\n      swap2\n      swap1\n      tag_8\n      jump\t// in\n    tag_13:\n      tag_14\n      jump\t// in\n    tag_12:\n      mload(0x40)\n      tag_15\n      swap2\n      swap1\n      tag_16\n      jump\t// in\n    tag_15:\n      mload(0x40)\n      dup1\n      swap2\n      sub\n      swap1\n      return\n        /* \"PCD/contractS/Customer.sol\":1275:1940  function transferPoints(uint256 _to, uint256 _amount) public returns (bool) {... */\n    tag_5:\n      tag_17\n      0x04\n      dup1\n      calldatasize\n      sub\n      dup2\n      add\n      swap1\n      tag_18\n      swap2\n      swap1\n      tag_19\n      jump\t// in\n    tag_18:\n      tag_20\n      jump\t// in\n    tag_17:\n      mload(0x40)\n      tag_21\n      swap2\n      swap1\n      tag_11\n      jump\t// in\n    tag_21:\n      mload(0x40)\n      dup1\n      swap2\n      sub\n      swap1\n      return\n        /* \"PCD/contractS/Customer.sol\":811:1222  function itemBought(uint256 item_price) public returns(bool){... */\n    tag_9:\n        /* \"PCD/contractS/Customer.sol\":866:870  bool */\n      0x00\n        /* \"PCD/contractS/Customer.sol\":882:904  uint256 currentBalance */\n      dup1\n        /* \"PCD/contractS/Customer.sol\":907:918  sharedstate */\n      0x01\n      0x00\n      swap1\n      sload\n      swap1\n      0x0100\n      exp\n      swap1\n      div\n      0xffffffffffffffffffffffffffffffffffffffff\n      and\n        /* \"PCD/contractS/Customer.sol\":907:929  sharedstate.getBalance */\n      0xffffffffffffffffffffffffffffffffffffffff\n      and\n      0x1e010439\n        /* \"PCD/contractS/Customer.sol\":930:932  id */\n      sload(0x00)\n        /* \"PCD/contractS/Customer.sol\":907:933  sharedstate.getBalance(id) */\n      mload(0x40)\n      dup3\n      0xffffffff\n      and\n      0xe0\n      shl\n      dup2\n      mstore\n      0x04\n      add\n      tag_23\n      swap2\n      swap1\n      tag_16\n      jump\t// in\n    tag_23:\n      0x20\n      mload(0x40)\n      dup1\n      dup4\n      sub\n      dup2\n      dup7\n      gas\n      staticcall\n      iszero\n      dup1\n      iszero\n      tag_25\n      jumpi\n      returndatasize\n      0x00\n      dup1\n      returndatacopy\n      revert(0x00, returndatasize)\n    tag_25:\n      pop\n      pop\n      pop\n      pop\n      mload(0x40)\n      returndatasize\n      not(0x1f)\n      0x1f\n      dup3\n      add\n      and\n      dup3\n      add\n      dup1\n      0x40\n      mstore\n      pop\n      dup2\n      add\n      swap1\n      tag_26\n      swap2\n      swap1\n      tag_27\n      jump\t// in\n    tag_26:\n        /* \"PCD/contractS/Customer.sol\":882:933  uint256 currentBalance = sharedstate.getBalance(id) */\n      swap1\n      pop\n        /* \"PCD/contractS/Customer.sol\":970:980  item_price */\n      dup3\n        /* \"PCD/contractS/Customer.sol\":952:966  currentBalance */\n      dup2\n        /* \"PCD/contractS/Customer.sol\":952:980  currentBalance >= item_price */\n      lt\n      iszero\n        /* \"PCD/contractS/Customer.sol\":944:1022  require(currentBalance >= item_price, \"Insufficient balance to purchase item\") */\n      tag_28\n      jumpi\n      mload(0x40)\n      0x08c379a000000000000000000000000000000000000000000000000000000000\n      dup2\n      mstore\n      0x04\n      add\n      tag_29\n      swap1\n      tag_30\n      jump\t// in\n    tag_29:\n      mload(0x40)\n      dup1\n      swap2\n      sub\n      swap1\n      revert\n    tag_28:\n        /* \"PCD/contractS/Customer.sol\":1033:1051  uint256 newBalance */\n      0x00\n        /* \"PCD/contractS/Customer.sol\":1071:1081  item_price */\n      dup4\n        /* \"PCD/contractS/Customer.sol\":1054:1068  currentBalance */\n      dup3\n        /* \"PCD/contractS/Customer.sol\":1054:1081  currentBalance - item_price */\n      tag_31\n      swap2\n      swap1\n      tag_32\n      jump\t// in\n    tag_31:\n        /* \"PCD/contractS/Customer.sol\":1033:1081  uint256 newBalance = currentBalance - item_price */\n      swap1\n      pop\n        /* \"PCD/contractS/Customer.sol\":1092:1103  sharedstate */\n      0x01\n      0x00\n      swap1\n      sload\n      swap1\n      0x0100\n      exp\n      swap1\n      div\n      0xffffffffffffffffffffffffffffffffffffffff\n      and\n        /* \"PCD/contractS/Customer.sol\":1092:1114  sharedstate.setBalance */\n      0xffffffffffffffffffffffffffffffffffffffff\n      and\n      0x4a4b9feb\n        /* \"PCD/contractS/Customer.sol\":1115:1117  id */\n      sload(0x00)\n        /* \"PCD/contractS/Customer.sol\":1119:1129  newBalance */\n      dup4\n        /* \"PCD/contractS/Customer.sol\":1092:1130  sharedstate.setBalance(id, newBalance) */\n      mload(0x40)\n      dup4\n      0xffffffff\n      and\n      0xe0\n      shl\n      dup2\n      mstore\n      0x04\n      add\n      tag_33\n      swap3\n      swap2\n      swap1\n      tag_34\n      jump\t// in\n    tag_33:\n      0x00\n      mload(0x40)\n      dup1\n      dup4\n      sub\n      dup2\n      0x00\n      dup8\n      dup1\n      extcodesize\n      iszero\n      dup1\n      iszero\n      tag_35\n      jumpi\n      0x00\n      dup1\n      revert\n    tag_35:\n      pop\n      gas\n      call\n      iszero\n      dup1\n      iszero\n      tag_37\n      jumpi\n      returndatasize\n      0x00\n      dup1\n      returndatacopy\n      revert(0x00, returndatasize)\n    tag_37:\n      pop\n      pop\n      pop\n      pop\n        /* \"PCD/contractS/Customer.sol\":1160:1162  id */\n      sload(0x00)\n        /* \"PCD/contractS/Customer.sol\":1146:1192  ItemPurchased(id, item_price, block.timestamp) */\n      0x913d222564a08ee6d9c6a374a75d452883fff7d55c9c4f3d982ee2820f240375\n        /* \"PCD/contractS/Customer.sol\":1164:1174  item_price */\n      dup6\n        /* \"PCD/contractS/Customer.sol\":1176:1191  block.timestamp */\n      timestamp\n        /* \"PCD/contractS/Customer.sol\":1146:1192  ItemPurchased(id, item_price, block.timestamp) */\n      mload(0x40)\n      tag_38\n      swap3\n      swap2\n      swap1\n      tag_34\n      jump\t// in\n    tag_38:\n      mload(0x40)\n      dup1\n      swap2\n      sub\n      swap1\n      log2\n        /* \"PCD/contractS/Customer.sol\":1210:1214  true */\n      0x01\n        /* \"PCD/contractS/Customer.sol\":1203:1214  return true */\n      swap3\n      pop\n      pop\n      pop\n        /* \"PCD/contractS/Customer.sol\":811:1222  function itemBought(uint256 item_price) public returns(bool){... */\n      swap2\n      swap1\n      pop\n      jump\t// out\n        /* \"PCD/contractS/Customer.sol\":1986:2143  function checkBalance(uint256 _id) public view returns (uint256 _balance) {... */\n    tag_14:\n        /* \"PCD/contractS/Customer.sol\":2042:2058  uint256 _balance */\n      0x00\n        /* \"PCD/contractS/Customer.sol\":2082:2093  sharedstate */\n      0x01\n      0x00\n      swap1\n      sload\n      swap1\n      0x0100\n      exp\n      swap1\n      div\n      0xffffffffffffffffffffffffffffffffffffffff\n      and\n        /* \"PCD/contractS/Customer.sol\":2082:2104  sharedstate.getBalance */\n      0xffffffffffffffffffffffffffffffffffffffff\n      and\n      0x1e010439\n        /* \"PCD/contractS/Customer.sol\":2105:2108  _id */\n      dup4\n        /* \"PCD/contractS/Customer.sol\":2082:2109  sharedstate.getBalance(_id) */\n      mload(0x40)\n      dup3\n      0xffffffff\n      and\n      0xe0\n      shl\n      dup2\n      mstore\n      0x04\n      add\n      tag_40\n      swap2\n      swap1\n      tag_16\n      jump\t// in\n    tag_40:\n      0x20\n      mload(0x40)\n      dup1\n      dup4\n      sub\n      dup2\n      dup7\n      gas\n      staticcall\n      iszero\n      dup1\n      iszero\n      tag_42\n      jumpi\n      returndatasize\n      0x00\n      dup1\n      returndatacopy\n      revert(0x00, returndatasize)\n    tag_42:\n      pop\n      pop\n      pop\n      pop\n      mload(0x40)\n      returndatasize\n      not(0x1f)\n      0x1f\n      dup3\n      add\n      and\n      dup3\n      add\n      dup1\n      0x40\n      mstore\n      pop\n      dup2\n      add\n      swap1\n      tag_43\n      swap2\n      swap1\n      tag_27\n      jump\t// in\n    tag_43:\n        /* \"PCD/contractS/Customer.sol\":2071:2109  _balance = sharedstate.getBalance(_id) */\n      swap1\n      pop\n        /* \"PCD/contractS/Customer.sol\":1986:2143  function checkBalance(uint256 _id) public view returns (uint256 _balance) {... */\n      swap2\n      swap1\n      pop\n      jump\t// out\n        /* \"PCD/contractS/Customer.sol\":1275:1940  function transferPoints(uint256 _to, uint256 _amount) public returns (bool) {... */\n    tag_20:\n        /* \"PCD/contractS/Customer.sol\":1345:1349  bool */\n      0x00\n        /* \"PCD/contractS/Customer.sol\":1362:1382  uint256 current_from */\n      dup1\n        /* \"PCD/contractS/Customer.sol\":1385:1396  sharedstate */\n      0x01\n      0x00\n      swap1\n      sload\n      swap1\n      0x0100\n      exp\n      swap1\n      div\n      0xffffffffffffffffffffffffffffffffffffffff\n      and\n        /* \"PCD/contractS/Customer.sol\":1385:1407  sharedstate.getBalance */\n      0xffffffffffffffffffffffffffffffffffffffff\n      and\n      0x1e010439\n        /* \"PCD/contractS/Customer.sol\":1408:1410  id */\n      sload(0x00)\n        /* \"PCD/contractS/Customer.sol\":1385:1411  sharedstate.getBalance(id) */\n      mload(0x40)\n      dup3\n      0xffffffff\n      and\n      0xe0\n      shl\n      dup2\n      mstore\n      0x04\n      add\n      tag_45\n      swap2\n      swap1\n      tag_16\n      jump\t// in\n    tag_45:\n      0x20\n      mload(0x40)\n      dup1\n      dup4\n      sub\n      dup2\n      dup7\n      gas\n      staticcall\n      iszero\n      dup1\n      iszero\n      tag_47\n      jumpi\n      returndatasize\n      0x00\n      dup1\n      returndatacopy\n      revert(0x00, returndatasize)\n    tag_47:\n      pop\n      pop\n      pop\n      pop\n      mload(0x40)\n      returndatasize\n      not(0x1f)\n      0x1f\n      dup3\n      add\n      and\n      dup3\n      add\n      dup1\n      0x40\n      mstore\n      pop\n      dup2\n      add\n      swap1\n      tag_48\n      swap2\n      swap1\n      tag_27\n      jump\t// in\n    tag_48:\n        /* \"PCD/contractS/Customer.sol\":1362:1411  uint256 current_from = sharedstate.getBalance(id) */\n      swap1\n      pop\n        /* \"PCD/contractS/Customer.sol\":1446:1453  _amount */\n      dup3\n        /* \"PCD/contractS/Customer.sol\":1430:1442  current_from */\n      dup2\n        /* \"PCD/contractS/Customer.sol\":1430:1453  current_from >= _amount */\n      lt\n      iszero\n        /* \"PCD/contractS/Customer.sol\":1422:1497  require(current_from >= _amount, \"Insufficient balance to transfer points\") */\n      tag_49\n      jumpi\n      mload(0x40)\n      0x08c379a000000000000000000000000000000000000000000000000000000000\n      dup2\n      mstore\n      0x04\n      add\n      tag_50\n      swap1\n      tag_51\n      jump\t// in\n    tag_50:\n      mload(0x40)\n      dup1\n      swap2\n      sub\n      swap1\n      revert\n    tag_49:\n        /* \"PCD/contractS/Customer.sol\":1508:1526  uint256 current_to */\n      0x00\n        /* \"PCD/contractS/Customer.sol\":1529:1540  sharedstate */\n      0x01\n      0x00\n      swap1\n      sload\n      swap1\n      0x0100\n      exp\n      swap1\n      div\n      0xffffffffffffffffffffffffffffffffffffffff\n      and\n        /* \"PCD/contractS/Customer.sol\":1529:1551  sharedstate.getBalance */\n      0xffffffffffffffffffffffffffffffffffffffff\n      and\n      0x1e010439\n        /* \"PCD/contractS/Customer.sol\":1552:1555  _to */\n      dup7\n        /* \"PCD/contractS/Customer.sol\":1529:1556  sharedstate.getBalance(_to) */\n      mload(0x40)\n      dup3\n      0xffffffff\n      and\n      0xe0\n      shl\n      dup2\n      mstore\n      0x04\n      add\n      tag_52\n      swap2\n      swap1\n      tag_16\n      jump\t// in\n    tag_52:\n      0x20\n      mload(0x40)\n      dup1\n      dup4\n      sub\n      dup2\n      dup7\n      gas\n      staticcall\n      iszero\n      dup1\n      iszero\n      tag_54\n      jumpi\n      returndatasize\n      0x00\n      dup1\n      returndatacopy\n      revert(0x00, returndatasize)\n    tag_54:\n      pop\n      pop\n      pop\n      pop\n      mload(0x40)\n      returndatasize\n      not(0x1f)\n      0x1f\n      dup3\n      add\n      and\n      dup3\n      add\n      dup1\n      0x40\n      mstore\n      pop\n      dup2\n      add\n      swap1\n      tag_55\n      swap2\n      swap1\n      tag_27\n      jump\t// in\n    tag_55:\n        /* \"PCD/contractS/Customer.sol\":1508:1556  uint256 current_to = sharedstate.getBalance(_to) */\n      swap1\n      pop\n        /* \"PCD/contractS/Customer.sol\":1567:1590  uint256 newBalance_from */\n      0x00\n        /* \"PCD/contractS/Customer.sol\":1608:1615  _amount */\n      dup5\n        /* \"PCD/contractS/Customer.sol\":1593:1605  current_from */\n      dup4\n        /* \"PCD/contractS/Customer.sol\":1593:1615  current_from - _amount */\n      tag_56\n      swap2\n      swap1\n      tag_32\n      jump\t// in\n    tag_56:\n        /* \"PCD/contractS/Customer.sol\":1567:1615  uint256 newBalance_from = current_from - _amount */\n      swap1\n      pop\n        /* \"PCD/contractS/Customer.sol\":1626:1647  uint256 newBlanace_to */\n      0x00\n        /* \"PCD/contractS/Customer.sol\":1663:1670  _amount */\n      dup6\n        /* \"PCD/contractS/Customer.sol\":1650:1660  current_to */\n      dup4\n        /* \"PCD/contractS/Customer.sol\":1650:1670  current_to + _amount */\n      tag_57\n      swap2\n      swap1\n      tag_58\n      jump\t// in\n    tag_57:\n        /* \"PCD/contractS/Customer.sol\":1626:1670  uint256 newBlanace_to = current_to + _amount */\n      swap1\n      pop\n        /* \"PCD/contractS/Customer.sol\":1681:1692  sharedstate */\n      0x01\n      0x00\n      swap1\n      sload\n      swap1\n      0x0100\n      exp\n      swap1\n      div\n      0xffffffffffffffffffffffffffffffffffffffff\n      and\n        /* \"PCD/contractS/Customer.sol\":1681:1703  sharedstate.setBalance */\n      0xffffffffffffffffffffffffffffffffffffffff\n      and\n      0x4a4b9feb\n        /* \"PCD/contractS/Customer.sol\":1704:1706  id */\n      sload(0x00)\n        /* \"PCD/contractS/Customer.sol\":1708:1723  newBalance_from */\n      dup5\n        /* \"PCD/contractS/Customer.sol\":1681:1724  sharedstate.setBalance(id, newBalance_from) */\n      mload(0x40)\n      dup4\n      0xffffffff\n      and\n      0xe0\n      shl\n      dup2\n      mstore\n      0x04\n      add\n      tag_59\n      swap3\n      swap2\n      swap1\n      tag_34\n      jump\t// in\n    tag_59:\n      0x00\n      mload(0x40)\n      dup1\n      dup4\n      sub\n      dup2\n      0x00\n      dup8\n      dup1\n      extcodesize\n      iszero\n      dup1\n      iszero\n      tag_60\n      jumpi\n      0x00\n      dup1\n      revert\n    tag_60:\n      pop\n      gas\n      call\n      iszero\n      dup1\n      iszero\n      tag_62\n      jumpi\n      returndatasize\n      0x00\n      dup1\n      returndatacopy\n      revert(0x00, returndatasize)\n    tag_62:\n      pop\n      pop\n      pop\n      pop\n        /* \"PCD/contractS/Customer.sol\":1735:1746  sharedstate */\n      0x01\n      0x00\n      swap1\n      sload\n      swap1\n      0x0100\n      exp\n      swap1\n      div\n      0xffffffffffffffffffffffffffffffffffffffff\n      and\n        /* \"PCD/contractS/Customer.sol\":1735:1757  sharedstate.setBalance */\n      0xffffffffffffffffffffffffffffffffffffffff\n      and\n      0x4a4b9feb\n        /* \"PCD/contractS/Customer.sol\":1758:1761  _to */\n      dup9\n        /* \"PCD/contractS/Customer.sol\":1763:1776  newBlanace_to */\n      dup4\n        /* \"PCD/contractS/Customer.sol\":1735:1777  sharedstate.setBalance(_to, newBlanace_to) */\n      mload(0x40)\n      dup4\n      0xffffffff\n      and\n      0xe0\n      shl\n      dup2\n      mstore\n      0x04\n      add\n      tag_63\n      swap3\n      swap2\n      swap1\n      tag_34\n      jump\t// in\n    tag_63:\n      0x00\n      mload(0x40)\n      dup1\n      dup4\n      sub\n      dup2\n      0x00\n      dup8\n      dup1\n      extcodesize\n      iszero\n      dup1\n      iszero\n      tag_64\n      jumpi\n      0x00\n      dup1\n      revert\n    tag_64:\n      pop\n      gas\n      call\n      iszero\n      dup1\n      iszero\n      tag_66\n      jumpi\n      returndatasize\n      0x00\n      dup1\n      returndatacopy\n      revert(0x00, returndatasize)\n    tag_66:\n      pop\n      pop\n      pop\n      pop\n        /* \"PCD/contractS/Customer.sol\":1815:1818  _to */\n      dup7\n        /* \"PCD/contractS/Customer.sol\":1811:1813  id */\n      sload(0x00)\n        /* \"PCD/contractS/Customer.sol\":1793:1845  PointsTransferred(id, _to, _amount, block.timestamp) */\n      0x270d555906e5d6b40bc118b63a231daa86493c7d7b32af1a91fb621c9380e26a\n        /* \"PCD/contractS/Customer.sol\":1820:1827  _amount */\n      dup9\n        /* \"PCD/contractS/Customer.sol\":1829:1844  block.timestamp */\n      timestamp\n        /* \"PCD/contractS/Customer.sol\":1793:1845  PointsTransferred(id, _to, _amount, block.timestamp) */\n      mload(0x40)\n      tag_67\n      swap3\n      swap2\n      swap1\n      tag_34\n      jump\t// in\n    tag_67:\n      mload(0x40)\n      dup1\n      swap2\n      sub\n      swap1\n      log3\n        /* \"PCD/contractS/Customer.sol\":1881:1883  id */\n      sload(0x00)\n        /* \"PCD/contractS/Customer.sol\":1876:1879  _to */\n      dup8\n        /* \"PCD/contractS/Customer.sol\":1861:1910  PointsReceived(_to, id, _amount, block.timestamp) */\n      0x04c3e90d4447521168eb1fc57db7e97ac06c0874538cf486849946416f5326f7\n        /* \"PCD/contractS/Customer.sol\":1885:1892  _amount */\n      dup9\n        /* \"PCD/contractS/Customer.sol\":1894:1909  block.timestamp */\n      timestamp\n        /* \"PCD/contractS/Customer.sol\":1861:1910  PointsReceived(_to, id, _amount, block.timestamp) */\n      mload(0x40)\n      tag_68\n      swap3\n      swap2\n      swap1\n      tag_34\n      jump\t// in\n    tag_68:\n      mload(0x40)\n      dup1\n      swap2\n      sub\n      swap1\n      log3\n        /* \"PCD/contractS/Customer.sol\":1928:1932  true */\n      0x01\n        /* \"PCD/contractS/Customer.sol\":1921:1932  return true */\n      swap5\n      pop\n      pop\n      pop\n      pop\n      pop\n        /* \"PCD/contractS/Customer.sol\":1275:1940  function transferPoints(uint256 _to, uint256 _amount) public returns (bool) {... */\n      swap3\n      swap2\n      pop\n      pop\n      jump\t// out\n        /* \"#utility.yul\":88:205   */\n    tag_70:\n        /* \"#utility.yul\":197:198   */\n      0x00\n        /* \"#utility.yul\":194:195   */\n      dup1\n        /* \"#utility.yul\":187:199   */\n      revert\n        /* \"#utility.yul\":334:411   */\n    tag_72:\n        /* \"#utility.yul\":371:378   */\n      0x00\n        /* \"#utility.yul\":400:405   */\n      dup2\n        /* \"#utility.yul\":389:405   */\n      swap1\n      pop\n        /* \"#utility.yul\":334:411   */\n      swap2\n      swap1\n      pop\n      jump\t// out\n        /* \"#utility.yul\":417:539   */\n    tag_73:\n        /* \"#utility.yul\":490:514   */\n      tag_91\n        /* \"#utility.yul\":508:513   */\n      dup2\n        /* \"#utility.yul\":490:514   */\n      tag_72\n      jump\t// in\n    tag_91:\n        /* \"#utility.yul\":483:488   */\n      dup2\n        /* \"#utility.yul\":480:515   */\n      eq\n        /* \"#utility.yul\":470:533   */\n      tag_92\n      jumpi\n        /* \"#utility.yul\":529:530   */\n      0x00\n        /* \"#utility.yul\":526:527   */\n      dup1\n        /* \"#utility.yul\":519:531   */\n      revert\n        /* \"#utility.yul\":470:533   */\n    tag_92:\n        /* \"#utility.yul\":417:539   */\n      pop\n      jump\t// out\n        /* \"#utility.yul\":545:684   */\n    tag_74:\n        /* \"#utility.yul\":591:596   */\n      0x00\n        /* \"#utility.yul\":629:635   */\n      dup2\n        /* \"#utility.yul\":616:636   */\n      calldataload\n        /* \"#utility.yul\":607:636   */\n      swap1\n      pop\n        /* \"#utility.yul\":645:678   */\n      tag_94\n        /* \"#utility.yul\":672:677   */\n      dup2\n        /* \"#utility.yul\":645:678   */\n      tag_73\n      jump\t// in\n    tag_94:\n        /* \"#utility.yul\":545:684   */\n      swap3\n      swap2\n      pop\n      pop\n      jump\t// out\n        /* \"#utility.yul\":690:1019   */\n    tag_8:\n        /* \"#utility.yul\":749:755   */\n      0x00\n        /* \"#utility.yul\":798:800   */\n      0x20\n        /* \"#utility.yul\":786:795   */\n      dup3\n        /* \"#utility.yul\":777:784   */\n      dup5\n        /* \"#utility.yul\":773:796   */\n      sub\n        /* \"#utility.yul\":769:801   */\n      slt\n        /* \"#utility.yul\":766:885   */\n      iszero\n      tag_96\n      jumpi\n        /* \"#utility.yul\":804:883   */\n      tag_97\n      tag_70\n      jump\t// in\n    tag_97:\n        /* \"#utility.yul\":766:885   */\n    tag_96:\n        /* \"#utility.yul\":924:925   */\n      0x00\n        /* \"#utility.yul\":949:1002   */\n      tag_98\n        /* \"#utility.yul\":994:1001   */\n      dup5\n        /* \"#utility.yul\":985:991   */\n      dup3\n        /* \"#utility.yul\":974:983   */\n      dup6\n        /* \"#utility.yul\":970:992   */\n      add\n        /* \"#utility.yul\":949:1002   */\n      tag_74\n      jump\t// in\n    tag_98:\n        /* \"#utility.yul\":939:1002   */\n      swap2\n      pop\n        /* \"#utility.yul\":895:1012   */\n      pop\n        /* \"#utility.yul\":690:1019   */\n      swap3\n      swap2\n      pop\n      pop\n      jump\t// out\n        /* \"#utility.yul\":1025:1115   */\n    tag_75:\n        /* \"#utility.yul\":1059:1066   */\n      0x00\n        /* \"#utility.yul\":1102:1107   */\n      dup2\n        /* \"#utility.yul\":1095:1108   */\n      iszero\n        /* \"#utility.yul\":1088:1109   */\n      iszero\n        /* \"#utility.yul\":1077:1109   */\n      swap1\n      pop\n        /* \"#utility.yul\":1025:1115   */\n      swap2\n      swap1\n      pop\n      jump\t// out\n        /* \"#utility.yul\":1121:1230   */\n    tag_76:\n        /* \"#utility.yul\":1202:1223   */\n      tag_101\n        /* \"#utility.yul\":1217:1222   */\n      dup2\n        /* \"#utility.yul\":1202:1223   */\n      tag_75\n      jump\t// in\n    tag_101:\n        /* \"#utility.yul\":1197:1200   */\n      dup3\n        /* \"#utility.yul\":1190:1224   */\n      mstore\n        /* \"#utility.yul\":1121:1230   */\n      pop\n      pop\n      jump\t// out\n        /* \"#utility.yul\":1236:1446   */\n    tag_11:\n        /* \"#utility.yul\":1323:1327   */\n      0x00\n        /* \"#utility.yul\":1361:1363   */\n      0x20\n        /* \"#utility.yul\":1350:1359   */\n      dup3\n        /* \"#utility.yul\":1346:1364   */\n      add\n        /* \"#utility.yul\":1338:1364   */\n      swap1\n      pop\n        /* \"#utility.yul\":1374:1439   */\n      tag_103\n        /* \"#utility.yul\":1436:1437   */\n      0x00\n        /* \"#utility.yul\":1425:1434   */\n      dup4\n        /* \"#utility.yul\":1421:1438   */\n      add\n        /* \"#utility.yul\":1412:1418   */\n      dup5\n        /* \"#utility.yul\":1374:1439   */\n      tag_76\n      jump\t// in\n    tag_103:\n        /* \"#utility.yul\":1236:1446   */\n      swap3\n      swap2\n      pop\n      pop\n      jump\t// out\n        /* \"#utility.yul\":1452:1570   */\n    tag_77:\n        /* \"#utility.yul\":1539:1563   */\n      tag_105\n        /* \"#utility.yul\":1557:1562   */\n      dup2\n        /* \"#utility.yul\":1539:1563   */\n      tag_72\n      jump\t// in\n    tag_105:\n        /* \"#utility.yul\":1534:1537   */\n      dup3\n        /* \"#utility.yul\":1527:1564   */\n      mstore\n        /* \"#utility.yul\":1452:1570   */\n      pop\n      pop\n      jump\t// out\n        /* \"#utility.yul\":1576:1798   */\n    tag_16:\n        /* \"#utility.yul\":1669:1673   */\n      0x00\n        /* \"#utility.yul\":1707:1709   */\n      0x20\n        /* \"#utility.yul\":1696:1705   */\n      dup3\n        /* \"#utility.yul\":1692:1710   */\n      add\n        /* \"#utility.yul\":1684:1710   */\n      swap1\n      pop\n        /* \"#utility.yul\":1720:1791   */\n      tag_107\n        /* \"#utility.yul\":1788:1789   */\n      0x00\n        /* \"#utility.yul\":1777:1786   */\n      dup4\n        /* \"#utility.yul\":1773:1790   */\n      add\n        /* \"#utility.yul\":1764:1770   */\n      dup5\n        /* \"#utility.yul\":1720:1791   */\n      tag_77\n      jump\t// in\n    tag_107:\n        /* \"#utility.yul\":1576:1798   */\n      swap3\n      swap2\n      pop\n      pop\n      jump\t// out\n        /* \"#utility.yul\":1804:2278   */\n    tag_19:\n        /* \"#utility.yul\":1872:1878   */\n      0x00\n        /* \"#utility.yul\":1880:1886   */\n      dup1\n        /* \"#utility.yul\":1929:1931   */\n      0x40\n        /* \"#utility.yul\":1917:1926   */\n      dup4\n        /* \"#utility.yul\":1908:1915   */\n      dup6\n        /* \"#utility.yul\":1904:1927   */\n      sub\n        /* \"#utility.yul\":1900:1932   */\n      slt\n        /* \"#utility.yul\":1897:2016   */\n      iszero\n      tag_109\n      jumpi\n        /* \"#utility.yul\":1935:2014   */\n      tag_110\n      tag_70\n      jump\t// in\n    tag_110:\n        /* \"#utility.yul\":1897:2016   */\n    tag_109:\n        /* \"#utility.yul\":2055:2056   */\n      0x00\n        /* \"#utility.yul\":2080:2133   */\n      tag_111\n        /* \"#utility.yul\":2125:2132   */\n      dup6\n        /* \"#utility.yul\":2116:2122   */\n      dup3\n        /* \"#utility.yul\":2105:2114   */\n      dup7\n        /* \"#utility.yul\":2101:2123   */\n      add\n        /* \"#utility.yul\":2080:2133   */\n      tag_74\n      jump\t// in\n    tag_111:\n        /* \"#utility.yul\":2070:2133   */\n      swap3\n      pop\n        /* \"#utility.yul\":2026:2143   */\n      pop\n        /* \"#utility.yul\":2182:2184   */\n      0x20\n        /* \"#utility.yul\":2208:2261   */\n      tag_112\n        /* \"#utility.yul\":2253:2260   */\n      dup6\n        /* \"#utility.yul\":2244:2250   */\n      dup3\n        /* \"#utility.yul\":2233:2242   */\n      dup7\n        /* \"#utility.yul\":2229:2251   */\n      add\n        /* \"#utility.yul\":2208:2261   */\n      tag_74\n      jump\t// in\n    tag_112:\n        /* \"#utility.yul\":2198:2261   */\n      swap2\n      pop\n        /* \"#utility.yul\":2153:2271   */\n      pop\n        /* \"#utility.yul\":1804:2278   */\n      swap3\n      pop\n      swap3\n      swap1\n      pop\n      jump\t// out\n        /* \"#utility.yul\":2284:2427   */\n    tag_78:\n        /* \"#utility.yul\":2341:2346   */\n      0x00\n        /* \"#utility.yul\":2372:2378   */\n      dup2\n        /* \"#utility.yul\":2366:2379   */\n      mload\n        /* \"#utility.yul\":2357:2379   */\n      swap1\n      pop\n        /* \"#utility.yul\":2388:2421   */\n      tag_114\n        /* \"#utility.yul\":2415:2420   */\n      dup2\n        /* \"#utility.yul\":2388:2421   */\n      tag_73\n      jump\t// in\n    tag_114:\n        /* \"#utility.yul\":2284:2427   */\n      swap3\n      swap2\n      pop\n      pop\n      jump\t// out\n        /* \"#utility.yul\":2433:2784   */\n    tag_27:\n        /* \"#utility.yul\":2503:2509   */\n      0x00\n        /* \"#utility.yul\":2552:2554   */\n      0x20\n        /* \"#utility.yul\":2540:2549   */\n      dup3\n        /* \"#utility.yul\":2531:2538   */\n      dup5\n        /* \"#utility.yul\":2527:2550   */\n      sub\n        /* \"#utility.yul\":2523:2555   */\n      slt\n        /* \"#utility.yul\":2520:2639   */\n      iszero\n      tag_116\n      jumpi\n        /* \"#utility.yul\":2558:2637   */\n      tag_117\n      tag_70\n      jump\t// in\n    tag_117:\n        /* \"#utility.yul\":2520:2639   */\n    tag_116:\n        /* \"#utility.yul\":2678:2679   */\n      0x00\n        /* \"#utility.yul\":2703:2767   */\n      tag_118\n        /* \"#utility.yul\":2759:2766   */\n      dup5\n        /* \"#utility.yul\":2750:2756   */\n      dup3\n        /* \"#utility.yul\":2739:2748   */\n      dup6\n        /* \"#utility.yul\":2735:2757   */\n      add\n        /* \"#utility.yul\":2703:2767   */\n      tag_78\n      jump\t// in\n    tag_118:\n        /* \"#utility.yul\":2693:2767   */\n      swap2\n      pop\n        /* \"#utility.yul\":2649:2777   */\n      pop\n        /* \"#utility.yul\":2433:2784   */\n      swap3\n      swap2\n      pop\n      pop\n      jump\t// out\n        /* \"#utility.yul\":2790:2959   */\n    tag_79:\n        /* \"#utility.yul\":2874:2885   */\n      0x00\n        /* \"#utility.yul\":2908:2914   */\n      dup3\n        /* \"#utility.yul\":2903:2906   */\n      dup3\n        /* \"#utility.yul\":2896:2915   */\n      mstore\n        /* \"#utility.yul\":2948:2952   */\n      0x20\n        /* \"#utility.yul\":2943:2946   */\n      dup3\n        /* \"#utility.yul\":2939:2953   */\n      add\n        /* \"#utility.yul\":2924:2953   */\n      swap1\n      pop\n        /* \"#utility.yul\":2790:2959   */\n      swap3\n      swap2\n      pop\n      pop\n      jump\t// out\n        /* \"#utility.yul\":2965:3189   */\n    tag_80:\n        /* \"#utility.yul\":3105:3139   */\n      0x496e73756666696369656e742062616c616e636520746f207075726368617365\n        /* \"#utility.yul\":3101:3102   */\n      0x00\n        /* \"#utility.yul\":3093:3099   */\n      dup3\n        /* \"#utility.yul\":3089:3103   */\n      add\n        /* \"#utility.yul\":3082:3140   */\n      mstore\n        /* \"#utility.yul\":3174:3181   */\n      0x206974656d000000000000000000000000000000000000000000000000000000\n        /* \"#utility.yul\":3169:3171   */\n      0x20\n        /* \"#utility.yul\":3161:3167   */\n      dup3\n        /* \"#utility.yul\":3157:3172   */\n      add\n        /* \"#utility.yul\":3150:3182   */\n      mstore\n        /* \"#utility.yul\":2965:3189   */\n      pop\n      jump\t// out\n        /* \"#utility.yul\":3195:3561   */\n    tag_81:\n        /* \"#utility.yul\":3337:3340   */\n      0x00\n        /* \"#utility.yul\":3358:3425   */\n      tag_122\n        /* \"#utility.yul\":3422:3424   */\n      0x25\n        /* \"#utility.yul\":3417:3420   */\n      dup4\n        /* \"#utility.yul\":3358:3425   */\n      tag_79\n      jump\t// in\n    tag_122:\n        /* \"#utility.yul\":3351:3425   */\n      swap2\n      pop\n        /* \"#utility.yul\":3434:3527   */\n      tag_123\n        /* \"#utility.yul\":3523:3526   */\n      dup3\n        /* \"#utility.yul\":3434:3527   */\n      tag_80\n      jump\t// in\n    tag_123:\n        /* \"#utility.yul\":3552:3554   */\n      0x40\n        /* \"#utility.yul\":3547:3550   */\n      dup3\n        /* \"#utility.yul\":3543:3555   */\n      add\n        /* \"#utility.yul\":3536:3555   */\n      swap1\n      pop\n        /* \"#utility.yul\":3195:3561   */\n      swap2\n      swap1\n      pop\n      jump\t// out\n        /* \"#utility.yul\":3567:3986   */\n    tag_30:\n        /* \"#utility.yul\":3733:3737   */\n      0x00\n        /* \"#utility.yul\":3771:3773   */\n      0x20\n        /* \"#utility.yul\":3760:3769   */\n      dup3\n        /* \"#utility.yul\":3756:3774   */\n      add\n        /* \"#utility.yul\":3748:3774   */\n      swap1\n      pop\n        /* \"#utility.yul\":3820:3829   */\n      dup2\n        /* \"#utility.yul\":3814:3818   */\n      dup2\n        /* \"#utility.yul\":3810:3830   */\n      sub\n        /* \"#utility.yul\":3806:3807   */\n      0x00\n        /* \"#utility.yul\":3795:3804   */\n      dup4\n        /* \"#utility.yul\":3791:3808   */\n      add\n        /* \"#utility.yul\":3784:3831   */\n      mstore\n        /* \"#utility.yul\":3848:3979   */\n      tag_125\n        /* \"#utility.yul\":3974:3978   */\n      dup2\n        /* \"#utility.yul\":3848:3979   */\n      tag_81\n      jump\t// in\n    tag_125:\n        /* \"#utility.yul\":3840:3979   */\n      swap1\n      pop\n        /* \"#utility.yul\":3567:3986   */\n      swap2\n      swap1\n      pop\n      jump\t// out\n        /* \"#utility.yul\":3992:4172   */\n    tag_82:\n        /* \"#utility.yul\":4040:4117   */\n      0x4e487b7100000000000000000000000000000000000000000000000000000000\n        /* \"#utility.yul\":4037:4038   */\n      0x00\n        /* \"#utility.yul\":4030:4118   */\n      mstore\n        /* \"#utility.yul\":4137:4141   */\n      0x11\n        /* \"#utility.yul\":4134:4135   */\n      0x04\n        /* \"#utility.yul\":4127:4142   */\n      mstore\n        /* \"#utility.yul\":4161:4165   */\n      0x24\n        /* \"#utility.yul\":4158:4159   */\n      0x00\n        /* \"#utility.yul\":4151:4166   */\n      revert\n        /* \"#utility.yul\":4178:4372   */\n    tag_32:\n        /* \"#utility.yul\":4218:4222   */\n      0x00\n        /* \"#utility.yul\":4238:4258   */\n      tag_128\n        /* \"#utility.yul\":4256:4257   */\n      dup3\n        /* \"#utility.yul\":4238:4258   */\n      tag_72\n      jump\t// in\n    tag_128:\n        /* \"#utility.yul\":4233:4258   */\n      swap2\n      pop\n        /* \"#utility.yul\":4272:4292   */\n      tag_129\n        /* \"#utility.yul\":4290:4291   */\n      dup4\n        /* \"#utility.yul\":4272:4292   */\n      tag_72\n      jump\t// in\n    tag_129:\n        /* \"#utility.yul\":4267:4292   */\n      swap3\n      pop\n        /* \"#utility.yul\":4316:4317   */\n      dup3\n        /* \"#utility.yul\":4313:4314   */\n      dup3\n        /* \"#utility.yul\":4309:4318   */\n      sub\n        /* \"#utility.yul\":4301:4318   */\n      swap1\n      pop\n        /* \"#utility.yul\":4340:4341   */\n      dup2\n        /* \"#utility.yul\":4334:4338   */\n      dup2\n        /* \"#utility.yul\":4331:4342   */\n      gt\n        /* \"#utility.yul\":4328:4365   */\n      iszero\n      tag_130\n      jumpi\n        /* \"#utility.yul\":4345:4363   */\n      tag_131\n      tag_82\n      jump\t// in\n    tag_131:\n        /* \"#utility.yul\":4328:4365   */\n    tag_130:\n        /* \"#utility.yul\":4178:4372   */\n      swap3\n      swap2\n      pop\n      pop\n      jump\t// out\n        /* \"#utility.yul\":4378:4710   */\n    tag_34:\n        /* \"#utility.yul\":4499:4503   */\n      0x00\n        /* \"#utility.yul\":4537:4539   */\n      0x40\n        /* \"#utility.yul\":4526:4535   */\n      dup3\n        /* \"#utility.yul\":4522:4540   */\n      add\n        /* \"#utility.yul\":4514:4540   */\n      swap1\n      pop\n        /* \"#utility.yul\":4550:4621   */\n      tag_133\n        /* \"#utility.yul\":4618:4619   */\n      0x00\n        /* \"#utility.yul\":4607:4616   */\n      dup4\n        /* \"#utility.yul\":4603:4620   */\n      add\n        /* \"#utility.yul\":4594:4600   */\n      dup6\n        /* \"#utility.yul\":4550:4621   */\n      tag_77\n      jump\t// in\n    tag_133:\n        /* \"#utility.yul\":4631:4703   */\n      tag_134\n        /* \"#utility.yul\":4699:4701   */\n      0x20\n        /* \"#utility.yul\":4688:4697   */\n      dup4\n        /* \"#utility.yul\":4684:4702   */\n      add\n        /* \"#utility.yul\":4675:4681   */\n      dup5\n        /* \"#utility.yul\":4631:4703   */\n      tag_77\n      jump\t// in\n    tag_134:\n        /* \"#utility.yul\":4378:4710   */\n      swap4\n      swap3\n      pop\n      pop\n      pop\n      jump\t// out\n        /* \"#utility.yul\":4716:4942   */\n    tag_83:\n        /* \"#utility.yul\":4856:4890   */\n      0x496e73756666696369656e742062616c616e636520746f207472616e73666572\n        /* \"#utility.yul\":4852:4853   */\n      0x00\n        /* \"#utility.yul\":4844:4850   */\n      dup3\n        /* \"#utility.yul\":4840:4854   */\n      add\n        /* \"#utility.yul\":4833:4891   */\n      mstore\n        /* \"#utility.yul\":4925:4934   */\n      0x20706f696e747300000000000000000000000000000000000000000000000000\n        /* \"#utility.yul\":4920:4922   */\n      0x20\n        /* \"#utility.yul\":4912:4918   */\n      dup3\n        /* \"#utility.yul\":4908:4923   */\n      add\n        /* \"#utility.yul\":4901:4935   */\n      mstore\n        /* \"#utility.yul\":4716:4942   */\n      pop\n      jump\t// out\n        /* \"#utility.yul\":4948:5314   */\n    tag_84:\n        /* \"#utility.yul\":5090:5093   */\n      0x00\n        /* \"#utility.yul\":5111:5178   */\n      tag_137\n        /* \"#utility.yul\":5175:5177   */\n      0x27\n        /* \"#utility.yul\":5170:5173   */\n      dup4\n        /* \"#utility.yul\":5111:5178   */\n      tag_79\n      jump\t// in\n    tag_137:\n        /* \"#utility.yul\":5104:5178   */\n      swap2\n      pop\n        /* \"#utility.yul\":5187:5280   */\n      tag_138\n        /* \"#utility.yul\":5276:5279   */\n      dup3\n        /* \"#utility.yul\":5187:5280   */\n      tag_83\n      jump\t// in\n    tag_138:\n        /* \"#utility.yul\":5305:5307   */\n      0x40\n        /* \"#utility.yul\":5300:5303   */\n      dup3\n        /* \"#utility.yul\":5296:5308   */\n      add\n        /* \"#utility.yul\":5289:5308   */\n      swap1\n      pop\n        /* \"#utility.yul\":4948:5314   */\n      swap2\n      swap1\n      pop\n      jump\t// out\n        /* \"#utility.yul\":5320:5739   */\n    tag_51:\n        /* \"#utility.yul\":5486:5490   */\n      0x00\n        /* \"#utility.yul\":5524:5526   */\n      0x20\n        /* \"#utility.yul\":5513:5522   */\n      dup3\n        /* \"#utility.yul\":5509:5527   */\n      add\n        /* \"#utility.yul\":5501:5527   */\n      swap1\n      pop\n        /* \"#utility.yul\":5573:5582   */\n      dup2\n        /* \"#utility.yul\":5567:5571   */\n      dup2\n        /* \"#utility.yul\":5563:5583   */\n      sub\n        /* \"#utility.yul\":5559:5560   */\n      0x00\n        /* \"#utility.yul\":5548:5557   */\n      dup4\n        /* \"#utility.yul\":5544:5561   */\n      add\n        /* \"#utility.yul\":5537:5584   */\n      mstore\n        /* \"#utility.yul\":5601:5732   */\n      tag_140\n        /* \"#utility.yul\":5727:5731   */\n      dup2\n        /* \"#utility.yul\":5601:5732   */\n      tag_84\n      jump\t// in\n    tag_140:\n        /* \"#utility.yul\":5593:5732   */\n      swap1\n      pop\n        /* \"#utility.yul\":5320:5739   */\n      swap2\n      swap1\n      pop\n      jump\t// out\n        /* \"#utility.yul\":5745:5936   */\n    tag_58:\n        /* \"#utility.yul\":5785:5788   */\n      0x00\n        /* \"#utility.yul\":5804:5824   */\n      tag_142\n        /* \"#utility.yul\":5822:5823   */\n      dup3\n        /* \"#utility.yul\":5804:5824   */\n      tag_72\n      jump\t// in\n    tag_142:\n        /* \"#utility.yul\":5799:5824   */\n      swap2\n      pop\n        /* \"#utility.yul\":5838:5858   */\n      tag_143\n        /* \"#utility.yul\":5856:5857   */\n      dup4\n        /* \"#utility.yul\":5838:5858   */\n      tag_72\n      jump\t// in\n    tag_143:\n        /* \"#utility.yul\":5833:5858   */\n      swap3\n      pop\n        /* \"#utility.yul\":5881:5882   */\n      dup3\n        /* \"#utility.yul\":5878:5879   */\n      dup3\n        /* \"#utility.yul\":5874:5883   */\n      add\n        /* \"#utility.yul\":5867:5883   */\n      swap1\n      pop\n        /* \"#utility.yul\":5902:5905   */\n      dup1\n        /* \"#utility.yul\":5899:5900   */\n      dup3\n        /* \"#utility.yul\":5896:5906   */\n      gt\n        /* \"#utility.yul\":5893:5929   */\n      iszero\n      tag_144\n      jumpi\n        /* \"#utility.yul\":5909:5927   */\n      tag_145\n      tag_82\n      jump\t// in\n    tag_145:\n        /* \"#utility.yul\":5893:5929   */\n    tag_144:\n        /* \"#utility.yul\":5745:5936   */\n      swap3\n      swap2\n      pop\n      pop\n      jump\t// out\n\n    auxdata: 0xa2646970667358221220550c4430a4a73bb60a272261bf720819b951ab78ffd9dcd39da7663ba67abeaf64736f6c63430008190033\n}\n",
				"bytecode": {
					"linkReferences": {},
					"object": "608060405234801561000f575f80fd5b50604051610b18380380610b188339818101604052810190610031919061010f565b815f819055508060015f6101000a81548173ffffffffffffffffffffffffffffffffffffffff021916908373ffffffffffffffffffffffffffffffffffffffff160217905550505061014d565b5f80fd5b5f819050919050565b61009481610082565b811461009e575f80fd5b50565b5f815190506100af8161008b565b92915050565b5f73ffffffffffffffffffffffffffffffffffffffff82169050919050565b5f6100de826100b5565b9050919050565b6100ee816100d4565b81146100f8575f80fd5b50565b5f81519050610109816100e5565b92915050565b5f80604083850312156101255761012461007e565b5b5f610132858286016100a1565b9250506020610143858286016100fb565b9150509250929050565b6109be8061015a5f395ff3fe608060405234801561000f575f80fd5b506004361061003f575f3560e01c80634d802abb146100435780637f28628614610073578063e2627ccf146100a3575b5f80fd5b61005d6004803603810190610058919061069f565b6100d3565b60405161006a91906106e4565b60405180910390f35b61008d6004803603810190610088919061069f565b610293565b60405161009a919061070c565b60405180910390f35b6100bd60048036038101906100b89190610725565b610334565b6040516100ca91906106e4565b60405180910390f35b5f8060015f9054906101000a900473ffffffffffffffffffffffffffffffffffffffff1673ffffffffffffffffffffffffffffffffffffffff16631e0104395f546040518263ffffffff1660e01b8152600401610130919061070c565b602060405180830381865afa15801561014b573d5f803e3d5ffd5b505050506040513d601f19601f8201168201806040525081019061016f9190610777565b9050828110156101b4576040517f08c379a00000000000000000000000000000000000000000000000000000000081526004016101ab90610822565b60405180910390fd5b5f83826101c1919061086d565b905060015f9054906101000a900473ffffffffffffffffffffffffffffffffffffffff1673ffffffffffffffffffffffffffffffffffffffff16634a4b9feb5f54836040518363ffffffff1660e01b81526004016102209291906108a0565b5f604051808303815f87803b158015610237575f80fd5b505af1158015610249573d5f803e3d5ffd5b505050505f547f913d222564a08ee6d9c6a374a75d452883fff7d55c9c4f3d982ee2820f24037585426040516102809291906108a0565b60405180910390a2600192505050919050565b5f60015f9054906101000a900473ffffffffffffffffffffffffffffffffffffffff1673ffffffffffffffffffffffffffffffffffffffff16631e010439836040518263ffffffff1660e01b81526004016102ee919061070c565b602060405180830381865afa158015610309573d5f803e3d5ffd5b505050506040513d601f19601f8201168201806040525081019061032d9190610777565b9050919050565b5f8060015f9054906101000a900473ffffffffffffffffffffffffffffffffffffffff1673ffffffffffffffffffffffffffffffffffffffff16631e0104395f546040518263ffffffff1660e01b8152600401610391919061070c565b602060405180830381865afa1580156103ac573d5f803e3d5ffd5b505050506040513d601f19601f820116820180604052508101906103d09190610777565b905082811015610415576040517f08c379a000000000000000000000000000000000000000000000000000000000815260040161040c90610937565b60405180910390fd5b5f60015f9054906101000a900473ffffffffffffffffffffffffffffffffffffffff1673ffffffffffffffffffffffffffffffffffffffff16631e010439866040518263ffffffff1660e01b8152600401610470919061070c565b602060405180830381865afa15801561048b573d5f803e3d5ffd5b505050506040513d601f19601f820116820180604052508101906104af9190610777565b90505f84836104be919061086d565b90505f85836104cd9190610955565b905060015f9054906101000a900473ffffffffffffffffffffffffffffffffffffffff1673ffffffffffffffffffffffffffffffffffffffff16634a4b9feb5f54846040518363ffffffff1660e01b815260040161052c9291906108a0565b5f604051808303815f87803b158015610543575f80fd5b505af1158015610555573d5f803e3d5ffd5b5050505060015f9054906101000a900473ffffffffffffffffffffffffffffffffffffffff1673ffffffffffffffffffffffffffffffffffffffff16634a4b9feb88836040518363ffffffff1660e01b81526004016105b59291906108a0565b5f604051808303815f87803b1580156105cc575f80fd5b505af11580156105de573d5f803e3d5ffd5b50505050865f547f270d555906e5d6b40bc118b63a231daa86493c7d7b32af1a91fb621c9380e26a88426040516106169291906108a0565b60405180910390a35f54877f04c3e90d4447521168eb1fc57db7e97ac06c0874538cf486849946416f5326f788426040516106529291906108a0565b60405180910390a3600194505050505092915050565b5f80fd5b5f819050919050565b61067e8161066c565b8114610688575f80fd5b50565b5f8135905061069981610675565b92915050565b5f602082840312156106b4576106b3610668565b5b5f6106c18482850161068b565b91505092915050565b5f8115159050919050565b6106de816106ca565b82525050565b5f6020820190506106f75f8301846106d5565b92915050565b6107068161066c565b82525050565b5f60208201905061071f5f8301846106fd565b92915050565b5f806040838503121561073b5761073a610668565b5b5f6107488582860161068b565b92505060206107598582860161068b565b9150509250929050565b5f8151905061077181610675565b92915050565b5f6020828403121561078c5761078b610668565b5b5f61079984828501610763565b91505092915050565b5f82825260208201905092915050565b7f496e73756666696369656e742062616c616e636520746f2070757263686173655f8201527f206974656d000000000000000000000000000000000000000000000000000000602082015250565b5f61080c6025836107a2565b9150610817826107b2565b604082019050919050565b5f6020820190508181035f83015261083981610800565b9050919050565b7f4e487b71000000000000000000000000000000000000000000000000000000005f52601160045260245ffd5b5f6108778261066c565b91506108828361066c565b925082820390508181111561089a57610899610840565b5b92915050565b5f6040820190506108b35f8301856106fd565b6108c060208301846106fd565b9392505050565b7f496e73756666696369656e742062616c616e636520746f207472616e736665725f8201527f20706f696e747300000000000000000000000000000000000000000000000000602082015250565b5f6109216027836107a2565b915061092c826108c7565b604082019050919050565b5f6020820190508181035f83015261094e81610915565b9050919050565b5f61095f8261066c565b915061096a8361066c565b925082820190508082111561098257610981610840565b5b9291505056fea2646970667358221220550c4430a4a73bb60a272261bf720819b951ab78ffd9dcd39da7663ba67abeaf64736f6c63430008190033",
					"opcodes": "PUSH1 0x80 PUSH1 0x40 MSTORE CALLVALUE DUP1 ISZERO PUSH2 0xF JUMPI PUSH0 DUP1 REVERT JUMPDEST POP PUSH1 0x40 MLOAD PUSH2 0xB18 CODESIZE SUB DUP1 PUSH2 0xB18 DUP4 CODECOPY DUP2 DUP2 ADD PUSH1 0x40 MSTORE DUP2 ADD SWAP1 PUSH2 0x31 SWAP2 SWAP1 PUSH2 0x10F JUMP JUMPDEST DUP2 PUSH0 DUP2 SWAP1 SSTORE POP DUP1 PUSH1 0x1 PUSH0 PUSH2 0x100 EXP DUP2 SLOAD DUP2 PUSH20 0xFFFFFFFFFFFFFFFFFFFFFFFFFFFFFFFFFFFFFFFF MUL NOT AND SWAP1 DUP4 PUSH20 0xFFFFFFFFFFFFFFFFFFFFFFFFFFFFFFFFFFFFFFFF AND MUL OR SWAP1 SSTORE POP POP POP PUSH2 0x14D JUMP JUMPDEST PUSH0 DUP1 REVERT JUMPDEST PUSH0 DUP2 SWAP1 POP SWAP2 SWAP1 POP JUMP JUMPDEST PUSH2 0x94 DUP2 PUSH2 0x82 JUMP JUMPDEST DUP2 EQ PUSH2 0x9E JUMPI PUSH0 DUP1 REVERT JUMPDEST POP JUMP JUMPDEST PUSH0 DUP2 MLOAD SWAP1 POP PUSH2 0xAF DUP2 PUSH2 0x8B JUMP JUMPDEST SWAP3 SWAP2 POP POP JUMP JUMPDEST PUSH0 PUSH20 0xFFFFFFFFFFFFFFFFFFFFFFFFFFFFFFFFFFFFFFFF DUP3 AND SWAP1 POP SWAP2 SWAP1 POP JUMP JUMPDEST PUSH0 PUSH2 0xDE DUP3 PUSH2 0xB5 JUMP JUMPDEST SWAP1 POP SWAP2 SWAP1 POP JUMP JUMPDEST PUSH2 0xEE DUP2 PUSH2 0xD4 JUMP JUMPDEST DUP2 EQ PUSH2 0xF8 JUMPI PUSH0 DUP1 REVERT JUMPDEST POP JUMP JUMPDEST PUSH0 DUP2 MLOAD SWAP1 POP PUSH2 0x109 DUP2 PUSH2 0xE5 JUMP JUMPDEST SWAP3 SWAP2 POP POP JUMP JUMPDEST PUSH0 DUP1 PUSH1 0x40 DUP4 DUP6 SUB SLT ISZERO PUSH2 0x125 JUMPI PUSH2 0x124 PUSH2 0x7E JUMP JUMPDEST JUMPDEST PUSH0 PUSH2 0x132 DUP6 DUP3 DUP7 ADD PUSH2 0xA1 JUMP JUMPDEST SWAP3 POP POP PUSH1 0x20 PUSH2 0x143 DUP6 DUP3 DUP7 ADD PUSH2 0xFB JUMP JUMPDEST SWAP2 POP POP SWAP3 POP SWAP3 SWAP1 POP JUMP JUMPDEST PUSH2 0x9BE DUP1 PUSH2 0x15A PUSH0 CODECOPY PUSH0 RETURN INVALID PUSH1 0x80 PUSH1 0x40 MSTORE CALLVALUE DUP1 ISZERO PUSH2 0xF JUMPI PUSH0 DUP1 REVERT JUMPDEST POP PUSH1 0x4 CALLDATASIZE LT PUSH2 0x3F JUMPI PUSH0 CALLDATALOAD PUSH1 0xE0 SHR DUP1 PUSH4 0x4D802ABB EQ PUSH2 0x43 JUMPI DUP1 PUSH4 0x7F286286 EQ PUSH2 0x73 JUMPI DUP1 PUSH4 0xE2627CCF EQ PUSH2 0xA3 JUMPI JUMPDEST PUSH0 DUP1 REVERT JUMPDEST PUSH2 0x5D PUSH1 0x4 DUP1 CALLDATASIZE SUB DUP2 ADD SWAP1 PUSH2 0x58 SWAP2 SWAP1 PUSH2 0x69F JUMP JUMPDEST PUSH2 0xD3 JUMP JUMPDEST PUSH1 0x40 MLOAD PUSH2 0x6A SWAP2 SWAP1 PUSH2 0x6E4 JUMP JUMPDEST PUSH1 0x40 MLOAD DUP1 SWAP2 SUB SWAP1 RETURN JUMPDEST PUSH2 0x8D PUSH1 0x4 DUP1 CALLDATASIZE SUB DUP2 ADD SWAP1 PUSH2 0x88 SWAP2 SWAP1 PUSH2 0x69F JUMP JUMPDEST PUSH2 0x293 JUMP JUMPDEST PUSH1 0x40 MLOAD PUSH2 0x9A SWAP2 SWAP1 PUSH2 0x70C JUMP JUMPDEST PUSH1 0x40 MLOAD DUP1 SWAP2 SUB SWAP1 RETURN JUMPDEST PUSH2 0xBD PUSH1 0x4 DUP1 CALLDATASIZE SUB DUP2 ADD SWAP1 PUSH2 0xB8 SWAP2 SWAP1 PUSH2 0x725 JUMP JUMPDEST PUSH2 0x334 JUMP JUMPDEST PUSH1 0x40 MLOAD PUSH2 0xCA SWAP2 SWAP1 PUSH2 0x6E4 JUMP JUMPDEST PUSH1 0x40 MLOAD DUP1 SWAP2 SUB SWAP1 RETURN JUMPDEST PUSH0 DUP1 PUSH1 0x1 PUSH0 SWAP1 SLOAD SWAP1 PUSH2 0x100 EXP SWAP1 DIV PUSH20 0xFFFFFFFFFFFFFFFFFFFFFFFFFFFFFFFFFFFFFFFF AND PUSH20 0xFFFFFFFFFFFFFFFFFFFFFFFFFFFFFFFFFFFFFFFF AND PUSH4 0x1E010439 PUSH0 SLOAD PUSH1 0x40 MLOAD DUP3 PUSH4 0xFFFFFFFF AND PUSH1 0xE0 SHL DUP2 MSTORE PUSH1 0x4 ADD PUSH2 0x130 SWAP2 SWAP1 PUSH2 0x70C JUMP JUMPDEST PUSH1 0x20 PUSH1 0x40 MLOAD DUP1 DUP4 SUB DUP2 DUP7 GAS STATICCALL ISZERO DUP1 ISZERO PUSH2 0x14B JUMPI RETURNDATASIZE PUSH0 DUP1 RETURNDATACOPY RETURNDATASIZE PUSH0 REVERT JUMPDEST POP POP POP POP PUSH1 0x40 MLOAD RETURNDATASIZE PUSH1 0x1F NOT PUSH1 0x1F DUP3 ADD AND DUP3 ADD DUP1 PUSH1 0x40 MSTORE POP DUP2 ADD SWAP1 PUSH2 0x16F SWAP2 SWAP1 PUSH2 0x777 JUMP JUMPDEST SWAP1 POP DUP3 DUP2 LT ISZERO PUSH2 0x1B4 JUMPI PUSH1 0x40 MLOAD PUSH32 0x8C379A000000000000000000000000000000000000000000000000000000000 DUP2 MSTORE PUSH1 0x4 ADD PUSH2 0x1AB SWAP1 PUSH2 0x822 JUMP JUMPDEST PUSH1 0x40 MLOAD DUP1 SWAP2 SUB SWAP1 REVERT JUMPDEST PUSH0 DUP4 DUP3 PUSH2 0x1C1 SWAP2 SWAP1 PUSH2 0x86D JUMP JUMPDEST SWAP1 POP PUSH1 0x1 PUSH0 SWAP1 SLOAD SWAP1 PUSH2 0x100 EXP SWAP1 DIV PUSH20 0xFFFFFFFFFFFFFFFFFFFFFFFFFFFFFFFFFFFFFFFF AND PUSH20 0xFFFFFFFFFFFFFFFFFFFFFFFFFFFFFFFFFFFFFFFF AND PUSH4 0x4A4B9FEB PUSH0 SLOAD DUP4 PUSH1 0x40 MLOAD DUP4 PUSH4 0xFFFFFFFF AND PUSH1 0xE0 SHL DUP2 MSTORE PUSH1 0x4 ADD PUSH2 0x220 SWAP3 SWAP2 SWAP1 PUSH2 0x8A0 JUMP JUMPDEST PUSH0 PUSH1 0x40 MLOAD DUP1 DUP4 SUB DUP2 PUSH0 DUP8 DUP1 EXTCODESIZE ISZERO DUP1 ISZERO PUSH2 0x237 JUMPI PUSH0 DUP1 REVERT JUMPDEST POP GAS CALL ISZERO DUP1 ISZERO PUSH2 0x249 JUMPI RETURNDATASIZE PUSH0 DUP1 RETURNDATACOPY RETURNDATASIZE PUSH0 REVERT JUMPDEST POP POP POP POP PUSH0 SLOAD PUSH32 0x913D222564A08EE6D9C6A374A75D452883FFF7D55C9C4F3D982EE2820F240375 DUP6 TIMESTAMP PUSH1 0x40 MLOAD PUSH2 0x280 SWAP3 SWAP2 SWAP1 PUSH2 0x8A0 JUMP JUMPDEST PUSH1 0x40 MLOAD DUP1 SWAP2 SUB SWAP1 LOG2 PUSH1 0x1 SWAP3 POP POP POP SWAP2 SWAP1 POP JUMP JUMPDEST PUSH0 PUSH1 0x1 PUSH0 SWAP1 SLOAD SWAP1 PUSH2 0x100 EXP SWAP1 DIV PUSH20 0xFFFFFFFFFFFFFFFFFFFFFFFFFFFFFFFFFFFFFFFF AND PUSH20 0xFFFFFFFFFFFFFFFFFFFFFFFFFFFFFFFFFFFFFFFF AND PUSH4 0x1E010439 DUP4 PUSH1 0x40 MLOAD DUP3 PUSH4 0xFFFFFFFF AND PUSH1 0xE0 SHL DUP2 MSTORE PUSH1 0x4 ADD PUSH2 0x2EE SWAP2 SWAP1 PUSH2 0x70C JUMP JUMPDEST PUSH1 0x20 PUSH1 0x40 MLOAD DUP1 DUP4 SUB DUP2 DUP7 GAS STATICCALL ISZERO DUP1 ISZERO PUSH2 0x309 JUMPI RETURNDATASIZE PUSH0 DUP1 RETURNDATACOPY RETURNDATASIZE PUSH0 REVERT JUMPDEST POP POP POP POP PUSH1 0x40 MLOAD RETURNDATASIZE PUSH1 0x1F NOT PUSH1 0x1F DUP3 ADD AND DUP3 ADD DUP1 PUSH1 0x40 MSTORE POP DUP2 ADD SWAP1 PUSH2 0x32D SWAP2 SWAP1 PUSH2 0x777 JUMP JUMPDEST SWAP1 POP SWAP2 SWAP1 POP JUMP JUMPDEST PUSH0 DUP1 PUSH1 0x1 PUSH0 SWAP1 SLOAD SWAP1 PUSH2 0x100 EXP SWAP1 DIV PUSH20 0xFFFFFFFFFFFFFFFFFFFFFFFFFFFFFFFFFFFFFFFF AND PUSH20 0xFFFFFFFFFFFFFFFFFFFFFFFFFFFFFFFFFFFFFFFF AND PUSH4 0x1E010439 PUSH0 SLOAD PUSH1 0x40 MLOAD DUP3 PUSH4 0xFFFFFFFF AND PUSH1 0xE0 SHL DUP2 MSTORE PUSH1 0x4 ADD PUSH2 0x391 SWAP2 SWAP1 PUSH2 0x70C JUMP JUMPDEST PUSH1 0x20 PUSH1 0x40 MLOAD DUP1 DUP4 SUB DUP2 DUP7 GAS STATICCALL ISZERO DUP1 ISZERO PUSH2 0x3AC JUMPI RETURNDATASIZE PUSH0 DUP1 RETURNDATACOPY RETURNDATASIZE PUSH0 REVERT JUMPDEST POP POP POP POP PUSH1 0x40 MLOAD RETURNDATASIZE PUSH1 0x1F NOT PUSH1 0x1F DUP3 ADD AND DUP3 ADD DUP1 PUSH1 0x40 MSTORE POP DUP2 ADD SWAP1 PUSH2 0x3D0 SWAP2 SWAP1 PUSH2 0x777 JUMP JUMPDEST SWAP1 POP DUP3 DUP2 LT ISZERO PUSH2 0x415 JUMPI PUSH1 0x40 MLOAD PUSH32 0x8C379A000000000000000000000000000000000000000000000000000000000 DUP2 MSTORE PUSH1 0x4 ADD PUSH2 0x40C SWAP1 PUSH2 0x937 JUMP JUMPDEST PUSH1 0x40 MLOAD DUP1 SWAP2 SUB SWAP1 REVERT JUMPDEST PUSH0 PUSH1 0x1 PUSH0 SWAP1 SLOAD SWAP1 PUSH2 0x100 EXP SWAP1 DIV PUSH20 0xFFFFFFFFFFFFFFFFFFFFFFFFFFFFFFFFFFFFFFFF AND PUSH20 0xFFFFFFFFFFFFFFFFFFFFFFFFFFFFFFFFFFFFFFFF AND PUSH4 0x1E010439 DUP7 PUSH1 0x40 MLOAD DUP3 PUSH4 0xFFFFFFFF AND PUSH1 0xE0 SHL DUP2 MSTORE PUSH1 0x4 ADD PUSH2 0x470 SWAP2 SWAP1 PUSH2 0x70C JUMP JUMPDEST PUSH1 0x20 PUSH1 0x40 MLOAD DUP1 DUP4 SUB DUP2 DUP7 GAS STATICCALL ISZERO DUP1 ISZERO PUSH2 0x48B JUMPI RETURNDATASIZE PUSH0 DUP1 RETURNDATACOPY RETURNDATASIZE PUSH0 REVERT JUMPDEST POP POP POP POP PUSH1 0x40 MLOAD RETURNDATASIZE PUSH1 0x1F NOT PUSH1 0x1F DUP3 ADD AND DUP3 ADD DUP1 PUSH1 0x40 MSTORE POP DUP2 ADD SWAP1 PUSH2 0x4AF SWAP2 SWAP1 PUSH2 0x777 JUMP JUMPDEST SWAP1 POP PUSH0 DUP5 DUP4 PUSH2 0x4BE SWAP2 SWAP1 PUSH2 0x86D JUMP JUMPDEST SWAP1 POP PUSH0 DUP6 DUP4 PUSH2 0x4CD SWAP2 SWAP1 PUSH2 0x955 JUMP JUMPDEST SWAP1 POP PUSH1 0x1 PUSH0 SWAP1 SLOAD SWAP1 PUSH2 0x100 EXP SWAP1 DIV PUSH20 0xFFFFFFFFFFFFFFFFFFFFFFFFFFFFFFFFFFFFFFFF AND PUSH20 0xFFFFFFFFFFFFFFFFFFFFFFFFFFFFFFFFFFFFFFFF AND PUSH4 0x4A4B9FEB PUSH0 SLOAD DUP5 PUSH1 0x40 MLOAD DUP4 PUSH4 0xFFFFFFFF AND PUSH1 0xE0 SHL DUP2 MSTORE PUSH1 0x4 ADD PUSH2 0x52C SWAP3 SWAP2 SWAP1 PUSH2 0x8A0 JUMP JUMPDEST PUSH0 PUSH1 0x40 MLOAD DUP1 DUP4 SUB DUP2 PUSH0 DUP8 DUP1 EXTCODESIZE ISZERO DUP1 ISZERO PUSH2 0x543 JUMPI PUSH0 DUP1 REVERT JUMPDEST POP GAS CALL ISZERO DUP1 ISZERO PUSH2 0x555 JUMPI RETURNDATASIZE PUSH0 DUP1 RETURNDATACOPY RETURNDATASIZE PUSH0 REVERT JUMPDEST POP POP POP POP PUSH1 0x1 PUSH0 SWAP1 SLOAD SWAP1 PUSH2 0x100 EXP SWAP1 DIV PUSH20 0xFFFFFFFFFFFFFFFFFFFFFFFFFFFFFFFFFFFFFFFF AND PUSH20 0xFFFFFFFFFFFFFFFFFFFFFFFFFFFFFFFFFFFFFFFF AND PUSH4 0x4A4B9FEB DUP9 DUP4 PUSH1 0x40 MLOAD DUP4 PUSH4 0xFFFFFFFF AND PUSH1 0xE0 SHL DUP2 MSTORE PUSH1 0x4 ADD PUSH2 0x5B5 SWAP3 SWAP2 SWAP1 PUSH2 0x8A0 JUMP JUMPDEST PUSH0 PUSH1 0x40 MLOAD DUP1 DUP4 SUB DUP2 PUSH0 DUP8 DUP1 EXTCODESIZE ISZERO DUP1 ISZERO PUSH2 0x5CC JUMPI PUSH0 DUP1 REVERT JUMPDEST POP GAS CALL ISZERO DUP1 ISZERO PUSH2 0x5DE JUMPI RETURNDATASIZE PUSH0 DUP1 RETURNDATACOPY RETURNDATASIZE PUSH0 REVERT JUMPDEST POP POP POP POP DUP7 PUSH0 SLOAD PUSH32 0x270D555906E5D6B40BC118B63A231DAA86493C7D7B32AF1A91FB621C9380E26A DUP9 TIMESTAMP PUSH1 0x40 MLOAD PUSH2 0x616 SWAP3 SWAP2 SWAP1 PUSH2 0x8A0 JUMP JUMPDEST PUSH1 0x40 MLOAD DUP1 SWAP2 SUB SWAP1 LOG3 PUSH0 SLOAD DUP8 PUSH32 0x4C3E90D4447521168EB1FC57DB7E97AC06C0874538CF486849946416F5326F7 DUP9 TIMESTAMP PUSH1 0x40 MLOAD PUSH2 0x652 SWAP3 SWAP2 SWAP1 PUSH2 0x8A0 JUMP JUMPDEST PUSH1 0x40 MLOAD DUP1 SWAP2 SUB SWAP1 LOG3 PUSH1 0x1 SWAP5 POP POP POP POP POP SWAP3 SWAP2 POP POP JUMP JUMPDEST PUSH0 DUP1 REVERT JUMPDEST PUSH0 DUP2 SWAP1 POP SWAP2 SWAP1 POP JUMP JUMPDEST PUSH2 0x67E DUP2 PUSH2 0x66C JUMP JUMPDEST DUP2 EQ PUSH2 0x688 JUMPI PUSH0 DUP1 REVERT JUMPDEST POP JUMP JUMPDEST PUSH0 DUP2 CALLDATALOAD SWAP1 POP PUSH2 0x699 DUP2 PUSH2 0x675 JUMP JUMPDEST SWAP3 SWAP2 POP POP JUMP JUMPDEST PUSH0 PUSH1 0x20 DUP3 DUP5 SUB SLT ISZERO PUSH2 0x6B4 JUMPI PUSH2 0x6B3 PUSH2 0x668 JUMP JUMPDEST JUMPDEST PUSH0 PUSH2 0x6C1 DUP5 DUP3 DUP6 ADD PUSH2 0x68B JUMP JUMPDEST SWAP2 POP POP SWAP3 SWAP2 POP POP JUMP JUMPDEST PUSH0 DUP2 ISZERO ISZERO SWAP1 POP SWAP2 SWAP1 POP JUMP JUMPDEST PUSH2 0x6DE DUP2 PUSH2 0x6CA JUMP JUMPDEST DUP3 MSTORE POP POP JUMP JUMPDEST PUSH0 PUSH1 0x20 DUP3 ADD SWAP1 POP PUSH2 0x6F7 PUSH0 DUP4 ADD DUP5 PUSH2 0x6D5 JUMP JUMPDEST SWAP3 SWAP2 POP POP JUMP JUMPDEST PUSH2 0x706 DUP2 PUSH2 0x66C JUMP JUMPDEST DUP3 MSTORE POP POP JUMP JUMPDEST PUSH0 PUSH1 0x20 DUP3 ADD SWAP1 POP PUSH2 0x71F PUSH0 DUP4 ADD DUP5 PUSH2 0x6FD JUMP JUMPDEST SWAP3 SWAP2 POP POP JUMP JUMPDEST PUSH0 DUP1 PUSH1 0x40 DUP4 DUP6 SUB SLT ISZERO PUSH2 0x73B JUMPI PUSH2 0x73A PUSH2 0x668 JUMP JUMPDEST JUMPDEST PUSH0 PUSH2 0x748 DUP6 DUP3 DUP7 ADD PUSH2 0x68B JUMP JUMPDEST SWAP3 POP POP PUSH1 0x20 PUSH2 0x759 DUP6 DUP3 DUP7 ADD PUSH2 0x68B JUMP JUMPDEST SWAP2 POP POP SWAP3 POP SWAP3 SWAP1 POP JUMP JUMPDEST PUSH0 DUP2 MLOAD SWAP1 POP PUSH2 0x771 DUP2 PUSH2 0x675 JUMP JUMPDEST SWAP3 SWAP2 POP POP JUMP JUMPDEST PUSH0 PUSH1 0x20 DUP3 DUP5 SUB SLT ISZERO PUSH2 0x78C JUMPI PUSH2 0x78B PUSH2 0x668 JUMP JUMPDEST JUMPDEST PUSH0 PUSH2 0x799 DUP5 DUP3 DUP6 ADD PUSH2 0x763 JUMP JUMPDEST SWAP2 POP POP SWAP3 SWAP2 POP POP JUMP JUMPDEST PUSH0 DUP3 DUP3 MSTORE PUSH1 0x20 DUP3 ADD SWAP1 POP SWAP3 SWAP2 POP POP JUMP JUMPDEST PUSH32 0x496E73756666696369656E742062616C616E636520746F207075726368617365 PUSH0 DUP3 ADD MSTORE PUSH32 0x206974656D000000000000000000000000000000000000000000000000000000 PUSH1 0x20 DUP3 ADD MSTORE POP JUMP JUMPDEST PUSH0 PUSH2 0x80C PUSH1 0x25 DUP4 PUSH2 0x7A2 JUMP JUMPDEST SWAP2 POP PUSH2 0x817 DUP3 PUSH2 0x7B2 JUMP JUMPDEST PUSH1 0x40 DUP3 ADD SWAP1 POP SWAP2 SWAP1 POP JUMP JUMPDEST PUSH0 PUSH1 0x20 DUP3 ADD SWAP1 POP DUP2 DUP2 SUB PUSH0 DUP4 ADD MSTORE PUSH2 0x839 DUP2 PUSH2 0x800 JUMP JUMPDEST SWAP1 POP SWAP2 SWAP1 POP JUMP JUMPDEST PUSH32 0x4E487B7100000000000000000000000000000000000000000000000000000000 PUSH0 MSTORE PUSH1 0x11 PUSH1 0x4 MSTORE PUSH1 0x24 PUSH0 REVERT JUMPDEST PUSH0 PUSH2 0x877 DUP3 PUSH2 0x66C JUMP JUMPDEST SWAP2 POP PUSH2 0x882 DUP4 PUSH2 0x66C JUMP JUMPDEST SWAP3 POP DUP3 DUP3 SUB SWAP1 POP DUP2 DUP2 GT ISZERO PUSH2 0x89A JUMPI PUSH2 0x899 PUSH2 0x840 JUMP JUMPDEST JUMPDEST SWAP3 SWAP2 POP POP JUMP JUMPDEST PUSH0 PUSH1 0x40 DUP3 ADD SWAP1 POP PUSH2 0x8B3 PUSH0 DUP4 ADD DUP6 PUSH2 0x6FD JUMP JUMPDEST PUSH2 0x8C0 PUSH1 0x20 DUP4 ADD DUP5 PUSH2 0x6FD JUMP JUMPDEST SWAP4 SWAP3 POP POP POP JUMP JUMPDEST PUSH32 0x496E73756666696369656E742062616C616E636520746F207472616E73666572 PUSH0 DUP3 ADD MSTORE PUSH32 0x20706F696E747300000000000000000000000000000000000000000000000000 PUSH1 0x20 DUP3 ADD MSTORE POP JUMP JUMPDEST PUSH0 PUSH2 0x921 PUSH1 0x27 DUP4 PUSH2 0x7A2 JUMP JUMPDEST SWAP2 POP PUSH2 0x92C DUP3 PUSH2 0x8C7 JUMP JUMPDEST PUSH1 0x40 DUP3 ADD SWAP1 POP SWAP2 SWAP1 POP JUMP JUMPDEST PUSH0 PUSH1 0x20 DUP3 ADD SWAP1 POP DUP2 DUP2 SUB PUSH0 DUP4 ADD MSTORE PUSH2 0x94E DUP2 PUSH2 0x915 JUMP JUMPDEST SWAP1 POP SWAP2 SWAP1 POP JUMP JUMPDEST PUSH0 PUSH2 0x95F DUP3 PUSH2 0x66C JUMP JUMPDEST SWAP2 POP PUSH2 0x96A DUP4 PUSH2 0x66C JUMP JUMPDEST SWAP3 POP DUP3 DUP3 ADD SWAP1 POP DUP1 DUP3 GT ISZERO PUSH2 0x982 JUMPI PUSH2 0x981 PUSH2 0x840 JUMP JUMPDEST JUMPDEST SWAP3 SWAP2 POP POP JUMP INVALID LOG2 PUSH5 0x6970667358 0x22 SLT KECCAK256 SSTORE 0xC PREVRANDAO ADDRESS LOG4 0xA7 EXTCODESIZE 0xB6 EXP 0x27 0x22 PUSH2 0xBF72 ADDMOD NOT 0xB9 MLOAD 0xAB PUSH25 0xFFD9DCD39DA7663BA67ABEAF64736F6C634300081900330000 "
				},
				"gasEstimates": {
					"creation": {
						"codeDepositCost": "498800",
						"executionCost": "infinite",
						"totalCost": "infinite"
					},
					"external": {
						"checkBalance(uint256)": "infinite",
						"itemBought(uint256)": "infinite",
						"transferPoints(uint256,uint256)": "infinite"
					}
				},
				"methodIdentifiers": {
					"checkBalance(uint256)": "7f286286",
					"itemBought(uint256)": "4d802abb",
					"transferPoints(uint256,uint256)": "e2627ccf"
				}
			},
			"storageLayout": {
				"storage": [
					{
						"astId": 4,
						"contract": "PCD/contractS/Customer.sol:Customer",
						"label": "id",
						"offset": 0,
						"slot": "0",
						"type": "t_uint256"
					},
					{
						"astId": 7,
						"contract": "PCD/contractS/Customer.sol:Customer",
						"label": "sharedstate",
						"offset": 0,
						"slot": "1",
						"type": "t_contract(SharedState)431"
					}
				],
				"types": {
					"t_contract(SharedState)431": {
						"encoding": "inplace",
						"label": "contract SharedState",
						"numberOfBytes": "20"
					},
					"t_uint256": {
						"encoding": "inplace",
						"label": "uint256",
						"numberOfBytes": "32"
					}
				}
			},
			"userdoc": {
				"kind": "user",
				"methods": {},
				"version": 1
			}
		}
	}
}