{
	"data": {
		"bytecode": {
			"linkReferences": {},
			"object": "6080604052348015600e575f80fd5b506113fa8061001c5f395ff3fe608060405234801561000f575f80fd5b50600436106100cd575f3560e01c80637c49febb1161008a57806392a51aeb1161006457806392a51aeb14610231578063a2ffdcd61461024f578063d0e04fe31461026b578063e82bcfea14610287576100cd565b80637c49febb146101b557806389e9bfec146101e55780638b2d7c5514610201576100cd565b80631a231600146100d15780632a8e9219146100ed5780634e64f16d146101095780635b7098611461012557806366ebf4141461015557806371e4fd3714610185575b5f80fd5b6100eb60048036038101906100e69190610c68565b6102a3565b005b61010760048036038101906101029190610c68565b6103a2565b005b610123600480360381019061011e9190610cd4565b6103f7565b005b61013f600480360381019061013a9190610d54565b61056a565b60405161014c9190610dbd565b60405180910390f35b61016f600480360381019061016a9190610e09565b6105bf565b60405161017c9190610dbd565b60405180910390f35b61019f600480360381019061019a9190610e47565b6105df565b6040516101ac9190610e9d565b60405180910390f35b6101cf60048036038101906101ca9190610e09565b610613565b6040516101dc9190610dbd565b60405180910390f35b6101ff60048036038101906101fa9190610d54565b61063e565b005b61021b60048036038101906102169190610eb6565b6106d8565b6040516102289190610efb565b60405180910390f35b61023961072d565b6040516102469190610fcb565b60405180910390f35b61026960048036038101906102649190610c68565b610782565b005b61028560048036038101906102809190610e47565b61089f565b005b6102a1600480360381019061029c9190610c68565b610981565b005b5f836040516020016102b5919061103d565b6040516020818303038152906040528051906020012090506102d6816106d8565b610315576040517f08c379a000000000000000000000000000000000000000000000000000000000815260040161030c906110ad565b60405180910390fd5b5f60015f8381526020019081526020015f205f8581526020019081526020015f205414610377576040517f08c379a000000000000000000000000000000000000000000000000000000000815260040161036e90611115565b60405180910390fd5b8160015f8381526020019081526020015f205f8581526020019081526020015f208190555050505050565b5f836040516020016103b4919061103d565b6040516020818303038152906040528051906020012090508160015f8381526020019081526020015f205f8581526020019081526020015f208190555050505050565b5f84604051602001610409919061103d565b6040516020818303038152906040528051906020012090508160015f8381526020019081526020015f205f8681526020019081526020015f205461044d9190611160565b60015f8381526020019081526020015f205f8681526020019081526020015f20819055508160015f8381526020019081526020015f205f8581526020019081526020015f205461049d9190611193565b60015f8381526020019081526020015f205f8581526020019081526020015f20819055508284866040516104d1919061103d565b60405180910390207fe946cd1de3989f1370c07ddd001b890d97324b93d3809644fcff2c8b299c7042854260405161050a9291906111c6565b60405180910390a4838386604051610522919061103d565b60405180910390207f5913475c1a51e3ba07be9077197c0cbb7fdc06450c5b00bb1724d1b284981f3f854260405161055b9291906111c6565b60405180910390a45050505050565b5f808360405160200161057d919061103d565b60405160208183030381529060405280519060200120905060015f8281526020019081526020015f205f8481526020019081526020015f205491505092915050565b6001602052815f5260405f20602052805f5260405f205f91509150505481565b5f80826040516020016105f2919061103d565b60405160208183030381529060405280519060200120905080915050919050565b6002602052815f5260405f20818154811061062c575f80fd5b905f5260205f20015f91509150505481565b5f82604051602001610650919061103d565b604051602081830303815290604052805190602001209050610671816106d8565b6106b0576040517f08c379a00000000000000000000000000000000000000000000000000000000081526004016106a79061125d565b60405180910390fd5b60015f8281526020019081526020015f205f8381526020019081526020015f205f9055505050565b5f805f90505b5f8054905081101561072357825f82815481106106fe576106fd61127b565b5b905f5260205f20015403610716576001915050610728565b80806001019150506106de565b505f90505b919050565b60605f80548060200260200160405190810160405280929190818152602001828054801561077857602002820191905f5260205f20905b815481526020019060010190808311610764575b5050505050905090565b5f83604051602001610794919061103d565b6040516020818303038152906040528051906020012090505f60015f8381526020019081526020015f205f8581526020019081526020015f2054905082811015610813576040517f08c379a000000000000000000000000000000000000000000000000000000000815260040161080a90611318565b60405180910390fd5b5f83826108209190611160565b90508060015f8581526020019081526020015f205f8781526020019081526020015f20819055508486604051610856919061103d565b60405180910390207f63d7dc4e1bfe09268eefbb72d02331f90bafd230c3d4c63d6250e1025c080880864260405161088f9291906111c6565b60405180910390a3505050505050565b5f816040516020016108b1919061103d565b6040516020818303038152906040528051906020012090505f67ffffffffffffffff8111156108e3576108e2610b11565b5b6040519080825280602002602001820160405280156109115781602001602082028036833780820191505090505b5060025f8381526020019081526020015f209080519060200190610936929190610a82565b5060015f8281526020019081526020015f205f8081526020019081526020015f20505f81908060018154018082558091505060019003905f5260205f20015f90919091909150555050565b5f83604051602001610993919061103d565b6040516020818303038152906040528051906020012090505f82116109ed576040517f08c379a00000000000000000000000000000000000000000000000000000000081526004016109e4906113a6565b60405180910390fd5b5f821115610a7c578160015f8381526020019081526020015f205f8581526020019081526020015f205f828254610a249190611193565b925050819055508284604051610a3a919061103d565b60405180910390207f139ec90f7c10344b0316e9c3f6b81254b4e872f0927228c243612606ba76b5bc8442604051610a739291906111c6565b60405180910390a35b50505050565b828054828255905f5260205f20908101928215610abc579160200282015b82811115610abb578251825591602001919060010190610aa0565b5b509050610ac99190610acd565b5090565b5b80821115610ae4575f815f905550600101610ace565b5090565b5f604051905090565b5f80fd5b5f80fd5b5f80fd5b5f80fd5b5f601f19601f8301169050919050565b7f4e487b71000000000000000000000000000000000000000000000000000000005f52604160045260245ffd5b610b4782610b01565b810181811067ffffffffffffffff82111715610b6657610b65610b11565b5b80604052505050565b5f610b78610ae8565b9050610b848282610b3e565b919050565b5f67ffffffffffffffff821115610ba357610ba2610b11565b5b610bac82610b01565b9050602081019050919050565b828183375f83830152505050565b5f610bd9610bd484610b89565b610b6f565b905082815260208101848484011115610bf557610bf4610afd565b5b610c00848285610bb9565b509392505050565b5f82601f830112610c1c57610c1b610af9565b5b8135610c2c848260208601610bc7565b91505092915050565b5f819050919050565b610c4781610c35565b8114610c51575f80fd5b50565b5f81359050610c6281610c3e565b92915050565b5f805f60608486031215610c7f57610c7e610af1565b5b5f84013567ffffffffffffffff811115610c9c57610c9b610af5565b5b610ca886828701610c08565b9350506020610cb986828701610c54565b9250506040610cca86828701610c54565b9150509250925092565b5f805f8060808587031215610cec57610ceb610af1565b5b5f85013567ffffffffffffffff811115610d0957610d08610af5565b5b610d1587828801610c08565b9450506020610d2687828801610c54565b9350506040610d3787828801610c54565b9250506060610d4887828801610c54565b91505092959194509250565b5f8060408385031215610d6a57610d69610af1565b5b5f83013567ffffffffffffffff811115610d8757610d86610af5565b5b610d9385828601610c08565b9250506020610da485828601610c54565b9150509250929050565b610db781610c35565b82525050565b5f602082019050610dd05f830184610dae565b92915050565b5f819050919050565b610de881610dd6565b8114610df2575f80fd5b50565b5f81359050610e0381610ddf565b92915050565b5f8060408385031215610e1f57610e1e610af1565b5b5f610e2c85828601610df5565b9250506020610e3d85828601610c54565b9150509250929050565b5f60208284031215610e5c57610e5b610af1565b5b5f82013567ffffffffffffffff811115610e7957610e78610af5565b5b610e8584828501610c08565b91505092915050565b610e9781610dd6565b82525050565b5f602082019050610eb05f830184610e8e565b92915050565b5f60208284031215610ecb57610eca610af1565b5b5f610ed884828501610df5565b91505092915050565b5f8115159050919050565b610ef581610ee1565b82525050565b5f602082019050610f0e5f830184610eec565b92915050565b5f81519050919050565b5f82825260208201905092915050565b5f819050602082019050919050565b610f4681610dd6565b82525050565b5f610f578383610f3d565b60208301905092915050565b5f602082019050919050565b5f610f7982610f14565b610f838185610f1e565b9350610f8e83610f2e565b805f5b83811015610fbe578151610fa58882610f4c565b9750610fb083610f63565b925050600181019050610f91565b5085935050505092915050565b5f6020820190508181035f830152610fe38184610f6f565b905092915050565b5f81519050919050565b5f81905092915050565b8281835e5f83830152505050565b5f61101782610feb565b6110218185610ff5565b9350611031818560208601610fff565b80840191505092915050565b5f611048828461100d565b915081905092915050565b5f82825260208201905092915050565b7f53746f726520646f6573206e6f742065786973740000000000000000000000005f82015250565b5f611097601483611053565b91506110a282611063565b602082019050919050565b5f6020820190508181035f8301526110c48161108b565b9050919050565b7f437573746f6d657220494420616c7265616479206578697374730000000000005f82015250565b5f6110ff601a83611053565b915061110a826110cb565b602082019050919050565b5f6020820190508181035f83015261112c816110f3565b9050919050565b7f4e487b71000000000000000000000000000000000000000000000000000000005f52601160045260245ffd5b5f61116a82610c35565b915061117583610c35565b925082820390508181111561118d5761118c611133565b5b92915050565b5f61119d82610c35565b91506111a883610c35565b92508282019050808211156111c0576111bf611133565b5b92915050565b5f6040820190506111d95f830185610dae565b6111e66020830184610dae565b9392505050565b7f456c656d656e7420646f6573206e6f7420657869737420696e207468652061725f8201527f7261790000000000000000000000000000000000000000000000000000000000602082015250565b5f611247602383611053565b9150611252826111ed565b604082019050919050565b5f6020820190508181035f8301526112748161123b565b9050919050565b7f4e487b71000000000000000000000000000000000000000000000000000000005f52603260045260245ffd5b7f496e73756666696369656e742062616c616e636520746f2070757263686173655f8201527f206974656d000000000000000000000000000000000000000000000000000000602082015250565b5f611302602583611053565b915061130d826112a8565b604082019050919050565b5f6020820190508181035f83015261132f816112f6565b9050919050565b7f506f696e7473206164646564206d7573742062652067726561746572207468615f8201527f6e20300000000000000000000000000000000000000000000000000000000000602082015250565b5f611390602383611053565b915061139b82611336565b604082019050919050565b5f6020820190508181035f8301526113bd81611384565b905091905056fea2646970667358221220f0978857ee68a73be1b0e37b984fb5eda5ba8151aaf3f37af8530978d7efe37b64736f6c63430008190033",
			"opcodes": "PUSH1 0x80 PUSH1 0x40 MSTORE CALLVALUE DUP1 ISZERO PUSH1 0xE JUMPI PUSH0 DUP1 REVERT JUMPDEST POP PUSH2 0x13FA DUP1 PUSH2 0x1C PUSH0 CODECOPY PUSH0 RETURN INVALID PUSH1 0x80 PUSH1 0x40 MSTORE CALLVALUE DUP1 ISZERO PUSH2 0xF JUMPI PUSH0 DUP1 REVERT JUMPDEST POP PUSH1 0x4 CALLDATASIZE LT PUSH2 0xCD JUMPI PUSH0 CALLDATALOAD PUSH1 0xE0 SHR DUP1 PUSH4 0x7C49FEBB GT PUSH2 0x8A JUMPI DUP1 PUSH4 0x92A51AEB GT PUSH2 0x64 JUMPI DUP1 PUSH4 0x92A51AEB EQ PUSH2 0x231 JUMPI DUP1 PUSH4 0xA2FFDCD6 EQ PUSH2 0x24F JUMPI DUP1 PUSH4 0xD0E04FE3 EQ PUSH2 0x26B JUMPI DUP1 PUSH4 0xE82BCFEA EQ PUSH2 0x287 JUMPI PUSH2 0xCD JUMP JUMPDEST DUP1 PUSH4 0x7C49FEBB EQ PUSH2 0x1B5 JUMPI DUP1 PUSH4 0x89E9BFEC EQ PUSH2 0x1E5 JUMPI DUP1 PUSH4 0x8B2D7C55 EQ PUSH2 0x201 JUMPI PUSH2 0xCD JUMP JUMPDEST DUP1 PUSH4 0x1A231600 EQ PUSH2 0xD1 JUMPI DUP1 PUSH4 0x2A8E9219 EQ PUSH2 0xED JUMPI DUP1 PUSH4 0x4E64F16D EQ PUSH2 0x109 JUMPI DUP1 PUSH4 0x5B709861 EQ PUSH2 0x125 JUMPI DUP1 PUSH4 0x66EBF414 EQ PUSH2 0x155 JUMPI DUP1 PUSH4 0x71E4FD37 EQ PUSH2 0x185 JUMPI JUMPDEST PUSH0 DUP1 REVERT JUMPDEST PUSH2 0xEB PUSH1 0x4 DUP1 CALLDATASIZE SUB DUP2 ADD SWAP1 PUSH2 0xE6 SWAP2 SWAP1 PUSH2 0xC68 JUMP JUMPDEST PUSH2 0x2A3 JUMP JUMPDEST STOP JUMPDEST PUSH2 0x107 PUSH1 0x4 DUP1 CALLDATASIZE SUB DUP2 ADD SWAP1 PUSH2 0x102 SWAP2 SWAP1 PUSH2 0xC68 JUMP JUMPDEST PUSH2 0x3A2 JUMP JUMPDEST STOP JUMPDEST PUSH2 0x123 PUSH1 0x4 DUP1 CALLDATASIZE SUB DUP2 ADD SWAP1 PUSH2 0x11E SWAP2 SWAP1 PUSH2 0xCD4 JUMP JUMPDEST PUSH2 0x3F7 JUMP JUMPDEST STOP JUMPDEST PUSH2 0x13F PUSH1 0x4 DUP1 CALLDATASIZE SUB DUP2 ADD SWAP1 PUSH2 0x13A SWAP2 SWAP1 PUSH2 0xD54 JUMP JUMPDEST PUSH2 0x56A JUMP JUMPDEST PUSH1 0x40 MLOAD PUSH2 0x14C SWAP2 SWAP1 PUSH2 0xDBD JUMP JUMPDEST PUSH1 0x40 MLOAD DUP1 SWAP2 SUB SWAP1 RETURN JUMPDEST PUSH2 0x16F PUSH1 0x4 DUP1 CALLDATASIZE SUB DUP2 ADD SWAP1 PUSH2 0x16A SWAP2 SWAP1 PUSH2 0xE09 JUMP JUMPDEST PUSH2 0x5BF JUMP JUMPDEST PUSH1 0x40 MLOAD PUSH2 0x17C SWAP2 SWAP1 PUSH2 0xDBD JUMP JUMPDEST PUSH1 0x40 MLOAD DUP1 SWAP2 SUB SWAP1 RETURN JUMPDEST PUSH2 0x19F PUSH1 0x4 DUP1 CALLDATASIZE SUB DUP2 ADD SWAP1 PUSH2 0x19A SWAP2 SWAP1 PUSH2 0xE47 JUMP JUMPDEST PUSH2 0x5DF JUMP JUMPDEST PUSH1 0x40 MLOAD PUSH2 0x1AC SWAP2 SWAP1 PUSH2 0xE9D JUMP JUMPDEST PUSH1 0x40 MLOAD DUP1 SWAP2 SUB SWAP1 RETURN JUMPDEST PUSH2 0x1CF PUSH1 0x4 DUP1 CALLDATASIZE SUB DUP2 ADD SWAP1 PUSH2 0x1CA SWAP2 SWAP1 PUSH2 0xE09 JUMP JUMPDEST PUSH2 0x613 JUMP JUMPDEST PUSH1 0x40 MLOAD PUSH2 0x1DC SWAP2 SWAP1 PUSH2 0xDBD JUMP JUMPDEST PUSH1 0x40 MLOAD DUP1 SWAP2 SUB SWAP1 RETURN JUMPDEST PUSH2 0x1FF PUSH1 0x4 DUP1 CALLDATASIZE SUB DUP2 ADD SWAP1 PUSH2 0x1FA SWAP2 SWAP1 PUSH2 0xD54 JUMP JUMPDEST PUSH2 0x63E JUMP JUMPDEST STOP JUMPDEST PUSH2 0x21B PUSH1 0x4 DUP1 CALLDATASIZE SUB DUP2 ADD SWAP1 PUSH2 0x216 SWAP2 SWAP1 PUSH2 0xEB6 JUMP JUMPDEST PUSH2 0x6D8 JUMP JUMPDEST PUSH1 0x40 MLOAD PUSH2 0x228 SWAP2 SWAP1 PUSH2 0xEFB JUMP JUMPDEST PUSH1 0x40 MLOAD DUP1 SWAP2 SUB SWAP1 RETURN JUMPDEST PUSH2 0x239 PUSH2 0x72D JUMP JUMPDEST PUSH1 0x40 MLOAD PUSH2 0x246 SWAP2 SWAP1 PUSH2 0xFCB JUMP JUMPDEST PUSH1 0x40 MLOAD DUP1 SWAP2 SUB SWAP1 RETURN JUMPDEST PUSH2 0x269 PUSH1 0x4 DUP1 CALLDATASIZE SUB DUP2 ADD SWAP1 PUSH2 0x264 SWAP2 SWAP1 PUSH2 0xC68 JUMP JUMPDEST PUSH2 0x782 JUMP JUMPDEST STOP JUMPDEST PUSH2 0x285 PUSH1 0x4 DUP1 CALLDATASIZE SUB DUP2 ADD SWAP1 PUSH2 0x280 SWAP2 SWAP1 PUSH2 0xE47 JUMP JUMPDEST PUSH2 0x89F JUMP JUMPDEST STOP JUMPDEST PUSH2 0x2A1 PUSH1 0x4 DUP1 CALLDATASIZE SUB DUP2 ADD SWAP1 PUSH2 0x29C SWAP2 SWAP1 PUSH2 0xC68 JUMP JUMPDEST PUSH2 0x981 JUMP JUMPDEST STOP JUMPDEST PUSH0 DUP4 PUSH1 0x40 MLOAD PUSH1 0x20 ADD PUSH2 0x2B5 SWAP2 SWAP1 PUSH2 0x103D JUMP JUMPDEST PUSH1 0x40 MLOAD PUSH1 0x20 DUP2 DUP4 SUB SUB DUP2 MSTORE SWAP1 PUSH1 0x40 MSTORE DUP1 MLOAD SWAP1 PUSH1 0x20 ADD KECCAK256 SWAP1 POP PUSH2 0x2D6 DUP2 PUSH2 0x6D8 JUMP JUMPDEST PUSH2 0x315 JUMPI PUSH1 0x40 MLOAD PUSH32 0x8C379A000000000000000000000000000000000000000000000000000000000 DUP2 MSTORE PUSH1 0x4 ADD PUSH2 0x30C SWAP1 PUSH2 0x10AD JUMP JUMPDEST PUSH1 0x40 MLOAD DUP1 SWAP2 SUB SWAP1 REVERT JUMPDEST PUSH0 PUSH1 0x1 PUSH0 DUP4 DUP2 MSTORE PUSH1 0x20 ADD SWAP1 DUP2 MSTORE PUSH1 0x20 ADD PUSH0 KECCAK256 PUSH0 DUP6 DUP2 MSTORE PUSH1 0x20 ADD SWAP1 DUP2 MSTORE PUSH1 0x20 ADD PUSH0 KECCAK256 SLOAD EQ PUSH2 0x377 JUMPI PUSH1 0x40 MLOAD PUSH32 0x8C379A000000000000000000000000000000000000000000000000000000000 DUP2 MSTORE PUSH1 0x4 ADD PUSH2 0x36E SWAP1 PUSH2 0x1115 JUMP JUMPDEST PUSH1 0x40 MLOAD DUP1 SWAP2 SUB SWAP1 REVERT JUMPDEST DUP2 PUSH1 0x1 PUSH0 DUP4 DUP2 MSTORE PUSH1 0x20 ADD SWAP1 DUP2 MSTORE PUSH1 0x20 ADD PUSH0 KECCAK256 PUSH0 DUP6 DUP2 MSTORE PUSH1 0x20 ADD SWAP1 DUP2 MSTORE PUSH1 0x20 ADD PUSH0 KECCAK256 DUP2 SWAP1 SSTORE POP POP POP POP POP JUMP JUMPDEST PUSH0 DUP4 PUSH1 0x40 MLOAD PUSH1 0x20 ADD PUSH2 0x3B4 SWAP2 SWAP1 PUSH2 0x103D JUMP JUMPDEST PUSH1 0x40 MLOAD PUSH1 0x20 DUP2 DUP4 SUB SUB DUP2 MSTORE SWAP1 PUSH1 0x40 MSTORE DUP1 MLOAD SWAP1 PUSH1 0x20 ADD KECCAK256 SWAP1 POP DUP2 PUSH1 0x1 PUSH0 DUP4 DUP2 MSTORE PUSH1 0x20 ADD SWAP1 DUP2 MSTORE PUSH1 0x20 ADD PUSH0 KECCAK256 PUSH0 DUP6 DUP2 MSTORE PUSH1 0x20 ADD SWAP1 DUP2 MSTORE PUSH1 0x20 ADD PUSH0 KECCAK256 DUP2 SWAP1 SSTORE POP POP POP POP POP JUMP JUMPDEST PUSH0 DUP5 PUSH1 0x40 MLOAD PUSH1 0x20 ADD PUSH2 0x409 SWAP2 SWAP1 PUSH2 0x103D JUMP JUMPDEST PUSH1 0x40 MLOAD PUSH1 0x20 DUP2 DUP4 SUB SUB DUP2 MSTORE SWAP1 PUSH1 0x40 MSTORE DUP1 MLOAD SWAP1 PUSH1 0x20 ADD KECCAK256 SWAP1 POP DUP2 PUSH1 0x1 PUSH0 DUP4 DUP2 MSTORE PUSH1 0x20 ADD SWAP1 DUP2 MSTORE PUSH1 0x20 ADD PUSH0 KECCAK256 PUSH0 DUP7 DUP2 MSTORE PUSH1 0x20 ADD SWAP1 DUP2 MSTORE PUSH1 0x20 ADD PUSH0 KECCAK256 SLOAD PUSH2 0x44D SWAP2 SWAP1 PUSH2 0x1160 JUMP JUMPDEST PUSH1 0x1 PUSH0 DUP4 DUP2 MSTORE PUSH1 0x20 ADD SWAP1 DUP2 MSTORE PUSH1 0x20 ADD PUSH0 KECCAK256 PUSH0 DUP7 DUP2 MSTORE PUSH1 0x20 ADD SWAP1 DUP2 MSTORE PUSH1 0x20 ADD PUSH0 KECCAK256 DUP2 SWAP1 SSTORE POP DUP2 PUSH1 0x1 PUSH0 DUP4 DUP2 MSTORE PUSH1 0x20 ADD SWAP1 DUP2 MSTORE PUSH1 0x20 ADD PUSH0 KECCAK256 PUSH0 DUP6 DUP2 MSTORE PUSH1 0x20 ADD SWAP1 DUP2 MSTORE PUSH1 0x20 ADD PUSH0 KECCAK256 SLOAD PUSH2 0x49D SWAP2 SWAP1 PUSH2 0x1193 JUMP JUMPDEST PUSH1 0x1 PUSH0 DUP4 DUP2 MSTORE PUSH1 0x20 ADD SWAP1 DUP2 MSTORE PUSH1 0x20 ADD PUSH0 KECCAK256 PUSH0 DUP6 DUP2 MSTORE PUSH1 0x20 ADD SWAP1 DUP2 MSTORE PUSH1 0x20 ADD PUSH0 KECCAK256 DUP2 SWAP1 SSTORE POP DUP3 DUP5 DUP7 PUSH1 0x40 MLOAD PUSH2 0x4D1 SWAP2 SWAP1 PUSH2 0x103D JUMP JUMPDEST PUSH1 0x40 MLOAD DUP1 SWAP2 SUB SWAP1 KECCAK256 PUSH32 0xE946CD1DE3989F1370C07DDD001B890D97324B93D3809644FCFF2C8B299C7042 DUP6 TIMESTAMP PUSH1 0x40 MLOAD PUSH2 0x50A SWAP3 SWAP2 SWAP1 PUSH2 0x11C6 JUMP JUMPDEST PUSH1 0x40 MLOAD DUP1 SWAP2 SUB SWAP1 LOG4 DUP4 DUP4 DUP7 PUSH1 0x40 MLOAD PUSH2 0x522 SWAP2 SWAP1 PUSH2 0x103D JUMP JUMPDEST PUSH1 0x40 MLOAD DUP1 SWAP2 SUB SWAP1 KECCAK256 PUSH32 0x5913475C1A51E3BA07BE9077197C0CBB7FDC06450C5B00BB1724D1B284981F3F DUP6 TIMESTAMP PUSH1 0x40 MLOAD PUSH2 0x55B SWAP3 SWAP2 SWAP1 PUSH2 0x11C6 JUMP JUMPDEST PUSH1 0x40 MLOAD DUP1 SWAP2 SUB SWAP1 LOG4 POP POP POP POP POP JUMP JUMPDEST PUSH0 DUP1 DUP4 PUSH1 0x40 MLOAD PUSH1 0x20 ADD PUSH2 0x57D SWAP2 SWAP1 PUSH2 0x103D JUMP JUMPDEST PUSH1 0x40 MLOAD PUSH1 0x20 DUP2 DUP4 SUB SUB DUP2 MSTORE SWAP1 PUSH1 0x40 MSTORE DUP1 MLOAD SWAP1 PUSH1 0x20 ADD KECCAK256 SWAP1 POP PUSH1 0x1 PUSH0 DUP3 DUP2 MSTORE PUSH1 0x20 ADD SWAP1 DUP2 MSTORE PUSH1 0x20 ADD PUSH0 KECCAK256 PUSH0 DUP5 DUP2 MSTORE PUSH1 0x20 ADD SWAP1 DUP2 MSTORE PUSH1 0x20 ADD PUSH0 KECCAK256 SLOAD SWAP2 POP POP SWAP3 SWAP2 POP POP JUMP JUMPDEST PUSH1 0x1 PUSH1 0x20 MSTORE DUP2 PUSH0 MSTORE PUSH1 0x40 PUSH0 KECCAK256 PUSH1 0x20 MSTORE DUP1 PUSH0 MSTORE PUSH1 0x40 PUSH0 KECCAK256 PUSH0 SWAP2 POP SWAP2 POP POP SLOAD DUP2 JUMP JUMPDEST PUSH0 DUP1 DUP3 PUSH1 0x40 MLOAD PUSH1 0x20 ADD PUSH2 0x5F2 SWAP2 SWAP1 PUSH2 0x103D JUMP JUMPDEST PUSH1 0x40 MLOAD PUSH1 0x20 DUP2 DUP4 SUB SUB DUP2 MSTORE SWAP1 PUSH1 0x40 MSTORE DUP1 MLOAD SWAP1 PUSH1 0x20 ADD KECCAK256 SWAP1 POP DUP1 SWAP2 POP POP SWAP2 SWAP1 POP JUMP JUMPDEST PUSH1 0x2 PUSH1 0x20 MSTORE DUP2 PUSH0 MSTORE PUSH1 0x40 PUSH0 KECCAK256 DUP2 DUP2 SLOAD DUP2 LT PUSH2 0x62C JUMPI PUSH0 DUP1 REVERT JUMPDEST SWAP1 PUSH0 MSTORE PUSH1 0x20 PUSH0 KECCAK256 ADD PUSH0 SWAP2 POP SWAP2 POP POP SLOAD DUP2 JUMP JUMPDEST PUSH0 DUP3 PUSH1 0x40 MLOAD PUSH1 0x20 ADD PUSH2 0x650 SWAP2 SWAP1 PUSH2 0x103D JUMP JUMPDEST PUSH1 0x40 MLOAD PUSH1 0x20 DUP2 DUP4 SUB SUB DUP2 MSTORE SWAP1 PUSH1 0x40 MSTORE DUP1 MLOAD SWAP1 PUSH1 0x20 ADD KECCAK256 SWAP1 POP PUSH2 0x671 DUP2 PUSH2 0x6D8 JUMP JUMPDEST PUSH2 0x6B0 JUMPI PUSH1 0x40 MLOAD PUSH32 0x8C379A000000000000000000000000000000000000000000000000000000000 DUP2 MSTORE PUSH1 0x4 ADD PUSH2 0x6A7 SWAP1 PUSH2 0x125D JUMP JUMPDEST PUSH1 0x40 MLOAD DUP1 SWAP2 SUB SWAP1 REVERT JUMPDEST PUSH1 0x1 PUSH0 DUP3 DUP2 MSTORE PUSH1 0x20 ADD SWAP1 DUP2 MSTORE PUSH1 0x20 ADD PUSH0 KECCAK256 PUSH0 DUP4 DUP2 MSTORE PUSH1 0x20 ADD SWAP1 DUP2 MSTORE PUSH1 0x20 ADD PUSH0 KECCAK256 PUSH0 SWAP1 SSTORE POP POP POP JUMP JUMPDEST PUSH0 DUP1 PUSH0 SWAP1 POP JUMPDEST PUSH0 DUP1 SLOAD SWAP1 POP DUP2 LT ISZERO PUSH2 0x723 JUMPI DUP3 PUSH0 DUP3 DUP2 SLOAD DUP2 LT PUSH2 0x6FE JUMPI PUSH2 0x6FD PUSH2 0x127B JUMP JUMPDEST JUMPDEST SWAP1 PUSH0 MSTORE PUSH1 0x20 PUSH0 KECCAK256 ADD SLOAD SUB PUSH2 0x716 JUMPI PUSH1 0x1 SWAP2 POP POP PUSH2 0x728 JUMP JUMPDEST DUP1 DUP1 PUSH1 0x1 ADD SWAP2 POP POP PUSH2 0x6DE JUMP JUMPDEST POP PUSH0 SWAP1 POP JUMPDEST SWAP2 SWAP1 POP JUMP JUMPDEST PUSH1 0x60 PUSH0 DUP1 SLOAD DUP1 PUSH1 0x20 MUL PUSH1 0x20 ADD PUSH1 0x40 MLOAD SWAP1 DUP2 ADD PUSH1 0x40 MSTORE DUP1 SWAP3 SWAP2 SWAP1 DUP2 DUP2 MSTORE PUSH1 0x20 ADD DUP3 DUP1 SLOAD DUP1 ISZERO PUSH2 0x778 JUMPI PUSH1 0x20 MUL DUP3 ADD SWAP2 SWAP1 PUSH0 MSTORE PUSH1 0x20 PUSH0 KECCAK256 SWAP1 JUMPDEST DUP2 SLOAD DUP2 MSTORE PUSH1 0x20 ADD SWAP1 PUSH1 0x1 ADD SWAP1 DUP1 DUP4 GT PUSH2 0x764 JUMPI JUMPDEST POP POP POP POP POP SWAP1 POP SWAP1 JUMP JUMPDEST PUSH0 DUP4 PUSH1 0x40 MLOAD PUSH1 0x20 ADD PUSH2 0x794 SWAP2 SWAP1 PUSH2 0x103D JUMP JUMPDEST PUSH1 0x40 MLOAD PUSH1 0x20 DUP2 DUP4 SUB SUB DUP2 MSTORE SWAP1 PUSH1 0x40 MSTORE DUP1 MLOAD SWAP1 PUSH1 0x20 ADD KECCAK256 SWAP1 POP PUSH0 PUSH1 0x1 PUSH0 DUP4 DUP2 MSTORE PUSH1 0x20 ADD SWAP1 DUP2 MSTORE PUSH1 0x20 ADD PUSH0 KECCAK256 PUSH0 DUP6 DUP2 MSTORE PUSH1 0x20 ADD SWAP1 DUP2 MSTORE PUSH1 0x20 ADD PUSH0 KECCAK256 SLOAD SWAP1 POP DUP3 DUP2 LT ISZERO PUSH2 0x813 JUMPI PUSH1 0x40 MLOAD PUSH32 0x8C379A000000000000000000000000000000000000000000000000000000000 DUP2 MSTORE PUSH1 0x4 ADD PUSH2 0x80A SWAP1 PUSH2 0x1318 JUMP JUMPDEST PUSH1 0x40 MLOAD DUP1 SWAP2 SUB SWAP1 REVERT JUMPDEST PUSH0 DUP4 DUP3 PUSH2 0x820 SWAP2 SWAP1 PUSH2 0x1160 JUMP JUMPDEST SWAP1 POP DUP1 PUSH1 0x1 PUSH0 DUP6 DUP2 MSTORE PUSH1 0x20 ADD SWAP1 DUP2 MSTORE PUSH1 0x20 ADD PUSH0 KECCAK256 PUSH0 DUP8 DUP2 MSTORE PUSH1 0x20 ADD SWAP1 DUP2 MSTORE PUSH1 0x20 ADD PUSH0 KECCAK256 DUP2 SWAP1 SSTORE POP DUP5 DUP7 PUSH1 0x40 MLOAD PUSH2 0x856 SWAP2 SWAP1 PUSH2 0x103D JUMP JUMPDEST PUSH1 0x40 MLOAD DUP1 SWAP2 SUB SWAP1 KECCAK256 PUSH32 0x63D7DC4E1BFE09268EEFBB72D02331F90BAFD230C3D4C63D6250E1025C080880 DUP7 TIMESTAMP PUSH1 0x40 MLOAD PUSH2 0x88F SWAP3 SWAP2 SWAP1 PUSH2 0x11C6 JUMP JUMPDEST PUSH1 0x40 MLOAD DUP1 SWAP2 SUB SWAP1 LOG3 POP POP POP POP POP POP JUMP JUMPDEST PUSH0 DUP2 PUSH1 0x40 MLOAD PUSH1 0x20 ADD PUSH2 0x8B1 SWAP2 SWAP1 PUSH2 0x103D JUMP JUMPDEST PUSH1 0x40 MLOAD PUSH1 0x20 DUP2 DUP4 SUB SUB DUP2 MSTORE SWAP1 PUSH1 0x40 MSTORE DUP1 MLOAD SWAP1 PUSH1 0x20 ADD KECCAK256 SWAP1 POP PUSH0 PUSH8 0xFFFFFFFFFFFFFFFF DUP2 GT ISZERO PUSH2 0x8E3 JUMPI PUSH2 0x8E2 PUSH2 0xB11 JUMP JUMPDEST JUMPDEST PUSH1 0x40 MLOAD SWAP1 DUP1 DUP3 MSTORE DUP1 PUSH1 0x20 MUL PUSH1 0x20 ADD DUP3 ADD PUSH1 0x40 MSTORE DUP1 ISZERO PUSH2 0x911 JUMPI DUP2 PUSH1 0x20 ADD PUSH1 0x20 DUP3 MUL DUP1 CALLDATASIZE DUP4 CALLDATACOPY DUP1 DUP3 ADD SWAP2 POP POP SWAP1 POP JUMPDEST POP PUSH1 0x2 PUSH0 DUP4 DUP2 MSTORE PUSH1 0x20 ADD SWAP1 DUP2 MSTORE PUSH1 0x20 ADD PUSH0 KECCAK256 SWAP1 DUP1 MLOAD SWAP1 PUSH1 0x20 ADD SWAP1 PUSH2 0x936 SWAP3 SWAP2 SWAP1 PUSH2 0xA82 JUMP JUMPDEST POP PUSH1 0x1 PUSH0 DUP3 DUP2 MSTORE PUSH1 0x20 ADD SWAP1 DUP2 MSTORE PUSH1 0x20 ADD PUSH0 KECCAK256 PUSH0 DUP1 DUP2 MSTORE PUSH1 0x20 ADD SWAP1 DUP2 MSTORE PUSH1 0x20 ADD PUSH0 KECCAK256 POP PUSH0 DUP2 SWAP1 DUP1 PUSH1 0x1 DUP2 SLOAD ADD DUP1 DUP3 SSTORE DUP1 SWAP2 POP POP PUSH1 0x1 SWAP1 SUB SWAP1 PUSH0 MSTORE PUSH1 0x20 PUSH0 KECCAK256 ADD PUSH0 SWAP1 SWAP2 SWAP1 SWAP2 SWAP1 SWAP2 POP SSTORE POP POP JUMP JUMPDEST PUSH0 DUP4 PUSH1 0x40 MLOAD PUSH1 0x20 ADD PUSH2 0x993 SWAP2 SWAP1 PUSH2 0x103D JUMP JUMPDEST PUSH1 0x40 MLOAD PUSH1 0x20 DUP2 DUP4 SUB SUB DUP2 MSTORE SWAP1 PUSH1 0x40 MSTORE DUP1 MLOAD SWAP1 PUSH1 0x20 ADD KECCAK256 SWAP1 POP PUSH0 DUP3 GT PUSH2 0x9ED JUMPI PUSH1 0x40 MLOAD PUSH32 0x8C379A000000000000000000000000000000000000000000000000000000000 DUP2 MSTORE PUSH1 0x4 ADD PUSH2 0x9E4 SWAP1 PUSH2 0x13A6 JUMP JUMPDEST PUSH1 0x40 MLOAD DUP1 SWAP2 SUB SWAP1 REVERT JUMPDEST PUSH0 DUP3 GT ISZERO PUSH2 0xA7C JUMPI DUP2 PUSH1 0x1 PUSH0 DUP4 DUP2 MSTORE PUSH1 0x20 ADD SWAP1 DUP2 MSTORE PUSH1 0x20 ADD PUSH0 KECCAK256 PUSH0 DUP6 DUP2 MSTORE PUSH1 0x20 ADD SWAP1 DUP2 MSTORE PUSH1 0x20 ADD PUSH0 KECCAK256 PUSH0 DUP3 DUP3 SLOAD PUSH2 0xA24 SWAP2 SWAP1 PUSH2 0x1193 JUMP JUMPDEST SWAP3 POP POP DUP2 SWAP1 SSTORE POP DUP3 DUP5 PUSH1 0x40 MLOAD PUSH2 0xA3A SWAP2 SWAP1 PUSH2 0x103D JUMP JUMPDEST PUSH1 0x40 MLOAD DUP1 SWAP2 SUB SWAP1 KECCAK256 PUSH32 0x139EC90F7C10344B0316E9C3F6B81254B4E872F0927228C243612606BA76B5BC DUP5 TIMESTAMP PUSH1 0x40 MLOAD PUSH2 0xA73 SWAP3 SWAP2 SWAP1 PUSH2 0x11C6 JUMP JUMPDEST PUSH1 0x40 MLOAD DUP1 SWAP2 SUB SWAP1 LOG3 JUMPDEST POP POP POP POP JUMP JUMPDEST DUP3 DUP1 SLOAD DUP3 DUP3 SSTORE SWAP1 PUSH0 MSTORE PUSH1 0x20 PUSH0 KECCAK256 SWAP1 DUP2 ADD SWAP3 DUP3 ISZERO PUSH2 0xABC JUMPI SWAP2 PUSH1 0x20 MUL DUP3 ADD JUMPDEST DUP3 DUP2 GT ISZERO PUSH2 0xABB JUMPI DUP3 MLOAD DUP3 SSTORE SWAP2 PUSH1 0x20 ADD SWAP2 SWAP1 PUSH1 0x1 ADD SWAP1 PUSH2 0xAA0 JUMP JUMPDEST JUMPDEST POP SWAP1 POP PUSH2 0xAC9 SWAP2 SWAP1 PUSH2 0xACD JUMP JUMPDEST POP SWAP1 JUMP JUMPDEST JUMPDEST DUP1 DUP3 GT ISZERO PUSH2 0xAE4 JUMPI PUSH0 DUP2 PUSH0 SWAP1 SSTORE POP PUSH1 0x1 ADD PUSH2 0xACE JUMP JUMPDEST POP SWAP1 JUMP JUMPDEST PUSH0 PUSH1 0x40 MLOAD SWAP1 POP SWAP1 JUMP JUMPDEST PUSH0 DUP1 REVERT JUMPDEST PUSH0 DUP1 REVERT JUMPDEST PUSH0 DUP1 REVERT JUMPDEST PUSH0 DUP1 REVERT JUMPDEST PUSH0 PUSH1 0x1F NOT PUSH1 0x1F DUP4 ADD AND SWAP1 POP SWAP2 SWAP1 POP JUMP JUMPDEST PUSH32 0x4E487B7100000000000000000000000000000000000000000000000000000000 PUSH0 MSTORE PUSH1 0x41 PUSH1 0x4 MSTORE PUSH1 0x24 PUSH0 REVERT JUMPDEST PUSH2 0xB47 DUP3 PUSH2 0xB01 JUMP JUMPDEST DUP2 ADD DUP2 DUP2 LT PUSH8 0xFFFFFFFFFFFFFFFF DUP3 GT OR ISZERO PUSH2 0xB66 JUMPI PUSH2 0xB65 PUSH2 0xB11 JUMP JUMPDEST JUMPDEST DUP1 PUSH1 0x40 MSTORE POP POP POP JUMP JUMPDEST PUSH0 PUSH2 0xB78 PUSH2 0xAE8 JUMP JUMPDEST SWAP1 POP PUSH2 0xB84 DUP3 DUP3 PUSH2 0xB3E JUMP JUMPDEST SWAP2 SWAP1 POP JUMP JUMPDEST PUSH0 PUSH8 0xFFFFFFFFFFFFFFFF DUP3 GT ISZERO PUSH2 0xBA3 JUMPI PUSH2 0xBA2 PUSH2 0xB11 JUMP JUMPDEST JUMPDEST PUSH2 0xBAC DUP3 PUSH2 0xB01 JUMP JUMPDEST SWAP1 POP PUSH1 0x20 DUP2 ADD SWAP1 POP SWAP2 SWAP1 POP JUMP JUMPDEST DUP3 DUP2 DUP4 CALLDATACOPY PUSH0 DUP4 DUP4 ADD MSTORE POP POP POP JUMP JUMPDEST PUSH0 PUSH2 0xBD9 PUSH2 0xBD4 DUP5 PUSH2 0xB89 JUMP JUMPDEST PUSH2 0xB6F JUMP JUMPDEST SWAP1 POP DUP3 DUP2 MSTORE PUSH1 0x20 DUP2 ADD DUP5 DUP5 DUP5 ADD GT ISZERO PUSH2 0xBF5 JUMPI PUSH2 0xBF4 PUSH2 0xAFD JUMP JUMPDEST JUMPDEST PUSH2 0xC00 DUP5 DUP3 DUP6 PUSH2 0xBB9 JUMP JUMPDEST POP SWAP4 SWAP3 POP POP POP JUMP JUMPDEST PUSH0 DUP3 PUSH1 0x1F DUP4 ADD SLT PUSH2 0xC1C JUMPI PUSH2 0xC1B PUSH2 0xAF9 JUMP JUMPDEST JUMPDEST DUP2 CALLDATALOAD PUSH2 0xC2C DUP5 DUP3 PUSH1 0x20 DUP7 ADD PUSH2 0xBC7 JUMP JUMPDEST SWAP2 POP POP SWAP3 SWAP2 POP POP JUMP JUMPDEST PUSH0 DUP2 SWAP1 POP SWAP2 SWAP1 POP JUMP JUMPDEST PUSH2 0xC47 DUP2 PUSH2 0xC35 JUMP JUMPDEST DUP2 EQ PUSH2 0xC51 JUMPI PUSH0 DUP1 REVERT JUMPDEST POP JUMP JUMPDEST PUSH0 DUP2 CALLDATALOAD SWAP1 POP PUSH2 0xC62 DUP2 PUSH2 0xC3E JUMP JUMPDEST SWAP3 SWAP2 POP POP JUMP JUMPDEST PUSH0 DUP1 PUSH0 PUSH1 0x60 DUP5 DUP7 SUB SLT ISZERO PUSH2 0xC7F JUMPI PUSH2 0xC7E PUSH2 0xAF1 JUMP JUMPDEST JUMPDEST PUSH0 DUP5 ADD CALLDATALOAD PUSH8 0xFFFFFFFFFFFFFFFF DUP2 GT ISZERO PUSH2 0xC9C JUMPI PUSH2 0xC9B PUSH2 0xAF5 JUMP JUMPDEST JUMPDEST PUSH2 0xCA8 DUP7 DUP3 DUP8 ADD PUSH2 0xC08 JUMP JUMPDEST SWAP4 POP POP PUSH1 0x20 PUSH2 0xCB9 DUP7 DUP3 DUP8 ADD PUSH2 0xC54 JUMP JUMPDEST SWAP3 POP POP PUSH1 0x40 PUSH2 0xCCA DUP7 DUP3 DUP8 ADD PUSH2 0xC54 JUMP JUMPDEST SWAP2 POP POP SWAP3 POP SWAP3 POP SWAP3 JUMP JUMPDEST PUSH0 DUP1 PUSH0 DUP1 PUSH1 0x80 DUP6 DUP8 SUB SLT ISZERO PUSH2 0xCEC JUMPI PUSH2 0xCEB PUSH2 0xAF1 JUMP JUMPDEST JUMPDEST PUSH0 DUP6 ADD CALLDATALOAD PUSH8 0xFFFFFFFFFFFFFFFF DUP2 GT ISZERO PUSH2 0xD09 JUMPI PUSH2 0xD08 PUSH2 0xAF5 JUMP JUMPDEST JUMPDEST PUSH2 0xD15 DUP8 DUP3 DUP9 ADD PUSH2 0xC08 JUMP JUMPDEST SWAP5 POP POP PUSH1 0x20 PUSH2 0xD26 DUP8 DUP3 DUP9 ADD PUSH2 0xC54 JUMP JUMPDEST SWAP4 POP POP PUSH1 0x40 PUSH2 0xD37 DUP8 DUP3 DUP9 ADD PUSH2 0xC54 JUMP JUMPDEST SWAP3 POP POP PUSH1 0x60 PUSH2 0xD48 DUP8 DUP3 DUP9 ADD PUSH2 0xC54 JUMP JUMPDEST SWAP2 POP POP SWAP3 SWAP6 SWAP2 SWAP5 POP SWAP3 POP JUMP JUMPDEST PUSH0 DUP1 PUSH1 0x40 DUP4 DUP6 SUB SLT ISZERO PUSH2 0xD6A JUMPI PUSH2 0xD69 PUSH2 0xAF1 JUMP JUMPDEST JUMPDEST PUSH0 DUP4 ADD CALLDATALOAD PUSH8 0xFFFFFFFFFFFFFFFF DUP2 GT ISZERO PUSH2 0xD87 JUMPI PUSH2 0xD86 PUSH2 0xAF5 JUMP JUMPDEST JUMPDEST PUSH2 0xD93 DUP6 DUP3 DUP7 ADD PUSH2 0xC08 JUMP JUMPDEST SWAP3 POP POP PUSH1 0x20 PUSH2 0xDA4 DUP6 DUP3 DUP7 ADD PUSH2 0xC54 JUMP JUMPDEST SWAP2 POP POP SWAP3 POP SWAP3 SWAP1 POP JUMP JUMPDEST PUSH2 0xDB7 DUP2 PUSH2 0xC35 JUMP JUMPDEST DUP3 MSTORE POP POP JUMP JUMPDEST PUSH0 PUSH1 0x20 DUP3 ADD SWAP1 POP PUSH2 0xDD0 PUSH0 DUP4 ADD DUP5 PUSH2 0xDAE JUMP JUMPDEST SWAP3 SWAP2 POP POP JUMP JUMPDEST PUSH0 DUP2 SWAP1 POP SWAP2 SWAP1 POP JUMP JUMPDEST PUSH2 0xDE8 DUP2 PUSH2 0xDD6 JUMP JUMPDEST DUP2 EQ PUSH2 0xDF2 JUMPI PUSH0 DUP1 REVERT JUMPDEST POP JUMP JUMPDEST PUSH0 DUP2 CALLDATALOAD SWAP1 POP PUSH2 0xE03 DUP2 PUSH2 0xDDF JUMP JUMPDEST SWAP3 SWAP2 POP POP JUMP JUMPDEST PUSH0 DUP1 PUSH1 0x40 DUP4 DUP6 SUB SLT ISZERO PUSH2 0xE1F JUMPI PUSH2 0xE1E PUSH2 0xAF1 JUMP JUMPDEST JUMPDEST PUSH0 PUSH2 0xE2C DUP6 DUP3 DUP7 ADD PUSH2 0xDF5 JUMP JUMPDEST SWAP3 POP POP PUSH1 0x20 PUSH2 0xE3D DUP6 DUP3 DUP7 ADD PUSH2 0xC54 JUMP JUMPDEST SWAP2 POP POP SWAP3 POP SWAP3 SWAP1 POP JUMP JUMPDEST PUSH0 PUSH1 0x20 DUP3 DUP5 SUB SLT ISZERO PUSH2 0xE5C JUMPI PUSH2 0xE5B PUSH2 0xAF1 JUMP JUMPDEST JUMPDEST PUSH0 DUP3 ADD CALLDATALOAD PUSH8 0xFFFFFFFFFFFFFFFF DUP2 GT ISZERO PUSH2 0xE79 JUMPI PUSH2 0xE78 PUSH2 0xAF5 JUMP JUMPDEST JUMPDEST PUSH2 0xE85 DUP5 DUP3 DUP6 ADD PUSH2 0xC08 JUMP JUMPDEST SWAP2 POP POP SWAP3 SWAP2 POP POP JUMP JUMPDEST PUSH2 0xE97 DUP2 PUSH2 0xDD6 JUMP JUMPDEST DUP3 MSTORE POP POP JUMP JUMPDEST PUSH0 PUSH1 0x20 DUP3 ADD SWAP1 POP PUSH2 0xEB0 PUSH0 DUP4 ADD DUP5 PUSH2 0xE8E JUMP JUMPDEST SWAP3 SWAP2 POP POP JUMP JUMPDEST PUSH0 PUSH1 0x20 DUP3 DUP5 SUB SLT ISZERO PUSH2 0xECB JUMPI PUSH2 0xECA PUSH2 0xAF1 JUMP JUMPDEST JUMPDEST PUSH0 PUSH2 0xED8 DUP5 DUP3 DUP6 ADD PUSH2 0xDF5 JUMP JUMPDEST SWAP2 POP POP SWAP3 SWAP2 POP POP JUMP JUMPDEST PUSH0 DUP2 ISZERO ISZERO SWAP1 POP SWAP2 SWAP1 POP JUMP JUMPDEST PUSH2 0xEF5 DUP2 PUSH2 0xEE1 JUMP JUMPDEST DUP3 MSTORE POP POP JUMP JUMPDEST PUSH0 PUSH1 0x20 DUP3 ADD SWAP1 POP PUSH2 0xF0E PUSH0 DUP4 ADD DUP5 PUSH2 0xEEC JUMP JUMPDEST SWAP3 SWAP2 POP POP JUMP JUMPDEST PUSH0 DUP2 MLOAD SWAP1 POP SWAP2 SWAP1 POP JUMP JUMPDEST PUSH0 DUP3 DUP3 MSTORE PUSH1 0x20 DUP3 ADD SWAP1 POP SWAP3 SWAP2 POP POP JUMP JUMPDEST PUSH0 DUP2 SWAP1 POP PUSH1 0x20 DUP3 ADD SWAP1 POP SWAP2 SWAP1 POP JUMP JUMPDEST PUSH2 0xF46 DUP2 PUSH2 0xDD6 JUMP JUMPDEST DUP3 MSTORE POP POP JUMP JUMPDEST PUSH0 PUSH2 0xF57 DUP4 DUP4 PUSH2 0xF3D JUMP JUMPDEST PUSH1 0x20 DUP4 ADD SWAP1 POP SWAP3 SWAP2 POP POP JUMP JUMPDEST PUSH0 PUSH1 0x20 DUP3 ADD SWAP1 POP SWAP2 SWAP1 POP JUMP JUMPDEST PUSH0 PUSH2 0xF79 DUP3 PUSH2 0xF14 JUMP JUMPDEST PUSH2 0xF83 DUP2 DUP6 PUSH2 0xF1E JUMP JUMPDEST SWAP4 POP PUSH2 0xF8E DUP4 PUSH2 0xF2E JUMP JUMPDEST DUP1 PUSH0 JUMPDEST DUP4 DUP2 LT ISZERO PUSH2 0xFBE JUMPI DUP2 MLOAD PUSH2 0xFA5 DUP9 DUP3 PUSH2 0xF4C JUMP JUMPDEST SWAP8 POP PUSH2 0xFB0 DUP4 PUSH2 0xF63 JUMP JUMPDEST SWAP3 POP POP PUSH1 0x1 DUP2 ADD SWAP1 POP PUSH2 0xF91 JUMP JUMPDEST POP DUP6 SWAP4 POP POP POP POP SWAP3 SWAP2 POP POP JUMP JUMPDEST PUSH0 PUSH1 0x20 DUP3 ADD SWAP1 POP DUP2 DUP2 SUB PUSH0 DUP4 ADD MSTORE PUSH2 0xFE3 DUP2 DUP5 PUSH2 0xF6F JUMP JUMPDEST SWAP1 POP SWAP3 SWAP2 POP POP JUMP JUMPDEST PUSH0 DUP2 MLOAD SWAP1 POP SWAP2 SWAP1 POP JUMP JUMPDEST PUSH0 DUP2 SWAP1 POP SWAP3 SWAP2 POP POP JUMP JUMPDEST DUP3 DUP2 DUP4 MCOPY PUSH0 DUP4 DUP4 ADD MSTORE POP POP POP JUMP JUMPDEST PUSH0 PUSH2 0x1017 DUP3 PUSH2 0xFEB JUMP JUMPDEST PUSH2 0x1021 DUP2 DUP6 PUSH2 0xFF5 JUMP JUMPDEST SWAP4 POP PUSH2 0x1031 DUP2 DUP6 PUSH1 0x20 DUP7 ADD PUSH2 0xFFF JUMP JUMPDEST DUP1 DUP5 ADD SWAP2 POP POP SWAP3 SWAP2 POP POP JUMP JUMPDEST PUSH0 PUSH2 0x1048 DUP3 DUP5 PUSH2 0x100D JUMP JUMPDEST SWAP2 POP DUP2 SWAP1 POP SWAP3 SWAP2 POP POP JUMP JUMPDEST PUSH0 DUP3 DUP3 MSTORE PUSH1 0x20 DUP3 ADD SWAP1 POP SWAP3 SWAP2 POP POP JUMP JUMPDEST PUSH32 0x53746F726520646F6573206E6F74206578697374000000000000000000000000 PUSH0 DUP3 ADD MSTORE POP JUMP JUMPDEST PUSH0 PUSH2 0x1097 PUSH1 0x14 DUP4 PUSH2 0x1053 JUMP JUMPDEST SWAP2 POP PUSH2 0x10A2 DUP3 PUSH2 0x1063 JUMP JUMPDEST PUSH1 0x20 DUP3 ADD SWAP1 POP SWAP2 SWAP1 POP JUMP JUMPDEST PUSH0 PUSH1 0x20 DUP3 ADD SWAP1 POP DUP2 DUP2 SUB PUSH0 DUP4 ADD MSTORE PUSH2 0x10C4 DUP2 PUSH2 0x108B JUMP JUMPDEST SWAP1 POP SWAP2 SWAP1 POP JUMP JUMPDEST PUSH32 0x437573746F6D657220494420616C726561647920657869737473000000000000 PUSH0 DUP3 ADD MSTORE POP JUMP JUMPDEST PUSH0 PUSH2 0x10FF PUSH1 0x1A DUP4 PUSH2 0x1053 JUMP JUMPDEST SWAP2 POP PUSH2 0x110A DUP3 PUSH2 0x10CB JUMP JUMPDEST PUSH1 0x20 DUP3 ADD SWAP1 POP SWAP2 SWAP1 POP JUMP JUMPDEST PUSH0 PUSH1 0x20 DUP3 ADD SWAP1 POP DUP2 DUP2 SUB PUSH0 DUP4 ADD MSTORE PUSH2 0x112C DUP2 PUSH2 0x10F3 JUMP JUMPDEST SWAP1 POP SWAP2 SWAP1 POP JUMP JUMPDEST PUSH32 0x4E487B7100000000000000000000000000000000000000000000000000000000 PUSH0 MSTORE PUSH1 0x11 PUSH1 0x4 MSTORE PUSH1 0x24 PUSH0 REVERT JUMPDEST PUSH0 PUSH2 0x116A DUP3 PUSH2 0xC35 JUMP JUMPDEST SWAP2 POP PUSH2 0x1175 DUP4 PUSH2 0xC35 JUMP JUMPDEST SWAP3 POP DUP3 DUP3 SUB SWAP1 POP DUP2 DUP2 GT ISZERO PUSH2 0x118D JUMPI PUSH2 0x118C PUSH2 0x1133 JUMP JUMPDEST JUMPDEST SWAP3 SWAP2 POP POP JUMP JUMPDEST PUSH0 PUSH2 0x119D DUP3 PUSH2 0xC35 JUMP JUMPDEST SWAP2 POP PUSH2 0x11A8 DUP4 PUSH2 0xC35 JUMP JUMPDEST SWAP3 POP DUP3 DUP3 ADD SWAP1 POP DUP1 DUP3 GT ISZERO PUSH2 0x11C0 JUMPI PUSH2 0x11BF PUSH2 0x1133 JUMP JUMPDEST JUMPDEST SWAP3 SWAP2 POP POP JUMP JUMPDEST PUSH0 PUSH1 0x40 DUP3 ADD SWAP1 POP PUSH2 0x11D9 PUSH0 DUP4 ADD DUP6 PUSH2 0xDAE JUMP JUMPDEST PUSH2 0x11E6 PUSH1 0x20 DUP4 ADD DUP5 PUSH2 0xDAE JUMP JUMPDEST SWAP4 SWAP3 POP POP POP JUMP JUMPDEST PUSH32 0x456C656D656E7420646F6573206E6F7420657869737420696E20746865206172 PUSH0 DUP3 ADD MSTORE PUSH32 0x7261790000000000000000000000000000000000000000000000000000000000 PUSH1 0x20 DUP3 ADD MSTORE POP JUMP JUMPDEST PUSH0 PUSH2 0x1247 PUSH1 0x23 DUP4 PUSH2 0x1053 JUMP JUMPDEST SWAP2 POP PUSH2 0x1252 DUP3 PUSH2 0x11ED JUMP JUMPDEST PUSH1 0x40 DUP3 ADD SWAP1 POP SWAP2 SWAP1 POP JUMP JUMPDEST PUSH0 PUSH1 0x20 DUP3 ADD SWAP1 POP DUP2 DUP2 SUB PUSH0 DUP4 ADD MSTORE PUSH2 0x1274 DUP2 PUSH2 0x123B JUMP JUMPDEST SWAP1 POP SWAP2 SWAP1 POP JUMP JUMPDEST PUSH32 0x4E487B7100000000000000000000000000000000000000000000000000000000 PUSH0 MSTORE PUSH1 0x32 PUSH1 0x4 MSTORE PUSH1 0x24 PUSH0 REVERT JUMPDEST PUSH32 0x496E73756666696369656E742062616C616E636520746F207075726368617365 PUSH0 DUP3 ADD MSTORE PUSH32 0x206974656D000000000000000000000000000000000000000000000000000000 PUSH1 0x20 DUP3 ADD MSTORE POP JUMP JUMPDEST PUSH0 PUSH2 0x1302 PUSH1 0x25 DUP4 PUSH2 0x1053 JUMP JUMPDEST SWAP2 POP PUSH2 0x130D DUP3 PUSH2 0x12A8 JUMP JUMPDEST PUSH1 0x40 DUP3 ADD SWAP1 POP SWAP2 SWAP1 POP JUMP JUMPDEST PUSH0 PUSH1 0x20 DUP3 ADD SWAP1 POP DUP2 DUP2 SUB PUSH0 DUP4 ADD MSTORE PUSH2 0x132F DUP2 PUSH2 0x12F6 JUMP JUMPDEST SWAP1 POP SWAP2 SWAP1 POP JUMP JUMPDEST PUSH32 0x506F696E7473206164646564206D757374206265206772656174657220746861 PUSH0 DUP3 ADD MSTORE PUSH32 0x6E20300000000000000000000000000000000000000000000000000000000000 PUSH1 0x20 DUP3 ADD MSTORE POP JUMP JUMPDEST PUSH0 PUSH2 0x1390 PUSH1 0x23 DUP4 PUSH2 0x1053 JUMP JUMPDEST SWAP2 POP PUSH2 0x139B DUP3 PUSH2 0x1336 JUMP JUMPDEST PUSH1 0x40 DUP3 ADD SWAP1 POP SWAP2 SWAP1 POP JUMP JUMPDEST PUSH0 PUSH1 0x20 DUP3 ADD SWAP1 POP DUP2 DUP2 SUB PUSH0 DUP4 ADD MSTORE PUSH2 0x13BD DUP2 PUSH2 0x1384 JUMP JUMPDEST SWAP1 POP SWAP2 SWAP1 POP JUMP INVALID LOG2 PUSH5 0x6970667358 0x22 SLT KECCAK256 CREATE SWAP8 DUP9 JUMPI 0xEE PUSH9 0xA73BE1B0E37B984FB5 0xED 0xA5 0xBA DUP2 MLOAD 0xAA RETURN RETURN PUSH27 0xF8530978D7EFE37B64736F6C634300081900330000000000000000 "
		},
		"gasEstimates": {
			"creation": {
				"codeDepositCost": "1022800",
				"executionCost": "1059",
				"totalCost": "1023859"
			},
			"external": {
				"Balances(bytes32,uint256)": "infinite",
				"CustomersID(bytes32,uint256)": "infinite",
				"checkStoreExists(bytes32)": "infinite",
				"createCard(string,uint256,uint256)": "infinite",
				"createStore(string)": "infinite",
				"deleteCard(string,uint256)": "infinite",
				"getBalance(string,uint256)": "infinite",
				"getHashedStore(string)": "infinite",
				"itemBought(string,uint256,uint256)": "infinite",
				"rERC5b4PoR51qWEvAWuJsX6yRVRBvRVta7(string,uint256,uint256)": "infinite",
				"returnStores()": "infinite",
				"setBalance(string,uint256,uint256)": "infinite",
				"transferPoints(string,uint256,uint256,uint256)": "infinite"
			}
		},
		"methodIdentifiers": {
			"Balances(bytes32,uint256)": "66ebf414",
			"CustomersID(bytes32,uint256)": "7c49febb",
			"checkStoreExists(bytes32)": "8b2d7c55",
			"createCard(string,uint256,uint256)": "1a231600",
			"createStore(string)": "d0e04fe3",
			"deleteCard(string,uint256)": "89e9bfec",
			"getBalance(string,uint256)": "5b709861",
			"getHashedStore(string)": "71e4fd37",
			"itemBought(string,uint256,uint256)": "a2ffdcd6",
			"rERC5b4PoR51qWEvAWuJsX6yRVRBvRVta7(string,uint256,uint256)": "e82bcfea",
			"returnStores()": "92a51aeb",
			"setBalance(string,uint256,uint256)": "2a8e9219",
			"transferPoints(string,uint256,uint256,uint256)": "4e64f16d"
		}
	},
	"abi": [
		{
			"anonymous": false,
			"inputs": [
				{
					"indexed": true,
					"internalType": "string",
					"name": "store",
					"type": "string"
				},
				{
					"indexed": true,
					"internalType": "uint256",
					"name": "customerId",
					"type": "uint256"
				},
				{
					"indexed": false,
					"internalType": "uint256",
					"name": "itemPrice",
					"type": "uint256"
				},
				{
					"indexed": false,
					"internalType": "uint256",
					"name": "timestamp",
					"type": "uint256"
				}
			],
			"name": "ItemPurchased",
			"type": "event"
		},
		{
			"anonymous": false,
			"inputs": [
				{
					"indexed": true,
					"internalType": "string",
					"name": "store",
					"type": "string"
				},
				{
					"indexed": true,
					"internalType": "uint256",
					"name": "customerId",
					"type": "uint256"
				},
				{
					"indexed": false,
					"internalType": "uint256",
					"name": "pointsReceived",
					"type": "uint256"
				},
				{
					"indexed": false,
					"internalType": "uint256",
					"name": "timestamp",
					"type": "uint256"
				}
			],
			"name": "PointsAdded",
			"type": "event"
		},
		{
			"anonymous": false,
			"inputs": [
				{
					"indexed": true,
					"internalType": "string",
					"name": "store",
					"type": "string"
				},
				{
					"indexed": true,
					"internalType": "uint256",
					"name": "toId",
					"type": "uint256"
				},
				{
					"indexed": true,
					"internalType": "uint256",
					"name": "fromId",
					"type": "uint256"
				},
				{
					"indexed": false,
					"internalType": "uint256",
					"name": "amount",
					"type": "uint256"
				},
				{
					"indexed": false,
					"internalType": "uint256",
					"name": "timestamp",
					"type": "uint256"
				}
			],
			"name": "PointsReceived",
			"type": "event"
		},
		{
			"anonymous": false,
			"inputs": [
				{
					"indexed": true,
					"internalType": "string",
					"name": "store",
					"type": "string"
				},
				{
					"indexed": true,
					"internalType": "uint256",
					"name": "fromId",
					"type": "uint256"
				},
				{
					"indexed": true,
					"internalType": "uint256",
					"name": "toId",
					"type": "uint256"
				},
				{
					"indexed": false,
					"internalType": "uint256",
					"name": "amount",
					"type": "uint256"
				},
				{
					"indexed": false,
					"internalType": "uint256",
					"name": "timestamp",
					"type": "uint256"
				}
			],
			"name": "PointsTransferred",
			"type": "event"
		},
		{
			"inputs": [
				{
					"internalType": "bytes32",
					"name": "",
					"type": "bytes32"
				},
				{
					"internalType": "uint256",
					"name": "",
					"type": "uint256"
				}
			],
			"name": "Balances",
			"outputs": [
				{
					"internalType": "uint256",
					"name": "",
					"type": "uint256"
				}
			],
			"stateMutability": "view",
			"type": "function"
		},
		{
			"inputs": [
				{
					"internalType": "bytes32",
					"name": "",
					"type": "bytes32"
				},
				{
					"internalType": "uint256",
					"name": "",
					"type": "uint256"
				}
			],
			"name": "CustomersID",
			"outputs": [
				{
					"internalType": "uint256",
					"name": "",
					"type": "uint256"
				}
			],
			"stateMutability": "view",
			"type": "function"
		},
		{
			"inputs": [
				{
					"internalType": "bytes32",
					"name": "_store",
					"type": "bytes32"
				}
			],
			"name": "checkStoreExists",
			"outputs": [
				{
					"internalType": "bool",
					"name": "",
					"type": "bool"
				}
			],
			"stateMutability": "view",
			"type": "function"
		},
		{
			"inputs": [
				{
					"internalType": "string",
					"name": "_store",
					"type": "string"
				},
				{
					"internalType": "uint256",
					"name": "_id",
					"type": "uint256"
				},
				{
					"internalType": "uint256",
					"name": "_initialBalance",
					"type": "uint256"
				}
			],
			"name": "createCard",
			"outputs": [],
			"stateMutability": "nonpayable",
			"type": "function"
		},
		{
			"inputs": [
				{
					"internalType": "string",
					"name": "store_name",
					"type": "string"
				}
			],
			"name": "createStore",
			"outputs": [],
			"stateMutability": "nonpayable",
			"type": "function"
		},
		{
			"inputs": [
				{
					"internalType": "string",
					"name": "_store",
					"type": "string"
				},
				{
					"internalType": "uint256",
					"name": "_id",
					"type": "uint256"
				}
			],
			"name": "deleteCard",
			"outputs": [],
			"stateMutability": "nonpayable",
			"type": "function"
		},
		{
			"inputs": [
				{
					"internalType": "string",
					"name": "_store",
					"type": "string"
				},
				{
					"internalType": "uint256",
					"name": "customer_id",
					"type": "uint256"
				}
			],
			"name": "getBalance",
			"outputs": [
				{
					"internalType": "uint256",
					"name": "",
					"type": "uint256"
				}
			],
			"stateMutability": "view",
			"type": "function"
		},
		{
			"inputs": [
				{
					"internalType": "string",
					"name": "_store",
					"type": "string"
				}
			],
			"name": "getHashedStore",
			"outputs": [
				{
					"internalType": "bytes32",
					"name": "",
					"type": "bytes32"
				}
			],
			"stateMutability": "pure",
			"type": "function"
		},
		{
			"inputs": [
				{
					"internalType": "string",
					"name": "_store",
					"type": "string"
				},
				{
					"internalType": "uint256",
					"name": "_customer",
					"type": "uint256"
				},
				{
					"internalType": "uint256",
					"name": "item_price",
					"type": "uint256"
				}
			],
			"name": "itemBought",
			"outputs": [],
			"stateMutability": "nonpayable",
			"type": "function"
		},
		{
			"inputs": [
				{
					"internalType": "string",
					"name": "_store",
					"type": "string"
				},
				{
					"internalType": "uint256",
					"name": "_customer",
					"type": "uint256"
				},
				{
					"internalType": "uint256",
					"name": "pointsAdded",
					"type": "uint256"
				}
			],
			"name": "rERC5b4PoR51qWEvAWuJsX6yRVRBvRVta7",
			"outputs": [],
			"stateMutability": "nonpayable",
			"type": "function"
		},
		{
			"inputs": [],
			"name": "returnStores",
			"outputs": [
				{
					"internalType": "bytes32[]",
					"name": "",
					"type": "bytes32[]"
				}
			],
			"stateMutability": "view",
			"type": "function"
		},
		{
			"inputs": [
				{
					"internalType": "string",
					"name": "_store",
					"type": "string"
				},
				{
					"internalType": "uint256",
					"name": "customer_id",
					"type": "uint256"
				},
				{
					"internalType": "uint256",
					"name": "new_balance",
					"type": "uint256"
				}
			],
			"name": "setBalance",
			"outputs": [],
			"stateMutability": "nonpayable",
			"type": "function"
		},
		{
			"inputs": [
				{
					"internalType": "string",
					"name": "_store",
					"type": "string"
				},
				{
					"internalType": "uint256",
					"name": "_from",
					"type": "uint256"
				},
				{
					"internalType": "uint256",
					"name": "_to",
					"type": "uint256"
				},
				{
					"internalType": "uint256",
					"name": "_amount",
					"type": "uint256"
				}
			],
			"name": "transferPoints",
			"outputs": [],
			"stateMutability": "nonpayable",
			"type": "function"
		}
	]
}