{
	"pcd2/LoyaltyChain.sol": {
		"LoyaltyChain": {
			"abi": [
				{
					"anonymous": false,
					"inputs": [
						{
							"indexed": true,
							"internalType": "string",
							"name": "store",
							"type": "string"
						},
						{
							"indexed": true,
							"internalType": "uint256",
							"name": "customerId",
							"type": "uint256"
						},
						{
							"indexed": false,
							"internalType": "uint256",
							"name": "itemPrice",
							"type": "uint256"
						},
						{
							"indexed": false,
							"internalType": "uint256",
							"name": "timestamp",
							"type": "uint256"
						}
					],
					"name": "ItemPurchased",
					"type": "event"
				},
				{
					"anonymous": false,
					"inputs": [
						{
							"indexed": true,
							"internalType": "string",
							"name": "store",
							"type": "string"
						},
						{
							"indexed": true,
							"internalType": "uint256",
							"name": "customerId",
							"type": "uint256"
						},
						{
							"indexed": false,
							"internalType": "uint256",
							"name": "pointsReceived",
							"type": "uint256"
						},
						{
							"indexed": false,
							"internalType": "uint256",
							"name": "timestamp",
							"type": "uint256"
						}
					],
					"name": "PointsAdded",
					"type": "event"
				},
				{
					"anonymous": false,
					"inputs": [
						{
							"indexed": true,
							"internalType": "string",
							"name": "store",
							"type": "string"
						},
						{
							"indexed": true,
							"internalType": "uint256",
							"name": "toId",
							"type": "uint256"
						},
						{
							"indexed": true,
							"internalType": "uint256",
							"name": "fromId",
							"type": "uint256"
						},
						{
							"indexed": false,
							"internalType": "uint256",
							"name": "amount",
							"type": "uint256"
						},
						{
							"indexed": false,
							"internalType": "uint256",
							"name": "timestamp",
							"type": "uint256"
						}
					],
					"name": "PointsReceived",
					"type": "event"
				},
				{
					"anonymous": false,
					"inputs": [
						{
							"indexed": true,
							"internalType": "string",
							"name": "store",
							"type": "string"
						},
						{
							"indexed": true,
							"internalType": "uint256",
							"name": "fromId",
							"type": "uint256"
						},
						{
							"indexed": true,
							"internalType": "uint256",
							"name": "toId",
							"type": "uint256"
						},
						{
							"indexed": false,
							"internalType": "uint256",
							"name": "amount",
							"type": "uint256"
						},
						{
							"indexed": false,
							"internalType": "uint256",
							"name": "timestamp",
							"type": "uint256"
						}
					],
					"name": "PointsTransferred",
					"type": "event"
				},
				{
					"inputs": [
						{
							"internalType": "bytes32",
							"name": "",
							"type": "bytes32"
						},
						{
							"internalType": "uint256",
							"name": "",
							"type": "uint256"
						}
					],
					"name": "Balances",
					"outputs": [
						{
							"internalType": "uint256",
							"name": "",
							"type": "uint256"
						}
					],
					"stateMutability": "view",
					"type": "function"
				},
				{
					"inputs": [
						{
							"internalType": "bytes32",
							"name": "",
							"type": "bytes32"
						},
						{
							"internalType": "uint256",
							"name": "",
							"type": "uint256"
						}
					],
					"name": "CustomersID",
					"outputs": [
						{
							"internalType": "uint256",
							"name": "",
							"type": "uint256"
						}
					],
					"stateMutability": "view",
					"type": "function"
				},
				{
					"inputs": [
						{
							"internalType": "bytes32",
							"name": "_store",
							"type": "bytes32"
						}
					],
					"name": "checkStoreExists",
					"outputs": [
						{
							"internalType": "bool",
							"name": "",
							"type": "bool"
						}
					],
					"stateMutability": "view",
					"type": "function"
				},
				{
					"inputs": [
						{
							"internalType": "string",
							"name": "_store",
							"type": "string"
						},
						{
							"internalType": "uint256",
							"name": "_id",
							"type": "uint256"
						},
						{
							"internalType": "uint256",
							"name": "_initialBalance",
							"type": "uint256"
						}
					],
					"name": "createCard",
					"outputs": [],
					"stateMutability": "nonpayable",
					"type": "function"
				},
				{
					"inputs": [
						{
							"internalType": "string",
							"name": "store_name",
							"type": "string"
						}
					],
					"name": "createStore",
					"outputs": [],
					"stateMutability": "nonpayable",
					"type": "function"
				},
				{
					"inputs": [
						{
							"internalType": "string",
							"name": "_store",
							"type": "string"
						},
						{
							"internalType": "uint256",
							"name": "_id",
							"type": "uint256"
						}
					],
					"name": "deleteCard",
					"outputs": [],
					"stateMutability": "nonpayable",
					"type": "function"
				},
				{
					"inputs": [
						{
							"internalType": "string",
							"name": "_store",
							"type": "string"
						},
						{
							"internalType": "uint256",
							"name": "customer_id",
							"type": "uint256"
						}
					],
					"name": "getBalance",
					"outputs": [
						{
							"internalType": "uint256",
							"name": "",
							"type": "uint256"
						}
					],
					"stateMutability": "view",
					"type": "function"
				},
				{
					"inputs": [
						{
							"internalType": "string",
							"name": "_store",
							"type": "string"
						}
					],
					"name": "getHashedStore",
					"outputs": [
						{
							"internalType": "bytes32",
							"name": "",
							"type": "bytes32"
						}
					],
					"stateMutability": "pure",
					"type": "function"
				},
				{
					"inputs": [
						{
							"internalType": "string",
							"name": "_store",
							"type": "string"
						},
						{
							"internalType": "uint256",
							"name": "_customer",
							"type": "uint256"
						},
						{
							"internalType": "uint256",
							"name": "item_price",
							"type": "uint256"
						}
					],
					"name": "itemBought",
					"outputs": [],
					"stateMutability": "nonpayable",
					"type": "function"
				},
				{
					"inputs": [
						{
							"internalType": "string",
							"name": "_store",
							"type": "string"
						},
						{
							"internalType": "uint256",
							"name": "_customer",
							"type": "uint256"
						},
						{
							"internalType": "uint256",
							"name": "pointsAdded",
							"type": "uint256"
						}
					],
					"name": "rERC5b4PoR51qWEvAWuJsX6yRVRBvRVta7",
					"outputs": [],
					"stateMutability": "nonpayable",
					"type": "function"
				},
				{
					"inputs": [],
					"name": "returnStores",
					"outputs": [
						{
							"internalType": "bytes32[]",
							"name": "",
							"type": "bytes32[]"
						}
					],
					"stateMutability": "view",
					"type": "function"
				},
				{
					"inputs": [
						{
							"internalType": "string",
							"name": "_store",
							"type": "string"
						},
						{
							"internalType": "uint256",
							"name": "customer_id",
							"type": "uint256"
						},
						{
							"internalType": "uint256",
							"name": "new_balance",
							"type": "uint256"
						}
					],
					"name": "setBalance",
					"outputs": [],
					"stateMutability": "nonpayable",
					"type": "function"
				},
				{
					"inputs": [
						{
							"internalType": "string",
							"name": "_store",
							"type": "string"
						},
						{
							"internalType": "uint256",
							"name": "_from",
							"type": "uint256"
						},
						{
							"internalType": "uint256",
							"name": "_to",
							"type": "uint256"
						},
						{
							"internalType": "uint256",
							"name": "_amount",
							"type": "uint256"
						}
					],
					"name": "transferPoints",
					"outputs": [],
					"stateMutability": "nonpayable",
					"type": "function"
				}
			],
			"devdoc": {
				"kind": "dev",
				"methods": {},
				"version": 1
			},
			"evm": {
				"assembly": "    /* \"pcd2/LoyaltyChain.sol\":62:4401  contract LoyaltyChain {... */\n  mstore(0x40, 0x80)\n  callvalue\n  dup1\n  iszero\n  tag_1\n  jumpi\n  0x00\n  dup1\n  revert\ntag_1:\n  pop\n  dataSize(sub_0)\n  dup1\n  dataOffset(sub_0)\n  0x00\n  codecopy\n  0x00\n  return\nstop\n\nsub_0: assembly {\n        /* \"pcd2/LoyaltyChain.sol\":62:4401  contract LoyaltyChain {... */\n      mstore(0x40, 0x80)\n      callvalue\n      dup1\n      iszero\n      tag_1\n      jumpi\n      0x00\n      dup1\n      revert\n    tag_1:\n      pop\n      jumpi(tag_2, lt(calldatasize, 0x04))\n      shr(0xe0, calldataload(0x00))\n      dup1\n      0x7c49febb\n      gt\n      tag_16\n      jumpi\n      dup1\n      0x92a51aeb\n      gt\n      tag_17\n      jumpi\n      dup1\n      0x92a51aeb\n      eq\n      tag_12\n      jumpi\n      dup1\n      0xa2ffdcd6\n      eq\n      tag_13\n      jumpi\n      dup1\n      0xd0e04fe3\n      eq\n      tag_14\n      jumpi\n      dup1\n      0xe82bcfea\n      eq\n      tag_15\n      jumpi\n      jump(tag_2)\n    tag_17:\n      dup1\n      0x7c49febb\n      eq\n      tag_9\n      jumpi\n      dup1\n      0x89e9bfec\n      eq\n      tag_10\n      jumpi\n      dup1\n      0x8b2d7c55\n      eq\n      tag_11\n      jumpi\n      jump(tag_2)\n    tag_16:\n      dup1\n      0x1a231600\n      eq\n      tag_3\n      jumpi\n      dup1\n      0x2a8e9219\n      eq\n      tag_4\n      jumpi\n      dup1\n      0x4e64f16d\n      eq\n      tag_5\n      jumpi\n      dup1\n      0x5b709861\n      eq\n      tag_6\n      jumpi\n      dup1\n      0x66ebf414\n      eq\n      tag_7\n      jumpi\n      dup1\n      0x71e4fd37\n      eq\n      tag_8\n      jumpi\n    tag_2:\n      0x00\n      dup1\n      revert\n        /* \"pcd2/LoyaltyChain.sol\":1145:1603  function createCard(string memory _store, uint256 _id, uint256 _initialBalance) public {... */\n    tag_3:\n      tag_18\n      0x04\n      dup1\n      calldatasize\n      sub\n      dup2\n      add\n      swap1\n      tag_19\n      swap2\n      swap1\n      tag_20\n      jump\t// in\n    tag_19:\n      tag_21\n      jump\t// in\n    tag_18:\n      stop\n        /* \"pcd2/LoyaltyChain.sol\":2159:2380  function setBalance(string memory _store, uint256 customer_id,uint256 new_balance) public {... */\n    tag_4:\n      tag_22\n      0x04\n      dup1\n      calldatasize\n      sub\n      dup2\n      add\n      swap1\n      tag_23\n      swap2\n      swap1\n      tag_20\n      jump\t// in\n    tag_23:\n      tag_24\n      jump\t// in\n    tag_22:\n      stop\n        /* \"pcd2/LoyaltyChain.sol\":2428:2897  function transferPoints (string memory _store, uint256 _from, uint256 _to, uint256 _amount) public {... */\n    tag_5:\n      tag_25\n      0x04\n      dup1\n      calldatasize\n      sub\n      dup2\n      add\n      swap1\n      tag_26\n      swap2\n      swap1\n      tag_27\n      jump\t// in\n    tag_26:\n      tag_28\n      jump\t// in\n    tag_25:\n      stop\n        /* \"pcd2/LoyaltyChain.sol\":1930:2147  function getBalance(string memory _store, uint256 customer_id) public view returns (uint256) {... */\n    tag_6:\n      tag_29\n      0x04\n      dup1\n      calldatasize\n      sub\n      dup2\n      add\n      swap1\n      tag_30\n      swap2\n      swap1\n      tag_31\n      jump\t// in\n    tag_30:\n      tag_32\n      jump\t// in\n    tag_29:\n      mload(0x40)\n      tag_33\n      swap2\n      swap1\n      tag_34\n      jump\t// in\n    tag_33:\n      mload(0x40)\n      dup1\n      swap2\n      sub\n      swap1\n      return\n        /* \"pcd2/LoyaltyChain.sol\":115:178  mapping(bytes32 => mapping(uint256 => uint256)) public Balances */\n    tag_7:\n      tag_35\n      0x04\n      dup1\n      calldatasize\n      sub\n      dup2\n      add\n      swap1\n      tag_36\n      swap2\n      swap1\n      tag_37\n      jump\t// in\n    tag_36:\n      tag_38\n      jump\t// in\n    tag_35:\n      mload(0x40)\n      tag_39\n      swap2\n      swap1\n      tag_34\n      jump\t// in\n    tag_39:\n      mload(0x40)\n      dup1\n      swap2\n      sub\n      swap1\n      return\n        /* \"pcd2/LoyaltyChain.sol\":3879:4059  function getHashedStore (string memory _store) pure  public returns (bytes32){... */\n    tag_8:\n      tag_40\n      0x04\n      dup1\n      calldatasize\n      sub\n      dup2\n      add\n      swap1\n      tag_41\n      swap2\n      swap1\n      tag_42\n      jump\t// in\n    tag_41:\n      tag_43\n      jump\t// in\n    tag_40:\n      mload(0x40)\n      tag_44\n      swap2\n      swap1\n      tag_45\n      jump\t// in\n    tag_44:\n      mload(0x40)\n      dup1\n      swap2\n      sub\n      swap1\n      return\n        /* \"pcd2/LoyaltyChain.sol\":229:278  mapping (bytes32 =>uint256[] ) public CustomersID */\n    tag_9:\n      tag_46\n      0x04\n      dup1\n      calldatasize\n      sub\n      dup2\n      add\n      swap1\n      tag_47\n      swap2\n      swap1\n      tag_37\n      jump\t// in\n    tag_47:\n      tag_48\n      jump\t// in\n    tag_46:\n      mload(0x40)\n      tag_49\n      swap2\n      swap1\n      tag_34\n      jump\t// in\n    tag_49:\n      mload(0x40)\n      dup1\n      swap2\n      sub\n      swap1\n      return\n        /* \"pcd2/LoyaltyChain.sol\":1611:1874  function deleteCard (string memory _store, uint256 _id) public {... */\n    tag_10:\n      tag_50\n      0x04\n      dup1\n      calldatasize\n      sub\n      dup2\n      add\n      swap1\n      tag_51\n      swap2\n      swap1\n      tag_31\n      jump\t// in\n    tag_51:\n      tag_52\n      jump\t// in\n    tag_50:\n      stop\n        /* \"pcd2/LoyaltyChain.sol\":4065:4293  function checkStoreExists( bytes32 _store) public view returns (bool) {... */\n    tag_11:\n      tag_53\n      0x04\n      dup1\n      calldatasize\n      sub\n      dup2\n      add\n      swap1\n      tag_54\n      swap2\n      swap1\n      tag_55\n      jump\t// in\n    tag_54:\n      tag_56\n      jump\t// in\n    tag_53:\n      mload(0x40)\n      tag_57\n      swap2\n      swap1\n      tag_58\n      jump\t// in\n    tag_57:\n      mload(0x40)\n      dup1\n      swap2\n      sub\n      swap1\n      return\n        /* \"pcd2/LoyaltyChain.sol\":4299:4394  function returnStores() public view returns(bytes32[] memory ) {... */\n    tag_12:\n      tag_59\n      tag_60\n      jump\t// in\n    tag_59:\n      mload(0x40)\n      tag_61\n      swap2\n      swap1\n      tag_62\n      jump\t// in\n    tag_61:\n      mload(0x40)\n      dup1\n      swap2\n      sub\n      swap1\n      return\n        /* \"pcd2/LoyaltyChain.sol\":2903:3421  function itemBought(string memory _store, uint256 _customer,uint256 item_price) public {... */\n    tag_13:\n      tag_63\n      0x04\n      dup1\n      calldatasize\n      sub\n      dup2\n      add\n      swap1\n      tag_64\n      swap2\n      swap1\n      tag_20\n      jump\t// in\n    tag_64:\n      tag_65\n      jump\t// in\n    tag_63:\n      stop\n        /* \"pcd2/LoyaltyChain.sol\":832:1096  function createStore(string memory store_name) public {... */\n    tag_14:\n      tag_66\n      0x04\n      dup1\n      calldatasize\n      sub\n      dup2\n      add\n      swap1\n      tag_67\n      swap2\n      swap1\n      tag_42\n      jump\t// in\n    tag_67:\n      tag_68\n      jump\t// in\n    tag_66:\n      stop\n        /* \"pcd2/LoyaltyChain.sol\":3427:3873  function rERC5b4PoR51qWEvAWuJsX6yRVRBvRVta7 (string memory _store, uint256 _customer, uint256 pointsAdded) public {... */\n    tag_15:\n      tag_69\n      0x04\n      dup1\n      calldatasize\n      sub\n      dup2\n      add\n      swap1\n      tag_70\n      swap2\n      swap1\n      tag_20\n      jump\t// in\n    tag_70:\n      tag_71\n      jump\t// in\n    tag_69:\n      stop\n        /* \"pcd2/LoyaltyChain.sol\":1145:1603  function createCard(string memory _store, uint256 _id, uint256 _initialBalance) public {... */\n    tag_21:\n        /* \"pcd2/LoyaltyChain.sol\":1239:1259  bytes32 hashed_store */\n      0x00\n        /* \"pcd2/LoyaltyChain.sol\":1289:1295  _store */\n      dup4\n        /* \"pcd2/LoyaltyChain.sol\":1272:1296  abi.encodePacked(_store) */\n      add(0x20, mload(0x40))\n      tag_73\n      swap2\n      swap1\n      tag_74\n      jump\t// in\n    tag_73:\n      mload(0x40)\n      0x20\n      dup2\n      dup4\n      sub\n      sub\n      dup2\n      mstore\n      swap1\n      0x40\n      mstore\n        /* \"pcd2/LoyaltyChain.sol\":1262:1297  keccak256(abi.encodePacked(_store)) */\n      dup1\n      mload\n      swap1\n      0x20\n      add\n      keccak256\n        /* \"pcd2/LoyaltyChain.sol\":1239:1297  bytes32 hashed_store = keccak256(abi.encodePacked(_store)) */\n      swap1\n      pop\n        /* \"pcd2/LoyaltyChain.sol\":1365:1395  checkStoreExists(hashed_store) */\n      tag_75\n        /* \"pcd2/LoyaltyChain.sol\":1382:1394  hashed_store */\n      dup2\n        /* \"pcd2/LoyaltyChain.sol\":1365:1381  checkStoreExists */\n      tag_56\n        /* \"pcd2/LoyaltyChain.sol\":1365:1395  checkStoreExists(hashed_store) */\n      jump\t// in\n    tag_75:\n        /* \"pcd2/LoyaltyChain.sol\":1357:1420  require(checkStoreExists(hashed_store), \"Store does not exist\") */\n      tag_76\n      jumpi\n      mload(0x40)\n      0x08c379a000000000000000000000000000000000000000000000000000000000\n      dup2\n      mstore\n      0x04\n      add\n      tag_77\n      swap1\n      tag_78\n      jump\t// in\n    tag_77:\n      mload(0x40)\n      dup1\n      swap2\n      sub\n      swap1\n      revert\n    tag_76:\n        /* \"pcd2/LoyaltyChain.sol\":1466:1467  0 */\n      0x00\n        /* \"pcd2/LoyaltyChain.sol\":1435:1443  Balances */\n      0x01\n        /* \"pcd2/LoyaltyChain.sol\":1435:1457  Balances[hashed_store] */\n      0x00\n        /* \"pcd2/LoyaltyChain.sol\":1444:1456  hashed_store */\n      dup4\n        /* \"pcd2/LoyaltyChain.sol\":1435:1457  Balances[hashed_store] */\n      dup2\n      mstore\n      0x20\n      add\n      swap1\n      dup2\n      mstore\n      0x20\n      add\n      0x00\n      keccak256\n        /* \"pcd2/LoyaltyChain.sol\":1435:1462  Balances[hashed_store][_id] */\n      0x00\n        /* \"pcd2/LoyaltyChain.sol\":1458:1461  _id */\n      dup6\n        /* \"pcd2/LoyaltyChain.sol\":1435:1462  Balances[hashed_store][_id] */\n      dup2\n      mstore\n      0x20\n      add\n      swap1\n      dup2\n      mstore\n      0x20\n      add\n      0x00\n      keccak256\n      sload\n        /* \"pcd2/LoyaltyChain.sol\":1435:1467  Balances[hashed_store][_id] == 0 */\n      eq\n        /* \"pcd2/LoyaltyChain.sol\":1427:1498  require(Balances[hashed_store][_id] == 0, \"Customer ID already exists\") */\n      tag_79\n      jumpi\n      mload(0x40)\n      0x08c379a000000000000000000000000000000000000000000000000000000000\n      dup2\n      mstore\n      0x04\n      add\n      tag_80\n      swap1\n      tag_81\n      jump\t// in\n    tag_80:\n      mload(0x40)\n      dup1\n      swap2\n      sub\n      swap1\n      revert\n    tag_79:\n        /* \"pcd2/LoyaltyChain.sol\":1584:1599  _initialBalance */\n      dup2\n        /* \"pcd2/LoyaltyChain.sol\":1554:1562  Balances */\n      0x01\n        /* \"pcd2/LoyaltyChain.sol\":1554:1576  Balances[hashed_store] */\n      0x00\n        /* \"pcd2/LoyaltyChain.sol\":1563:1575  hashed_store */\n      dup4\n        /* \"pcd2/LoyaltyChain.sol\":1554:1576  Balances[hashed_store] */\n      dup2\n      mstore\n      0x20\n      add\n      swap1\n      dup2\n      mstore\n      0x20\n      add\n      0x00\n      keccak256\n        /* \"pcd2/LoyaltyChain.sol\":1554:1581  Balances[hashed_store][_id] */\n      0x00\n        /* \"pcd2/LoyaltyChain.sol\":1577:1580  _id */\n      dup6\n        /* \"pcd2/LoyaltyChain.sol\":1554:1581  Balances[hashed_store][_id] */\n      dup2\n      mstore\n      0x20\n      add\n      swap1\n      dup2\n      mstore\n      0x20\n      add\n      0x00\n      keccak256\n        /* \"pcd2/LoyaltyChain.sol\":1554:1599  Balances[hashed_store][_id] = _initialBalance */\n      dup2\n      swap1\n      sstore\n      pop\n        /* \"pcd2/LoyaltyChain.sol\":1232:1603  {... */\n      pop\n        /* \"pcd2/LoyaltyChain.sol\":1145:1603  function createCard(string memory _store, uint256 _id, uint256 _initialBalance) public {... */\n      pop\n      pop\n      pop\n      jump\t// out\n        /* \"pcd2/LoyaltyChain.sol\":2159:2380  function setBalance(string memory _store, uint256 customer_id,uint256 new_balance) public {... */\n    tag_24:\n        /* \"pcd2/LoyaltyChain.sol\":2260:2277  bytes32 storeHash */\n      0x00\n        /* \"pcd2/LoyaltyChain.sol\":2306:2312  _store */\n      dup4\n        /* \"pcd2/LoyaltyChain.sol\":2289:2313  abi.encodePacked(_store) */\n      add(0x20, mload(0x40))\n      tag_83\n      swap2\n      swap1\n      tag_74\n      jump\t// in\n    tag_83:\n      mload(0x40)\n      0x20\n      dup2\n      dup4\n      sub\n      sub\n      dup2\n      mstore\n      swap1\n      0x40\n      mstore\n        /* \"pcd2/LoyaltyChain.sol\":2279:2314  keccak256(abi.encodePacked(_store)) */\n      dup1\n      mload\n      swap1\n      0x20\n      add\n      keccak256\n        /* \"pcd2/LoyaltyChain.sol\":2260:2314  bytes32 storeHash= keccak256(abi.encodePacked(_store)) */\n      swap1\n      pop\n        /* \"pcd2/LoyaltyChain.sol\":2361:2372  new_balance */\n      dup2\n        /* \"pcd2/LoyaltyChain.sol\":2326:2334  Balances */\n      0x01\n        /* \"pcd2/LoyaltyChain.sol\":2326:2345  Balances[storeHash] */\n      0x00\n        /* \"pcd2/LoyaltyChain.sol\":2335:2344  storeHash */\n      dup4\n        /* \"pcd2/LoyaltyChain.sol\":2326:2345  Balances[storeHash] */\n      dup2\n      mstore\n      0x20\n      add\n      swap1\n      dup2\n      mstore\n      0x20\n      add\n      0x00\n      keccak256\n        /* \"pcd2/LoyaltyChain.sol\":2326:2358  Balances[storeHash][customer_id] */\n      0x00\n        /* \"pcd2/LoyaltyChain.sol\":2346:2357  customer_id */\n      dup6\n        /* \"pcd2/LoyaltyChain.sol\":2326:2358  Balances[storeHash][customer_id] */\n      dup2\n      mstore\n      0x20\n      add\n      swap1\n      dup2\n      mstore\n      0x20\n      add\n      0x00\n      keccak256\n        /* \"pcd2/LoyaltyChain.sol\":2326:2372  Balances[storeHash][customer_id] = new_balance */\n      dup2\n      swap1\n      sstore\n      pop\n        /* \"pcd2/LoyaltyChain.sol\":2249:2380  {... */\n      pop\n        /* \"pcd2/LoyaltyChain.sol\":2159:2380  function setBalance(string memory _store, uint256 customer_id,uint256 new_balance) public {... */\n      pop\n      pop\n      pop\n      jump\t// out\n        /* \"pcd2/LoyaltyChain.sol\":2428:2897  function transferPoints (string memory _store, uint256 _from, uint256 _to, uint256 _amount) public {... */\n    tag_28:\n        /* \"pcd2/LoyaltyChain.sol\":2534:2551  bytes32 storeHash */\n      0x00\n        /* \"pcd2/LoyaltyChain.sol\":2580:2586  _store */\n      dup5\n        /* \"pcd2/LoyaltyChain.sol\":2563:2587  abi.encodePacked(_store) */\n      add(0x20, mload(0x40))\n      tag_85\n      swap2\n      swap1\n      tag_74\n      jump\t// in\n    tag_85:\n      mload(0x40)\n      0x20\n      dup2\n      dup4\n      sub\n      sub\n      dup2\n      mstore\n      swap1\n      0x40\n      mstore\n        /* \"pcd2/LoyaltyChain.sol\":2553:2588  keccak256(abi.encodePacked(_store)) */\n      dup1\n      mload\n      swap1\n      0x20\n      add\n      keccak256\n        /* \"pcd2/LoyaltyChain.sol\":2534:2588  bytes32 storeHash= keccak256(abi.encodePacked(_store)) */\n      swap1\n      pop\n        /* \"pcd2/LoyaltyChain.sol\":2656:2663  _amount */\n      dup2\n        /* \"pcd2/LoyaltyChain.sol\":2628:2636  Balances */\n      0x01\n        /* \"pcd2/LoyaltyChain.sol\":2628:2647  Balances[storeHash] */\n      0x00\n        /* \"pcd2/LoyaltyChain.sol\":2637:2646  storeHash */\n      dup4\n        /* \"pcd2/LoyaltyChain.sol\":2628:2647  Balances[storeHash] */\n      dup2\n      mstore\n      0x20\n      add\n      swap1\n      dup2\n      mstore\n      0x20\n      add\n      0x00\n      keccak256\n        /* \"pcd2/LoyaltyChain.sol\":2628:2654  Balances[storeHash][_from] */\n      0x00\n        /* \"pcd2/LoyaltyChain.sol\":2648:2653  _from */\n      dup7\n        /* \"pcd2/LoyaltyChain.sol\":2628:2654  Balances[storeHash][_from] */\n      dup2\n      mstore\n      0x20\n      add\n      swap1\n      dup2\n      mstore\n      0x20\n      add\n      0x00\n      keccak256\n      sload\n        /* \"pcd2/LoyaltyChain.sol\":2628:2663  Balances[storeHash][_from]- _amount */\n      tag_86\n      swap2\n      swap1\n      tag_87\n      jump\t// in\n    tag_86:\n        /* \"pcd2/LoyaltyChain.sol\":2600:2608  Balances */\n      0x01\n        /* \"pcd2/LoyaltyChain.sol\":2600:2619  Balances[storeHash] */\n      0x00\n        /* \"pcd2/LoyaltyChain.sol\":2609:2618  storeHash */\n      dup4\n        /* \"pcd2/LoyaltyChain.sol\":2600:2619  Balances[storeHash] */\n      dup2\n      mstore\n      0x20\n      add\n      swap1\n      dup2\n      mstore\n      0x20\n      add\n      0x00\n      keccak256\n        /* \"pcd2/LoyaltyChain.sol\":2600:2626  Balances[storeHash][_from] */\n      0x00\n        /* \"pcd2/LoyaltyChain.sol\":2620:2625  _from */\n      dup7\n        /* \"pcd2/LoyaltyChain.sol\":2600:2626  Balances[storeHash][_from] */\n      dup2\n      mstore\n      0x20\n      add\n      swap1\n      dup2\n      mstore\n      0x20\n      add\n      0x00\n      keccak256\n        /* \"pcd2/LoyaltyChain.sol\":2600:2663  Balances[storeHash][_from]= Balances[storeHash][_from]- _amount */\n      dup2\n      swap1\n      sstore\n      pop\n        /* \"pcd2/LoyaltyChain.sol\":2727:2734  _amount */\n      dup2\n        /* \"pcd2/LoyaltyChain.sol\":2700:2708  Balances */\n      0x01\n        /* \"pcd2/LoyaltyChain.sol\":2700:2719  Balances[storeHash] */\n      0x00\n        /* \"pcd2/LoyaltyChain.sol\":2709:2718  storeHash */\n      dup4\n        /* \"pcd2/LoyaltyChain.sol\":2700:2719  Balances[storeHash] */\n      dup2\n      mstore\n      0x20\n      add\n      swap1\n      dup2\n      mstore\n      0x20\n      add\n      0x00\n      keccak256\n        /* \"pcd2/LoyaltyChain.sol\":2700:2724  Balances[storeHash][_to] */\n      0x00\n        /* \"pcd2/LoyaltyChain.sol\":2720:2723  _to */\n      dup6\n        /* \"pcd2/LoyaltyChain.sol\":2700:2724  Balances[storeHash][_to] */\n      dup2\n      mstore\n      0x20\n      add\n      swap1\n      dup2\n      mstore\n      0x20\n      add\n      0x00\n      keccak256\n      sload\n        /* \"pcd2/LoyaltyChain.sol\":2700:2734  Balances[storeHash][_to] + _amount */\n      tag_88\n      swap2\n      swap1\n      tag_89\n      jump\t// in\n    tag_88:\n        /* \"pcd2/LoyaltyChain.sol\":2674:2682  Balances */\n      0x01\n        /* \"pcd2/LoyaltyChain.sol\":2674:2693  Balances[storeHash] */\n      0x00\n        /* \"pcd2/LoyaltyChain.sol\":2683:2692  storeHash */\n      dup4\n        /* \"pcd2/LoyaltyChain.sol\":2674:2693  Balances[storeHash] */\n      dup2\n      mstore\n      0x20\n      add\n      swap1\n      dup2\n      mstore\n      0x20\n      add\n      0x00\n      keccak256\n        /* \"pcd2/LoyaltyChain.sol\":2674:2698  Balances[storeHash][_to] */\n      0x00\n        /* \"pcd2/LoyaltyChain.sol\":2694:2697  _to */\n      dup6\n        /* \"pcd2/LoyaltyChain.sol\":2674:2698  Balances[storeHash][_to] */\n      dup2\n      mstore\n      0x20\n      add\n      swap1\n      dup2\n      mstore\n      0x20\n      add\n      0x00\n      keccak256\n        /* \"pcd2/LoyaltyChain.sol\":2674:2734  Balances[storeHash][_to]= Balances[storeHash][_to] + _amount */\n      dup2\n      swap1\n      sstore\n      pop\n        /* \"pcd2/LoyaltyChain.sol\":2783:2786  _to */\n      dup3\n        /* \"pcd2/LoyaltyChain.sol\":2776:2781  _from */\n      dup5\n        /* \"pcd2/LoyaltyChain.sol\":2768:2774  _store */\n      dup7\n        /* \"pcd2/LoyaltyChain.sol\":2750:2813  PointsTransferred(_store, _from, _to, _amount, block.timestamp) */\n      mload(0x40)\n      tag_90\n      swap2\n      swap1\n      tag_74\n      jump\t// in\n    tag_90:\n      mload(0x40)\n      dup1\n      swap2\n      sub\n      swap1\n      keccak256\n      0xe946cd1de3989f1370c07ddd001b890d97324b93d3809644fcff2c8b299c7042\n        /* \"pcd2/LoyaltyChain.sol\":2788:2795  _amount */\n      dup6\n        /* \"pcd2/LoyaltyChain.sol\":2797:2812  block.timestamp */\n      timestamp\n        /* \"pcd2/LoyaltyChain.sol\":2750:2813  PointsTransferred(_store, _from, _to, _amount, block.timestamp) */\n      mload(0x40)\n      tag_91\n      swap3\n      swap2\n      swap1\n      tag_92\n      jump\t// in\n    tag_91:\n      mload(0x40)\n      dup1\n      swap2\n      sub\n      swap1\n      log4\n        /* \"pcd2/LoyaltyChain.sol\":2857:2862  _from */\n      dup4\n        /* \"pcd2/LoyaltyChain.sol\":2852:2855  _to */\n      dup4\n        /* \"pcd2/LoyaltyChain.sol\":2844:2850  _store */\n      dup7\n        /* \"pcd2/LoyaltyChain.sol\":2829:2889  PointsReceived(_store, _to, _from, _amount, block.timestamp) */\n      mload(0x40)\n      tag_93\n      swap2\n      swap1\n      tag_74\n      jump\t// in\n    tag_93:\n      mload(0x40)\n      dup1\n      swap2\n      sub\n      swap1\n      keccak256\n      0x5913475c1a51e3ba07be9077197c0cbb7fdc06450c5b00bb1724d1b284981f3f\n        /* \"pcd2/LoyaltyChain.sol\":2864:2871  _amount */\n      dup6\n        /* \"pcd2/LoyaltyChain.sol\":2873:2888  block.timestamp */\n      timestamp\n        /* \"pcd2/LoyaltyChain.sol\":2829:2889  PointsReceived(_store, _to, _from, _amount, block.timestamp) */\n      mload(0x40)\n      tag_94\n      swap3\n      swap2\n      swap1\n      tag_92\n      jump\t// in\n    tag_94:\n      mload(0x40)\n      dup1\n      swap2\n      sub\n      swap1\n      log4\n        /* \"pcd2/LoyaltyChain.sol\":2527:2897  {... */\n      pop\n        /* \"pcd2/LoyaltyChain.sol\":2428:2897  function transferPoints (string memory _store, uint256 _from, uint256 _to, uint256 _amount) public {... */\n      pop\n      pop\n      pop\n      pop\n      jump\t// out\n        /* \"pcd2/LoyaltyChain.sol\":1930:2147  function getBalance(string memory _store, uint256 customer_id) public view returns (uint256) {... */\n    tag_32:\n        /* \"pcd2/LoyaltyChain.sol\":2014:2021  uint256 */\n      0x00\n        /* \"pcd2/LoyaltyChain.sol\":2034:2051  bytes32 storeHash */\n      dup1\n        /* \"pcd2/LoyaltyChain.sol\":2080:2086  _store */\n      dup4\n        /* \"pcd2/LoyaltyChain.sol\":2063:2087  abi.encodePacked(_store) */\n      add(0x20, mload(0x40))\n      tag_96\n      swap2\n      swap1\n      tag_74\n      jump\t// in\n    tag_96:\n      mload(0x40)\n      0x20\n      dup2\n      dup4\n      sub\n      sub\n      dup2\n      mstore\n      swap1\n      0x40\n      mstore\n        /* \"pcd2/LoyaltyChain.sol\":2053:2088  keccak256(abi.encodePacked(_store)) */\n      dup1\n      mload\n      swap1\n      0x20\n      add\n      keccak256\n        /* \"pcd2/LoyaltyChain.sol\":2034:2088  bytes32 storeHash= keccak256(abi.encodePacked(_store)) */\n      swap1\n      pop\n        /* \"pcd2/LoyaltyChain.sol\":2107:2115  Balances */\n      0x01\n        /* \"pcd2/LoyaltyChain.sol\":2107:2126  Balances[storeHash] */\n      0x00\n        /* \"pcd2/LoyaltyChain.sol\":2116:2125  storeHash */\n      dup3\n        /* \"pcd2/LoyaltyChain.sol\":2107:2126  Balances[storeHash] */\n      dup2\n      mstore\n      0x20\n      add\n      swap1\n      dup2\n      mstore\n      0x20\n      add\n      0x00\n      keccak256\n        /* \"pcd2/LoyaltyChain.sol\":2107:2139  Balances[storeHash][customer_id] */\n      0x00\n        /* \"pcd2/LoyaltyChain.sol\":2127:2138  customer_id */\n      dup5\n        /* \"pcd2/LoyaltyChain.sol\":2107:2139  Balances[storeHash][customer_id] */\n      dup2\n      mstore\n      0x20\n      add\n      swap1\n      dup2\n      mstore\n      0x20\n      add\n      0x00\n      keccak256\n      sload\n        /* \"pcd2/LoyaltyChain.sol\":2100:2139  return Balances[storeHash][customer_id] */\n      swap2\n      pop\n      pop\n        /* \"pcd2/LoyaltyChain.sol\":1930:2147  function getBalance(string memory _store, uint256 customer_id) public view returns (uint256) {... */\n      swap3\n      swap2\n      pop\n      pop\n      jump\t// out\n        /* \"pcd2/LoyaltyChain.sol\":115:178  mapping(bytes32 => mapping(uint256 => uint256)) public Balances */\n    tag_38:\n      mstore(0x20, 0x01)\n      dup2\n      0x00\n      mstore\n      mstore(0x20, keccak256(0x00, 0x40))\n      dup1\n      0x00\n      mstore\n      keccak256(0x00, 0x40)\n      0x00\n      swap2\n      pop\n      swap2\n      pop\n      pop\n      sload\n      dup2\n      jump\t// out\n        /* \"pcd2/LoyaltyChain.sol\":3879:4059  function getHashedStore (string memory _store) pure  public returns (bytes32){... */\n    tag_43:\n        /* \"pcd2/LoyaltyChain.sol\":3948:3955  bytes32 */\n      0x00\n        /* \"pcd2/LoyaltyChain.sol\":3967:3984  bytes32 storeHash */\n      dup1\n        /* \"pcd2/LoyaltyChain.sol\":4013:4019  _store */\n      dup3\n        /* \"pcd2/LoyaltyChain.sol\":3996:4020  abi.encodePacked(_store) */\n      add(0x20, mload(0x40))\n      tag_98\n      swap2\n      swap1\n      tag_74\n      jump\t// in\n    tag_98:\n      mload(0x40)\n      0x20\n      dup2\n      dup4\n      sub\n      sub\n      dup2\n      mstore\n      swap1\n      0x40\n      mstore\n        /* \"pcd2/LoyaltyChain.sol\":3986:4021  keccak256(abi.encodePacked(_store)) */\n      dup1\n      mload\n      swap1\n      0x20\n      add\n      keccak256\n        /* \"pcd2/LoyaltyChain.sol\":3967:4021  bytes32 storeHash= keccak256(abi.encodePacked(_store)) */\n      swap1\n      pop\n        /* \"pcd2/LoyaltyChain.sol\":4042:4051  storeHash */\n      dup1\n        /* \"pcd2/LoyaltyChain.sol\":4035:4051  return storeHash */\n      swap2\n      pop\n      pop\n        /* \"pcd2/LoyaltyChain.sol\":3879:4059  function getHashedStore (string memory _store) pure  public returns (bytes32){... */\n      swap2\n      swap1\n      pop\n      jump\t// out\n        /* \"pcd2/LoyaltyChain.sol\":229:278  mapping (bytes32 =>uint256[] ) public CustomersID */\n    tag_48:\n      mstore(0x20, 0x02)\n      dup2\n      0x00\n      mstore\n      keccak256(0x00, 0x40)\n      dup2\n      dup2\n      sload\n      dup2\n      lt\n      tag_99\n      jumpi\n      0x00\n      dup1\n      revert\n    tag_99:\n      swap1\n      0x00\n      mstore\n      keccak256(0x00, 0x20)\n      add\n      0x00\n      swap2\n      pop\n      swap2\n      pop\n      pop\n      sload\n      dup2\n      jump\t// out\n        /* \"pcd2/LoyaltyChain.sol\":1611:1874  function deleteCard (string memory _store, uint256 _id) public {... */\n    tag_52:\n        /* \"pcd2/LoyaltyChain.sol\":1681:1701  bytes32 hashed_store */\n      0x00\n        /* \"pcd2/LoyaltyChain.sol\":1730:1736  _store */\n      dup3\n        /* \"pcd2/LoyaltyChain.sol\":1713:1737  abi.encodePacked(_store) */\n      add(0x20, mload(0x40))\n      tag_102\n      swap2\n      swap1\n      tag_74\n      jump\t// in\n    tag_102:\n      mload(0x40)\n      0x20\n      dup2\n      dup4\n      sub\n      sub\n      dup2\n      mstore\n      swap1\n      0x40\n      mstore\n        /* \"pcd2/LoyaltyChain.sol\":1703:1738  keccak256(abi.encodePacked(_store)) */\n      dup1\n      mload\n      swap1\n      0x20\n      add\n      keccak256\n        /* \"pcd2/LoyaltyChain.sol\":1681:1738  bytes32 hashed_store= keccak256(abi.encodePacked(_store)) */\n      swap1\n      pop\n        /* \"pcd2/LoyaltyChain.sol\":1755:1785  checkStoreExists(hashed_store) */\n      tag_103\n        /* \"pcd2/LoyaltyChain.sol\":1772:1784  hashed_store */\n      dup2\n        /* \"pcd2/LoyaltyChain.sol\":1755:1771  checkStoreExists */\n      tag_56\n        /* \"pcd2/LoyaltyChain.sol\":1755:1785  checkStoreExists(hashed_store) */\n      jump\t// in\n    tag_103:\n        /* \"pcd2/LoyaltyChain.sol\":1747:1825  require(checkStoreExists(hashed_store), \"Element does not exist in the array\") */\n      tag_104\n      jumpi\n      mload(0x40)\n      0x08c379a000000000000000000000000000000000000000000000000000000000\n      dup2\n      mstore\n      0x04\n      add\n      tag_105\n      swap1\n      tag_106\n      jump\t// in\n    tag_105:\n      mload(0x40)\n      dup1\n      swap2\n      sub\n      swap1\n      revert\n    tag_104:\n        /* \"pcd2/LoyaltyChain.sol\":1839:1847  Balances */\n      0x01\n        /* \"pcd2/LoyaltyChain.sol\":1839:1861  Balances[hashed_store] */\n      0x00\n        /* \"pcd2/LoyaltyChain.sol\":1848:1860  hashed_store */\n      dup3\n        /* \"pcd2/LoyaltyChain.sol\":1839:1861  Balances[hashed_store] */\n      dup2\n      mstore\n      0x20\n      add\n      swap1\n      dup2\n      mstore\n      0x20\n      add\n      0x00\n      keccak256\n        /* \"pcd2/LoyaltyChain.sol\":1839:1866  Balances[hashed_store][_id] */\n      0x00\n        /* \"pcd2/LoyaltyChain.sol\":1862:1865  _id */\n      dup4\n        /* \"pcd2/LoyaltyChain.sol\":1839:1866  Balances[hashed_store][_id] */\n      dup2\n      mstore\n      0x20\n      add\n      swap1\n      dup2\n      mstore\n      0x20\n      add\n      0x00\n      keccak256\n        /* \"pcd2/LoyaltyChain.sol\":1832:1866  delete Balances[hashed_store][_id] */\n      0x00\n      swap1\n      sstore\n        /* \"pcd2/LoyaltyChain.sol\":1674:1874  {... */\n      pop\n        /* \"pcd2/LoyaltyChain.sol\":1611:1874  function deleteCard (string memory _store, uint256 _id) public {... */\n      pop\n      pop\n      jump\t// out\n        /* \"pcd2/LoyaltyChain.sol\":4065:4293  function checkStoreExists( bytes32 _store) public view returns (bool) {... */\n    tag_56:\n        /* \"pcd2/LoyaltyChain.sol\":4129:4133  bool */\n      0x00\n        /* \"pcd2/LoyaltyChain.sol\":4147:4156  uint256 i */\n      dup1\n        /* \"pcd2/LoyaltyChain.sol\":4159:4160  0 */\n      0x00\n        /* \"pcd2/LoyaltyChain.sol\":4147:4160  uint256 i = 0 */\n      swap1\n      pop\n        /* \"pcd2/LoyaltyChain.sol\":4142:4267  for (uint256 i = 0; i < stores.length; i++) {... */\n    tag_108:\n        /* \"pcd2/LoyaltyChain.sol\":4166:4172  stores */\n      0x00\n        /* \"pcd2/LoyaltyChain.sol\":4166:4179  stores.length */\n      dup1\n      sload\n      swap1\n      pop\n        /* \"pcd2/LoyaltyChain.sol\":4162:4163  i */\n      dup2\n        /* \"pcd2/LoyaltyChain.sol\":4162:4179  i < stores.length */\n      lt\n        /* \"pcd2/LoyaltyChain.sol\":4142:4267  for (uint256 i = 0; i < stores.length; i++) {... */\n      iszero\n      tag_109\n      jumpi\n        /* \"pcd2/LoyaltyChain.sol\":4214:4220  _store */\n      dup3\n        /* \"pcd2/LoyaltyChain.sol\":4201:4207  stores */\n      0x00\n        /* \"pcd2/LoyaltyChain.sol\":4208:4209  i */\n      dup3\n        /* \"pcd2/LoyaltyChain.sol\":4201:4210  stores[i] */\n      dup2\n      sload\n      dup2\n      lt\n      tag_111\n      jumpi\n      tag_112\n      tag_113\n      jump\t// in\n    tag_112:\n    tag_111:\n      swap1\n      0x00\n      mstore\n      keccak256(0x00, 0x20)\n      add\n      sload\n        /* \"pcd2/LoyaltyChain.sol\":4201:4220  stores[i] == _store */\n      sub\n        /* \"pcd2/LoyaltyChain.sol\":4197:4260  if (stores[i] == _store) {... */\n      tag_115\n      jumpi\n        /* \"pcd2/LoyaltyChain.sol\":4244:4248  true */\n      0x01\n        /* \"pcd2/LoyaltyChain.sol\":4237:4248  return true */\n      swap2\n      pop\n      pop\n      jump(tag_107)\n        /* \"pcd2/LoyaltyChain.sol\":4197:4260  if (stores[i] == _store) {... */\n    tag_115:\n        /* \"pcd2/LoyaltyChain.sol\":4181:4184  i++ */\n      dup1\n      dup1\n      0x01\n      add\n      swap2\n      pop\n      pop\n        /* \"pcd2/LoyaltyChain.sol\":4142:4267  for (uint256 i = 0; i < stores.length; i++) {... */\n      jump(tag_108)\n    tag_109:\n      pop\n        /* \"pcd2/LoyaltyChain.sol\":4280:4285  false */\n      0x00\n        /* \"pcd2/LoyaltyChain.sol\":4273:4285  return false */\n      swap1\n      pop\n        /* \"pcd2/LoyaltyChain.sol\":4065:4293  function checkStoreExists( bytes32 _store) public view returns (bool) {... */\n    tag_107:\n      swap2\n      swap1\n      pop\n      jump\t// out\n        /* \"pcd2/LoyaltyChain.sol\":4299:4394  function returnStores() public view returns(bytes32[] memory ) {... */\n    tag_60:\n        /* \"pcd2/LoyaltyChain.sol\":4343:4359  bytes32[] memory */\n      0x60\n        /* \"pcd2/LoyaltyChain.sol\":4380:4386  stores */\n      0x00\n        /* \"pcd2/LoyaltyChain.sol\":4373:4386  return stores */\n      dup1\n      sload\n      dup1\n      0x20\n      mul\n      0x20\n      add\n      mload(0x40)\n      swap1\n      dup2\n      add\n      0x40\n      mstore\n      dup1\n      swap3\n      swap2\n      swap1\n      dup2\n      dup2\n      mstore\n      0x20\n      add\n      dup3\n      dup1\n      sload\n      dup1\n      iszero\n      tag_117\n      jumpi\n      0x20\n      mul\n      dup3\n      add\n      swap2\n      swap1\n      0x00\n      mstore\n      keccak256(0x00, 0x20)\n      swap1\n    tag_118:\n      dup2\n      sload\n      dup2\n      mstore\n      0x20\n      add\n      swap1\n      0x01\n      add\n      swap1\n      dup1\n      dup4\n      gt\n      tag_118\n      jumpi\n    tag_117:\n      pop\n      pop\n      pop\n      pop\n      pop\n      swap1\n      pop\n        /* \"pcd2/LoyaltyChain.sol\":4299:4394  function returnStores() public view returns(bytes32[] memory ) {... */\n      swap1\n      jump\t// out\n        /* \"pcd2/LoyaltyChain.sol\":2903:3421  function itemBought(string memory _store, uint256 _customer,uint256 item_price) public {... */\n    tag_65:\n        /* \"pcd2/LoyaltyChain.sol\":3001:3018  bytes32 storeHash */\n      0x00\n        /* \"pcd2/LoyaltyChain.sol\":3047:3053  _store */\n      dup4\n        /* \"pcd2/LoyaltyChain.sol\":3030:3054  abi.encodePacked(_store) */\n      add(0x20, mload(0x40))\n      tag_120\n      swap2\n      swap1\n      tag_74\n      jump\t// in\n    tag_120:\n      mload(0x40)\n      0x20\n      dup2\n      dup4\n      sub\n      sub\n      dup2\n      mstore\n      swap1\n      0x40\n      mstore\n        /* \"pcd2/LoyaltyChain.sol\":3020:3055  keccak256(abi.encodePacked(_store)) */\n      dup1\n      mload\n      swap1\n      0x20\n      add\n      keccak256\n        /* \"pcd2/LoyaltyChain.sol\":3001:3055  bytes32 storeHash= keccak256(abi.encodePacked(_store)) */\n      swap1\n      pop\n        /* \"pcd2/LoyaltyChain.sol\":3069:3091  uint256 currentBalance */\n      0x00\n        /* \"pcd2/LoyaltyChain.sol\":3095:3103  Balances */\n      0x01\n        /* \"pcd2/LoyaltyChain.sol\":3095:3114  Balances[storeHash] */\n      0x00\n        /* \"pcd2/LoyaltyChain.sol\":3104:3113  storeHash */\n      dup4\n        /* \"pcd2/LoyaltyChain.sol\":3095:3114  Balances[storeHash] */\n      dup2\n      mstore\n      0x20\n      add\n      swap1\n      dup2\n      mstore\n      0x20\n      add\n      0x00\n      keccak256\n        /* \"pcd2/LoyaltyChain.sol\":3095:3125  Balances[storeHash][_customer] */\n      0x00\n        /* \"pcd2/LoyaltyChain.sol\":3115:3124  _customer */\n      dup6\n        /* \"pcd2/LoyaltyChain.sol\":3095:3125  Balances[storeHash][_customer] */\n      dup2\n      mstore\n      0x20\n      add\n      swap1\n      dup2\n      mstore\n      0x20\n      add\n      0x00\n      keccak256\n      sload\n        /* \"pcd2/LoyaltyChain.sol\":3069:3125  uint256 currentBalance =  Balances[storeHash][_customer] */\n      swap1\n      pop\n        /* \"pcd2/LoyaltyChain.sol\":3162:3172  item_price */\n      dup3\n        /* \"pcd2/LoyaltyChain.sol\":3144:3158  currentBalance */\n      dup2\n        /* \"pcd2/LoyaltyChain.sol\":3144:3172  currentBalance >= item_price */\n      lt\n      iszero\n        /* \"pcd2/LoyaltyChain.sol\":3136:3214  require(currentBalance >= item_price, \"Insufficient balance to purchase item\") */\n      tag_121\n      jumpi\n      mload(0x40)\n      0x08c379a000000000000000000000000000000000000000000000000000000000\n      dup2\n      mstore\n      0x04\n      add\n      tag_122\n      swap1\n      tag_123\n      jump\t// in\n    tag_122:\n      mload(0x40)\n      dup1\n      swap2\n      sub\n      swap1\n      revert\n    tag_121:\n        /* \"pcd2/LoyaltyChain.sol\":3225:3243  uint256 newBalance */\n      0x00\n        /* \"pcd2/LoyaltyChain.sol\":3263:3273  item_price */\n      dup4\n        /* \"pcd2/LoyaltyChain.sol\":3246:3260  currentBalance */\n      dup3\n        /* \"pcd2/LoyaltyChain.sol\":3246:3273  currentBalance - item_price */\n      tag_124\n      swap2\n      swap1\n      tag_87\n      jump\t// in\n    tag_124:\n        /* \"pcd2/LoyaltyChain.sol\":3225:3273  uint256 newBalance = currentBalance - item_price */\n      swap1\n      pop\n        /* \"pcd2/LoyaltyChain.sol\":3318:3328  newBalance */\n      dup1\n        /* \"pcd2/LoyaltyChain.sol\":3285:3293  Balances */\n      0x01\n        /* \"pcd2/LoyaltyChain.sol\":3285:3304  Balances[storeHash] */\n      0x00\n        /* \"pcd2/LoyaltyChain.sol\":3294:3303  storeHash */\n      dup6\n        /* \"pcd2/LoyaltyChain.sol\":3285:3304  Balances[storeHash] */\n      dup2\n      mstore\n      0x20\n      add\n      swap1\n      dup2\n      mstore\n      0x20\n      add\n      0x00\n      keccak256\n        /* \"pcd2/LoyaltyChain.sol\":3285:3315  Balances[storeHash][_customer] */\n      0x00\n        /* \"pcd2/LoyaltyChain.sol\":3305:3314  _customer */\n      dup8\n        /* \"pcd2/LoyaltyChain.sol\":3285:3315  Balances[storeHash][_customer] */\n      dup2\n      mstore\n      0x20\n      add\n      swap1\n      dup2\n      mstore\n      0x20\n      add\n      0x00\n      keccak256\n        /* \"pcd2/LoyaltyChain.sol\":3285:3328  Balances[storeHash][_customer] = newBalance */\n      dup2\n      swap1\n      sstore\n      pop\n        /* \"pcd2/LoyaltyChain.sol\":3365:3374  _customer */\n      dup5\n        /* \"pcd2/LoyaltyChain.sol\":3358:3364  _store */\n      dup7\n        /* \"pcd2/LoyaltyChain.sol\":3344:3404  ItemPurchased(_store,_customer, item_price, block.timestamp) */\n      mload(0x40)\n      tag_125\n      swap2\n      swap1\n      tag_74\n      jump\t// in\n    tag_125:\n      mload(0x40)\n      dup1\n      swap2\n      sub\n      swap1\n      keccak256\n      0x63d7dc4e1bfe09268eefbb72d02331f90bafd230c3d4c63d6250e1025c080880\n        /* \"pcd2/LoyaltyChain.sol\":3376:3386  item_price */\n      dup7\n        /* \"pcd2/LoyaltyChain.sol\":3388:3403  block.timestamp */\n      timestamp\n        /* \"pcd2/LoyaltyChain.sol\":3344:3404  ItemPurchased(_store,_customer, item_price, block.timestamp) */\n      mload(0x40)\n      tag_126\n      swap3\n      swap2\n      swap1\n      tag_92\n      jump\t// in\n    tag_126:\n      mload(0x40)\n      dup1\n      swap2\n      sub\n      swap1\n      log3\n        /* \"pcd2/LoyaltyChain.sol\":2990:3421  {... */\n      pop\n      pop\n      pop\n        /* \"pcd2/LoyaltyChain.sol\":2903:3421  function itemBought(string memory _store, uint256 _customer,uint256 item_price) public {... */\n      pop\n      pop\n      pop\n      jump\t// out\n        /* \"pcd2/LoyaltyChain.sol\":832:1096  function createStore(string memory store_name) public {... */\n    tag_68:\n        /* \"pcd2/LoyaltyChain.sol\":897:917  bytes32 hashed_store */\n      0x00\n        /* \"pcd2/LoyaltyChain.sol\":947:957  store_name */\n      dup2\n        /* \"pcd2/LoyaltyChain.sol\":930:958  abi.encodePacked(store_name) */\n      add(0x20, mload(0x40))\n      tag_128\n      swap2\n      swap1\n      tag_74\n      jump\t// in\n    tag_128:\n      mload(0x40)\n      0x20\n      dup2\n      dup4\n      sub\n      sub\n      dup2\n      mstore\n      swap1\n      0x40\n      mstore\n        /* \"pcd2/LoyaltyChain.sol\":920:959  keccak256(abi.encodePacked(store_name)) */\n      dup1\n      mload\n      swap1\n      0x20\n      add\n      keccak256\n        /* \"pcd2/LoyaltyChain.sol\":897:959  bytes32 hashed_store = keccak256(abi.encodePacked(store_name)) */\n      swap1\n      pop\n        /* \"pcd2/LoyaltyChain.sol\":1012:1013  0 */\n      0x00\n        /* \"pcd2/LoyaltyChain.sol\":998:1014  new uint256[](0) */\n      0xffffffffffffffff\n      dup2\n      gt\n      iszero\n      tag_129\n      jumpi\n      tag_130\n      tag_131\n      jump\t// in\n    tag_130:\n    tag_129:\n      mload(0x40)\n      swap1\n      dup1\n      dup3\n      mstore\n      dup1\n      0x20\n      mul\n      0x20\n      add\n      dup3\n      add\n      0x40\n      mstore\n      dup1\n      iszero\n      tag_132\n      jumpi\n      dup2\n      0x20\n      add\n      0x20\n      dup3\n      mul\n      dup1\n      calldatasize\n      dup4\n      calldatacopy\n      dup1\n      dup3\n      add\n      swap2\n      pop\n      pop\n      swap1\n      pop\n    tag_132:\n      pop\n        /* \"pcd2/LoyaltyChain.sol\":970:981  CustomersID */\n      0x02\n        /* \"pcd2/LoyaltyChain.sol\":970:995  CustomersID[hashed_store] */\n      0x00\n        /* \"pcd2/LoyaltyChain.sol\":982:994  hashed_store */\n      dup4\n        /* \"pcd2/LoyaltyChain.sol\":970:995  CustomersID[hashed_store] */\n      dup2\n      mstore\n      0x20\n      add\n      swap1\n      dup2\n      mstore\n      0x20\n      add\n      0x00\n      keccak256\n        /* \"pcd2/LoyaltyChain.sol\":970:1014  CustomersID[hashed_store] = new uint256[](0) */\n      swap1\n      dup1\n      mload\n      swap1\n      0x20\n      add\n      swap1\n      tag_133\n      swap3\n      swap2\n      swap1\n      tag_134\n      jump\t// in\n    tag_133:\n      pop\n        /* \"pcd2/LoyaltyChain.sol\":1025:1033  Balances */\n      0x01\n        /* \"pcd2/LoyaltyChain.sol\":1025:1047  Balances[hashed_store] */\n      0x00\n        /* \"pcd2/LoyaltyChain.sol\":1034:1046  hashed_store */\n      dup3\n        /* \"pcd2/LoyaltyChain.sol\":1025:1047  Balances[hashed_store] */\n      dup2\n      mstore\n      0x20\n      add\n      swap1\n      dup2\n      mstore\n      0x20\n      add\n      0x00\n      keccak256\n        /* \"pcd2/LoyaltyChain.sol\":1025:1050  Balances[hashed_store][0] */\n      0x00\n        /* \"pcd2/LoyaltyChain.sol\":1048:1049  0 */\n      dup1\n        /* \"pcd2/LoyaltyChain.sol\":1025:1050  Balances[hashed_store][0] */\n      dup2\n      mstore\n      0x20\n      add\n      swap1\n      dup2\n      mstore\n      0x20\n      add\n      0x00\n      keccak256\n      pop\n        /* \"pcd2/LoyaltyChain.sol\":1061:1067  stores */\n      0x00\n        /* \"pcd2/LoyaltyChain.sol\":1073:1085  hashed_store */\n      dup2\n        /* \"pcd2/LoyaltyChain.sol\":1061:1086  stores.push(hashed_store) */\n      swap1\n      dup1\n      0x01\n      dup2\n      sload\n      add\n      dup1\n      dup3\n      sstore\n      dup1\n      swap2\n      pop\n      pop\n      0x01\n      swap1\n      sub\n      swap1\n      0x00\n      mstore\n      keccak256(0x00, 0x20)\n      add\n      0x00\n      swap1\n      swap2\n      swap1\n      swap2\n      swap1\n      swap2\n      pop\n      sstore\n        /* \"pcd2/LoyaltyChain.sol\":886:1096  {... */\n      pop\n        /* \"pcd2/LoyaltyChain.sol\":832:1096  function createStore(string memory store_name) public {... */\n      pop\n      jump\t// out\n        /* \"pcd2/LoyaltyChain.sol\":3427:3873  function rERC5b4PoR51qWEvAWuJsX6yRVRBvRVta7 (string memory _store, uint256 _customer, uint256 pointsAdded) public {... */\n    tag_71:\n        /* \"pcd2/LoyaltyChain.sol\":3552:3569  bytes32 storeHash */\n      0x00\n        /* \"pcd2/LoyaltyChain.sol\":3598:3604  _store */\n      dup4\n        /* \"pcd2/LoyaltyChain.sol\":3581:3605  abi.encodePacked(_store) */\n      add(0x20, mload(0x40))\n      tag_137\n      swap2\n      swap1\n      tag_74\n      jump\t// in\n    tag_137:\n      mload(0x40)\n      0x20\n      dup2\n      dup4\n      sub\n      sub\n      dup2\n      mstore\n      swap1\n      0x40\n      mstore\n        /* \"pcd2/LoyaltyChain.sol\":3571:3606  keccak256(abi.encodePacked(_store)) */\n      dup1\n      mload\n      swap1\n      0x20\n      add\n      keccak256\n        /* \"pcd2/LoyaltyChain.sol\":3552:3606  bytes32 storeHash= keccak256(abi.encodePacked(_store)) */\n      swap1\n      pop\n        /* \"pcd2/LoyaltyChain.sol\":3643:3644  0 */\n      0x00\n        /* \"pcd2/LoyaltyChain.sol\":3629:3640  pointsAdded */\n      dup3\n        /* \"pcd2/LoyaltyChain.sol\":3629:3644  pointsAdded > 0 */\n      gt\n        /* \"pcd2/LoyaltyChain.sol\":3621:3684  require(pointsAdded > 0, \"Points added must be greater than 0\") */\n      tag_138\n      jumpi\n      mload(0x40)\n      0x08c379a000000000000000000000000000000000000000000000000000000000\n      dup2\n      mstore\n      0x04\n      add\n      tag_139\n      swap1\n      tag_140\n      jump\t// in\n    tag_139:\n      mload(0x40)\n      dup1\n      swap2\n      sub\n      swap1\n      revert\n    tag_138:\n        /* \"pcd2/LoyaltyChain.sol\":3709:3710  0 */\n      0x00\n        /* \"pcd2/LoyaltyChain.sol\":3695:3706  pointsAdded */\n      dup3\n        /* \"pcd2/LoyaltyChain.sol\":3695:3710  pointsAdded > 0 */\n      gt\n        /* \"pcd2/LoyaltyChain.sol\":3691:3864  if (pointsAdded > 0) {... */\n      iszero\n      tag_141\n      jumpi\n        /* \"pcd2/LoyaltyChain.sol\":3761:3772  pointsAdded */\n      dup2\n        /* \"pcd2/LoyaltyChain.sol\":3727:3735  Balances */\n      0x01\n        /* \"pcd2/LoyaltyChain.sol\":3727:3746  Balances[storeHash] */\n      0x00\n        /* \"pcd2/LoyaltyChain.sol\":3736:3745  storeHash */\n      dup4\n        /* \"pcd2/LoyaltyChain.sol\":3727:3746  Balances[storeHash] */\n      dup2\n      mstore\n      0x20\n      add\n      swap1\n      dup2\n      mstore\n      0x20\n      add\n      0x00\n      keccak256\n        /* \"pcd2/LoyaltyChain.sol\":3727:3757  Balances[storeHash][_customer] */\n      0x00\n        /* \"pcd2/LoyaltyChain.sol\":3747:3756  _customer */\n      dup6\n        /* \"pcd2/LoyaltyChain.sol\":3727:3757  Balances[storeHash][_customer] */\n      dup2\n      mstore\n      0x20\n      add\n      swap1\n      dup2\n      mstore\n      0x20\n      add\n      0x00\n      keccak256\n      0x00\n        /* \"pcd2/LoyaltyChain.sol\":3727:3772  Balances[storeHash][_customer] += pointsAdded */\n      dup3\n      dup3\n      sload\n      tag_142\n      swap2\n      swap1\n      tag_89\n      jump\t// in\n    tag_142:\n      swap3\n      pop\n      pop\n      dup2\n      swap1\n      sstore\n      pop\n        /* \"pcd2/LoyaltyChain.sol\":3812:3821  _customer */\n      dup3\n        /* \"pcd2/LoyaltyChain.sol\":3804:3810  _store */\n      dup5\n        /* \"pcd2/LoyaltyChain.sol\":3792:3852  PointsAdded(_store, _customer, pointsAdded, block.timestamp) */\n      mload(0x40)\n      tag_143\n      swap2\n      swap1\n      tag_74\n      jump\t// in\n    tag_143:\n      mload(0x40)\n      dup1\n      swap2\n      sub\n      swap1\n      keccak256\n      0x139ec90f7c10344b0316e9c3f6b81254b4e872f0927228c243612606ba76b5bc\n        /* \"pcd2/LoyaltyChain.sol\":3823:3834  pointsAdded */\n      dup5\n        /* \"pcd2/LoyaltyChain.sol\":3836:3851  block.timestamp */\n      timestamp\n        /* \"pcd2/LoyaltyChain.sol\":3792:3852  PointsAdded(_store, _customer, pointsAdded, block.timestamp) */\n      mload(0x40)\n      tag_144\n      swap3\n      swap2\n      swap1\n      tag_92\n      jump\t// in\n    tag_144:\n      mload(0x40)\n      dup1\n      swap2\n      sub\n      swap1\n      log3\n        /* \"pcd2/LoyaltyChain.sol\":3691:3864  if (pointsAdded > 0) {... */\n    tag_141:\n        /* \"pcd2/LoyaltyChain.sol\":3541:3873  {... */\n      pop\n        /* \"pcd2/LoyaltyChain.sol\":3427:3873  function rERC5b4PoR51qWEvAWuJsX6yRVRBvRVta7 (string memory _store, uint256 _customer, uint256 pointsAdded) public {... */\n      pop\n      pop\n      pop\n      jump\t// out\n    tag_134:\n      dup3\n      dup1\n      sload\n      dup3\n      dup3\n      sstore\n      swap1\n      0x00\n      mstore\n      keccak256(0x00, 0x20)\n      swap1\n      dup2\n      add\n      swap3\n      dup3\n      iszero\n      tag_145\n      jumpi\n      swap2\n      0x20\n      mul\n      dup3\n      add\n    tag_146:\n      dup3\n      dup2\n      gt\n      iszero\n      tag_147\n      jumpi\n      dup3\n      mload\n      dup3\n      sstore\n      swap2\n      0x20\n      add\n      swap2\n      swap1\n      0x01\n      add\n      swap1\n      jump(tag_146)\n    tag_147:\n    tag_145:\n      pop\n      swap1\n      pop\n      tag_148\n      swap2\n      swap1\n      tag_149\n      jump\t// in\n    tag_148:\n      pop\n      swap1\n      jump\t// out\n    tag_149:\n    tag_150:\n      dup1\n      dup3\n      gt\n      iszero\n      tag_151\n      jumpi\n      0x00\n      dup2\n      0x00\n      swap1\n      sstore\n      pop\n      0x01\n      add\n      jump(tag_150)\n    tag_151:\n      pop\n      swap1\n      jump\t// out\n        /* \"#utility.yul\":7:82   */\n    tag_152:\n        /* \"#utility.yul\":40:46   */\n      0x00\n        /* \"#utility.yul\":73:75   */\n      0x40\n        /* \"#utility.yul\":67:76   */\n      mload\n        /* \"#utility.yul\":57:76   */\n      swap1\n      pop\n        /* \"#utility.yul\":7:82   */\n      swap1\n      jump\t// out\n        /* \"#utility.yul\":88:205   */\n    tag_153:\n        /* \"#utility.yul\":197:198   */\n      0x00\n        /* \"#utility.yul\":194:195   */\n      dup1\n        /* \"#utility.yul\":187:199   */\n      revert\n        /* \"#utility.yul\":211:328   */\n    tag_154:\n        /* \"#utility.yul\":320:321   */\n      0x00\n        /* \"#utility.yul\":317:318   */\n      dup1\n        /* \"#utility.yul\":310:322   */\n      revert\n        /* \"#utility.yul\":334:451   */\n    tag_155:\n        /* \"#utility.yul\":443:444   */\n      0x00\n        /* \"#utility.yul\":440:441   */\n      dup1\n        /* \"#utility.yul\":433:445   */\n      revert\n        /* \"#utility.yul\":457:574   */\n    tag_156:\n        /* \"#utility.yul\":566:567   */\n      0x00\n        /* \"#utility.yul\":563:564   */\n      dup1\n        /* \"#utility.yul\":556:568   */\n      revert\n        /* \"#utility.yul\":580:682   */\n    tag_157:\n        /* \"#utility.yul\":621:627   */\n      0x00\n        /* \"#utility.yul\":672:674   */\n      0x1f\n        /* \"#utility.yul\":668:675   */\n      not\n        /* \"#utility.yul\":663:665   */\n      0x1f\n        /* \"#utility.yul\":656:661   */\n      dup4\n        /* \"#utility.yul\":652:666   */\n      add\n        /* \"#utility.yul\":648:676   */\n      and\n        /* \"#utility.yul\":638:676   */\n      swap1\n      pop\n        /* \"#utility.yul\":580:682   */\n      swap2\n      swap1\n      pop\n      jump\t// out\n        /* \"#utility.yul\":688:868   */\n    tag_131:\n        /* \"#utility.yul\":736:813   */\n      0x4e487b7100000000000000000000000000000000000000000000000000000000\n        /* \"#utility.yul\":733:734   */\n      0x00\n        /* \"#utility.yul\":726:814   */\n      mstore\n        /* \"#utility.yul\":833:837   */\n      0x41\n        /* \"#utility.yul\":830:831   */\n      0x04\n        /* \"#utility.yul\":823:838   */\n      mstore\n        /* \"#utility.yul\":857:861   */\n      0x24\n        /* \"#utility.yul\":854:855   */\n      0x00\n        /* \"#utility.yul\":847:862   */\n      revert\n        /* \"#utility.yul\":874:1155   */\n    tag_158:\n        /* \"#utility.yul\":957:984   */\n      tag_206\n        /* \"#utility.yul\":979:983   */\n      dup3\n        /* \"#utility.yul\":957:984   */\n      tag_157\n      jump\t// in\n    tag_206:\n        /* \"#utility.yul\":949:955   */\n      dup2\n        /* \"#utility.yul\":945:985   */\n      add\n        /* \"#utility.yul\":1087:1093   */\n      dup2\n        /* \"#utility.yul\":1075:1085   */\n      dup2\n        /* \"#utility.yul\":1072:1094   */\n      lt\n        /* \"#utility.yul\":1051:1069   */\n      0xffffffffffffffff\n        /* \"#utility.yul\":1039:1049   */\n      dup3\n        /* \"#utility.yul\":1036:1070   */\n      gt\n        /* \"#utility.yul\":1033:1095   */\n      or\n        /* \"#utility.yul\":1030:1118   */\n      iszero\n      tag_207\n      jumpi\n        /* \"#utility.yul\":1098:1116   */\n      tag_208\n      tag_131\n      jump\t// in\n    tag_208:\n        /* \"#utility.yul\":1030:1118   */\n    tag_207:\n        /* \"#utility.yul\":1138:1148   */\n      dup1\n        /* \"#utility.yul\":1134:1136   */\n      0x40\n        /* \"#utility.yul\":1127:1149   */\n      mstore\n        /* \"#utility.yul\":917:1155   */\n      pop\n        /* \"#utility.yul\":874:1155   */\n      pop\n      pop\n      jump\t// out\n        /* \"#utility.yul\":1161:1290   */\n    tag_159:\n        /* \"#utility.yul\":1195:1201   */\n      0x00\n        /* \"#utility.yul\":1222:1242   */\n      tag_210\n      tag_152\n      jump\t// in\n    tag_210:\n        /* \"#utility.yul\":1212:1242   */\n      swap1\n      pop\n        /* \"#utility.yul\":1251:1284   */\n      tag_211\n        /* \"#utility.yul\":1279:1283   */\n      dup3\n        /* \"#utility.yul\":1271:1277   */\n      dup3\n        /* \"#utility.yul\":1251:1284   */\n      tag_158\n      jump\t// in\n    tag_211:\n        /* \"#utility.yul\":1161:1290   */\n      swap2\n      swap1\n      pop\n      jump\t// out\n        /* \"#utility.yul\":1296:1604   */\n    tag_160:\n        /* \"#utility.yul\":1358:1362   */\n      0x00\n        /* \"#utility.yul\":1448:1466   */\n      0xffffffffffffffff\n        /* \"#utility.yul\":1440:1446   */\n      dup3\n        /* \"#utility.yul\":1437:1467   */\n      gt\n        /* \"#utility.yul\":1434:1490   */\n      iszero\n      tag_213\n      jumpi\n        /* \"#utility.yul\":1470:1488   */\n      tag_214\n      tag_131\n      jump\t// in\n    tag_214:\n        /* \"#utility.yul\":1434:1490   */\n    tag_213:\n        /* \"#utility.yul\":1508:1537   */\n      tag_215\n        /* \"#utility.yul\":1530:1536   */\n      dup3\n        /* \"#utility.yul\":1508:1537   */\n      tag_157\n      jump\t// in\n    tag_215:\n        /* \"#utility.yul\":1500:1537   */\n      swap1\n      pop\n        /* \"#utility.yul\":1592:1596   */\n      0x20\n        /* \"#utility.yul\":1586:1590   */\n      dup2\n        /* \"#utility.yul\":1582:1597   */\n      add\n        /* \"#utility.yul\":1574:1597   */\n      swap1\n      pop\n        /* \"#utility.yul\":1296:1604   */\n      swap2\n      swap1\n      pop\n      jump\t// out\n        /* \"#utility.yul\":1610:1758   */\n    tag_161:\n        /* \"#utility.yul\":1708:1714   */\n      dup3\n        /* \"#utility.yul\":1703:1706   */\n      dup2\n        /* \"#utility.yul\":1698:1701   */\n      dup4\n        /* \"#utility.yul\":1685:1715   */\n      calldatacopy\n        /* \"#utility.yul\":1749:1750   */\n      0x00\n        /* \"#utility.yul\":1740:1746   */\n      dup4\n        /* \"#utility.yul\":1735:1738   */\n      dup4\n        /* \"#utility.yul\":1731:1747   */\n      add\n        /* \"#utility.yul\":1724:1751   */\n      mstore\n        /* \"#utility.yul\":1610:1758   */\n      pop\n      pop\n      pop\n      jump\t// out\n        /* \"#utility.yul\":1764:2189   */\n    tag_162:\n        /* \"#utility.yul\":1842:1847   */\n      0x00\n        /* \"#utility.yul\":1867:1933   */\n      tag_218\n        /* \"#utility.yul\":1883:1932   */\n      tag_219\n        /* \"#utility.yul\":1925:1931   */\n      dup5\n        /* \"#utility.yul\":1883:1932   */\n      tag_160\n      jump\t// in\n    tag_219:\n        /* \"#utility.yul\":1867:1933   */\n      tag_159\n      jump\t// in\n    tag_218:\n        /* \"#utility.yul\":1858:1933   */\n      swap1\n      pop\n        /* \"#utility.yul\":1956:1962   */\n      dup3\n        /* \"#utility.yul\":1949:1954   */\n      dup2\n        /* \"#utility.yul\":1942:1963   */\n      mstore\n        /* \"#utility.yul\":1994:1998   */\n      0x20\n        /* \"#utility.yul\":1987:1992   */\n      dup2\n        /* \"#utility.yul\":1983:1999   */\n      add\n        /* \"#utility.yul\":2032:2035   */\n      dup5\n        /* \"#utility.yul\":2023:2029   */\n      dup5\n        /* \"#utility.yul\":2018:2021   */\n      dup5\n        /* \"#utility.yul\":2014:2030   */\n      add\n        /* \"#utility.yul\":2011:2036   */\n      gt\n        /* \"#utility.yul\":2008:2120   */\n      iszero\n      tag_220\n      jumpi\n        /* \"#utility.yul\":2039:2118   */\n      tag_221\n      tag_156\n      jump\t// in\n    tag_221:\n        /* \"#utility.yul\":2008:2120   */\n    tag_220:\n        /* \"#utility.yul\":2129:2183   */\n      tag_222\n        /* \"#utility.yul\":2176:2182   */\n      dup5\n        /* \"#utility.yul\":2171:2174   */\n      dup3\n        /* \"#utility.yul\":2166:2169   */\n      dup6\n        /* \"#utility.yul\":2129:2183   */\n      tag_161\n      jump\t// in\n    tag_222:\n        /* \"#utility.yul\":1848:2189   */\n      pop\n        /* \"#utility.yul\":1764:2189   */\n      swap4\n      swap3\n      pop\n      pop\n      pop\n      jump\t// out\n        /* \"#utility.yul\":2209:2549   */\n    tag_163:\n        /* \"#utility.yul\":2265:2270   */\n      0x00\n        /* \"#utility.yul\":2314:2317   */\n      dup3\n        /* \"#utility.yul\":2307:2311   */\n      0x1f\n        /* \"#utility.yul\":2299:2305   */\n      dup4\n        /* \"#utility.yul\":2295:2312   */\n      add\n        /* \"#utility.yul\":2291:2318   */\n      slt\n        /* \"#utility.yul\":2281:2403   */\n      tag_224\n      jumpi\n        /* \"#utility.yul\":2322:2401   */\n      tag_225\n      tag_155\n      jump\t// in\n    tag_225:\n        /* \"#utility.yul\":2281:2403   */\n    tag_224:\n        /* \"#utility.yul\":2439:2445   */\n      dup2\n        /* \"#utility.yul\":2426:2446   */\n      calldataload\n        /* \"#utility.yul\":2464:2543   */\n      tag_226\n        /* \"#utility.yul\":2539:2542   */\n      dup5\n        /* \"#utility.yul\":2531:2537   */\n      dup3\n        /* \"#utility.yul\":2524:2528   */\n      0x20\n        /* \"#utility.yul\":2516:2522   */\n      dup7\n        /* \"#utility.yul\":2512:2529   */\n      add\n        /* \"#utility.yul\":2464:2543   */\n      tag_162\n      jump\t// in\n    tag_226:\n        /* \"#utility.yul\":2455:2543   */\n      swap2\n      pop\n        /* \"#utility.yul\":2271:2549   */\n      pop\n        /* \"#utility.yul\":2209:2549   */\n      swap3\n      swap2\n      pop\n      pop\n      jump\t// out\n        /* \"#utility.yul\":2555:2632   */\n    tag_164:\n        /* \"#utility.yul\":2592:2599   */\n      0x00\n        /* \"#utility.yul\":2621:2626   */\n      dup2\n        /* \"#utility.yul\":2610:2626   */\n      swap1\n      pop\n        /* \"#utility.yul\":2555:2632   */\n      swap2\n      swap1\n      pop\n      jump\t// out\n        /* \"#utility.yul\":2638:2760   */\n    tag_165:\n        /* \"#utility.yul\":2711:2735   */\n      tag_229\n        /* \"#utility.yul\":2729:2734   */\n      dup2\n        /* \"#utility.yul\":2711:2735   */\n      tag_164\n      jump\t// in\n    tag_229:\n        /* \"#utility.yul\":2704:2709   */\n      dup2\n        /* \"#utility.yul\":2701:2736   */\n      eq\n        /* \"#utility.yul\":2691:2754   */\n      tag_230\n      jumpi\n        /* \"#utility.yul\":2750:2751   */\n      0x00\n        /* \"#utility.yul\":2747:2748   */\n      dup1\n        /* \"#utility.yul\":2740:2752   */\n      revert\n        /* \"#utility.yul\":2691:2754   */\n    tag_230:\n        /* \"#utility.yul\":2638:2760   */\n      pop\n      jump\t// out\n        /* \"#utility.yul\":2766:2905   */\n    tag_166:\n        /* \"#utility.yul\":2812:2817   */\n      0x00\n        /* \"#utility.yul\":2850:2856   */\n      dup2\n        /* \"#utility.yul\":2837:2857   */\n      calldataload\n        /* \"#utility.yul\":2828:2857   */\n      swap1\n      pop\n        /* \"#utility.yul\":2866:2899   */\n      tag_232\n        /* \"#utility.yul\":2893:2898   */\n      dup2\n        /* \"#utility.yul\":2866:2899   */\n      tag_165\n      jump\t// in\n    tag_232:\n        /* \"#utility.yul\":2766:2905   */\n      swap3\n      swap2\n      pop\n      pop\n      jump\t// out\n        /* \"#utility.yul\":2911:3710   */\n    tag_20:\n        /* \"#utility.yul\":2998:3004   */\n      0x00\n        /* \"#utility.yul\":3006:3012   */\n      dup1\n        /* \"#utility.yul\":3014:3020   */\n      0x00\n        /* \"#utility.yul\":3063:3065   */\n      0x60\n        /* \"#utility.yul\":3051:3060   */\n      dup5\n        /* \"#utility.yul\":3042:3049   */\n      dup7\n        /* \"#utility.yul\":3038:3061   */\n      sub\n        /* \"#utility.yul\":3034:3066   */\n      slt\n        /* \"#utility.yul\":3031:3150   */\n      iszero\n      tag_234\n      jumpi\n        /* \"#utility.yul\":3069:3148   */\n      tag_235\n      tag_153\n      jump\t// in\n    tag_235:\n        /* \"#utility.yul\":3031:3150   */\n    tag_234:\n        /* \"#utility.yul\":3217:3218   */\n      0x00\n        /* \"#utility.yul\":3206:3215   */\n      dup5\n        /* \"#utility.yul\":3202:3219   */\n      add\n        /* \"#utility.yul\":3189:3220   */\n      calldataload\n        /* \"#utility.yul\":3247:3265   */\n      0xffffffffffffffff\n        /* \"#utility.yul\":3239:3245   */\n      dup2\n        /* \"#utility.yul\":3236:3266   */\n      gt\n        /* \"#utility.yul\":3233:3350   */\n      iszero\n      tag_236\n      jumpi\n        /* \"#utility.yul\":3269:3348   */\n      tag_237\n      tag_154\n      jump\t// in\n    tag_237:\n        /* \"#utility.yul\":3233:3350   */\n    tag_236:\n        /* \"#utility.yul\":3374:3437   */\n      tag_238\n        /* \"#utility.yul\":3429:3436   */\n      dup7\n        /* \"#utility.yul\":3420:3426   */\n      dup3\n        /* \"#utility.yul\":3409:3418   */\n      dup8\n        /* \"#utility.yul\":3405:3427   */\n      add\n        /* \"#utility.yul\":3374:3437   */\n      tag_163\n      jump\t// in\n    tag_238:\n        /* \"#utility.yul\":3364:3437   */\n      swap4\n      pop\n        /* \"#utility.yul\":3160:3447   */\n      pop\n        /* \"#utility.yul\":3486:3488   */\n      0x20\n        /* \"#utility.yul\":3512:3565   */\n      tag_239\n        /* \"#utility.yul\":3557:3564   */\n      dup7\n        /* \"#utility.yul\":3548:3554   */\n      dup3\n        /* \"#utility.yul\":3537:3546   */\n      dup8\n        /* \"#utility.yul\":3533:3555   */\n      add\n        /* \"#utility.yul\":3512:3565   */\n      tag_166\n      jump\t// in\n    tag_239:\n        /* \"#utility.yul\":3502:3565   */\n      swap3\n      pop\n        /* \"#utility.yul\":3457:3575   */\n      pop\n        /* \"#utility.yul\":3614:3616   */\n      0x40\n        /* \"#utility.yul\":3640:3693   */\n      tag_240\n        /* \"#utility.yul\":3685:3692   */\n      dup7\n        /* \"#utility.yul\":3676:3682   */\n      dup3\n        /* \"#utility.yul\":3665:3674   */\n      dup8\n        /* \"#utility.yul\":3661:3683   */\n      add\n        /* \"#utility.yul\":3640:3693   */\n      tag_166\n      jump\t// in\n    tag_240:\n        /* \"#utility.yul\":3630:3693   */\n      swap2\n      pop\n        /* \"#utility.yul\":3585:3703   */\n      pop\n        /* \"#utility.yul\":2911:3710   */\n      swap3\n      pop\n      swap3\n      pop\n      swap3\n      jump\t// out\n        /* \"#utility.yul\":3716:4661   */\n    tag_27:\n        /* \"#utility.yul\":3812:3818   */\n      0x00\n        /* \"#utility.yul\":3820:3826   */\n      dup1\n        /* \"#utility.yul\":3828:3834   */\n      0x00\n        /* \"#utility.yul\":3836:3842   */\n      dup1\n        /* \"#utility.yul\":3885:3888   */\n      0x80\n        /* \"#utility.yul\":3873:3882   */\n      dup6\n        /* \"#utility.yul\":3864:3871   */\n      dup8\n        /* \"#utility.yul\":3860:3883   */\n      sub\n        /* \"#utility.yul\":3856:3889   */\n      slt\n        /* \"#utility.yul\":3853:3973   */\n      iszero\n      tag_242\n      jumpi\n        /* \"#utility.yul\":3892:3971   */\n      tag_243\n      tag_153\n      jump\t// in\n    tag_243:\n        /* \"#utility.yul\":3853:3973   */\n    tag_242:\n        /* \"#utility.yul\":4040:4041   */\n      0x00\n        /* \"#utility.yul\":4029:4038   */\n      dup6\n        /* \"#utility.yul\":4025:4042   */\n      add\n        /* \"#utility.yul\":4012:4043   */\n      calldataload\n        /* \"#utility.yul\":4070:4088   */\n      0xffffffffffffffff\n        /* \"#utility.yul\":4062:4068   */\n      dup2\n        /* \"#utility.yul\":4059:4089   */\n      gt\n        /* \"#utility.yul\":4056:4173   */\n      iszero\n      tag_244\n      jumpi\n        /* \"#utility.yul\":4092:4171   */\n      tag_245\n      tag_154\n      jump\t// in\n    tag_245:\n        /* \"#utility.yul\":4056:4173   */\n    tag_244:\n        /* \"#utility.yul\":4197:4260   */\n      tag_246\n        /* \"#utility.yul\":4252:4259   */\n      dup8\n        /* \"#utility.yul\":4243:4249   */\n      dup3\n        /* \"#utility.yul\":4232:4241   */\n      dup9\n        /* \"#utility.yul\":4228:4250   */\n      add\n        /* \"#utility.yul\":4197:4260   */\n      tag_163\n      jump\t// in\n    tag_246:\n        /* \"#utility.yul\":4187:4260   */\n      swap5\n      pop\n        /* \"#utility.yul\":3983:4270   */\n      pop\n        /* \"#utility.yul\":4309:4311   */\n      0x20\n        /* \"#utility.yul\":4335:4388   */\n      tag_247\n        /* \"#utility.yul\":4380:4387   */\n      dup8\n        /* \"#utility.yul\":4371:4377   */\n      dup3\n        /* \"#utility.yul\":4360:4369   */\n      dup9\n        /* \"#utility.yul\":4356:4378   */\n      add\n        /* \"#utility.yul\":4335:4388   */\n      tag_166\n      jump\t// in\n    tag_247:\n        /* \"#utility.yul\":4325:4388   */\n      swap4\n      pop\n        /* \"#utility.yul\":4280:4398   */\n      pop\n        /* \"#utility.yul\":4437:4439   */\n      0x40\n        /* \"#utility.yul\":4463:4516   */\n      tag_248\n        /* \"#utility.yul\":4508:4515   */\n      dup8\n        /* \"#utility.yul\":4499:4505   */\n      dup3\n        /* \"#utility.yul\":4488:4497   */\n      dup9\n        /* \"#utility.yul\":4484:4506   */\n      add\n        /* \"#utility.yul\":4463:4516   */\n      tag_166\n      jump\t// in\n    tag_248:\n        /* \"#utility.yul\":4453:4516   */\n      swap3\n      pop\n        /* \"#utility.yul\":4408:4526   */\n      pop\n        /* \"#utility.yul\":4565:4567   */\n      0x60\n        /* \"#utility.yul\":4591:4644   */\n      tag_249\n        /* \"#utility.yul\":4636:4643   */\n      dup8\n        /* \"#utility.yul\":4627:4633   */\n      dup3\n        /* \"#utility.yul\":4616:4625   */\n      dup9\n        /* \"#utility.yul\":4612:4634   */\n      add\n        /* \"#utility.yul\":4591:4644   */\n      tag_166\n      jump\t// in\n    tag_249:\n        /* \"#utility.yul\":4581:4644   */\n      swap2\n      pop\n        /* \"#utility.yul\":4536:4654   */\n      pop\n        /* \"#utility.yul\":3716:4661   */\n      swap3\n      swap6\n      swap2\n      swap5\n      pop\n      swap3\n      pop\n      jump\t// out\n        /* \"#utility.yul\":4667:5321   */\n    tag_31:\n        /* \"#utility.yul\":4745:4751   */\n      0x00\n        /* \"#utility.yul\":4753:4759   */\n      dup1\n        /* \"#utility.yul\":4802:4804   */\n      0x40\n        /* \"#utility.yul\":4790:4799   */\n      dup4\n        /* \"#utility.yul\":4781:4788   */\n      dup6\n        /* \"#utility.yul\":4777:4800   */\n      sub\n        /* \"#utility.yul\":4773:4805   */\n      slt\n        /* \"#utility.yul\":4770:4889   */\n      iszero\n      tag_251\n      jumpi\n        /* \"#utility.yul\":4808:4887   */\n      tag_252\n      tag_153\n      jump\t// in\n    tag_252:\n        /* \"#utility.yul\":4770:4889   */\n    tag_251:\n        /* \"#utility.yul\":4956:4957   */\n      0x00\n        /* \"#utility.yul\":4945:4954   */\n      dup4\n        /* \"#utility.yul\":4941:4958   */\n      add\n        /* \"#utility.yul\":4928:4959   */\n      calldataload\n        /* \"#utility.yul\":4986:5004   */\n      0xffffffffffffffff\n        /* \"#utility.yul\":4978:4984   */\n      dup2\n        /* \"#utility.yul\":4975:5005   */\n      gt\n        /* \"#utility.yul\":4972:5089   */\n      iszero\n      tag_253\n      jumpi\n        /* \"#utility.yul\":5008:5087   */\n      tag_254\n      tag_154\n      jump\t// in\n    tag_254:\n        /* \"#utility.yul\":4972:5089   */\n    tag_253:\n        /* \"#utility.yul\":5113:5176   */\n      tag_255\n        /* \"#utility.yul\":5168:5175   */\n      dup6\n        /* \"#utility.yul\":5159:5165   */\n      dup3\n        /* \"#utility.yul\":5148:5157   */\n      dup7\n        /* \"#utility.yul\":5144:5166   */\n      add\n        /* \"#utility.yul\":5113:5176   */\n      tag_163\n      jump\t// in\n    tag_255:\n        /* \"#utility.yul\":5103:5176   */\n      swap3\n      pop\n        /* \"#utility.yul\":4899:5186   */\n      pop\n        /* \"#utility.yul\":5225:5227   */\n      0x20\n        /* \"#utility.yul\":5251:5304   */\n      tag_256\n        /* \"#utility.yul\":5296:5303   */\n      dup6\n        /* \"#utility.yul\":5287:5293   */\n      dup3\n        /* \"#utility.yul\":5276:5285   */\n      dup7\n        /* \"#utility.yul\":5272:5294   */\n      add\n        /* \"#utility.yul\":5251:5304   */\n      tag_166\n      jump\t// in\n    tag_256:\n        /* \"#utility.yul\":5241:5304   */\n      swap2\n      pop\n        /* \"#utility.yul\":5196:5314   */\n      pop\n        /* \"#utility.yul\":4667:5321   */\n      swap3\n      pop\n      swap3\n      swap1\n      pop\n      jump\t// out\n        /* \"#utility.yul\":5327:5445   */\n    tag_167:\n        /* \"#utility.yul\":5414:5438   */\n      tag_258\n        /* \"#utility.yul\":5432:5437   */\n      dup2\n        /* \"#utility.yul\":5414:5438   */\n      tag_164\n      jump\t// in\n    tag_258:\n        /* \"#utility.yul\":5409:5412   */\n      dup3\n        /* \"#utility.yul\":5402:5439   */\n      mstore\n        /* \"#utility.yul\":5327:5445   */\n      pop\n      pop\n      jump\t// out\n        /* \"#utility.yul\":5451:5673   */\n    tag_34:\n        /* \"#utility.yul\":5544:5548   */\n      0x00\n        /* \"#utility.yul\":5582:5584   */\n      0x20\n        /* \"#utility.yul\":5571:5580   */\n      dup3\n        /* \"#utility.yul\":5567:5585   */\n      add\n        /* \"#utility.yul\":5559:5585   */\n      swap1\n      pop\n        /* \"#utility.yul\":5595:5666   */\n      tag_260\n        /* \"#utility.yul\":5663:5664   */\n      0x00\n        /* \"#utility.yul\":5652:5661   */\n      dup4\n        /* \"#utility.yul\":5648:5665   */\n      add\n        /* \"#utility.yul\":5639:5645   */\n      dup5\n        /* \"#utility.yul\":5595:5666   */\n      tag_167\n      jump\t// in\n    tag_260:\n        /* \"#utility.yul\":5451:5673   */\n      swap3\n      swap2\n      pop\n      pop\n      jump\t// out\n        /* \"#utility.yul\":5679:5756   */\n    tag_168:\n        /* \"#utility.yul\":5716:5723   */\n      0x00\n        /* \"#utility.yul\":5745:5750   */\n      dup2\n        /* \"#utility.yul\":5734:5750   */\n      swap1\n      pop\n        /* \"#utility.yul\":5679:5756   */\n      swap2\n      swap1\n      pop\n      jump\t// out\n        /* \"#utility.yul\":5762:5884   */\n    tag_169:\n        /* \"#utility.yul\":5835:5859   */\n      tag_263\n        /* \"#utility.yul\":5853:5858   */\n      dup2\n        /* \"#utility.yul\":5835:5859   */\n      tag_168\n      jump\t// in\n    tag_263:\n        /* \"#utility.yul\":5828:5833   */\n      dup2\n        /* \"#utility.yul\":5825:5860   */\n      eq\n        /* \"#utility.yul\":5815:5878   */\n      tag_264\n      jumpi\n        /* \"#utility.yul\":5874:5875   */\n      0x00\n        /* \"#utility.yul\":5871:5872   */\n      dup1\n        /* \"#utility.yul\":5864:5876   */\n      revert\n        /* \"#utility.yul\":5815:5878   */\n    tag_264:\n        /* \"#utility.yul\":5762:5884   */\n      pop\n      jump\t// out\n        /* \"#utility.yul\":5890:6029   */\n    tag_170:\n        /* \"#utility.yul\":5936:5941   */\n      0x00\n        /* \"#utility.yul\":5974:5980   */\n      dup2\n        /* \"#utility.yul\":5961:5981   */\n      calldataload\n        /* \"#utility.yul\":5952:5981   */\n      swap1\n      pop\n        /* \"#utility.yul\":5990:6023   */\n      tag_266\n        /* \"#utility.yul\":6017:6022   */\n      dup2\n        /* \"#utility.yul\":5990:6023   */\n      tag_169\n      jump\t// in\n    tag_266:\n        /* \"#utility.yul\":5890:6029   */\n      swap3\n      swap2\n      pop\n      pop\n      jump\t// out\n        /* \"#utility.yul\":6035:6509   */\n    tag_37:\n        /* \"#utility.yul\":6103:6109   */\n      0x00\n        /* \"#utility.yul\":6111:6117   */\n      dup1\n        /* \"#utility.yul\":6160:6162   */\n      0x40\n        /* \"#utility.yul\":6148:6157   */\n      dup4\n        /* \"#utility.yul\":6139:6146   */\n      dup6\n        /* \"#utility.yul\":6135:6158   */\n      sub\n        /* \"#utility.yul\":6131:6163   */\n      slt\n        /* \"#utility.yul\":6128:6247   */\n      iszero\n      tag_268\n      jumpi\n        /* \"#utility.yul\":6166:6245   */\n      tag_269\n      tag_153\n      jump\t// in\n    tag_269:\n        /* \"#utility.yul\":6128:6247   */\n    tag_268:\n        /* \"#utility.yul\":6286:6287   */\n      0x00\n        /* \"#utility.yul\":6311:6364   */\n      tag_270\n        /* \"#utility.yul\":6356:6363   */\n      dup6\n        /* \"#utility.yul\":6347:6353   */\n      dup3\n        /* \"#utility.yul\":6336:6345   */\n      dup7\n        /* \"#utility.yul\":6332:6354   */\n      add\n        /* \"#utility.yul\":6311:6364   */\n      tag_170\n      jump\t// in\n    tag_270:\n        /* \"#utility.yul\":6301:6364   */\n      swap3\n      pop\n        /* \"#utility.yul\":6257:6374   */\n      pop\n        /* \"#utility.yul\":6413:6415   */\n      0x20\n        /* \"#utility.yul\":6439:6492   */\n      tag_271\n        /* \"#utility.yul\":6484:6491   */\n      dup6\n        /* \"#utility.yul\":6475:6481   */\n      dup3\n        /* \"#utility.yul\":6464:6473   */\n      dup7\n        /* \"#utility.yul\":6460:6482   */\n      add\n        /* \"#utility.yul\":6439:6492   */\n      tag_166\n      jump\t// in\n    tag_271:\n        /* \"#utility.yul\":6429:6492   */\n      swap2\n      pop\n        /* \"#utility.yul\":6384:6502   */\n      pop\n        /* \"#utility.yul\":6035:6509   */\n      swap3\n      pop\n      swap3\n      swap1\n      pop\n      jump\t// out\n        /* \"#utility.yul\":6515:7024   */\n    tag_42:\n        /* \"#utility.yul\":6584:6590   */\n      0x00\n        /* \"#utility.yul\":6633:6635   */\n      0x20\n        /* \"#utility.yul\":6621:6630   */\n      dup3\n        /* \"#utility.yul\":6612:6619   */\n      dup5\n        /* \"#utility.yul\":6608:6631   */\n      sub\n        /* \"#utility.yul\":6604:6636   */\n      slt\n        /* \"#utility.yul\":6601:6720   */\n      iszero\n      tag_273\n      jumpi\n        /* \"#utility.yul\":6639:6718   */\n      tag_274\n      tag_153\n      jump\t// in\n    tag_274:\n        /* \"#utility.yul\":6601:6720   */\n    tag_273:\n        /* \"#utility.yul\":6787:6788   */\n      0x00\n        /* \"#utility.yul\":6776:6785   */\n      dup3\n        /* \"#utility.yul\":6772:6789   */\n      add\n        /* \"#utility.yul\":6759:6790   */\n      calldataload\n        /* \"#utility.yul\":6817:6835   */\n      0xffffffffffffffff\n        /* \"#utility.yul\":6809:6815   */\n      dup2\n        /* \"#utility.yul\":6806:6836   */\n      gt\n        /* \"#utility.yul\":6803:6920   */\n      iszero\n      tag_275\n      jumpi\n        /* \"#utility.yul\":6839:6918   */\n      tag_276\n      tag_154\n      jump\t// in\n    tag_276:\n        /* \"#utility.yul\":6803:6920   */\n    tag_275:\n        /* \"#utility.yul\":6944:7007   */\n      tag_277\n        /* \"#utility.yul\":6999:7006   */\n      dup5\n        /* \"#utility.yul\":6990:6996   */\n      dup3\n        /* \"#utility.yul\":6979:6988   */\n      dup6\n        /* \"#utility.yul\":6975:6997   */\n      add\n        /* \"#utility.yul\":6944:7007   */\n      tag_163\n      jump\t// in\n    tag_277:\n        /* \"#utility.yul\":6934:7007   */\n      swap2\n      pop\n        /* \"#utility.yul\":6730:7017   */\n      pop\n        /* \"#utility.yul\":6515:7024   */\n      swap3\n      swap2\n      pop\n      pop\n      jump\t// out\n        /* \"#utility.yul\":7030:7148   */\n    tag_171:\n        /* \"#utility.yul\":7117:7141   */\n      tag_279\n        /* \"#utility.yul\":7135:7140   */\n      dup2\n        /* \"#utility.yul\":7117:7141   */\n      tag_168\n      jump\t// in\n    tag_279:\n        /* \"#utility.yul\":7112:7115   */\n      dup3\n        /* \"#utility.yul\":7105:7142   */\n      mstore\n        /* \"#utility.yul\":7030:7148   */\n      pop\n      pop\n      jump\t// out\n        /* \"#utility.yul\":7154:7376   */\n    tag_45:\n        /* \"#utility.yul\":7247:7251   */\n      0x00\n        /* \"#utility.yul\":7285:7287   */\n      0x20\n        /* \"#utility.yul\":7274:7283   */\n      dup3\n        /* \"#utility.yul\":7270:7288   */\n      add\n        /* \"#utility.yul\":7262:7288   */\n      swap1\n      pop\n        /* \"#utility.yul\":7298:7369   */\n      tag_281\n        /* \"#utility.yul\":7366:7367   */\n      0x00\n        /* \"#utility.yul\":7355:7364   */\n      dup4\n        /* \"#utility.yul\":7351:7368   */\n      add\n        /* \"#utility.yul\":7342:7348   */\n      dup5\n        /* \"#utility.yul\":7298:7369   */\n      tag_171\n      jump\t// in\n    tag_281:\n        /* \"#utility.yul\":7154:7376   */\n      swap3\n      swap2\n      pop\n      pop\n      jump\t// out\n        /* \"#utility.yul\":7382:7711   */\n    tag_55:\n        /* \"#utility.yul\":7441:7447   */\n      0x00\n        /* \"#utility.yul\":7490:7492   */\n      0x20\n        /* \"#utility.yul\":7478:7487   */\n      dup3\n        /* \"#utility.yul\":7469:7476   */\n      dup5\n        /* \"#utility.yul\":7465:7488   */\n      sub\n        /* \"#utility.yul\":7461:7493   */\n      slt\n        /* \"#utility.yul\":7458:7577   */\n      iszero\n      tag_283\n      jumpi\n        /* \"#utility.yul\":7496:7575   */\n      tag_284\n      tag_153\n      jump\t// in\n    tag_284:\n        /* \"#utility.yul\":7458:7577   */\n    tag_283:\n        /* \"#utility.yul\":7616:7617   */\n      0x00\n        /* \"#utility.yul\":7641:7694   */\n      tag_285\n        /* \"#utility.yul\":7686:7693   */\n      dup5\n        /* \"#utility.yul\":7677:7683   */\n      dup3\n        /* \"#utility.yul\":7666:7675   */\n      dup6\n        /* \"#utility.yul\":7662:7684   */\n      add\n        /* \"#utility.yul\":7641:7694   */\n      tag_170\n      jump\t// in\n    tag_285:\n        /* \"#utility.yul\":7631:7694   */\n      swap2\n      pop\n        /* \"#utility.yul\":7587:7704   */\n      pop\n        /* \"#utility.yul\":7382:7711   */\n      swap3\n      swap2\n      pop\n      pop\n      jump\t// out\n        /* \"#utility.yul\":7717:7807   */\n    tag_172:\n        /* \"#utility.yul\":7751:7758   */\n      0x00\n        /* \"#utility.yul\":7794:7799   */\n      dup2\n        /* \"#utility.yul\":7787:7800   */\n      iszero\n        /* \"#utility.yul\":7780:7801   */\n      iszero\n        /* \"#utility.yul\":7769:7801   */\n      swap1\n      pop\n        /* \"#utility.yul\":7717:7807   */\n      swap2\n      swap1\n      pop\n      jump\t// out\n        /* \"#utility.yul\":7813:7922   */\n    tag_173:\n        /* \"#utility.yul\":7894:7915   */\n      tag_288\n        /* \"#utility.yul\":7909:7914   */\n      dup2\n        /* \"#utility.yul\":7894:7915   */\n      tag_172\n      jump\t// in\n    tag_288:\n        /* \"#utility.yul\":7889:7892   */\n      dup3\n        /* \"#utility.yul\":7882:7916   */\n      mstore\n        /* \"#utility.yul\":7813:7922   */\n      pop\n      pop\n      jump\t// out\n        /* \"#utility.yul\":7928:8138   */\n    tag_58:\n        /* \"#utility.yul\":8015:8019   */\n      0x00\n        /* \"#utility.yul\":8053:8055   */\n      0x20\n        /* \"#utility.yul\":8042:8051   */\n      dup3\n        /* \"#utility.yul\":8038:8056   */\n      add\n        /* \"#utility.yul\":8030:8056   */\n      swap1\n      pop\n        /* \"#utility.yul\":8066:8131   */\n      tag_290\n        /* \"#utility.yul\":8128:8129   */\n      0x00\n        /* \"#utility.yul\":8117:8126   */\n      dup4\n        /* \"#utility.yul\":8113:8130   */\n      add\n        /* \"#utility.yul\":8104:8110   */\n      dup5\n        /* \"#utility.yul\":8066:8131   */\n      tag_173\n      jump\t// in\n    tag_290:\n        /* \"#utility.yul\":7928:8138   */\n      swap3\n      swap2\n      pop\n      pop\n      jump\t// out\n        /* \"#utility.yul\":8144:8258   */\n    tag_174:\n        /* \"#utility.yul\":8211:8217   */\n      0x00\n        /* \"#utility.yul\":8245:8250   */\n      dup2\n        /* \"#utility.yul\":8239:8251   */\n      mload\n        /* \"#utility.yul\":8229:8251   */\n      swap1\n      pop\n        /* \"#utility.yul\":8144:8258   */\n      swap2\n      swap1\n      pop\n      jump\t// out\n        /* \"#utility.yul\":8264:8448   */\n    tag_175:\n        /* \"#utility.yul\":8363:8374   */\n      0x00\n        /* \"#utility.yul\":8397:8403   */\n      dup3\n        /* \"#utility.yul\":8392:8395   */\n      dup3\n        /* \"#utility.yul\":8385:8404   */\n      mstore\n        /* \"#utility.yul\":8437:8441   */\n      0x20\n        /* \"#utility.yul\":8432:8435   */\n      dup3\n        /* \"#utility.yul\":8428:8442   */\n      add\n        /* \"#utility.yul\":8413:8442   */\n      swap1\n      pop\n        /* \"#utility.yul\":8264:8448   */\n      swap3\n      swap2\n      pop\n      pop\n      jump\t// out\n        /* \"#utility.yul\":8454:8586   */\n    tag_176:\n        /* \"#utility.yul\":8521:8525   */\n      0x00\n        /* \"#utility.yul\":8544:8547   */\n      dup2\n        /* \"#utility.yul\":8536:8547   */\n      swap1\n      pop\n        /* \"#utility.yul\":8574:8578   */\n      0x20\n        /* \"#utility.yul\":8569:8572   */\n      dup3\n        /* \"#utility.yul\":8565:8579   */\n      add\n        /* \"#utility.yul\":8557:8579   */\n      swap1\n      pop\n        /* \"#utility.yul\":8454:8586   */\n      swap2\n      swap1\n      pop\n      jump\t// out\n        /* \"#utility.yul\":8592:8700   */\n    tag_177:\n        /* \"#utility.yul\":8669:8693   */\n      tag_295\n        /* \"#utility.yul\":8687:8692   */\n      dup2\n        /* \"#utility.yul\":8669:8693   */\n      tag_168\n      jump\t// in\n    tag_295:\n        /* \"#utility.yul\":8664:8667   */\n      dup3\n        /* \"#utility.yul\":8657:8694   */\n      mstore\n        /* \"#utility.yul\":8592:8700   */\n      pop\n      pop\n      jump\t// out\n        /* \"#utility.yul\":8706:8885   */\n    tag_178:\n        /* \"#utility.yul\":8775:8785   */\n      0x00\n        /* \"#utility.yul\":8796:8842   */\n      tag_297\n        /* \"#utility.yul\":8838:8841   */\n      dup4\n        /* \"#utility.yul\":8830:8836   */\n      dup4\n        /* \"#utility.yul\":8796:8842   */\n      tag_177\n      jump\t// in\n    tag_297:\n        /* \"#utility.yul\":8874:8878   */\n      0x20\n        /* \"#utility.yul\":8869:8872   */\n      dup4\n        /* \"#utility.yul\":8865:8879   */\n      add\n        /* \"#utility.yul\":8851:8879   */\n      swap1\n      pop\n        /* \"#utility.yul\":8706:8885   */\n      swap3\n      swap2\n      pop\n      pop\n      jump\t// out\n        /* \"#utility.yul\":8891:9004   */\n    tag_179:\n        /* \"#utility.yul\":8961:8965   */\n      0x00\n        /* \"#utility.yul\":8993:8997   */\n      0x20\n        /* \"#utility.yul\":8988:8991   */\n      dup3\n        /* \"#utility.yul\":8984:8998   */\n      add\n        /* \"#utility.yul\":8976:8998   */\n      swap1\n      pop\n        /* \"#utility.yul\":8891:9004   */\n      swap2\n      swap1\n      pop\n      jump\t// out\n        /* \"#utility.yul\":9040:9772   */\n    tag_180:\n        /* \"#utility.yul\":9159:9162   */\n      0x00\n        /* \"#utility.yul\":9188:9242   */\n      tag_300\n        /* \"#utility.yul\":9236:9241   */\n      dup3\n        /* \"#utility.yul\":9188:9242   */\n      tag_174\n      jump\t// in\n    tag_300:\n        /* \"#utility.yul\":9258:9344   */\n      tag_301\n        /* \"#utility.yul\":9337:9343   */\n      dup2\n        /* \"#utility.yul\":9332:9335   */\n      dup6\n        /* \"#utility.yul\":9258:9344   */\n      tag_175\n      jump\t// in\n    tag_301:\n        /* \"#utility.yul\":9251:9344   */\n      swap4\n      pop\n        /* \"#utility.yul\":9368:9424   */\n      tag_302\n        /* \"#utility.yul\":9418:9423   */\n      dup4\n        /* \"#utility.yul\":9368:9424   */\n      tag_176\n      jump\t// in\n    tag_302:\n        /* \"#utility.yul\":9447:9454   */\n      dup1\n        /* \"#utility.yul\":9478:9479   */\n      0x00\n        /* \"#utility.yul\":9463:9747   */\n    tag_303:\n        /* \"#utility.yul\":9488:9494   */\n      dup4\n        /* \"#utility.yul\":9485:9486   */\n      dup2\n        /* \"#utility.yul\":9482:9495   */\n      lt\n        /* \"#utility.yul\":9463:9747   */\n      iszero\n      tag_305\n      jumpi\n        /* \"#utility.yul\":9564:9570   */\n      dup2\n        /* \"#utility.yul\":9558:9571   */\n      mload\n        /* \"#utility.yul\":9591:9654   */\n      tag_306\n        /* \"#utility.yul\":9650:9653   */\n      dup9\n        /* \"#utility.yul\":9635:9648   */\n      dup3\n        /* \"#utility.yul\":9591:9654   */\n      tag_178\n      jump\t// in\n    tag_306:\n        /* \"#utility.yul\":9584:9654   */\n      swap8\n      pop\n        /* \"#utility.yul\":9677:9737   */\n      tag_307\n        /* \"#utility.yul\":9730:9736   */\n      dup4\n        /* \"#utility.yul\":9677:9737   */\n      tag_179\n      jump\t// in\n    tag_307:\n        /* \"#utility.yul\":9667:9737   */\n      swap3\n      pop\n        /* \"#utility.yul\":9523:9747   */\n      pop\n        /* \"#utility.yul\":9510:9511   */\n      0x01\n        /* \"#utility.yul\":9507:9508   */\n      dup2\n        /* \"#utility.yul\":9503:9512   */\n      add\n        /* \"#utility.yul\":9498:9512   */\n      swap1\n      pop\n        /* \"#utility.yul\":9463:9747   */\n      jump(tag_303)\n    tag_305:\n        /* \"#utility.yul\":9467:9481   */\n      pop\n        /* \"#utility.yul\":9763:9766   */\n      dup6\n        /* \"#utility.yul\":9756:9766   */\n      swap4\n      pop\n        /* \"#utility.yul\":9164:9772   */\n      pop\n      pop\n      pop\n        /* \"#utility.yul\":9040:9772   */\n      swap3\n      swap2\n      pop\n      pop\n      jump\t// out\n        /* \"#utility.yul\":9778:10151   */\n    tag_62:\n        /* \"#utility.yul\":9921:9925   */\n      0x00\n        /* \"#utility.yul\":9959:9961   */\n      0x20\n        /* \"#utility.yul\":9948:9957   */\n      dup3\n        /* \"#utility.yul\":9944:9962   */\n      add\n        /* \"#utility.yul\":9936:9962   */\n      swap1\n      pop\n        /* \"#utility.yul\":10008:10017   */\n      dup2\n        /* \"#utility.yul\":10002:10006   */\n      dup2\n        /* \"#utility.yul\":9998:10018   */\n      sub\n        /* \"#utility.yul\":9994:9995   */\n      0x00\n        /* \"#utility.yul\":9983:9992   */\n      dup4\n        /* \"#utility.yul\":9979:9996   */\n      add\n        /* \"#utility.yul\":9972:10019   */\n      mstore\n        /* \"#utility.yul\":10036:10144   */\n      tag_309\n        /* \"#utility.yul\":10139:10143   */\n      dup2\n        /* \"#utility.yul\":10130:10136   */\n      dup5\n        /* \"#utility.yul\":10036:10144   */\n      tag_180\n      jump\t// in\n    tag_309:\n        /* \"#utility.yul\":10028:10144   */\n      swap1\n      pop\n        /* \"#utility.yul\":9778:10151   */\n      swap3\n      swap2\n      pop\n      pop\n      jump\t// out\n        /* \"#utility.yul\":10157:10256   */\n    tag_181:\n        /* \"#utility.yul\":10209:10215   */\n      0x00\n        /* \"#utility.yul\":10243:10248   */\n      dup2\n        /* \"#utility.yul\":10237:10249   */\n      mload\n        /* \"#utility.yul\":10227:10249   */\n      swap1\n      pop\n        /* \"#utility.yul\":10157:10256   */\n      swap2\n      swap1\n      pop\n      jump\t// out\n        /* \"#utility.yul\":10262:10410   */\n    tag_182:\n        /* \"#utility.yul\":10364:10375   */\n      0x00\n        /* \"#utility.yul\":10401:10404   */\n      dup2\n        /* \"#utility.yul\":10386:10404   */\n      swap1\n      pop\n        /* \"#utility.yul\":10262:10410   */\n      swap3\n      swap2\n      pop\n      pop\n      jump\t// out\n        /* \"#utility.yul\":10416:10555   */\n    tag_183:\n        /* \"#utility.yul\":10505:10511   */\n      dup3\n        /* \"#utility.yul\":10500:10503   */\n      dup2\n        /* \"#utility.yul\":10495:10498   */\n      dup4\n        /* \"#utility.yul\":10489:10512   */\n      mcopy\n        /* \"#utility.yul\":10546:10547   */\n      0x00\n        /* \"#utility.yul\":10537:10543   */\n      dup4\n        /* \"#utility.yul\":10532:10535   */\n      dup4\n        /* \"#utility.yul\":10528:10544   */\n      add\n        /* \"#utility.yul\":10521:10548   */\n      mstore\n        /* \"#utility.yul\":10416:10555   */\n      pop\n      pop\n      pop\n      jump\t// out\n        /* \"#utility.yul\":10561:10951   */\n    tag_184:\n        /* \"#utility.yul\":10667:10670   */\n      0x00\n        /* \"#utility.yul\":10695:10734   */\n      tag_314\n        /* \"#utility.yul\":10728:10733   */\n      dup3\n        /* \"#utility.yul\":10695:10734   */\n      tag_181\n      jump\t// in\n    tag_314:\n        /* \"#utility.yul\":10750:10839   */\n      tag_315\n        /* \"#utility.yul\":10832:10838   */\n      dup2\n        /* \"#utility.yul\":10827:10830   */\n      dup6\n        /* \"#utility.yul\":10750:10839   */\n      tag_182\n      jump\t// in\n    tag_315:\n        /* \"#utility.yul\":10743:10839   */\n      swap4\n      pop\n        /* \"#utility.yul\":10848:10913   */\n      tag_316\n        /* \"#utility.yul\":10906:10912   */\n      dup2\n        /* \"#utility.yul\":10901:10904   */\n      dup6\n        /* \"#utility.yul\":10894:10898   */\n      0x20\n        /* \"#utility.yul\":10887:10892   */\n      dup7\n        /* \"#utility.yul\":10883:10899   */\n      add\n        /* \"#utility.yul\":10848:10913   */\n      tag_183\n      jump\t// in\n    tag_316:\n        /* \"#utility.yul\":10938:10944   */\n      dup1\n        /* \"#utility.yul\":10933:10936   */\n      dup5\n        /* \"#utility.yul\":10929:10945   */\n      add\n        /* \"#utility.yul\":10922:10945   */\n      swap2\n      pop\n        /* \"#utility.yul\":10671:10951   */\n      pop\n        /* \"#utility.yul\":10561:10951   */\n      swap3\n      swap2\n      pop\n      pop\n      jump\t// out\n        /* \"#utility.yul\":10957:11232   */\n    tag_74:\n        /* \"#utility.yul\":11089:11092   */\n      0x00\n        /* \"#utility.yul\":11111:11206   */\n      tag_318\n        /* \"#utility.yul\":11202:11205   */\n      dup3\n        /* \"#utility.yul\":11193:11199   */\n      dup5\n        /* \"#utility.yul\":11111:11206   */\n      tag_184\n      jump\t// in\n    tag_318:\n        /* \"#utility.yul\":11104:11206   */\n      swap2\n      pop\n        /* \"#utility.yul\":11223:11226   */\n      dup2\n        /* \"#utility.yul\":11216:11226   */\n      swap1\n      pop\n        /* \"#utility.yul\":10957:11232   */\n      swap3\n      swap2\n      pop\n      pop\n      jump\t// out\n        /* \"#utility.yul\":11238:11407   */\n    tag_185:\n        /* \"#utility.yul\":11322:11333   */\n      0x00\n        /* \"#utility.yul\":11356:11362   */\n      dup3\n        /* \"#utility.yul\":11351:11354   */\n      dup3\n        /* \"#utility.yul\":11344:11363   */\n      mstore\n        /* \"#utility.yul\":11396:11400   */\n      0x20\n        /* \"#utility.yul\":11391:11394   */\n      dup3\n        /* \"#utility.yul\":11387:11401   */\n      add\n        /* \"#utility.yul\":11372:11401   */\n      swap1\n      pop\n        /* \"#utility.yul\":11238:11407   */\n      swap3\n      swap2\n      pop\n      pop\n      jump\t// out\n        /* \"#utility.yul\":11413:11583   */\n    tag_186:\n        /* \"#utility.yul\":11553:11575   */\n      0x53746f726520646f6573206e6f74206578697374000000000000000000000000\n        /* \"#utility.yul\":11549:11550   */\n      0x00\n        /* \"#utility.yul\":11541:11547   */\n      dup3\n        /* \"#utility.yul\":11537:11551   */\n      add\n        /* \"#utility.yul\":11530:11576   */\n      mstore\n        /* \"#utility.yul\":11413:11583   */\n      pop\n      jump\t// out\n        /* \"#utility.yul\":11589:11955   */\n    tag_187:\n        /* \"#utility.yul\":11731:11734   */\n      0x00\n        /* \"#utility.yul\":11752:11819   */\n      tag_322\n        /* \"#utility.yul\":11816:11818   */\n      0x14\n        /* \"#utility.yul\":11811:11814   */\n      dup4\n        /* \"#utility.yul\":11752:11819   */\n      tag_185\n      jump\t// in\n    tag_322:\n        /* \"#utility.yul\":11745:11819   */\n      swap2\n      pop\n        /* \"#utility.yul\":11828:11921   */\n      tag_323\n        /* \"#utility.yul\":11917:11920   */\n      dup3\n        /* \"#utility.yul\":11828:11921   */\n      tag_186\n      jump\t// in\n    tag_323:\n        /* \"#utility.yul\":11946:11948   */\n      0x20\n        /* \"#utility.yul\":11941:11944   */\n      dup3\n        /* \"#utility.yul\":11937:11949   */\n      add\n        /* \"#utility.yul\":11930:11949   */\n      swap1\n      pop\n        /* \"#utility.yul\":11589:11955   */\n      swap2\n      swap1\n      pop\n      jump\t// out\n        /* \"#utility.yul\":11961:12380   */\n    tag_78:\n        /* \"#utility.yul\":12127:12131   */\n      0x00\n        /* \"#utility.yul\":12165:12167   */\n      0x20\n        /* \"#utility.yul\":12154:12163   */\n      dup3\n        /* \"#utility.yul\":12150:12168   */\n      add\n        /* \"#utility.yul\":12142:12168   */\n      swap1\n      pop\n        /* \"#utility.yul\":12214:12223   */\n      dup2\n        /* \"#utility.yul\":12208:12212   */\n      dup2\n        /* \"#utility.yul\":12204:12224   */\n      sub\n        /* \"#utility.yul\":12200:12201   */\n      0x00\n        /* \"#utility.yul\":12189:12198   */\n      dup4\n        /* \"#utility.yul\":12185:12202   */\n      add\n        /* \"#utility.yul\":12178:12225   */\n      mstore\n        /* \"#utility.yul\":12242:12373   */\n      tag_325\n        /* \"#utility.yul\":12368:12372   */\n      dup2\n        /* \"#utility.yul\":12242:12373   */\n      tag_187\n      jump\t// in\n    tag_325:\n        /* \"#utility.yul\":12234:12373   */\n      swap1\n      pop\n        /* \"#utility.yul\":11961:12380   */\n      swap2\n      swap1\n      pop\n      jump\t// out\n        /* \"#utility.yul\":12386:12562   */\n    tag_188:\n        /* \"#utility.yul\":12526:12554   */\n      0x437573746f6d657220494420616c726561647920657869737473000000000000\n        /* \"#utility.yul\":12522:12523   */\n      0x00\n        /* \"#utility.yul\":12514:12520   */\n      dup3\n        /* \"#utility.yul\":12510:12524   */\n      add\n        /* \"#utility.yul\":12503:12555   */\n      mstore\n        /* \"#utility.yul\":12386:12562   */\n      pop\n      jump\t// out\n        /* \"#utility.yul\":12568:12934   */\n    tag_189:\n        /* \"#utility.yul\":12710:12713   */\n      0x00\n        /* \"#utility.yul\":12731:12798   */\n      tag_328\n        /* \"#utility.yul\":12795:12797   */\n      0x1a\n        /* \"#utility.yul\":12790:12793   */\n      dup4\n        /* \"#utility.yul\":12731:12798   */\n      tag_185\n      jump\t// in\n    tag_328:\n        /* \"#utility.yul\":12724:12798   */\n      swap2\n      pop\n        /* \"#utility.yul\":12807:12900   */\n      tag_329\n        /* \"#utility.yul\":12896:12899   */\n      dup3\n        /* \"#utility.yul\":12807:12900   */\n      tag_188\n      jump\t// in\n    tag_329:\n        /* \"#utility.yul\":12925:12927   */\n      0x20\n        /* \"#utility.yul\":12920:12923   */\n      dup3\n        /* \"#utility.yul\":12916:12928   */\n      add\n        /* \"#utility.yul\":12909:12928   */\n      swap1\n      pop\n        /* \"#utility.yul\":12568:12934   */\n      swap2\n      swap1\n      pop\n      jump\t// out\n        /* \"#utility.yul\":12940:13359   */\n    tag_81:\n        /* \"#utility.yul\":13106:13110   */\n      0x00\n        /* \"#utility.yul\":13144:13146   */\n      0x20\n        /* \"#utility.yul\":13133:13142   */\n      dup3\n        /* \"#utility.yul\":13129:13147   */\n      add\n        /* \"#utility.yul\":13121:13147   */\n      swap1\n      pop\n        /* \"#utility.yul\":13193:13202   */\n      dup2\n        /* \"#utility.yul\":13187:13191   */\n      dup2\n        /* \"#utility.yul\":13183:13203   */\n      sub\n        /* \"#utility.yul\":13179:13180   */\n      0x00\n        /* \"#utility.yul\":13168:13177   */\n      dup4\n        /* \"#utility.yul\":13164:13181   */\n      add\n        /* \"#utility.yul\":13157:13204   */\n      mstore\n        /* \"#utility.yul\":13221:13352   */\n      tag_331\n        /* \"#utility.yul\":13347:13351   */\n      dup2\n        /* \"#utility.yul\":13221:13352   */\n      tag_189\n      jump\t// in\n    tag_331:\n        /* \"#utility.yul\":13213:13352   */\n      swap1\n      pop\n        /* \"#utility.yul\":12940:13359   */\n      swap2\n      swap1\n      pop\n      jump\t// out\n        /* \"#utility.yul\":13365:13545   */\n    tag_190:\n        /* \"#utility.yul\":13413:13490   */\n      0x4e487b7100000000000000000000000000000000000000000000000000000000\n        /* \"#utility.yul\":13410:13411   */\n      0x00\n        /* \"#utility.yul\":13403:13491   */\n      mstore\n        /* \"#utility.yul\":13510:13514   */\n      0x11\n        /* \"#utility.yul\":13507:13508   */\n      0x04\n        /* \"#utility.yul\":13500:13515   */\n      mstore\n        /* \"#utility.yul\":13534:13538   */\n      0x24\n        /* \"#utility.yul\":13531:13532   */\n      0x00\n        /* \"#utility.yul\":13524:13539   */\n      revert\n        /* \"#utility.yul\":13551:13745   */\n    tag_87:\n        /* \"#utility.yul\":13591:13595   */\n      0x00\n        /* \"#utility.yul\":13611:13631   */\n      tag_334\n        /* \"#utility.yul\":13629:13630   */\n      dup3\n        /* \"#utility.yul\":13611:13631   */\n      tag_164\n      jump\t// in\n    tag_334:\n        /* \"#utility.yul\":13606:13631   */\n      swap2\n      pop\n        /* \"#utility.yul\":13645:13665   */\n      tag_335\n        /* \"#utility.yul\":13663:13664   */\n      dup4\n        /* \"#utility.yul\":13645:13665   */\n      tag_164\n      jump\t// in\n    tag_335:\n        /* \"#utility.yul\":13640:13665   */\n      swap3\n      pop\n        /* \"#utility.yul\":13689:13690   */\n      dup3\n        /* \"#utility.yul\":13686:13687   */\n      dup3\n        /* \"#utility.yul\":13682:13691   */\n      sub\n        /* \"#utility.yul\":13674:13691   */\n      swap1\n      pop\n        /* \"#utility.yul\":13713:13714   */\n      dup2\n        /* \"#utility.yul\":13707:13711   */\n      dup2\n        /* \"#utility.yul\":13704:13715   */\n      gt\n        /* \"#utility.yul\":13701:13738   */\n      iszero\n      tag_336\n      jumpi\n        /* \"#utility.yul\":13718:13736   */\n      tag_337\n      tag_190\n      jump\t// in\n    tag_337:\n        /* \"#utility.yul\":13701:13738   */\n    tag_336:\n        /* \"#utility.yul\":13551:13745   */\n      swap3\n      swap2\n      pop\n      pop\n      jump\t// out\n        /* \"#utility.yul\":13751:13942   */\n    tag_89:\n        /* \"#utility.yul\":13791:13794   */\n      0x00\n        /* \"#utility.yul\":13810:13830   */\n      tag_339\n        /* \"#utility.yul\":13828:13829   */\n      dup3\n        /* \"#utility.yul\":13810:13830   */\n      tag_164\n      jump\t// in\n    tag_339:\n        /* \"#utility.yul\":13805:13830   */\n      swap2\n      pop\n        /* \"#utility.yul\":13844:13864   */\n      tag_340\n        /* \"#utility.yul\":13862:13863   */\n      dup4\n        /* \"#utility.yul\":13844:13864   */\n      tag_164\n      jump\t// in\n    tag_340:\n        /* \"#utility.yul\":13839:13864   */\n      swap3\n      pop\n        /* \"#utility.yul\":13887:13888   */\n      dup3\n        /* \"#utility.yul\":13884:13885   */\n      dup3\n        /* \"#utility.yul\":13880:13889   */\n      add\n        /* \"#utility.yul\":13873:13889   */\n      swap1\n      pop\n        /* \"#utility.yul\":13908:13911   */\n      dup1\n        /* \"#utility.yul\":13905:13906   */\n      dup3\n        /* \"#utility.yul\":13902:13912   */\n      gt\n        /* \"#utility.yul\":13899:13935   */\n      iszero\n      tag_341\n      jumpi\n        /* \"#utility.yul\":13915:13933   */\n      tag_342\n      tag_190\n      jump\t// in\n    tag_342:\n        /* \"#utility.yul\":13899:13935   */\n    tag_341:\n        /* \"#utility.yul\":13751:13942   */\n      swap3\n      swap2\n      pop\n      pop\n      jump\t// out\n        /* \"#utility.yul\":13948:14280   */\n    tag_92:\n        /* \"#utility.yul\":14069:14073   */\n      0x00\n        /* \"#utility.yul\":14107:14109   */\n      0x40\n        /* \"#utility.yul\":14096:14105   */\n      dup3\n        /* \"#utility.yul\":14092:14110   */\n      add\n        /* \"#utility.yul\":14084:14110   */\n      swap1\n      pop\n        /* \"#utility.yul\":14120:14191   */\n      tag_344\n        /* \"#utility.yul\":14188:14189   */\n      0x00\n        /* \"#utility.yul\":14177:14186   */\n      dup4\n        /* \"#utility.yul\":14173:14190   */\n      add\n        /* \"#utility.yul\":14164:14170   */\n      dup6\n        /* \"#utility.yul\":14120:14191   */\n      tag_167\n      jump\t// in\n    tag_344:\n        /* \"#utility.yul\":14201:14273   */\n      tag_345\n        /* \"#utility.yul\":14269:14271   */\n      0x20\n        /* \"#utility.yul\":14258:14267   */\n      dup4\n        /* \"#utility.yul\":14254:14272   */\n      add\n        /* \"#utility.yul\":14245:14251   */\n      dup5\n        /* \"#utility.yul\":14201:14273   */\n      tag_167\n      jump\t// in\n    tag_345:\n        /* \"#utility.yul\":13948:14280   */\n      swap4\n      swap3\n      pop\n      pop\n      pop\n      jump\t// out\n        /* \"#utility.yul\":14286:14508   */\n    tag_191:\n        /* \"#utility.yul\":14426:14460   */\n      0x456c656d656e7420646f6573206e6f7420657869737420696e20746865206172\n        /* \"#utility.yul\":14422:14423   */\n      0x00\n        /* \"#utility.yul\":14414:14420   */\n      dup3\n        /* \"#utility.yul\":14410:14424   */\n      add\n        /* \"#utility.yul\":14403:14461   */\n      mstore\n        /* \"#utility.yul\":14495:14500   */\n      0x7261790000000000000000000000000000000000000000000000000000000000\n        /* \"#utility.yul\":14490:14492   */\n      0x20\n        /* \"#utility.yul\":14482:14488   */\n      dup3\n        /* \"#utility.yul\":14478:14493   */\n      add\n        /* \"#utility.yul\":14471:14501   */\n      mstore\n        /* \"#utility.yul\":14286:14508   */\n      pop\n      jump\t// out\n        /* \"#utility.yul\":14514:14880   */\n    tag_192:\n        /* \"#utility.yul\":14656:14659   */\n      0x00\n        /* \"#utility.yul\":14677:14744   */\n      tag_348\n        /* \"#utility.yul\":14741:14743   */\n      0x23\n        /* \"#utility.yul\":14736:14739   */\n      dup4\n        /* \"#utility.yul\":14677:14744   */\n      tag_185\n      jump\t// in\n    tag_348:\n        /* \"#utility.yul\":14670:14744   */\n      swap2\n      pop\n        /* \"#utility.yul\":14753:14846   */\n      tag_349\n        /* \"#utility.yul\":14842:14845   */\n      dup3\n        /* \"#utility.yul\":14753:14846   */\n      tag_191\n      jump\t// in\n    tag_349:\n        /* \"#utility.yul\":14871:14873   */\n      0x40\n        /* \"#utility.yul\":14866:14869   */\n      dup3\n        /* \"#utility.yul\":14862:14874   */\n      add\n        /* \"#utility.yul\":14855:14874   */\n      swap1\n      pop\n        /* \"#utility.yul\":14514:14880   */\n      swap2\n      swap1\n      pop\n      jump\t// out\n        /* \"#utility.yul\":14886:15305   */\n    tag_106:\n        /* \"#utility.yul\":15052:15056   */\n      0x00\n        /* \"#utility.yul\":15090:15092   */\n      0x20\n        /* \"#utility.yul\":15079:15088   */\n      dup3\n        /* \"#utility.yul\":15075:15093   */\n      add\n        /* \"#utility.yul\":15067:15093   */\n      swap1\n      pop\n        /* \"#utility.yul\":15139:15148   */\n      dup2\n        /* \"#utility.yul\":15133:15137   */\n      dup2\n        /* \"#utility.yul\":15129:15149   */\n      sub\n        /* \"#utility.yul\":15125:15126   */\n      0x00\n        /* \"#utility.yul\":15114:15123   */\n      dup4\n        /* \"#utility.yul\":15110:15127   */\n      add\n        /* \"#utility.yul\":15103:15150   */\n      mstore\n        /* \"#utility.yul\":15167:15298   */\n      tag_351\n        /* \"#utility.yul\":15293:15297   */\n      dup2\n        /* \"#utility.yul\":15167:15298   */\n      tag_192\n      jump\t// in\n    tag_351:\n        /* \"#utility.yul\":15159:15298   */\n      swap1\n      pop\n        /* \"#utility.yul\":14886:15305   */\n      swap2\n      swap1\n      pop\n      jump\t// out\n        /* \"#utility.yul\":15311:15491   */\n    tag_113:\n        /* \"#utility.yul\":15359:15436   */\n      0x4e487b7100000000000000000000000000000000000000000000000000000000\n        /* \"#utility.yul\":15356:15357   */\n      0x00\n        /* \"#utility.yul\":15349:15437   */\n      mstore\n        /* \"#utility.yul\":15456:15460   */\n      0x32\n        /* \"#utility.yul\":15453:15454   */\n      0x04\n        /* \"#utility.yul\":15446:15461   */\n      mstore\n        /* \"#utility.yul\":15480:15484   */\n      0x24\n        /* \"#utility.yul\":15477:15478   */\n      0x00\n        /* \"#utility.yul\":15470:15485   */\n      revert\n        /* \"#utility.yul\":15497:15721   */\n    tag_193:\n        /* \"#utility.yul\":15637:15671   */\n      0x496e73756666696369656e742062616c616e636520746f207075726368617365\n        /* \"#utility.yul\":15633:15634   */\n      0x00\n        /* \"#utility.yul\":15625:15631   */\n      dup3\n        /* \"#utility.yul\":15621:15635   */\n      add\n        /* \"#utility.yul\":15614:15672   */\n      mstore\n        /* \"#utility.yul\":15706:15713   */\n      0x206974656d000000000000000000000000000000000000000000000000000000\n        /* \"#utility.yul\":15701:15703   */\n      0x20\n        /* \"#utility.yul\":15693:15699   */\n      dup3\n        /* \"#utility.yul\":15689:15704   */\n      add\n        /* \"#utility.yul\":15682:15714   */\n      mstore\n        /* \"#utility.yul\":15497:15721   */\n      pop\n      jump\t// out\n        /* \"#utility.yul\":15727:16093   */\n    tag_194:\n        /* \"#utility.yul\":15869:15872   */\n      0x00\n        /* \"#utility.yul\":15890:15957   */\n      tag_355\n        /* \"#utility.yul\":15954:15956   */\n      0x25\n        /* \"#utility.yul\":15949:15952   */\n      dup4\n        /* \"#utility.yul\":15890:15957   */\n      tag_185\n      jump\t// in\n    tag_355:\n        /* \"#utility.yul\":15883:15957   */\n      swap2\n      pop\n        /* \"#utility.yul\":15966:16059   */\n      tag_356\n        /* \"#utility.yul\":16055:16058   */\n      dup3\n        /* \"#utility.yul\":15966:16059   */\n      tag_193\n      jump\t// in\n    tag_356:\n        /* \"#utility.yul\":16084:16086   */\n      0x40\n        /* \"#utility.yul\":16079:16082   */\n      dup3\n        /* \"#utility.yul\":16075:16087   */\n      add\n        /* \"#utility.yul\":16068:16087   */\n      swap1\n      pop\n        /* \"#utility.yul\":15727:16093   */\n      swap2\n      swap1\n      pop\n      jump\t// out\n        /* \"#utility.yul\":16099:16518   */\n    tag_123:\n        /* \"#utility.yul\":16265:16269   */\n      0x00\n        /* \"#utility.yul\":16303:16305   */\n      0x20\n        /* \"#utility.yul\":16292:16301   */\n      dup3\n        /* \"#utility.yul\":16288:16306   */\n      add\n        /* \"#utility.yul\":16280:16306   */\n      swap1\n      pop\n        /* \"#utility.yul\":16352:16361   */\n      dup2\n        /* \"#utility.yul\":16346:16350   */\n      dup2\n        /* \"#utility.yul\":16342:16362   */\n      sub\n        /* \"#utility.yul\":16338:16339   */\n      0x00\n        /* \"#utility.yul\":16327:16336   */\n      dup4\n        /* \"#utility.yul\":16323:16340   */\n      add\n        /* \"#utility.yul\":16316:16363   */\n      mstore\n        /* \"#utility.yul\":16380:16511   */\n      tag_358\n        /* \"#utility.yul\":16506:16510   */\n      dup2\n        /* \"#utility.yul\":16380:16511   */\n      tag_194\n      jump\t// in\n    tag_358:\n        /* \"#utility.yul\":16372:16511   */\n      swap1\n      pop\n        /* \"#utility.yul\":16099:16518   */\n      swap2\n      swap1\n      pop\n      jump\t// out\n        /* \"#utility.yul\":16524:16746   */\n    tag_195:\n        /* \"#utility.yul\":16664:16698   */\n      0x506f696e7473206164646564206d757374206265206772656174657220746861\n        /* \"#utility.yul\":16660:16661   */\n      0x00\n        /* \"#utility.yul\":16652:16658   */\n      dup3\n        /* \"#utility.yul\":16648:16662   */\n      add\n        /* \"#utility.yul\":16641:16699   */\n      mstore\n        /* \"#utility.yul\":16733:16738   */\n      0x6e20300000000000000000000000000000000000000000000000000000000000\n        /* \"#utility.yul\":16728:16730   */\n      0x20\n        /* \"#utility.yul\":16720:16726   */\n      dup3\n        /* \"#utility.yul\":16716:16731   */\n      add\n        /* \"#utility.yul\":16709:16739   */\n      mstore\n        /* \"#utility.yul\":16524:16746   */\n      pop\n      jump\t// out\n        /* \"#utility.yul\":16752:17118   */\n    tag_196:\n        /* \"#utility.yul\":16894:16897   */\n      0x00\n        /* \"#utility.yul\":16915:16982   */\n      tag_361\n        /* \"#utility.yul\":16979:16981   */\n      0x23\n        /* \"#utility.yul\":16974:16977   */\n      dup4\n        /* \"#utility.yul\":16915:16982   */\n      tag_185\n      jump\t// in\n    tag_361:\n        /* \"#utility.yul\":16908:16982   */\n      swap2\n      pop\n        /* \"#utility.yul\":16991:17084   */\n      tag_362\n        /* \"#utility.yul\":17080:17083   */\n      dup3\n        /* \"#utility.yul\":16991:17084   */\n      tag_195\n      jump\t// in\n    tag_362:\n        /* \"#utility.yul\":17109:17111   */\n      0x40\n        /* \"#utility.yul\":17104:17107   */\n      dup3\n        /* \"#utility.yul\":17100:17112   */\n      add\n        /* \"#utility.yul\":17093:17112   */\n      swap1\n      pop\n        /* \"#utility.yul\":16752:17118   */\n      swap2\n      swap1\n      pop\n      jump\t// out\n        /* \"#utility.yul\":17124:17543   */\n    tag_140:\n        /* \"#utility.yul\":17290:17294   */\n      0x00\n        /* \"#utility.yul\":17328:17330   */\n      0x20\n        /* \"#utility.yul\":17317:17326   */\n      dup3\n        /* \"#utility.yul\":17313:17331   */\n      add\n        /* \"#utility.yul\":17305:17331   */\n      swap1\n      pop\n        /* \"#utility.yul\":17377:17386   */\n      dup2\n        /* \"#utility.yul\":17371:17375   */\n      dup2\n        /* \"#utility.yul\":17367:17387   */\n      sub\n        /* \"#utility.yul\":17363:17364   */\n      0x00\n        /* \"#utility.yul\":17352:17361   */\n      dup4\n        /* \"#utility.yul\":17348:17365   */\n      add\n        /* \"#utility.yul\":17341:17388   */\n      mstore\n        /* \"#utility.yul\":17405:17536   */\n      tag_364\n        /* \"#utility.yul\":17531:17535   */\n      dup2\n        /* \"#utility.yul\":17405:17536   */\n      tag_196\n      jump\t// in\n    tag_364:\n        /* \"#utility.yul\":17397:17536   */\n      swap1\n      pop\n        /* \"#utility.yul\":17124:17543   */\n      swap2\n      swap1\n      pop\n      jump\t// out\n\n    auxdata: 0xa2646970667358221220f0978857ee68a73be1b0e37b984fb5eda5ba8151aaf3f37af8530978d7efe37b64736f6c63430008190033\n}\n",
				"bytecode": {
					"linkReferences": {},
					"object": "6080604052348015600e575f80fd5b506113fa8061001c5f395ff3fe608060405234801561000f575f80fd5b50600436106100cd575f3560e01c80637c49febb1161008a57806392a51aeb1161006457806392a51aeb14610231578063a2ffdcd61461024f578063d0e04fe31461026b578063e82bcfea14610287576100cd565b80637c49febb146101b557806389e9bfec146101e55780638b2d7c5514610201576100cd565b80631a231600146100d15780632a8e9219146100ed5780634e64f16d146101095780635b7098611461012557806366ebf4141461015557806371e4fd3714610185575b5f80fd5b6100eb60048036038101906100e69190610c68565b6102a3565b005b61010760048036038101906101029190610c68565b6103a2565b005b610123600480360381019061011e9190610cd4565b6103f7565b005b61013f600480360381019061013a9190610d54565b61056a565b60405161014c9190610dbd565b60405180910390f35b61016f600480360381019061016a9190610e09565b6105bf565b60405161017c9190610dbd565b60405180910390f35b61019f600480360381019061019a9190610e47565b6105df565b6040516101ac9190610e9d565b60405180910390f35b6101cf60048036038101906101ca9190610e09565b610613565b6040516101dc9190610dbd565b60405180910390f35b6101ff60048036038101906101fa9190610d54565b61063e565b005b61021b60048036038101906102169190610eb6565b6106d8565b6040516102289190610efb565b60405180910390f35b61023961072d565b6040516102469190610fcb565b60405180910390f35b61026960048036038101906102649190610c68565b610782565b005b61028560048036038101906102809190610e47565b61089f565b005b6102a1600480360381019061029c9190610c68565b610981565b005b5f836040516020016102b5919061103d565b6040516020818303038152906040528051906020012090506102d6816106d8565b610315576040517f08c379a000000000000000000000000000000000000000000000000000000000815260040161030c906110ad565b60405180910390fd5b5f60015f8381526020019081526020015f205f8581526020019081526020015f205414610377576040517f08c379a000000000000000000000000000000000000000000000000000000000815260040161036e90611115565b60405180910390fd5b8160015f8381526020019081526020015f205f8581526020019081526020015f208190555050505050565b5f836040516020016103b4919061103d565b6040516020818303038152906040528051906020012090508160015f8381526020019081526020015f205f8581526020019081526020015f208190555050505050565b5f84604051602001610409919061103d565b6040516020818303038152906040528051906020012090508160015f8381526020019081526020015f205f8681526020019081526020015f205461044d9190611160565b60015f8381526020019081526020015f205f8681526020019081526020015f20819055508160015f8381526020019081526020015f205f8581526020019081526020015f205461049d9190611193565b60015f8381526020019081526020015f205f8581526020019081526020015f20819055508284866040516104d1919061103d565b60405180910390207fe946cd1de3989f1370c07ddd001b890d97324b93d3809644fcff2c8b299c7042854260405161050a9291906111c6565b60405180910390a4838386604051610522919061103d565b60405180910390207f5913475c1a51e3ba07be9077197c0cbb7fdc06450c5b00bb1724d1b284981f3f854260405161055b9291906111c6565b60405180910390a45050505050565b5f808360405160200161057d919061103d565b60405160208183030381529060405280519060200120905060015f8281526020019081526020015f205f8481526020019081526020015f205491505092915050565b6001602052815f5260405f20602052805f5260405f205f91509150505481565b5f80826040516020016105f2919061103d565b60405160208183030381529060405280519060200120905080915050919050565b6002602052815f5260405f20818154811061062c575f80fd5b905f5260205f20015f91509150505481565b5f82604051602001610650919061103d565b604051602081830303815290604052805190602001209050610671816106d8565b6106b0576040517f08c379a00000000000000000000000000000000000000000000000000000000081526004016106a79061125d565b60405180910390fd5b60015f8281526020019081526020015f205f8381526020019081526020015f205f9055505050565b5f805f90505b5f8054905081101561072357825f82815481106106fe576106fd61127b565b5b905f5260205f20015403610716576001915050610728565b80806001019150506106de565b505f90505b919050565b60605f80548060200260200160405190810160405280929190818152602001828054801561077857602002820191905f5260205f20905b815481526020019060010190808311610764575b5050505050905090565b5f83604051602001610794919061103d565b6040516020818303038152906040528051906020012090505f60015f8381526020019081526020015f205f8581526020019081526020015f2054905082811015610813576040517f08c379a000000000000000000000000000000000000000000000000000000000815260040161080a90611318565b60405180910390fd5b5f83826108209190611160565b90508060015f8581526020019081526020015f205f8781526020019081526020015f20819055508486604051610856919061103d565b60405180910390207f63d7dc4e1bfe09268eefbb72d02331f90bafd230c3d4c63d6250e1025c080880864260405161088f9291906111c6565b60405180910390a3505050505050565b5f816040516020016108b1919061103d565b6040516020818303038152906040528051906020012090505f67ffffffffffffffff8111156108e3576108e2610b11565b5b6040519080825280602002602001820160405280156109115781602001602082028036833780820191505090505b5060025f8381526020019081526020015f209080519060200190610936929190610a82565b5060015f8281526020019081526020015f205f8081526020019081526020015f20505f81908060018154018082558091505060019003905f5260205f20015f90919091909150555050565b5f83604051602001610993919061103d565b6040516020818303038152906040528051906020012090505f82116109ed576040517f08c379a00000000000000000000000000000000000000000000000000000000081526004016109e4906113a6565b60405180910390fd5b5f821115610a7c578160015f8381526020019081526020015f205f8581526020019081526020015f205f828254610a249190611193565b925050819055508284604051610a3a919061103d565b60405180910390207f139ec90f7c10344b0316e9c3f6b81254b4e872f0927228c243612606ba76b5bc8442604051610a739291906111c6565b60405180910390a35b50505050565b828054828255905f5260205f20908101928215610abc579160200282015b82811115610abb578251825591602001919060010190610aa0565b5b509050610ac99190610acd565b5090565b5b80821115610ae4575f815f905550600101610ace565b5090565b5f604051905090565b5f80fd5b5f80fd5b5f80fd5b5f80fd5b5f601f19601f8301169050919050565b7f4e487b71000000000000000000000000000000000000000000000000000000005f52604160045260245ffd5b610b4782610b01565b810181811067ffffffffffffffff82111715610b6657610b65610b11565b5b80604052505050565b5f610b78610ae8565b9050610b848282610b3e565b919050565b5f67ffffffffffffffff821115610ba357610ba2610b11565b5b610bac82610b01565b9050602081019050919050565b828183375f83830152505050565b5f610bd9610bd484610b89565b610b6f565b905082815260208101848484011115610bf557610bf4610afd565b5b610c00848285610bb9565b509392505050565b5f82601f830112610c1c57610c1b610af9565b5b8135610c2c848260208601610bc7565b91505092915050565b5f819050919050565b610c4781610c35565b8114610c51575f80fd5b50565b5f81359050610c6281610c3e565b92915050565b5f805f60608486031215610c7f57610c7e610af1565b5b5f84013567ffffffffffffffff811115610c9c57610c9b610af5565b5b610ca886828701610c08565b9350506020610cb986828701610c54565b9250506040610cca86828701610c54565b9150509250925092565b5f805f8060808587031215610cec57610ceb610af1565b5b5f85013567ffffffffffffffff811115610d0957610d08610af5565b5b610d1587828801610c08565b9450506020610d2687828801610c54565b9350506040610d3787828801610c54565b9250506060610d4887828801610c54565b91505092959194509250565b5f8060408385031215610d6a57610d69610af1565b5b5f83013567ffffffffffffffff811115610d8757610d86610af5565b5b610d9385828601610c08565b9250506020610da485828601610c54565b9150509250929050565b610db781610c35565b82525050565b5f602082019050610dd05f830184610dae565b92915050565b5f819050919050565b610de881610dd6565b8114610df2575f80fd5b50565b5f81359050610e0381610ddf565b92915050565b5f8060408385031215610e1f57610e1e610af1565b5b5f610e2c85828601610df5565b9250506020610e3d85828601610c54565b9150509250929050565b5f60208284031215610e5c57610e5b610af1565b5b5f82013567ffffffffffffffff811115610e7957610e78610af5565b5b610e8584828501610c08565b91505092915050565b610e9781610dd6565b82525050565b5f602082019050610eb05f830184610e8e565b92915050565b5f60208284031215610ecb57610eca610af1565b5b5f610ed884828501610df5565b91505092915050565b5f8115159050919050565b610ef581610ee1565b82525050565b5f602082019050610f0e5f830184610eec565b92915050565b5f81519050919050565b5f82825260208201905092915050565b5f819050602082019050919050565b610f4681610dd6565b82525050565b5f610f578383610f3d565b60208301905092915050565b5f602082019050919050565b5f610f7982610f14565b610f838185610f1e565b9350610f8e83610f2e565b805f5b83811015610fbe578151610fa58882610f4c565b9750610fb083610f63565b925050600181019050610f91565b5085935050505092915050565b5f6020820190508181035f830152610fe38184610f6f565b905092915050565b5f81519050919050565b5f81905092915050565b8281835e5f83830152505050565b5f61101782610feb565b6110218185610ff5565b9350611031818560208601610fff565b80840191505092915050565b5f611048828461100d565b915081905092915050565b5f82825260208201905092915050565b7f53746f726520646f6573206e6f742065786973740000000000000000000000005f82015250565b5f611097601483611053565b91506110a282611063565b602082019050919050565b5f6020820190508181035f8301526110c48161108b565b9050919050565b7f437573746f6d657220494420616c7265616479206578697374730000000000005f82015250565b5f6110ff601a83611053565b915061110a826110cb565b602082019050919050565b5f6020820190508181035f83015261112c816110f3565b9050919050565b7f4e487b71000000000000000000000000000000000000000000000000000000005f52601160045260245ffd5b5f61116a82610c35565b915061117583610c35565b925082820390508181111561118d5761118c611133565b5b92915050565b5f61119d82610c35565b91506111a883610c35565b92508282019050808211156111c0576111bf611133565b5b92915050565b5f6040820190506111d95f830185610dae565b6111e66020830184610dae565b9392505050565b7f456c656d656e7420646f6573206e6f7420657869737420696e207468652061725f8201527f7261790000000000000000000000000000000000000000000000000000000000602082015250565b5f611247602383611053565b9150611252826111ed565b604082019050919050565b5f6020820190508181035f8301526112748161123b565b9050919050565b7f4e487b71000000000000000000000000000000000000000000000000000000005f52603260045260245ffd5b7f496e73756666696369656e742062616c616e636520746f2070757263686173655f8201527f206974656d000000000000000000000000000000000000000000000000000000602082015250565b5f611302602583611053565b915061130d826112a8565b604082019050919050565b5f6020820190508181035f83015261132f816112f6565b9050919050565b7f506f696e7473206164646564206d7573742062652067726561746572207468615f8201527f6e20300000000000000000000000000000000000000000000000000000000000602082015250565b5f611390602383611053565b915061139b82611336565b604082019050919050565b5f6020820190508181035f8301526113bd81611384565b905091905056fea2646970667358221220f0978857ee68a73be1b0e37b984fb5eda5ba8151aaf3f37af8530978d7efe37b64736f6c63430008190033",
					"opcodes": "PUSH1 0x80 PUSH1 0x40 MSTORE CALLVALUE DUP1 ISZERO PUSH1 0xE JUMPI PUSH0 DUP1 REVERT JUMPDEST POP PUSH2 0x13FA DUP1 PUSH2 0x1C PUSH0 CODECOPY PUSH0 RETURN INVALID PUSH1 0x80 PUSH1 0x40 MSTORE CALLVALUE DUP1 ISZERO PUSH2 0xF JUMPI PUSH0 DUP1 REVERT JUMPDEST POP PUSH1 0x4 CALLDATASIZE LT PUSH2 0xCD JUMPI PUSH0 CALLDATALOAD PUSH1 0xE0 SHR DUP1 PUSH4 0x7C49FEBB GT PUSH2 0x8A JUMPI DUP1 PUSH4 0x92A51AEB GT PUSH2 0x64 JUMPI DUP1 PUSH4 0x92A51AEB EQ PUSH2 0x231 JUMPI DUP1 PUSH4 0xA2FFDCD6 EQ PUSH2 0x24F JUMPI DUP1 PUSH4 0xD0E04FE3 EQ PUSH2 0x26B JUMPI DUP1 PUSH4 0xE82BCFEA EQ PUSH2 0x287 JUMPI PUSH2 0xCD JUMP JUMPDEST DUP1 PUSH4 0x7C49FEBB EQ PUSH2 0x1B5 JUMPI DUP1 PUSH4 0x89E9BFEC EQ PUSH2 0x1E5 JUMPI DUP1 PUSH4 0x8B2D7C55 EQ PUSH2 0x201 JUMPI PUSH2 0xCD JUMP JUMPDEST DUP1 PUSH4 0x1A231600 EQ PUSH2 0xD1 JUMPI DUP1 PUSH4 0x2A8E9219 EQ PUSH2 0xED JUMPI DUP1 PUSH4 0x4E64F16D EQ PUSH2 0x109 JUMPI DUP1 PUSH4 0x5B709861 EQ PUSH2 0x125 JUMPI DUP1 PUSH4 0x66EBF414 EQ PUSH2 0x155 JUMPI DUP1 PUSH4 0x71E4FD37 EQ PUSH2 0x185 JUMPI JUMPDEST PUSH0 DUP1 REVERT JUMPDEST PUSH2 0xEB PUSH1 0x4 DUP1 CALLDATASIZE SUB DUP2 ADD SWAP1 PUSH2 0xE6 SWAP2 SWAP1 PUSH2 0xC68 JUMP JUMPDEST PUSH2 0x2A3 JUMP JUMPDEST STOP JUMPDEST PUSH2 0x107 PUSH1 0x4 DUP1 CALLDATASIZE SUB DUP2 ADD SWAP1 PUSH2 0x102 SWAP2 SWAP1 PUSH2 0xC68 JUMP JUMPDEST PUSH2 0x3A2 JUMP JUMPDEST STOP JUMPDEST PUSH2 0x123 PUSH1 0x4 DUP1 CALLDATASIZE SUB DUP2 ADD SWAP1 PUSH2 0x11E SWAP2 SWAP1 PUSH2 0xCD4 JUMP JUMPDEST PUSH2 0x3F7 JUMP JUMPDEST STOP JUMPDEST PUSH2 0x13F PUSH1 0x4 DUP1 CALLDATASIZE SUB DUP2 ADD SWAP1 PUSH2 0x13A SWAP2 SWAP1 PUSH2 0xD54 JUMP JUMPDEST PUSH2 0x56A JUMP JUMPDEST PUSH1 0x40 MLOAD PUSH2 0x14C SWAP2 SWAP1 PUSH2 0xDBD JUMP JUMPDEST PUSH1 0x40 MLOAD DUP1 SWAP2 SUB SWAP1 RETURN JUMPDEST PUSH2 0x16F PUSH1 0x4 DUP1 CALLDATASIZE SUB DUP2 ADD SWAP1 PUSH2 0x16A SWAP2 SWAP1 PUSH2 0xE09 JUMP JUMPDEST PUSH2 0x5BF JUMP JUMPDEST PUSH1 0x40 MLOAD PUSH2 0x17C SWAP2 SWAP1 PUSH2 0xDBD JUMP JUMPDEST PUSH1 0x40 MLOAD DUP1 SWAP2 SUB SWAP1 RETURN JUMPDEST PUSH2 0x19F PUSH1 0x4 DUP1 CALLDATASIZE SUB DUP2 ADD SWAP1 PUSH2 0x19A SWAP2 SWAP1 PUSH2 0xE47 JUMP JUMPDEST PUSH2 0x5DF JUMP JUMPDEST PUSH1 0x40 MLOAD PUSH2 0x1AC SWAP2 SWAP1 PUSH2 0xE9D JUMP JUMPDEST PUSH1 0x40 MLOAD DUP1 SWAP2 SUB SWAP1 RETURN JUMPDEST PUSH2 0x1CF PUSH1 0x4 DUP1 CALLDATASIZE SUB DUP2 ADD SWAP1 PUSH2 0x1CA SWAP2 SWAP1 PUSH2 0xE09 JUMP JUMPDEST PUSH2 0x613 JUMP JUMPDEST PUSH1 0x40 MLOAD PUSH2 0x1DC SWAP2 SWAP1 PUSH2 0xDBD JUMP JUMPDEST PUSH1 0x40 MLOAD DUP1 SWAP2 SUB SWAP1 RETURN JUMPDEST PUSH2 0x1FF PUSH1 0x4 DUP1 CALLDATASIZE SUB DUP2 ADD SWAP1 PUSH2 0x1FA SWAP2 SWAP1 PUSH2 0xD54 JUMP JUMPDEST PUSH2 0x63E JUMP JUMPDEST STOP JUMPDEST PUSH2 0x21B PUSH1 0x4 DUP1 CALLDATASIZE SUB DUP2 ADD SWAP1 PUSH2 0x216 SWAP2 SWAP1 PUSH2 0xEB6 JUMP JUMPDEST PUSH2 0x6D8 JUMP JUMPDEST PUSH1 0x40 MLOAD PUSH2 0x228 SWAP2 SWAP1 PUSH2 0xEFB JUMP JUMPDEST PUSH1 0x40 MLOAD DUP1 SWAP2 SUB SWAP1 RETURN JUMPDEST PUSH2 0x239 PUSH2 0x72D JUMP JUMPDEST PUSH1 0x40 MLOAD PUSH2 0x246 SWAP2 SWAP1 PUSH2 0xFCB JUMP JUMPDEST PUSH1 0x40 MLOAD DUP1 SWAP2 SUB SWAP1 RETURN JUMPDEST PUSH2 0x269 PUSH1 0x4 DUP1 CALLDATASIZE SUB DUP2 ADD SWAP1 PUSH2 0x264 SWAP2 SWAP1 PUSH2 0xC68 JUMP JUMPDEST PUSH2 0x782 JUMP JUMPDEST STOP JUMPDEST PUSH2 0x285 PUSH1 0x4 DUP1 CALLDATASIZE SUB DUP2 ADD SWAP1 PUSH2 0x280 SWAP2 SWAP1 PUSH2 0xE47 JUMP JUMPDEST PUSH2 0x89F JUMP JUMPDEST STOP JUMPDEST PUSH2 0x2A1 PUSH1 0x4 DUP1 CALLDATASIZE SUB DUP2 ADD SWAP1 PUSH2 0x29C SWAP2 SWAP1 PUSH2 0xC68 JUMP JUMPDEST PUSH2 0x981 JUMP JUMPDEST STOP JUMPDEST PUSH0 DUP4 PUSH1 0x40 MLOAD PUSH1 0x20 ADD PUSH2 0x2B5 SWAP2 SWAP1 PUSH2 0x103D JUMP JUMPDEST PUSH1 0x40 MLOAD PUSH1 0x20 DUP2 DUP4 SUB SUB DUP2 MSTORE SWAP1 PUSH1 0x40 MSTORE DUP1 MLOAD SWAP1 PUSH1 0x20 ADD KECCAK256 SWAP1 POP PUSH2 0x2D6 DUP2 PUSH2 0x6D8 JUMP JUMPDEST PUSH2 0x315 JUMPI PUSH1 0x40 MLOAD PUSH32 0x8C379A000000000000000000000000000000000000000000000000000000000 DUP2 MSTORE PUSH1 0x4 ADD PUSH2 0x30C SWAP1 PUSH2 0x10AD JUMP JUMPDEST PUSH1 0x40 MLOAD DUP1 SWAP2 SUB SWAP1 REVERT JUMPDEST PUSH0 PUSH1 0x1 PUSH0 DUP4 DUP2 MSTORE PUSH1 0x20 ADD SWAP1 DUP2 MSTORE PUSH1 0x20 ADD PUSH0 KECCAK256 PUSH0 DUP6 DUP2 MSTORE PUSH1 0x20 ADD SWAP1 DUP2 MSTORE PUSH1 0x20 ADD PUSH0 KECCAK256 SLOAD EQ PUSH2 0x377 JUMPI PUSH1 0x40 MLOAD PUSH32 0x8C379A000000000000000000000000000000000000000000000000000000000 DUP2 MSTORE PUSH1 0x4 ADD PUSH2 0x36E SWAP1 PUSH2 0x1115 JUMP JUMPDEST PUSH1 0x40 MLOAD DUP1 SWAP2 SUB SWAP1 REVERT JUMPDEST DUP2 PUSH1 0x1 PUSH0 DUP4 DUP2 MSTORE PUSH1 0x20 ADD SWAP1 DUP2 MSTORE PUSH1 0x20 ADD PUSH0 KECCAK256 PUSH0 DUP6 DUP2 MSTORE PUSH1 0x20 ADD SWAP1 DUP2 MSTORE PUSH1 0x20 ADD PUSH0 KECCAK256 DUP2 SWAP1 SSTORE POP POP POP POP POP JUMP JUMPDEST PUSH0 DUP4 PUSH1 0x40 MLOAD PUSH1 0x20 ADD PUSH2 0x3B4 SWAP2 SWAP1 PUSH2 0x103D JUMP JUMPDEST PUSH1 0x40 MLOAD PUSH1 0x20 DUP2 DUP4 SUB SUB DUP2 MSTORE SWAP1 PUSH1 0x40 MSTORE DUP1 MLOAD SWAP1 PUSH1 0x20 ADD KECCAK256 SWAP1 POP DUP2 PUSH1 0x1 PUSH0 DUP4 DUP2 MSTORE PUSH1 0x20 ADD SWAP1 DUP2 MSTORE PUSH1 0x20 ADD PUSH0 KECCAK256 PUSH0 DUP6 DUP2 MSTORE PUSH1 0x20 ADD SWAP1 DUP2 MSTORE PUSH1 0x20 ADD PUSH0 KECCAK256 DUP2 SWAP1 SSTORE POP POP POP POP POP JUMP JUMPDEST PUSH0 DUP5 PUSH1 0x40 MLOAD PUSH1 0x20 ADD PUSH2 0x409 SWAP2 SWAP1 PUSH2 0x103D JUMP JUMPDEST PUSH1 0x40 MLOAD PUSH1 0x20 DUP2 DUP4 SUB SUB DUP2 MSTORE SWAP1 PUSH1 0x40 MSTORE DUP1 MLOAD SWAP1 PUSH1 0x20 ADD KECCAK256 SWAP1 POP DUP2 PUSH1 0x1 PUSH0 DUP4 DUP2 MSTORE PUSH1 0x20 ADD SWAP1 DUP2 MSTORE PUSH1 0x20 ADD PUSH0 KECCAK256 PUSH0 DUP7 DUP2 MSTORE PUSH1 0x20 ADD SWAP1 DUP2 MSTORE PUSH1 0x20 ADD PUSH0 KECCAK256 SLOAD PUSH2 0x44D SWAP2 SWAP1 PUSH2 0x1160 JUMP JUMPDEST PUSH1 0x1 PUSH0 DUP4 DUP2 MSTORE PUSH1 0x20 ADD SWAP1 DUP2 MSTORE PUSH1 0x20 ADD PUSH0 KECCAK256 PUSH0 DUP7 DUP2 MSTORE PUSH1 0x20 ADD SWAP1 DUP2 MSTORE PUSH1 0x20 ADD PUSH0 KECCAK256 DUP2 SWAP1 SSTORE POP DUP2 PUSH1 0x1 PUSH0 DUP4 DUP2 MSTORE PUSH1 0x20 ADD SWAP1 DUP2 MSTORE PUSH1 0x20 ADD PUSH0 KECCAK256 PUSH0 DUP6 DUP2 MSTORE PUSH1 0x20 ADD SWAP1 DUP2 MSTORE PUSH1 0x20 ADD PUSH0 KECCAK256 SLOAD PUSH2 0x49D SWAP2 SWAP1 PUSH2 0x1193 JUMP JUMPDEST PUSH1 0x1 PUSH0 DUP4 DUP2 MSTORE PUSH1 0x20 ADD SWAP1 DUP2 MSTORE PUSH1 0x20 ADD PUSH0 KECCAK256 PUSH0 DUP6 DUP2 MSTORE PUSH1 0x20 ADD SWAP1 DUP2 MSTORE PUSH1 0x20 ADD PUSH0 KECCAK256 DUP2 SWAP1 SSTORE POP DUP3 DUP5 DUP7 PUSH1 0x40 MLOAD PUSH2 0x4D1 SWAP2 SWAP1 PUSH2 0x103D JUMP JUMPDEST PUSH1 0x40 MLOAD DUP1 SWAP2 SUB SWAP1 KECCAK256 PUSH32 0xE946CD1DE3989F1370C07DDD001B890D97324B93D3809644FCFF2C8B299C7042 DUP6 TIMESTAMP PUSH1 0x40 MLOAD PUSH2 0x50A SWAP3 SWAP2 SWAP1 PUSH2 0x11C6 JUMP JUMPDEST PUSH1 0x40 MLOAD DUP1 SWAP2 SUB SWAP1 LOG4 DUP4 DUP4 DUP7 PUSH1 0x40 MLOAD PUSH2 0x522 SWAP2 SWAP1 PUSH2 0x103D JUMP JUMPDEST PUSH1 0x40 MLOAD DUP1 SWAP2 SUB SWAP1 KECCAK256 PUSH32 0x5913475C1A51E3BA07BE9077197C0CBB7FDC06450C5B00BB1724D1B284981F3F DUP6 TIMESTAMP PUSH1 0x40 MLOAD PUSH2 0x55B SWAP3 SWAP2 SWAP1 PUSH2 0x11C6 JUMP JUMPDEST PUSH1 0x40 MLOAD DUP1 SWAP2 SUB SWAP1 LOG4 POP POP POP POP POP JUMP JUMPDEST PUSH0 DUP1 DUP4 PUSH1 0x40 MLOAD PUSH1 0x20 ADD PUSH2 0x57D SWAP2 SWAP1 PUSH2 0x103D JUMP JUMPDEST PUSH1 0x40 MLOAD PUSH1 0x20 DUP2 DUP4 SUB SUB DUP2 MSTORE SWAP1 PUSH1 0x40 MSTORE DUP1 MLOAD SWAP1 PUSH1 0x20 ADD KECCAK256 SWAP1 POP PUSH1 0x1 PUSH0 DUP3 DUP2 MSTORE PUSH1 0x20 ADD SWAP1 DUP2 MSTORE PUSH1 0x20 ADD PUSH0 KECCAK256 PUSH0 DUP5 DUP2 MSTORE PUSH1 0x20 ADD SWAP1 DUP2 MSTORE PUSH1 0x20 ADD PUSH0 KECCAK256 SLOAD SWAP2 POP POP SWAP3 SWAP2 POP POP JUMP JUMPDEST PUSH1 0x1 PUSH1 0x20 MSTORE DUP2 PUSH0 MSTORE PUSH1 0x40 PUSH0 KECCAK256 PUSH1 0x20 MSTORE DUP1 PUSH0 MSTORE PUSH1 0x40 PUSH0 KECCAK256 PUSH0 SWAP2 POP SWAP2 POP POP SLOAD DUP2 JUMP JUMPDEST PUSH0 DUP1 DUP3 PUSH1 0x40 MLOAD PUSH1 0x20 ADD PUSH2 0x5F2 SWAP2 SWAP1 PUSH2 0x103D JUMP JUMPDEST PUSH1 0x40 MLOAD PUSH1 0x20 DUP2 DUP4 SUB SUB DUP2 MSTORE SWAP1 PUSH1 0x40 MSTORE DUP1 MLOAD SWAP1 PUSH1 0x20 ADD KECCAK256 SWAP1 POP DUP1 SWAP2 POP POP SWAP2 SWAP1 POP JUMP JUMPDEST PUSH1 0x2 PUSH1 0x20 MSTORE DUP2 PUSH0 MSTORE PUSH1 0x40 PUSH0 KECCAK256 DUP2 DUP2 SLOAD DUP2 LT PUSH2 0x62C JUMPI PUSH0 DUP1 REVERT JUMPDEST SWAP1 PUSH0 MSTORE PUSH1 0x20 PUSH0 KECCAK256 ADD PUSH0 SWAP2 POP SWAP2 POP POP SLOAD DUP2 JUMP JUMPDEST PUSH0 DUP3 PUSH1 0x40 MLOAD PUSH1 0x20 ADD PUSH2 0x650 SWAP2 SWAP1 PUSH2 0x103D JUMP JUMPDEST PUSH1 0x40 MLOAD PUSH1 0x20 DUP2 DUP4 SUB SUB DUP2 MSTORE SWAP1 PUSH1 0x40 MSTORE DUP1 MLOAD SWAP1 PUSH1 0x20 ADD KECCAK256 SWAP1 POP PUSH2 0x671 DUP2 PUSH2 0x6D8 JUMP JUMPDEST PUSH2 0x6B0 JUMPI PUSH1 0x40 MLOAD PUSH32 0x8C379A000000000000000000000000000000000000000000000000000000000 DUP2 MSTORE PUSH1 0x4 ADD PUSH2 0x6A7 SWAP1 PUSH2 0x125D JUMP JUMPDEST PUSH1 0x40 MLOAD DUP1 SWAP2 SUB SWAP1 REVERT JUMPDEST PUSH1 0x1 PUSH0 DUP3 DUP2 MSTORE PUSH1 0x20 ADD SWAP1 DUP2 MSTORE PUSH1 0x20 ADD PUSH0 KECCAK256 PUSH0 DUP4 DUP2 MSTORE PUSH1 0x20 ADD SWAP1 DUP2 MSTORE PUSH1 0x20 ADD PUSH0 KECCAK256 PUSH0 SWAP1 SSTORE POP POP POP JUMP JUMPDEST PUSH0 DUP1 PUSH0 SWAP1 POP JUMPDEST PUSH0 DUP1 SLOAD SWAP1 POP DUP2 LT ISZERO PUSH2 0x723 JUMPI DUP3 PUSH0 DUP3 DUP2 SLOAD DUP2 LT PUSH2 0x6FE JUMPI PUSH2 0x6FD PUSH2 0x127B JUMP JUMPDEST JUMPDEST SWAP1 PUSH0 MSTORE PUSH1 0x20 PUSH0 KECCAK256 ADD SLOAD SUB PUSH2 0x716 JUMPI PUSH1 0x1 SWAP2 POP POP PUSH2 0x728 JUMP JUMPDEST DUP1 DUP1 PUSH1 0x1 ADD SWAP2 POP POP PUSH2 0x6DE JUMP JUMPDEST POP PUSH0 SWAP1 POP JUMPDEST SWAP2 SWAP1 POP JUMP JUMPDEST PUSH1 0x60 PUSH0 DUP1 SLOAD DUP1 PUSH1 0x20 MUL PUSH1 0x20 ADD PUSH1 0x40 MLOAD SWAP1 DUP2 ADD PUSH1 0x40 MSTORE DUP1 SWAP3 SWAP2 SWAP1 DUP2 DUP2 MSTORE PUSH1 0x20 ADD DUP3 DUP1 SLOAD DUP1 ISZERO PUSH2 0x778 JUMPI PUSH1 0x20 MUL DUP3 ADD SWAP2 SWAP1 PUSH0 MSTORE PUSH1 0x20 PUSH0 KECCAK256 SWAP1 JUMPDEST DUP2 SLOAD DUP2 MSTORE PUSH1 0x20 ADD SWAP1 PUSH1 0x1 ADD SWAP1 DUP1 DUP4 GT PUSH2 0x764 JUMPI JUMPDEST POP POP POP POP POP SWAP1 POP SWAP1 JUMP JUMPDEST PUSH0 DUP4 PUSH1 0x40 MLOAD PUSH1 0x20 ADD PUSH2 0x794 SWAP2 SWAP1 PUSH2 0x103D JUMP JUMPDEST PUSH1 0x40 MLOAD PUSH1 0x20 DUP2 DUP4 SUB SUB DUP2 MSTORE SWAP1 PUSH1 0x40 MSTORE DUP1 MLOAD SWAP1 PUSH1 0x20 ADD KECCAK256 SWAP1 POP PUSH0 PUSH1 0x1 PUSH0 DUP4 DUP2 MSTORE PUSH1 0x20 ADD SWAP1 DUP2 MSTORE PUSH1 0x20 ADD PUSH0 KECCAK256 PUSH0 DUP6 DUP2 MSTORE PUSH1 0x20 ADD SWAP1 DUP2 MSTORE PUSH1 0x20 ADD PUSH0 KECCAK256 SLOAD SWAP1 POP DUP3 DUP2 LT ISZERO PUSH2 0x813 JUMPI PUSH1 0x40 MLOAD PUSH32 0x8C379A000000000000000000000000000000000000000000000000000000000 DUP2 MSTORE PUSH1 0x4 ADD PUSH2 0x80A SWAP1 PUSH2 0x1318 JUMP JUMPDEST PUSH1 0x40 MLOAD DUP1 SWAP2 SUB SWAP1 REVERT JUMPDEST PUSH0 DUP4 DUP3 PUSH2 0x820 SWAP2 SWAP1 PUSH2 0x1160 JUMP JUMPDEST SWAP1 POP DUP1 PUSH1 0x1 PUSH0 DUP6 DUP2 MSTORE PUSH1 0x20 ADD SWAP1 DUP2 MSTORE PUSH1 0x20 ADD PUSH0 KECCAK256 PUSH0 DUP8 DUP2 MSTORE PUSH1 0x20 ADD SWAP1 DUP2 MSTORE PUSH1 0x20 ADD PUSH0 KECCAK256 DUP2 SWAP1 SSTORE POP DUP5 DUP7 PUSH1 0x40 MLOAD PUSH2 0x856 SWAP2 SWAP1 PUSH2 0x103D JUMP JUMPDEST PUSH1 0x40 MLOAD DUP1 SWAP2 SUB SWAP1 KECCAK256 PUSH32 0x63D7DC4E1BFE09268EEFBB72D02331F90BAFD230C3D4C63D6250E1025C080880 DUP7 TIMESTAMP PUSH1 0x40 MLOAD PUSH2 0x88F SWAP3 SWAP2 SWAP1 PUSH2 0x11C6 JUMP JUMPDEST PUSH1 0x40 MLOAD DUP1 SWAP2 SUB SWAP1 LOG3 POP POP POP POP POP POP JUMP JUMPDEST PUSH0 DUP2 PUSH1 0x40 MLOAD PUSH1 0x20 ADD PUSH2 0x8B1 SWAP2 SWAP1 PUSH2 0x103D JUMP JUMPDEST PUSH1 0x40 MLOAD PUSH1 0x20 DUP2 DUP4 SUB SUB DUP2 MSTORE SWAP1 PUSH1 0x40 MSTORE DUP1 MLOAD SWAP1 PUSH1 0x20 ADD KECCAK256 SWAP1 POP PUSH0 PUSH8 0xFFFFFFFFFFFFFFFF DUP2 GT ISZERO PUSH2 0x8E3 JUMPI PUSH2 0x8E2 PUSH2 0xB11 JUMP JUMPDEST JUMPDEST PUSH1 0x40 MLOAD SWAP1 DUP1 DUP3 MSTORE DUP1 PUSH1 0x20 MUL PUSH1 0x20 ADD DUP3 ADD PUSH1 0x40 MSTORE DUP1 ISZERO PUSH2 0x911 JUMPI DUP2 PUSH1 0x20 ADD PUSH1 0x20 DUP3 MUL DUP1 CALLDATASIZE DUP4 CALLDATACOPY DUP1 DUP3 ADD SWAP2 POP POP SWAP1 POP JUMPDEST POP PUSH1 0x2 PUSH0 DUP4 DUP2 MSTORE PUSH1 0x20 ADD SWAP1 DUP2 MSTORE PUSH1 0x20 ADD PUSH0 KECCAK256 SWAP1 DUP1 MLOAD SWAP1 PUSH1 0x20 ADD SWAP1 PUSH2 0x936 SWAP3 SWAP2 SWAP1 PUSH2 0xA82 JUMP JUMPDEST POP PUSH1 0x1 PUSH0 DUP3 DUP2 MSTORE PUSH1 0x20 ADD SWAP1 DUP2 MSTORE PUSH1 0x20 ADD PUSH0 KECCAK256 PUSH0 DUP1 DUP2 MSTORE PUSH1 0x20 ADD SWAP1 DUP2 MSTORE PUSH1 0x20 ADD PUSH0 KECCAK256 POP PUSH0 DUP2 SWAP1 DUP1 PUSH1 0x1 DUP2 SLOAD ADD DUP1 DUP3 SSTORE DUP1 SWAP2 POP POP PUSH1 0x1 SWAP1 SUB SWAP1 PUSH0 MSTORE PUSH1 0x20 PUSH0 KECCAK256 ADD PUSH0 SWAP1 SWAP2 SWAP1 SWAP2 SWAP1 SWAP2 POP SSTORE POP POP JUMP JUMPDEST PUSH0 DUP4 PUSH1 0x40 MLOAD PUSH1 0x20 ADD PUSH2 0x993 SWAP2 SWAP1 PUSH2 0x103D JUMP JUMPDEST PUSH1 0x40 MLOAD PUSH1 0x20 DUP2 DUP4 SUB SUB DUP2 MSTORE SWAP1 PUSH1 0x40 MSTORE DUP1 MLOAD SWAP1 PUSH1 0x20 ADD KECCAK256 SWAP1 POP PUSH0 DUP3 GT PUSH2 0x9ED JUMPI PUSH1 0x40 MLOAD PUSH32 0x8C379A000000000000000000000000000000000000000000000000000000000 DUP2 MSTORE PUSH1 0x4 ADD PUSH2 0x9E4 SWAP1 PUSH2 0x13A6 JUMP JUMPDEST PUSH1 0x40 MLOAD DUP1 SWAP2 SUB SWAP1 REVERT JUMPDEST PUSH0 DUP3 GT ISZERO PUSH2 0xA7C JUMPI DUP2 PUSH1 0x1 PUSH0 DUP4 DUP2 MSTORE PUSH1 0x20 ADD SWAP1 DUP2 MSTORE PUSH1 0x20 ADD PUSH0 KECCAK256 PUSH0 DUP6 DUP2 MSTORE PUSH1 0x20 ADD SWAP1 DUP2 MSTORE PUSH1 0x20 ADD PUSH0 KECCAK256 PUSH0 DUP3 DUP3 SLOAD PUSH2 0xA24 SWAP2 SWAP1 PUSH2 0x1193 JUMP JUMPDEST SWAP3 POP POP DUP2 SWAP1 SSTORE POP DUP3 DUP5 PUSH1 0x40 MLOAD PUSH2 0xA3A SWAP2 SWAP1 PUSH2 0x103D JUMP JUMPDEST PUSH1 0x40 MLOAD DUP1 SWAP2 SUB SWAP1 KECCAK256 PUSH32 0x139EC90F7C10344B0316E9C3F6B81254B4E872F0927228C243612606BA76B5BC DUP5 TIMESTAMP PUSH1 0x40 MLOAD PUSH2 0xA73 SWAP3 SWAP2 SWAP1 PUSH2 0x11C6 JUMP JUMPDEST PUSH1 0x40 MLOAD DUP1 SWAP2 SUB SWAP1 LOG3 JUMPDEST POP POP POP POP JUMP JUMPDEST DUP3 DUP1 SLOAD DUP3 DUP3 SSTORE SWAP1 PUSH0 MSTORE PUSH1 0x20 PUSH0 KECCAK256 SWAP1 DUP2 ADD SWAP3 DUP3 ISZERO PUSH2 0xABC JUMPI SWAP2 PUSH1 0x20 MUL DUP3 ADD JUMPDEST DUP3 DUP2 GT ISZERO PUSH2 0xABB JUMPI DUP3 MLOAD DUP3 SSTORE SWAP2 PUSH1 0x20 ADD SWAP2 SWAP1 PUSH1 0x1 ADD SWAP1 PUSH2 0xAA0 JUMP JUMPDEST JUMPDEST POP SWAP1 POP PUSH2 0xAC9 SWAP2 SWAP1 PUSH2 0xACD JUMP JUMPDEST POP SWAP1 JUMP JUMPDEST JUMPDEST DUP1 DUP3 GT ISZERO PUSH2 0xAE4 JUMPI PUSH0 DUP2 PUSH0 SWAP1 SSTORE POP PUSH1 0x1 ADD PUSH2 0xACE JUMP JUMPDEST POP SWAP1 JUMP JUMPDEST PUSH0 PUSH1 0x40 MLOAD SWAP1 POP SWAP1 JUMP JUMPDEST PUSH0 DUP1 REVERT JUMPDEST PUSH0 DUP1 REVERT JUMPDEST PUSH0 DUP1 REVERT JUMPDEST PUSH0 DUP1 REVERT JUMPDEST PUSH0 PUSH1 0x1F NOT PUSH1 0x1F DUP4 ADD AND SWAP1 POP SWAP2 SWAP1 POP JUMP JUMPDEST PUSH32 0x4E487B7100000000000000000000000000000000000000000000000000000000 PUSH0 MSTORE PUSH1 0x41 PUSH1 0x4 MSTORE PUSH1 0x24 PUSH0 REVERT JUMPDEST PUSH2 0xB47 DUP3 PUSH2 0xB01 JUMP JUMPDEST DUP2 ADD DUP2 DUP2 LT PUSH8 0xFFFFFFFFFFFFFFFF DUP3 GT OR ISZERO PUSH2 0xB66 JUMPI PUSH2 0xB65 PUSH2 0xB11 JUMP JUMPDEST JUMPDEST DUP1 PUSH1 0x40 MSTORE POP POP POP JUMP JUMPDEST PUSH0 PUSH2 0xB78 PUSH2 0xAE8 JUMP JUMPDEST SWAP1 POP PUSH2 0xB84 DUP3 DUP3 PUSH2 0xB3E JUMP JUMPDEST SWAP2 SWAP1 POP JUMP JUMPDEST PUSH0 PUSH8 0xFFFFFFFFFFFFFFFF DUP3 GT ISZERO PUSH2 0xBA3 JUMPI PUSH2 0xBA2 PUSH2 0xB11 JUMP JUMPDEST JUMPDEST PUSH2 0xBAC DUP3 PUSH2 0xB01 JUMP JUMPDEST SWAP1 POP PUSH1 0x20 DUP2 ADD SWAP1 POP SWAP2 SWAP1 POP JUMP JUMPDEST DUP3 DUP2 DUP4 CALLDATACOPY PUSH0 DUP4 DUP4 ADD MSTORE POP POP POP JUMP JUMPDEST PUSH0 PUSH2 0xBD9 PUSH2 0xBD4 DUP5 PUSH2 0xB89 JUMP JUMPDEST PUSH2 0xB6F JUMP JUMPDEST SWAP1 POP DUP3 DUP2 MSTORE PUSH1 0x20 DUP2 ADD DUP5 DUP5 DUP5 ADD GT ISZERO PUSH2 0xBF5 JUMPI PUSH2 0xBF4 PUSH2 0xAFD JUMP JUMPDEST JUMPDEST PUSH2 0xC00 DUP5 DUP3 DUP6 PUSH2 0xBB9 JUMP JUMPDEST POP SWAP4 SWAP3 POP POP POP JUMP JUMPDEST PUSH0 DUP3 PUSH1 0x1F DUP4 ADD SLT PUSH2 0xC1C JUMPI PUSH2 0xC1B PUSH2 0xAF9 JUMP JUMPDEST JUMPDEST DUP2 CALLDATALOAD PUSH2 0xC2C DUP5 DUP3 PUSH1 0x20 DUP7 ADD PUSH2 0xBC7 JUMP JUMPDEST SWAP2 POP POP SWAP3 SWAP2 POP POP JUMP JUMPDEST PUSH0 DUP2 SWAP1 POP SWAP2 SWAP1 POP JUMP JUMPDEST PUSH2 0xC47 DUP2 PUSH2 0xC35 JUMP JUMPDEST DUP2 EQ PUSH2 0xC51 JUMPI PUSH0 DUP1 REVERT JUMPDEST POP JUMP JUMPDEST PUSH0 DUP2 CALLDATALOAD SWAP1 POP PUSH2 0xC62 DUP2 PUSH2 0xC3E JUMP JUMPDEST SWAP3 SWAP2 POP POP JUMP JUMPDEST PUSH0 DUP1 PUSH0 PUSH1 0x60 DUP5 DUP7 SUB SLT ISZERO PUSH2 0xC7F JUMPI PUSH2 0xC7E PUSH2 0xAF1 JUMP JUMPDEST JUMPDEST PUSH0 DUP5 ADD CALLDATALOAD PUSH8 0xFFFFFFFFFFFFFFFF DUP2 GT ISZERO PUSH2 0xC9C JUMPI PUSH2 0xC9B PUSH2 0xAF5 JUMP JUMPDEST JUMPDEST PUSH2 0xCA8 DUP7 DUP3 DUP8 ADD PUSH2 0xC08 JUMP JUMPDEST SWAP4 POP POP PUSH1 0x20 PUSH2 0xCB9 DUP7 DUP3 DUP8 ADD PUSH2 0xC54 JUMP JUMPDEST SWAP3 POP POP PUSH1 0x40 PUSH2 0xCCA DUP7 DUP3 DUP8 ADD PUSH2 0xC54 JUMP JUMPDEST SWAP2 POP POP SWAP3 POP SWAP3 POP SWAP3 JUMP JUMPDEST PUSH0 DUP1 PUSH0 DUP1 PUSH1 0x80 DUP6 DUP8 SUB SLT ISZERO PUSH2 0xCEC JUMPI PUSH2 0xCEB PUSH2 0xAF1 JUMP JUMPDEST JUMPDEST PUSH0 DUP6 ADD CALLDATALOAD PUSH8 0xFFFFFFFFFFFFFFFF DUP2 GT ISZERO PUSH2 0xD09 JUMPI PUSH2 0xD08 PUSH2 0xAF5 JUMP JUMPDEST JUMPDEST PUSH2 0xD15 DUP8 DUP3 DUP9 ADD PUSH2 0xC08 JUMP JUMPDEST SWAP5 POP POP PUSH1 0x20 PUSH2 0xD26 DUP8 DUP3 DUP9 ADD PUSH2 0xC54 JUMP JUMPDEST SWAP4 POP POP PUSH1 0x40 PUSH2 0xD37 DUP8 DUP3 DUP9 ADD PUSH2 0xC54 JUMP JUMPDEST SWAP3 POP POP PUSH1 0x60 PUSH2 0xD48 DUP8 DUP3 DUP9 ADD PUSH2 0xC54 JUMP JUMPDEST SWAP2 POP POP SWAP3 SWAP6 SWAP2 SWAP5 POP SWAP3 POP JUMP JUMPDEST PUSH0 DUP1 PUSH1 0x40 DUP4 DUP6 SUB SLT ISZERO PUSH2 0xD6A JUMPI PUSH2 0xD69 PUSH2 0xAF1 JUMP JUMPDEST JUMPDEST PUSH0 DUP4 ADD CALLDATALOAD PUSH8 0xFFFFFFFFFFFFFFFF DUP2 GT ISZERO PUSH2 0xD87 JUMPI PUSH2 0xD86 PUSH2 0xAF5 JUMP JUMPDEST JUMPDEST PUSH2 0xD93 DUP6 DUP3 DUP7 ADD PUSH2 0xC08 JUMP JUMPDEST SWAP3 POP POP PUSH1 0x20 PUSH2 0xDA4 DUP6 DUP3 DUP7 ADD PUSH2 0xC54 JUMP JUMPDEST SWAP2 POP POP SWAP3 POP SWAP3 SWAP1 POP JUMP JUMPDEST PUSH2 0xDB7 DUP2 PUSH2 0xC35 JUMP JUMPDEST DUP3 MSTORE POP POP JUMP JUMPDEST PUSH0 PUSH1 0x20 DUP3 ADD SWAP1 POP PUSH2 0xDD0 PUSH0 DUP4 ADD DUP5 PUSH2 0xDAE JUMP JUMPDEST SWAP3 SWAP2 POP POP JUMP JUMPDEST PUSH0 DUP2 SWAP1 POP SWAP2 SWAP1 POP JUMP JUMPDEST PUSH2 0xDE8 DUP2 PUSH2 0xDD6 JUMP JUMPDEST DUP2 EQ PUSH2 0xDF2 JUMPI PUSH0 DUP1 REVERT JUMPDEST POP JUMP JUMPDEST PUSH0 DUP2 CALLDATALOAD SWAP1 POP PUSH2 0xE03 DUP2 PUSH2 0xDDF JUMP JUMPDEST SWAP3 SWAP2 POP POP JUMP JUMPDEST PUSH0 DUP1 PUSH1 0x40 DUP4 DUP6 SUB SLT ISZERO PUSH2 0xE1F JUMPI PUSH2 0xE1E PUSH2 0xAF1 JUMP JUMPDEST JUMPDEST PUSH0 PUSH2 0xE2C DUP6 DUP3 DUP7 ADD PUSH2 0xDF5 JUMP JUMPDEST SWAP3 POP POP PUSH1 0x20 PUSH2 0xE3D DUP6 DUP3 DUP7 ADD PUSH2 0xC54 JUMP JUMPDEST SWAP2 POP POP SWAP3 POP SWAP3 SWAP1 POP JUMP JUMPDEST PUSH0 PUSH1 0x20 DUP3 DUP5 SUB SLT ISZERO PUSH2 0xE5C JUMPI PUSH2 0xE5B PUSH2 0xAF1 JUMP JUMPDEST JUMPDEST PUSH0 DUP3 ADD CALLDATALOAD PUSH8 0xFFFFFFFFFFFFFFFF DUP2 GT ISZERO PUSH2 0xE79 JUMPI PUSH2 0xE78 PUSH2 0xAF5 JUMP JUMPDEST JUMPDEST PUSH2 0xE85 DUP5 DUP3 DUP6 ADD PUSH2 0xC08 JUMP JUMPDEST SWAP2 POP POP SWAP3 SWAP2 POP POP JUMP JUMPDEST PUSH2 0xE97 DUP2 PUSH2 0xDD6 JUMP JUMPDEST DUP3 MSTORE POP POP JUMP JUMPDEST PUSH0 PUSH1 0x20 DUP3 ADD SWAP1 POP PUSH2 0xEB0 PUSH0 DUP4 ADD DUP5 PUSH2 0xE8E JUMP JUMPDEST SWAP3 SWAP2 POP POP JUMP JUMPDEST PUSH0 PUSH1 0x20 DUP3 DUP5 SUB SLT ISZERO PUSH2 0xECB JUMPI PUSH2 0xECA PUSH2 0xAF1 JUMP JUMPDEST JUMPDEST PUSH0 PUSH2 0xED8 DUP5 DUP3 DUP6 ADD PUSH2 0xDF5 JUMP JUMPDEST SWAP2 POP POP SWAP3 SWAP2 POP POP JUMP JUMPDEST PUSH0 DUP2 ISZERO ISZERO SWAP1 POP SWAP2 SWAP1 POP JUMP JUMPDEST PUSH2 0xEF5 DUP2 PUSH2 0xEE1 JUMP JUMPDEST DUP3 MSTORE POP POP JUMP JUMPDEST PUSH0 PUSH1 0x20 DUP3 ADD SWAP1 POP PUSH2 0xF0E PUSH0 DUP4 ADD DUP5 PUSH2 0xEEC JUMP JUMPDEST SWAP3 SWAP2 POP POP JUMP JUMPDEST PUSH0 DUP2 MLOAD SWAP1 POP SWAP2 SWAP1 POP JUMP JUMPDEST PUSH0 DUP3 DUP3 MSTORE PUSH1 0x20 DUP3 ADD SWAP1 POP SWAP3 SWAP2 POP POP JUMP JUMPDEST PUSH0 DUP2 SWAP1 POP PUSH1 0x20 DUP3 ADD SWAP1 POP SWAP2 SWAP1 POP JUMP JUMPDEST PUSH2 0xF46 DUP2 PUSH2 0xDD6 JUMP JUMPDEST DUP3 MSTORE POP POP JUMP JUMPDEST PUSH0 PUSH2 0xF57 DUP4 DUP4 PUSH2 0xF3D JUMP JUMPDEST PUSH1 0x20 DUP4 ADD SWAP1 POP SWAP3 SWAP2 POP POP JUMP JUMPDEST PUSH0 PUSH1 0x20 DUP3 ADD SWAP1 POP SWAP2 SWAP1 POP JUMP JUMPDEST PUSH0 PUSH2 0xF79 DUP3 PUSH2 0xF14 JUMP JUMPDEST PUSH2 0xF83 DUP2 DUP6 PUSH2 0xF1E JUMP JUMPDEST SWAP4 POP PUSH2 0xF8E DUP4 PUSH2 0xF2E JUMP JUMPDEST DUP1 PUSH0 JUMPDEST DUP4 DUP2 LT ISZERO PUSH2 0xFBE JUMPI DUP2 MLOAD PUSH2 0xFA5 DUP9 DUP3 PUSH2 0xF4C JUMP JUMPDEST SWAP8 POP PUSH2 0xFB0 DUP4 PUSH2 0xF63 JUMP JUMPDEST SWAP3 POP POP PUSH1 0x1 DUP2 ADD SWAP1 POP PUSH2 0xF91 JUMP JUMPDEST POP DUP6 SWAP4 POP POP POP POP SWAP3 SWAP2 POP POP JUMP JUMPDEST PUSH0 PUSH1 0x20 DUP3 ADD SWAP1 POP DUP2 DUP2 SUB PUSH0 DUP4 ADD MSTORE PUSH2 0xFE3 DUP2 DUP5 PUSH2 0xF6F JUMP JUMPDEST SWAP1 POP SWAP3 SWAP2 POP POP JUMP JUMPDEST PUSH0 DUP2 MLOAD SWAP1 POP SWAP2 SWAP1 POP JUMP JUMPDEST PUSH0 DUP2 SWAP1 POP SWAP3 SWAP2 POP POP JUMP JUMPDEST DUP3 DUP2 DUP4 MCOPY PUSH0 DUP4 DUP4 ADD MSTORE POP POP POP JUMP JUMPDEST PUSH0 PUSH2 0x1017 DUP3 PUSH2 0xFEB JUMP JUMPDEST PUSH2 0x1021 DUP2 DUP6 PUSH2 0xFF5 JUMP JUMPDEST SWAP4 POP PUSH2 0x1031 DUP2 DUP6 PUSH1 0x20 DUP7 ADD PUSH2 0xFFF JUMP JUMPDEST DUP1 DUP5 ADD SWAP2 POP POP SWAP3 SWAP2 POP POP JUMP JUMPDEST PUSH0 PUSH2 0x1048 DUP3 DUP5 PUSH2 0x100D JUMP JUMPDEST SWAP2 POP DUP2 SWAP1 POP SWAP3 SWAP2 POP POP JUMP JUMPDEST PUSH0 DUP3 DUP3 MSTORE PUSH1 0x20 DUP3 ADD SWAP1 POP SWAP3 SWAP2 POP POP JUMP JUMPDEST PUSH32 0x53746F726520646F6573206E6F74206578697374000000000000000000000000 PUSH0 DUP3 ADD MSTORE POP JUMP JUMPDEST PUSH0 PUSH2 0x1097 PUSH1 0x14 DUP4 PUSH2 0x1053 JUMP JUMPDEST SWAP2 POP PUSH2 0x10A2 DUP3 PUSH2 0x1063 JUMP JUMPDEST PUSH1 0x20 DUP3 ADD SWAP1 POP SWAP2 SWAP1 POP JUMP JUMPDEST PUSH0 PUSH1 0x20 DUP3 ADD SWAP1 POP DUP2 DUP2 SUB PUSH0 DUP4 ADD MSTORE PUSH2 0x10C4 DUP2 PUSH2 0x108B JUMP JUMPDEST SWAP1 POP SWAP2 SWAP1 POP JUMP JUMPDEST PUSH32 0x437573746F6D657220494420616C726561647920657869737473000000000000 PUSH0 DUP3 ADD MSTORE POP JUMP JUMPDEST PUSH0 PUSH2 0x10FF PUSH1 0x1A DUP4 PUSH2 0x1053 JUMP JUMPDEST SWAP2 POP PUSH2 0x110A DUP3 PUSH2 0x10CB JUMP JUMPDEST PUSH1 0x20 DUP3 ADD SWAP1 POP SWAP2 SWAP1 POP JUMP JUMPDEST PUSH0 PUSH1 0x20 DUP3 ADD SWAP1 POP DUP2 DUP2 SUB PUSH0 DUP4 ADD MSTORE PUSH2 0x112C DUP2 PUSH2 0x10F3 JUMP JUMPDEST SWAP1 POP SWAP2 SWAP1 POP JUMP JUMPDEST PUSH32 0x4E487B7100000000000000000000000000000000000000000000000000000000 PUSH0 MSTORE PUSH1 0x11 PUSH1 0x4 MSTORE PUSH1 0x24 PUSH0 REVERT JUMPDEST PUSH0 PUSH2 0x116A DUP3 PUSH2 0xC35 JUMP JUMPDEST SWAP2 POP PUSH2 0x1175 DUP4 PUSH2 0xC35 JUMP JUMPDEST SWAP3 POP DUP3 DUP3 SUB SWAP1 POP DUP2 DUP2 GT ISZERO PUSH2 0x118D JUMPI PUSH2 0x118C PUSH2 0x1133 JUMP JUMPDEST JUMPDEST SWAP3 SWAP2 POP POP JUMP JUMPDEST PUSH0 PUSH2 0x119D DUP3 PUSH2 0xC35 JUMP JUMPDEST SWAP2 POP PUSH2 0x11A8 DUP4 PUSH2 0xC35 JUMP JUMPDEST SWAP3 POP DUP3 DUP3 ADD SWAP1 POP DUP1 DUP3 GT ISZERO PUSH2 0x11C0 JUMPI PUSH2 0x11BF PUSH2 0x1133 JUMP JUMPDEST JUMPDEST SWAP3 SWAP2 POP POP JUMP JUMPDEST PUSH0 PUSH1 0x40 DUP3 ADD SWAP1 POP PUSH2 0x11D9 PUSH0 DUP4 ADD DUP6 PUSH2 0xDAE JUMP JUMPDEST PUSH2 0x11E6 PUSH1 0x20 DUP4 ADD DUP5 PUSH2 0xDAE JUMP JUMPDEST SWAP4 SWAP3 POP POP POP JUMP JUMPDEST PUSH32 0x456C656D656E7420646F6573206E6F7420657869737420696E20746865206172 PUSH0 DUP3 ADD MSTORE PUSH32 0x7261790000000000000000000000000000000000000000000000000000000000 PUSH1 0x20 DUP3 ADD MSTORE POP JUMP JUMPDEST PUSH0 PUSH2 0x1247 PUSH1 0x23 DUP4 PUSH2 0x1053 JUMP JUMPDEST SWAP2 POP PUSH2 0x1252 DUP3 PUSH2 0x11ED JUMP JUMPDEST PUSH1 0x40 DUP3 ADD SWAP1 POP SWAP2 SWAP1 POP JUMP JUMPDEST PUSH0 PUSH1 0x20 DUP3 ADD SWAP1 POP DUP2 DUP2 SUB PUSH0 DUP4 ADD MSTORE PUSH2 0x1274 DUP2 PUSH2 0x123B JUMP JUMPDEST SWAP1 POP SWAP2 SWAP1 POP JUMP JUMPDEST PUSH32 0x4E487B7100000000000000000000000000000000000000000000000000000000 PUSH0 MSTORE PUSH1 0x32 PUSH1 0x4 MSTORE PUSH1 0x24 PUSH0 REVERT JUMPDEST PUSH32 0x496E73756666696369656E742062616C616E636520746F207075726368617365 PUSH0 DUP3 ADD MSTORE PUSH32 0x206974656D000000000000000000000000000000000000000000000000000000 PUSH1 0x20 DUP3 ADD MSTORE POP JUMP JUMPDEST PUSH0 PUSH2 0x1302 PUSH1 0x25 DUP4 PUSH2 0x1053 JUMP JUMPDEST SWAP2 POP PUSH2 0x130D DUP3 PUSH2 0x12A8 JUMP JUMPDEST PUSH1 0x40 DUP3 ADD SWAP1 POP SWAP2 SWAP1 POP JUMP JUMPDEST PUSH0 PUSH1 0x20 DUP3 ADD SWAP1 POP DUP2 DUP2 SUB PUSH0 DUP4 ADD MSTORE PUSH2 0x132F DUP2 PUSH2 0x12F6 JUMP JUMPDEST SWAP1 POP SWAP2 SWAP1 POP JUMP JUMPDEST PUSH32 0x506F696E7473206164646564206D757374206265206772656174657220746861 PUSH0 DUP3 ADD MSTORE PUSH32 0x6E20300000000000000000000000000000000000000000000000000000000000 PUSH1 0x20 DUP3 ADD MSTORE POP JUMP JUMPDEST PUSH0 PUSH2 0x1390 PUSH1 0x23 DUP4 PUSH2 0x1053 JUMP JUMPDEST SWAP2 POP PUSH2 0x139B DUP3 PUSH2 0x1336 JUMP JUMPDEST PUSH1 0x40 DUP3 ADD SWAP1 POP SWAP2 SWAP1 POP JUMP JUMPDEST PUSH0 PUSH1 0x20 DUP3 ADD SWAP1 POP DUP2 DUP2 SUB PUSH0 DUP4 ADD MSTORE PUSH2 0x13BD DUP2 PUSH2 0x1384 JUMP JUMPDEST SWAP1 POP SWAP2 SWAP1 POP JUMP INVALID LOG2 PUSH5 0x6970667358 0x22 SLT KECCAK256 CREATE SWAP8 DUP9 JUMPI 0xEE PUSH9 0xA73BE1B0E37B984FB5 0xED 0xA5 0xBA DUP2 MLOAD 0xAA RETURN RETURN PUSH27 0xF8530978D7EFE37B64736F6C634300081900330000000000000000 "
				},
				"gasEstimates": {
					"creation": {
						"codeDepositCost": "1022800",
						"executionCost": "1059",
						"totalCost": "1023859"
					},
					"external": {
						"Balances(bytes32,uint256)": "infinite",
						"CustomersID(bytes32,uint256)": "infinite",
						"checkStoreExists(bytes32)": "infinite",
						"createCard(string,uint256,uint256)": "infinite",
						"createStore(string)": "infinite",
						"deleteCard(string,uint256)": "infinite",
						"getBalance(string,uint256)": "infinite",
						"getHashedStore(string)": "infinite",
						"itemBought(string,uint256,uint256)": "infinite",
						"rERC5b4PoR51qWEvAWuJsX6yRVRBvRVta7(string,uint256,uint256)": "infinite",
						"returnStores()": "infinite",
						"setBalance(string,uint256,uint256)": "infinite",
						"transferPoints(string,uint256,uint256,uint256)": "infinite"
					}
				},
				"methodIdentifiers": {
					"Balances(bytes32,uint256)": "66ebf414",
					"CustomersID(bytes32,uint256)": "7c49febb",
					"checkStoreExists(bytes32)": "8b2d7c55",
					"createCard(string,uint256,uint256)": "1a231600",
					"createStore(string)": "d0e04fe3",
					"deleteCard(string,uint256)": "89e9bfec",
					"getBalance(string,uint256)": "5b709861",
					"getHashedStore(string)": "71e4fd37",
					"itemBought(string,uint256,uint256)": "a2ffdcd6",
					"rERC5b4PoR51qWEvAWuJsX6yRVRBvRVta7(string,uint256,uint256)": "e82bcfea",
					"returnStores()": "92a51aeb",
					"setBalance(string,uint256,uint256)": "2a8e9219",
					"transferPoints(string,uint256,uint256,uint256)": "4e64f16d"
				}
			},
			"storageLayout": {
				"storage": [
					{
						"astId": 4,
						"contract": "pcd2/LoyaltyChain.sol:LoyaltyChain",
						"label": "stores",
						"offset": 0,
						"slot": "0",
						"type": "t_array(t_bytes32)dyn_storage"
					},
					{
						"astId": 10,
						"contract": "pcd2/LoyaltyChain.sol:LoyaltyChain",
						"label": "Balances",
						"offset": 0,
						"slot": "1",
						"type": "t_mapping(t_bytes32,t_mapping(t_uint256,t_uint256))"
					},
					{
						"astId": 15,
						"contract": "pcd2/LoyaltyChain.sol:LoyaltyChain",
						"label": "CustomersID",
						"offset": 0,
						"slot": "2",
						"type": "t_mapping(t_bytes32,t_array(t_uint256)dyn_storage)"
					}
				],
				"types": {
					"t_array(t_bytes32)dyn_storage": {
						"base": "t_bytes32",
						"encoding": "dynamic_array",
						"label": "bytes32[]",
						"numberOfBytes": "32"
					},
					"t_array(t_uint256)dyn_storage": {
						"base": "t_uint256",
						"encoding": "dynamic_array",
						"label": "uint256[]",
						"numberOfBytes": "32"
					},
					"t_bytes32": {
						"encoding": "inplace",
						"label": "bytes32",
						"numberOfBytes": "32"
					},
					"t_mapping(t_bytes32,t_array(t_uint256)dyn_storage)": {
						"encoding": "mapping",
						"key": "t_bytes32",
						"label": "mapping(bytes32 => uint256[])",
						"numberOfBytes": "32",
						"value": "t_array(t_uint256)dyn_storage"
					},
					"t_mapping(t_bytes32,t_mapping(t_uint256,t_uint256))": {
						"encoding": "mapping",
						"key": "t_bytes32",
						"label": "mapping(bytes32 => mapping(uint256 => uint256))",
						"numberOfBytes": "32",
						"value": "t_mapping(t_uint256,t_uint256)"
					},
					"t_mapping(t_uint256,t_uint256)": {
						"encoding": "mapping",
						"key": "t_uint256",
						"label": "mapping(uint256 => uint256)",
						"numberOfBytes": "32",
						"value": "t_uint256"
					},
					"t_uint256": {
						"encoding": "inplace",
						"label": "uint256",
						"numberOfBytes": "32"
					}
				}
			},
			"userdoc": {
				"kind": "user",
				"methods": {},
				"version": 1
			}
		}
	}
}